:020000040800F2
:1018000010300020F5A30008219C00084D9C000822
:10181000A59C0008A79C0008A99C000800000000E7
:10182000000000000000000000000000AB9C000869
:10183000AD9C000800000000AF9C0008C9830008B0
:101840002DA6000831A6000835A6000839A6000814
:101850003DA60008038F0008A94D0008D14E0008DE
:10186000E54E0008534F000841A6000845A60008B1
:1018700049A600084DA6000851A6000855A6000874
:1018800059A60008C72400085DA6000861A6000844
:1018900065A6000869A600086DA6000871A60008E4
:1018A00075A6000879A600087DA6000881A6000894
:1018B00085A6000889A600088DA6000891A6000844
:1018C00095A6000899A600089DA60008A1A60008F4
:1018D000A5A60008A9A6000891250008ADA6000845
:1018E000B1A60008B5A60008B9A60008BDA6000864
:1018F000C1A60008C5A60008C9A60008CDA6000814
:10190000D1A60008D5A60008FD9B0008D9A60008AE
:1019100093230008DDA60008E1A60008E5A600085C
:10192000E9A60008EDA60008F1A600085523000866
:10193000DFF87C0D0068704770B5040000250026B4
:101940000420050000200600F6B2EDB2AE4280F0A1
:101950008680F6B254F836000078C0F3C200C0B2F8
:1019600002285AD1FFF7E4FFF6B254F83610D1F846
:101970000110884271D3F6B254F83600007810F0A6
:10198000C700F6B254F836100870F6B230000028DE
:1019900004D0022819D003282ED03DE0012000F009
:1019A000DCF8FFF7C5FF10F5C170DFF8CC1CC1F8FB
:1019B0000100DFF8D40B01F003FA020092B2DFF865
:1019C000C81B012000F056FA47E0002000F0C5F8DF
:1019D000FFF7AEFF10F5C170DFF89C1CC1F80100E5
:1019E000DFF8A80B01F0ECF9020092B2DFF89C1BC3
:1019F000012000F03FFA30E0002001F019FA002049
:101A0000DFF8B01C0880DFF8940D007810F0C700F4
:101A1000DFF8881D087020E01FE0F6B254F83600A9
:101A20000078C0F3C200C0B2032816D1F6B254F851
:101A30003600007810F0C700F6B254F8361008707F
:101A4000F6B23000012802D0032803D005E001F0EF
:101A500003FA02E000F0B0FAFFE7761C74E770BD0D
:101A600080B500F021F8DFF8100C007810F0C70006
:101A7000DFF8041C0870DFF8400C007810F0C70095
:101A8000DFF8341C0870DFF8340C007810F0C70061
:101A9000DFF8281C0870DFF8040D007810F0C7008C
:101AA000DFF8F81C087001BD80B500208DF800003B
:101AB0004FF47A61DFF8080C01F058FD40F2E24182
:101AC000DFF8000C01F052FD0020DFF8FC1B08706D
:101AD0000020DFF8F41B487000AB1022FA21DFF879
:101AE000E00B01F0A4FCDFF8A41D08609DF80000E5
:101AF000002801D001F072FC9DF800000028EBD115
:101B000001BD80B5FFF7ACFF002000F026F80120F2
:101B100000F023F801BD70B504000D00160001218E
:101B20002088002802D0D3280BD010E0DFF89C0BCF
:101B300001F09AFEDFF80C0EFFF7FEFE0021D32025
:101B40002080C9B2002901D1012005E0EEE7002084
:101B5000010000202080032070BD10B586B0040075
:101B60000121E4B2DFF8380C50F82400E4B2DFF8C9
:101B7000342C52F82420104350F0010001F074FF7F
:101B8000E4B2002C08D10121E4B2DFF8800C50F857
:101B9000240001F078FF07E00121E4B2DFF86C0CCB
:101BA00050F8240001F06FFF18208DF80300E4B214
:101BB000DFF85C0C30F81400ADF8000003208DF85D
:101BC000020000A9E4B2DFF84C0C50F8240001F048
:101BD000F3FF48208DF80300E4B2DFF83C0C30F846
:101BE0001400ADF8000000A9E4B2DFF8A40C50F82E
:101BF000240001F0E1FFE4B2DFF8980C50F8240073
:101C000001904FF48050ADF808000020ADF80A00B4
:101C10004FF48060ADF80C000020ADF810000C20EF
:101C2000ADF80E0001A9E4B2DFF8840D50F82400ED
:101C300002F0A4F80121E4B2DFF8740D50F824009A
:101C400002F00EF90121E4B2DFF84C0C50F8240048
:101C500001F0FBFE2021E4B2DFF8540D50F824001F
:101C600002F046F9012240F22551E4B2DFF8400DBE
:101C700050F8240002F002F901228021E4B2DFF8DA
:101C8000300D50F8240002F024F906B010BD0EB457
:101C90002DE9F04FBAB00400002600275FF00008DD
:101CA0005FF000090DF11C0A00208DF800005FF0C4
:101CB000000B43A805002B002200C82107A802F052
:101CC00061F906003700B6B2002E00F0CC80B6B243
:101CD000C92E80F0C880B6B20C20B6FBF0F100FB34
:101CE0001160002806D0B6B20C20B6FBF0F0401C04
:101CF000804604E0B6B20C20B6FBF0F0804600202F
:101D00008146FFF715FE83465FFA89F95FFA88F886
:101D1000C14578D2FFF70CFEB0EB0B00652872D2FC
:101D200002F05AF901A9DFF8640B006801F004FC25
:101D30008DF800009DF800000028E5D105980028E6
:101D4000E2D000A9DFF8440B006801F0BBFB001DE6
:101D5000DFF8741909780522DFF86C3902FB0131CC
:101D6000C1F802009DF800000028CDD1B6B20D2EBA
:101D70001BD30C225146DFF8500900780523DFF809
:101D800048C903FB00C0D0F8020002F035F90C206E
:101D9000DFF8341909780522DFF82C3902FB01310C
:101DA00088710C3E1AF10C0A17E0320092B25146CB
:101DB000DFF8140900780523DFF80CC903FB00C025
:101DC000D0F8020002F018F9DFF8FC0800780521CD
:101DD000DFF8F42801FB00208671FFF7A9FD834698
:101DE00019F10109DFF8E0080078401CDFF8D81885
:101DF0000870DFF8D4080078FA2885DB0020DFF8C7
:101E0000C818087080E7DFF870080078C0F3C200D7
:101E1000C0B2022827D00220DFF85C18097860F3EE
:101E2000C501DFF854080170FFF782FD10F5C1709D
:101E3000DFF84418C1F80100DFF88C08407805216C
:101E4000DFF8842801FB0020827992B2DFF878085D
:101E500040780521DFF8703801FB0030D0F802101F
:101E6000012000F007F8BFB238003AB0BDE8F00F2B
:101E70005DF810FBF0B58BB004000D001600B6B293
:101E8000002E00F08A80E4B2DFF8F40B30F8140082
:101E9000B6B2B04205D2E4B2DFF8E40B30F8140079
:101EA0000600E4B2DFF8DC0B50F8240002F0CEF8B4
:101EB000E4B2DFF8D40B50F8240000900195102014
:101EC0000290B6B203960020049080200590002076
:101ED000069000200790002008904FF48050099051
:101EE00000200A9000A9E4B2DFF8980B50F8240013
:101EF00002F031F901220A21E4B2DFF8880B50F830
:101F0000240002F055F90121E4B2DFF8780B50F813
:101F1000240002F03FF9E4B2002C1FD10220DFF8C8
:101F20009C17097860F3C501DFF890070170FFF78F
:101F3000FFFC0700B6B2300002F08CF95FF05532BA
:101F4000DFF8483B02F094F902F064FA80B2C0195D
:101F50006430DFF86817C1F801001EE00220DFF8E6
:101F60001817097860F3C501DFF80C070170FFF757
:101F7000DFFC0700B6B2300002F06CF9DFF8102B7E
:101F8000DFF8103B02F074F902F044FA80B2C01995
:101F90006430DFF8E416C1F801000BB0F0BD0200B8
:101FA00000200B00591E9BB2002B03D01378181889
:101FB000521CF6E7C0B2704738B5DFF8DC0AFFF70D
:101FC00066FE00242000C0B2DFF8E816498880B21F
:101FD000884209D2E4B2DFF8C40A215CDFF8C00A03
:101FE000FFF755FE641CEDE7D9A0FFF750FEDFF8C0
:101FF000AC0A4078DFF8A41A89784FF4807202FBAB
:102000000104DFF8980A0079400740F14281DFF8C7
:102010008C0A807D132840F0D980DFF8800AC07DCB
:10202000012842D1DFF8740A007E00283DD1DFF894
:102030006C0A407E022838D1DFF8600A027F92B233
:10204000DFF8601ADFF8600A01F0D6FF1222DFF82D
:102050005C1ADFF8480A007FDFF84C3AC01801F03C
:10206000CBFFDFF84C0AFFF712FE0025ADB2DFF818
:102070002C0A007F1230854209DAADB2DFF8280A57
:10208000295CDFF81C0AFFF702FE6D1CEEE7B0A02A
:10209000FFF7FDFDDFF8040A007F10F11201C9B25D
:1020A000DFF8040A02F017FD51E1DFF8F009C07D06
:1020B000082840F04C81DFF8E409007E022840F057
:1020C0004681DFF8D809407E032840F0408168202F
:1020D000DFF8D41908709920DFF8CC1948709920DE
:1020E000DFF8C41988709920DFF8BC19C8709920EE
:1020F000DFF8B41908719920DFF8AC1948719920FC
:10210000DFF8A41988716820DFF89C19C8711420C1
:10211000DFF8941908720520DFF88C194872012045
:10212000DFF8841988720020DFF87C19C87200205B
:10213000DFF8741908736920DFF86C194873DFF849
:102140005C09C07FDFF8601988730020C0B20528E1
:102150000CDAC0B2DFF850194118897A3331C0B2B5
:10216000DFF8442982189172401CEFE70F21DFF855
:102170003809FFF714FFDFF83019C8731620DFF8AD
:1021800028190874DFF82009407A10F10C01C9B24F
:10219000DFF8140902F09FFCDFF87C0BFFF777FDF6
:1021A0000025ADB2DFF80009407A0C30854209DA2B
:1021B000ADB2DFF8F408295CDFF8E408FFF767FD4B
:1021C0006D1CEEE762A0FFF762FDC0E0DFF8CC080F
:1021D000807D032840F0BB80DFF8C008C07D012867
:1021E00040F0B580DFF8B408007E002840F0AF80F2
:1021F0006820DFF8B41808700622DFF8201BDFF82B
:10220000200B01F0F9FE6820DFF89C18C87111203E
:10221000DFF8941808720420DFF88C184872022046
:10222000DFF8841888720020DFF87C18C87200205C
:10223000DFF8741808736A20DFF86C184873002000
:10224000C0B204280CDAC0B2DFF85C184118897AF1
:102250003331C0B2DFF8502882189172401CEFE78A
:102260000E21DFF84408FFF79AFEDFF83C18887368
:102270001620DFF83418C8731222DFF83018DFF8A0
:10228000A40A01F0B9FE2221DFF81C0802F023FCA9
:102290005DE0DFF80808807A12283BD1220092B274
:1022A000DFF8F817DFF8000801F0A6FE0020DFF8DD
:1022B000F81788720120DFF8F017C8720020DFF8E5
:1022C000E81708730A21DFF8600AFFF768FEDFF8F5
:1022D000D81748731620DFF8D0178873DFF84C0A38
:1022E000FFF7D5FC0025ADB20F2D09DAADB2DFF84E
:1022F000B807295CDFF8A807FFF7C9FC6D1CF2E7F7
:1023000013A0FFF7C4FC0F22DFF89C17002000F099
:102310008AF91CE0DFF88407807A152817D1DFF8E6
:102320007C07C07A012812D1DFF87007007B0028F3
:102330000DD1DFF86807407ADFF8F8190870DFF888
:10234000F8298621DFF8F40901F04DFAFFE731BDE5
:102350000D0A000080B5DFF8E80901F034FF00281D
:102360000CD0DFF8DC0901F043FFD448007810F00E
:10237000C700D2490870012000F05AFDDFF8C409F7
:1023800001F021FF002803D0DFF8B80901F030FF89
:1023900001BD80B540F22551DFF8AC0901F0AEFD7A
:1023A000002800F08F80C3480088FF2802DD00204D
:1023B000C0490880DFF8900901F096FDBD49098801
:1023C000DFF8D82688540220DFF8D013097860F3AC
:1023D000C501DFF8C8030170FFF7AAFAC830DFF8BB
:1023E000BC13C1F80100002000F018FDB1480088BE
:1023F000002802D0032819D02AE0AE480088DFF870
:102400009C16405C68280BD00020AA490880DFF8A1
:102410008C03007810F0C700DFF88013087004E028
:10242000A4480088401CA34908804BE0DFF86C06F4
:102430004078DFF8681689784FF4807202FB01005B
:102440009C4948809B480088401C9A49088039E094
:1024500098480088401C974908809648008895490C
:10246000498888422ED193480088DFF830164018FA
:1024700010F8010C16281CD18E484088411F89B2E3
:10248000DFF8C808FFF78BFD8A490988DFF80C26BA
:10249000891811F8021CC0B281420AD10320BF4939
:1024A000097860F3C501BD480170002081490880AA
:1024B00008E000207F490880B848007810F0C70085
:1024C000B649087001BD10B500245FF0007001F03E
:1024D0007AFE00284DD05FF0007001F089FE66485A
:1024E000007810F0C70064490870774840780521EB
:1024F000754A01FB0020D0F80200011FE348006884
:1025000000F0FFFF0400E4B2002C32D16E484078A6
:10251000401C6D4948706C484078FA2802DB002066
:10252000694948706848407867490978884220D0EE
:1025300002205149097860F3C5014F480170FFF747
:10254000F7F910F5C1704C49C1F801005E484078B8
:1025500005215D4A01FB0020827992B25A484078F9
:102560000521594B01FB0030D0F802100120FFF784
:1025700081FC5FF0006001F026FE002803D05FF0D0
:10258000006001F035FE10BDDCA00008F4A00008DA
:1025900080B540F22551DFF8B80701F0AFFC002804
:1025A00040D0DFF8AC0701F09FFCDFF8A8170988DE
:1025B0001E2903DB0021DFF89C271180C0B2082808
:1025C0000CD1DFF89017098800292BD0DFF8841789
:1025D0000988491EDFF87C27118023E0DFF8741793
:1025E0000988DFF874278854DFF868170988491CC0
:1025F000DFF860271180C0B20D2802D0C0B20A28CF
:1026000010D103212C4A127861F3C5022A490A70BD
:10261000DFF840170988DFF83C2751800021DFF8F8
:102620003427118001BD70B504000D001600320082
:1026300092B229002000C0B2FFF71CFC70BD30B47C
:1026400080B2082190FBF1F1DFF81027891880B2E1
:10265000082290FBF2F2DFF80437D218D27A012375
:1026600080B2082490FBF4F505FB1405AB401A4337
:10267000CA7230BC704700006401002010B4010031
:1026800089B2082091FBF0F0DFF8D0268018C07ADC
:10269000012289B2082391FBF3F404FB1314A24036
:1026A000104201D0012000E0002010BC7047000063
:1026B000E81F0020F41F00206C010020740100209E
:1026C000800600209E0100209C01002004010020C3
:1026D00038B504000025ADB2A4B2A54209D2280045
:1026E00080B2FFF7CBFF002801D1002002E06D1C73
:1026F000F1E7012032BD2DE9F04182B004004FF630
:10270000FF7627005FF000083800471E80B20028DF
:1027100014D0012200A9404602F0C9FD18F10108B9
:10272000B6B2300080B29DF800104840C0B2DFF869
:10273000301631F8100090EA1626E5E786F47F4659
:1027400096F0FF06B6B23100DFF81806FFF79FFAE1
:10275000012200A9404602F0AAFD18F101089DF8E7
:1027600000004FF4807148430500012200A9404653
:1027700002F09DFD18F101089DF800004519ADB269
:102780002900DFF8E405FFF782FAB6B2ADB2AE4237
:1027900001D1002000E00120BDE8F6817C0100208D
:1027A00088A5000890A50008F0B5A1B004000D00B0
:1027B0001600A4B2802000FB04F772B6F6B2320015
:1027C0002900380002F019FD62B64FF47A7002F069
:1027D00083FDF6B2320000A9380002F068FD002047
:1027E000C0B2F6B2B0420FD2C0B2415DC0B200AAD0
:1027F000825C914206D0A4B22100DFF87005FFF799
:1028000046FA01E0401CEBE721B0F0BD80A50008CE
:1028100020A600084C01002024A6000870B5040082
:10282000DFF84C6530784FF48071727801FB00203E
:102830002081B0784FF48071F27801FB0020208075
:1028400030794FF48071727901FB00206080B0799B
:10285000A07296F887004FF4807196F8882001FBEB
:102860000020E0808022F11D14F10B0001F0D4FB68
:102870008721200002F046FDE188884201D1012530
:1028800000E000252800C0B270BD00002016002026
:102890005401002078A5000898A5000810B5A4B040
:1028A000040020894FF4807190FBF1F08DF8000056
:1028B00020894FF4807190FBF1F202FB11028DF838
:1028C0000120208880B2000A8DF8020020888DF84F
:1028D0000300608880B2000A8DF8040060888DF8DB
:1028E0000500A07A8DF80600802214F10B010DF18D
:1028F000070001F091FB872100A802F003FDE080B2
:10290000E08880B2000A8DF88700E0888DF88800A2
:10291000DFF85C0402F010FD042805D1892200A92B
:10292000DFF84C0402F037FD24B010BD80B58B22D7
:102930000021DFF8280401F07DFBDFF82004FFF719
:10294000ADFF01BD8800002080B502F05BFBDFF821
:102950000C04FFF763FFDFF80404807A00280FD02F
:1029600002280CD003D3042811D017D31DE0DFF8C0
:10297000EC030088002801D1FFF7D8FF17E016E02C
:102980008B220021DFF8D40301F054FB0FE0DFF8C5
:10299000E403FFF77CF9FFF7C9FF08E0DFF8D8038D
:1029A000FFF775F9FFF7C2FF01E0FFF7BFFF01BDB9
:1029B0004401002010B402780A7242784A72827888
:1029C0008A72C27803794FF4807404FB03220A8070
:1029D000427983794FF4807404FB03224A60427A7F
:1029E000837A4FF4807404FB03224A8000F20B02C6
:1029F000C1F80B2010BC704738B504000D006168A9
:102A0000DFF87803FFF743F96288D2B2D4F80B10ED
:102A1000606880B2FFF7C8FE60682188491E88425E
:102A200006D12088401E8021628801FB002028807A
:102A3000606880B2FFF703FE6888FFF749FE01284F
:102A400019D1DFF83C03FFF722F92888FFF753FE7E
:102A500000280AD10220A8722800FFF71FFFDFF824
:102A60002403FFF714F9012009E0FFF75FFFC648D0
:102A7000FFF70DF902E02800FFF710FF002032BD3C
:102A800028A600085C010020A0A500085555F23FCB
:102A90001CC7711CC771B83F4CA20008481C00201D
:102AA00070A50008651C0020481B00204C1C00205D
:102AB000B4A30008F8B504000D0016000121208819
:102AC00000280BD040F28C42801A0BD016383FD031
:102AD000001F56D04A3800F0098116E1002140F26B
:102AE0008C402080C9B2002901D1012012E1EDB251
:102AF000862DF3D1A5480660A549A4480068FFF7D4
:102B000059FFA3484068A2490988884203D3A148D5
:102B1000FFF7BDF8E2E79148807A002849D19C4848
:102B20004068002845D19C48FFF7B1F88B2200216E
:102B30008A4801F07FFA0221002002F01FFB4FF4C7
:102B40007A71964802F08CFD002140F2A24020806C
:102B5000C9B2002905D0EDB2882D02D18F48864236
:102B600001D00120D6E002215FF4803002F006FBA4
:102B70004FF47A71894802F073FD002140F2A640BB
:102B80002080C9B2002905D0EDB2882D02D183483A
:102B9000864201D00120BDE00120704988727C4846
:102BA00000886E4948806D4841887D48FFF76FF87E
:102BB00014E06A48807A01280AD17548406880B2DA
:102BC000FFF75CFD012809D17648FFF760F885E73B
:102BD0008B220021614801F02DFA7FE76C484068A4
:102BE0006B490988491E88420ED169480088401EF9
:102BF0008021674A528801FB0020584908805748C5
:102C000001886948FFF743F854496148FFF7F4FE2B
:102C10006649087068206649087013206449487046
:102C2000002063498870CA206149C870002060494B
:102C3000087100205E49487100205D4988710020BC
:102C40005B49C87100205A4908723A4800785849CF
:102C5000487215205649887201205549C8720020D3
:102C6000534908734A484068514948734848406886
:102C7000000A4F49887346484068000C4C49C873A5
:102C800043484068C00D4A4908740E212648FFF7A2
:102C900086F94749487416204549887413224449E7
:102CA0000020FFF7C0FC4348FEF7F1FF0027FFB20A
:102CB000132F07DAFFB23E48395C3F48FEF7E7FFC3
:102CC0007F1CF4E71AA0FEF7E2FF384800780028DE
:102CD0003FF404AF0020354908704FF4FA712F48D3
:102CE00002F0BEFC00214FF49E602080C9B2002992
:102CF00005D0EDB2882D02D12848864201D00120AE
:102D000008E02E48FEF7C3FFE8E60020010000209F
:102D100020800320F2BD0000C4A30008581C00203E
:102D2000491B0020581B00204B1B0020DC9F000883
:102D30000D0A000009200020551C0020140100206D
:102D40000000021000000810004C00404B1C002046
:102D500000440040F81F0020401F0020E01D00201C
:102D6000EC9100080CA1000824A100083CA1000877
:102D7000FFFF0308D4A3000860A20008F89F000822
:102D800054A1000874A2000888A20008FC1F0020BB
:102D9000801F00209CA20008E4A30008901F0020D0
:102DA00014A00008B0A2000830A000080A200020EB
:102DB000481B00204C9F000870A500086CA100086B
:102DC0000100002210000A00511C1278002A01D0D4
:102DD000401CF8E780B2704710B582B004000121B2
:102DE000E4B2184850F8240000F03EFEE4B2164861
:102DF00030F81400ADF8000010208DF80300022018
:102E00008DF8020000A9E4B2104850F8240000F048
:102E1000D3FE2000C0B200F001F813BDC0B20A49D1
:102E200031F81010C0B2094A52F8202051617047A1
:102E3000C0B2054931F81010C0B2044A52F820203F
:102E400011617047300100203C0100202401002066
:102E5000DFF84C050068704780B5DFF8480540880A
:102E6000002805D000F012F8B1A0FEF710FF03E033
:102E7000DFF83405FEF70BFF1E21DFF8300500F008
:102E800075FB0020DFF81C15488001BD2DE9F043DB
:102E900083B00024002500265FF001085FF00009E0
:102EA000DFF80C0500785FFA89F9814569D25FFA8D
:102EB00089F90C20DFF8FC1400FB091000680700FA
:102EC000002005005FFA89F90C20DFF8E81400FB08
:102ED0000910006800780600F6B2002E0CD06D1CB8
:102EE000EDB25FFA89F90C20DFF8C81400FB091075
:102EF0000068285C0600EFE7012080460020C0B291
:102F0000EDB2A8420CD2C0B2C15DC0B2DFF89C24C1
:102F1000825C914202D00020804601E0401CEEE736
:102F2000EDB2002D01D1002080465FFA88F8B8F19B
:102F3000000F23D0FFF78CFF04005FFA89F90C2003
:102F4000DFF8701400FB09104068804702F0E1FBD5
:102F5000010000A802F068FC9DF805309DF80420EF
:102F60009DF80310DFF85004FEF791FEFFF770FFA5
:102F7000011BDFF84804FEF78AFE02E019F101099F
:102F80008EE75FFA88F8B8F1000F21D1DFF81C0452
:102F900000780D2819D0DFF8140400780A2814D01E
:102FA00002F0B7FB010000A802F03EFC9DF80530DE
:102FB0009DF804209DF80310DFF8FC03FEF767FE80
:102FC000DFF8FC03FEF763FE02E05AA0FEF75FFEA7
:102FD000BDE8F7830100C9B2302906DBC9B23A293E
:102FE00003DAB1F13000C0B214E0C9B2612906DBE6
:102FF000C9B2672903DAB1F15700C0B20AE0C9B219
:10300000412906DBC9B2472903DAB1F13700C0B262
:1030100000E0002070472DE9F04704000D00002675
:103020000027DFF880034088BFB287427CD2BFB25E
:10303000DFF87803385C202874D1761CF6B2EDB244
:10304000AE426FD1BFB2DFF8640338188078202811
:103050000DD0BFB2DFF85403381880780D2806D0A1
:10306000BFB2DFF84803381880780A2808D1BFB209
:10307000DFF8380338184078FFF7ACFF207050E0D5
:10308000BFB2DFF828033818C07820280DD0BFB2AF
:10309000DFF818033818C0780D2806D0BFB2DFF863
:1030A0000C033818C0780A2817D1BFB2DFF8FC0229
:1030B00038184078FFF78EFF81460A2000FB09F997
:1030C000BFB2DFF8E80238188078FFF783FF804648
:1030D00019EB080884F8008023E0BFB2DFF8CC02C7
:1030E00038184078FFF776FF8046642000FB08F828
:1030F000BFB2DFF8B80238188078FFF76BFF81465F
:103100000A2000FB09F9BFB2DFF8A0023818C07826
:10311000FFF760FF824619EB080010EB0A0A84F8FB
:1031200000A003E07F1C7CE700202070BDE8F08752
:10313000433E00000D0A000070477047704770471B
:1031400070477047704770477047704770477047C7
:1031500070477047704770477047704700B585B03B
:103160000A208DF80A0001208DF8090001208DF851
:10317000080000208DF80D0000208DF80C000020C4
:103180008DF80B0001210DF10A00FFF744FF022129
:103190000DF10900FFF73FFF032102A8FFF73BFFF6
:1031A00004210DF10D00FFF736FF052103A8FFF7FD
:1031B00032FF06210DF10B00FFF72DFF9DF80A00ED
:1031C000002803D09DF80A00642802DB0A208DF84D
:1031D0000A009DF80900002803D09DF809000D2879
:1031E00002DB01208DF809009DF80800002803D0BB
:1031F0009DF80800202802DB01208DF808009DF8CA
:103200000D00182802DB00208DF80D009DF80C0041
:103210003C2802DB00208DF80C009DF80B003C28B8
:1032200002DB00208DF80B009DF80B0001909DF84B
:103230000C0000909DF80D309DF808209DF80910B5
:103240009DF80A0002F06EFB05B000BD80B502F0EB
:10325000CEFB01BD7047704770477047704770479D
:1032600000B583B00C2002F0FDFB5649088002F047
:1032700050FA010000A802F0D7FA9DF805309DF839
:1032800004209DF803104C48FEF701FD4D480188CD
:103290004D48FEF7FCFC07BD1CB500200400444867
:1032A0000078E4B284421FD202F033FA010000A891
:1032B00002F0BAFA9DF805309DF804209DF803103D
:1032C0003D48FEF7E4FCE4B20C203A4900FB041050
:1032D0008268E4B20C20374900FB041001683B48C7
:1032E000FEF7D5FC641CDAE713BD10B582B00020F0
:1032F0008DF8010000208DF8000001210DF1010082
:10330000FFF789FE022100A8FFF785FE9DF8014026
:103310009DF80000E4B2A0421AD3E4B20A2094FB64
:10332000F0F100FB1140002805D1E4B2002C02D0DE
:103330001AA0FEF7ACFC0DF102012000C0B202F0B1
:10334000F2FD9DF802102248FEF7A1FC641CDFE7A5
:1033500012A0FEF79CFC13BD80B5012100A8FFF769
:103360005AFE9DF800101B4801F0B5FB01BD38B5B1
:103370004FF480540025802D0BD2012200A9601942
:1033800001F095FF9DF800101348FEF780FC6D1CBE
:10339000F1E702A0FEF77BFC31BD00000D0A000042
:1033A000E81F0020F81F0020A49F0008401F0020F5
:1033B00098010020EC93000898A1000834A30008AD
:1033C000ACA100080020002094A0000844A300083D
:1033D00058A50008481D002060A5000880B500F031
:1033E00001F801BD38B56421344800F0BFF8002071
:1033F0000500ADB2042D0ED2ADB214202F4900FB52
:1034000005100400ADB214202C4900FB0510143047
:1034100060606D1CEDE7ADB21420284900FB05107B
:1034200004000020606025482549086031BD2DE971
:10343000F04F83B004000D0016001F005FF0000A7B
:1034400002F0C2FE82461E48006880461C480068A2
:10345000002804D01A48006840681949086050469E
:1034600002F0B6FEB8F1000F03D15A2038700020E8
:1034700022E00094A346681E019000208146019836
:10348000814509D216EB0B0B0098C0F800B0CDF8BF
:1034900000B019F10109F2E7002000990860C8F8AE
:1034A0000040C8F80440C8F81050C8F80C50C8F8DC
:1034B0000860002038704046BDE8FE8FDC1E00200A
:1034C000D01F0020F8B504000D00002702F07CFE9C
:1034D0000700206900280DD0606806003068606031
:1034E0002069401E2061380002F072FE0020287022
:1034F000300005E0380002F06BFE5D2028700020EF
:10350000F2BD70B504000D00002602F05DFE06005D
:103510002069E168884204D3300002F059FE5E2041
:1035200009E06068286065602069401C2061300007
:1035300002F04EFE002070BD70B504000D000026A4
:1035400002F042FE06002068286060686860A0689B
:10355000A860E068E86020692861300002F038FE69
:10356000E8682969401A6861002070BD89B20029A5
:1035700004D000220270401C491EF7E7704750F843
:10358000041B61B150F8042BD30744BFA9F1010318
:103590009A18002342F8043B091FFAD1EFE770475D
:1035A00070B504000D00B94800680600A64203D0BB
:1035B000002E01D03668F9E7A6420DD0B348006866
:1035C0002060B24804600120A0730020A0812A007E
:1035D0008121200000F039F970BDF8B504000D001C
:1035E000AB480768A94800680600A64203D0002E31
:1035F00001D03668F9E7002E3AD0200000F05CF9DF
:1036000000281CD00020A073A04800680600002EEF
:1036100008D0B44204D022008721300000F029F8FD
:103620003668F4E7A068002809D0AC4207D0984873
:1036300004600022832114F10C00A368984793488A
:103640000068844205D19148006800688F4908608D
:103650000CE08E4800680600002E07D03068A042BB
:1036600002D12068306001E03668F5E788480760DD
:10367000F1BDF8B504000D001600A07BC0071CD5F5
:10368000A068002819D0824804600220A07332008C
:103690002900C9B214F10C00A36898470700022F53
:1036A00004D0032F02D0EDB2832D04D121002000DD
:1036B000FFF793FF01E00120A073F1BD8A2072495A
:1036C00008700020734908707349087000206F4922
:1036D00008606F490860704710B500206F49087096
:1036E0006A4800680400002C0DD0E07B002808D058
:1036F0000120A0730020E073002282212000FFF748
:10370000B8FF2468EFE710BD80B563480078002853
:1037100059D0604800780C21614A01FB00200078F4
:10372000604908705B4800780C215D4A01FB00206D
:1037300040685D490860574800780C21584A01FBF1
:10374000002080685949086052480078401C2021B8
:1037500090FBF1F202FB11024E4802704E480078D5
:10376000401E4D4908705148006800281BD1474849
:1037700000684F4908604E480068002823D0474839
:103780000078002801D0FFF7A7FF474802684548A6
:10379000017847480068FFF76CFF454800680068FB
:1037A00043490860E7E73F480078812803D10120BA
:1037B0003E49096888733C4802683A4801783B48AA
:1037C0000068FFF756FF01BD80B534480078002837
:1037D00001D0FFF781FFFFF797FF2F4800782F49AF
:1037E0000978081802BD30B403002B48007820285F
:1037F00001D1012027E027480078274C24782018A1
:10380000C0B2202490FBF4F505FB1405294805708F
:10381000284800780C24224D04FB005001702548F4
:1038200000780C241E4D04FB0050426021480078B3
:103830000C241B4D04FB0050836017480078401C8B
:10384000154C2070002030BC7047F8B504000D0006
:1038500016000F48076832002900C9B22000FFF7A0
:1038600008FF0B480760F1BD00280AD0817B0129C1
:1038700002D0817B022904D10121C1730121074AB1
:10388000117070470000000002200020D41F0020AB
:10389000D81F002004200020032000200520002045
:1038A0002416002006200020DC1F0020E01F00203E
:1038B000E41F002007200020807B002801D0012089
:1038C00000E00020C0B27047DFF8A012096831F4B0
:1038D0008031DFF898221160DFF89012096831F426
:1038E0008021DFF8882211600100B1F5803F03D00C
:1038F000B1F5802F09D011E0DFF87012096851F49A
:103900008031DFF86822116008E0DFF86012096892
:1039100051F4A021DFF854221160FFE77047C0B2D4
:10392000DFF85412086070470021914A12681100B4
:103930008908890001438E4A11607047C9B2002985
:1039400005D08E4A127802438C4B1A7004E08B4AE1
:1039500012788243894B1A7070478949096801437C
:10396000874A11607047C0B286490860704730B41A
:1039700000210022002300247D4D2D6815F00C0548
:1039800029000D00002D04D0042D05D0082D06D0EF
:1039900026E07D4D056025E07B4D056022E0744DFD
:1039A0002D6815F470152A00714D2D6815F48035B9
:1039B0002B00920C921C002B04D1744D05FB02F5D8
:1039C00005600CE06A4D2D68AD0304D56F4D05FB15
:1039D00002F5056003E06C4D05FB02F5056001E0B2
:1039E000694D0560624D2D6815F0F0052900090943
:1039F000674D4D5D2C000568E54045605C4D2D68C8
:103A000015F4E0652900090A614D4D5D2C004568FB
:103A1000E5408560564D2D6815F460552900C90AAA
:103A20005B4D4D5D2C004568E540C560504D2D68EF
:103A300015F440452900890B564D4D5D2C00C56895
:103A4000B5FBF4F5056130BC7047C9B2002905D05B
:103A5000514A12680243504B1A6004E04E4A126801
:103A600082434D4B1A607047C9B2002905D04B4ABA
:103A700012680243494B1A6004E0484A12688243C4
:103A8000464B1A607047C9B2002905D0444A1268F3
:103A90000243434B1A6004E0414A12688243404BA0
:103AA0001A607047C9B2002905D03E4A1268024325
:103AB0003C4B1A6004E03B4A12688243394B1A605F
:103AC0007047C9B2002905D0374A12680243364B05
:103AD0001A6004E0344A12688243334B1A6070471C
:103AE000C0B232490860704710B4010000220023C0
:103AF0000020C9B24C09E4B22200012A03D11B4CB8
:103B00002468230008E0022A03D11D4C2468230006
:103B100002E0274C24682300C9B211F01F042200E0
:103B200033FA02F4E40702D50124200001E0002466
:103B30002000C0B210BC70471D48006850F0807073
:103B40001B4908607047010000200A4A1268C9B288
:103B50000A4202D00122100001E000221000C0B28F
:103B600070471449087070470000000000100240C0
:103B70000410024008100240600042420910024056
:103B8000201002403C04424200127A0000093D002D
:103B9000F40000208C010020141002401810024094
:103BA0001C1002400C100240101002404C00424217
:103BB000241002400A100240F0B500270022002322
:103BC00000240025002691F803C01CF00F0C674666
:103BD00091F803C05FEACC6C03D591F802C05CEAAF
:103BE000070791F800C05FEA0C6C3AD0D0F800C02B
:103BF00065465FF0000C6346082B31D25FF0010C84
:103C00001CFA03FC6446B1F800C014EA0C0C6246CE
:103C1000A24223D15FEA830C64465FF00F0C1CFACA
:103C200004FC6646B54317FA04FC5CEA050591F806
:103C300003C0BCF1280F06D15FF0010C1CFA03FC95
:103C4000C0F814C00AE091F803C0BCF1480F05D1D8
:103C50005FF0010C1CFA03FCC0F810C05B1CCBE742
:103C60000560B1F800C0BCF1FF0F3FDDD0F804C023
:103C700065465FF0000C6346082B36D25FF0010CFE
:103C800013F1080E1CFA0EFC6446B1F800C014EAE9
:103C90000C0C6246A24226D15FEA830C64465FF0B8
:103CA0000F0C1CFA04FC6646B54317FA04FC5CEAE8
:103CB000050591F803C0BCF1280F07D15FF0010C96
:103CC00013F1080E1CFA0EFCC0F814C091F803C0E2
:103CD000BCF1480F07D15FF0010C13F1080E1CFA7C
:103CE0000EFCC0F810C05B1CC6E74560F0BD0200CA
:103CF0000020936889B20B4202D00123180001E032
:103D000000231800C0B2704789B20161704789B2C0
:103D100041617047D2B2002A02D089B2016101E04C
:103D200089B24161704730B400220F2311F00304BF
:103D3000E4B2A400A3401A00C9B28B100E4C54F890
:103D400023309343C9B28C100B4D45F82430C9B2CF
:103D50008B10094C54F82330C0B211F00304E4B2C4
:103D6000A40010FA04F42343C9B28C10024D45F8A4
:103D7000243030BC70470000080001402DE9F047B6
:103D800086B004000D00002600275FF000085FF0F9
:103D900000095FF0000AA8890028A246208A0600D0
:103DA0004CF6FF700640E88806432682A08906008C
:103DB0004EF6F3100640A88829890843698908430C
:103DC0000643A681A08A06004FF6FF400640A88958
:103DD0000643A68200A8FFF7CAFD2048824502D10B
:103DE0000398070001E002980700A089000408D5A5
:103DF000192000FB07F029684900B0FBF1F080466C
:103E000007E0192000FB07F029688900B0FBF1F0FA
:103E100080466420B8FBF0F0000106003009642100
:103E200001FB10808146A089000409D55FEAC90022
:103E300032306421B0FBF1F010F00700064308E0D7
:103E40005FEA091032306421B0FBF1F010F00F008E
:103E50000643268106B0BDE8F08700000038014027
:103E6000C9B2002904D0828952F40052828104E050
:103E700082894DF6FF731A4082817047F0B40023A7
:103E800000240025002689B240F66A17B9420600D0
:103E90000F00FFB27F09FFB23B0089B211F01F078C
:103EA0003C000127A7403D00012B01D10C3604E066
:103EB000022B01D1103600E01436D2B2002A03D012
:103EC00037682F43376002E03768AF433760F0BC94
:103ED0007047D2B2002A03D0838A0B43838202E068
:103EE000838A8B43838270478088C005C00D7047EA
:103EF00089B28A0589B2CA430280704770B4020051
:103F0000002300250024002089B240F66A16B14241
:103F10000E00F6B27609F6B2340089B211F01F062F
:103F20003500012616FA05F5012C02D19689354097
:103F300006E0022C02D1168A354001E0968A35400F
:103F400089B20E0AB6B23300012616FA03F31688B8
:103F50003340002D04D0002B02D00126300001E0B8
:103F600000263000C0B270BC70478268521C82606C
:103F7000426832B10268531C036011704168491EE7
:103F80004160704708B584B00023029311B90093D3
:103F9000019302E00090481E019004AB00A907487D
:103FA0007844183002F018F9009911B1009A0021F4
:103FB0001170002858BF029805B000BDAFFFFFFF89
:103FC00080B20A4908607047C0B20949086070476A
:103FD00080B20849086070474AF6AA200349086081
:103FE00070474CF6CC4001490860704700300040F3
:103FF000043000400830004030B4030018000C00CA
:1040000015006A1EADB2002D04D025780570641C21
:10401000401CF5E730BC704730B40B0004001500BD
:104020006A1E002D04D01D7825705B1C641CF6E709
:1040300030BC704710B403001400621E002C02D084
:1040400019705B1CF8E710BC7047000001684FF660
:10405000FE721140016000210160002141600021D9
:1040600081600021C1606649884206D165490968BE
:1040700051F00F01634A11606CE06349884206D138
:104080006049096851F0F0015E4A116062E05F49E1
:10409000884206D15B49096851F47061594A116040
:1040A00058E05B49884206D15649096851F470418D
:1040B000544A11604EE05749884206D15149096877
:1040C00051F470214F4A116044E05349884206D1AF
:1040D0004C49096851F470014A4A11603AE04F496D
:1040E000884206D14749096851F07061454A11601C
:1040F00030E04B49884206D14A49096851F00F0126
:10410000484A116026E04849884206D14549096875
:1041100051F0F001434A11601CE04449884206D145
:104120004049096851F470613E4A116012E040490B
:10413000884206D13B49096851F47041394A1160FF
:1041400008E03C49884205D13649096851F470219C
:10415000344A1160704710B4002203681A006FF3EC
:104160000E128B680C6A23430C6923434C6923436A
:104170008C692343CC6923434C6A23438C6A2343D1
:104180001A430260CB6843600B6883604B68C3606E
:1041900010BC7047C9B2002904D0026852F0010275
:1041A000026004E002684FF6FE731A400260704736
:1041B000D2B2002A03D003680B43036002E0036815
:1041C0008B4303607047010000200022CB0003D521
:1041D000194B1B681A0002E0184B1B681A000A42B0
:1041E00002D00123180001E000231800C0B270477C
:1041F000C10002D50B49086001E002490860704720
:1042000008000240040002401C000240300002404E
:1042100044000240580002406C000240800002400E
:1042200008040240040402401C040240300402401E
:1042300044040240580402400004024000000240CE
:10424000010040F10980F446404200F005F851F0C9
:1042500000416047010000BF09D0B0FA80F18840FA
:10426000C91CC1F58461090501EBD02140057047E7
:10427000B0B581EA030C0CF0004C40F2FF7515EA72
:1042800011541DBF15EA1357AC42AF4239E0E4198F
:1042900023EA455343F48013C90241F0004141EA47
:1042A000505EC7021100A7FB020200284FF0000079
:1042B000EEFB01204FF00001E3FB072118BF42F0A5
:1042C0000102401800214941E3FB0E01A4F580647E
:1042D0000F0302D252004041494154F101046CDD08
:1042E000470872F1004250F1000051EB0451A1F572
:1042F00080115CBF41EA0C01B0BD4CEA05510020C1
:10430000B0BD05EA1357AC4214BFAF4241E050EADA
:10431000410E1CBF52EA430E02E061460020B0BDD0
:1043200024423C441BD15FEA070EF6D0090302BFCA
:1043300001460020AEF1140EB1FA81F7AEEB07048E
:1043400001FA07FE0C37C7F1200100FA07F7C84051
:104350004EEA000E23EA455343F48013A2E733F0FC
:104360000043B3FA83F704BFB2FA82FE77440B3FEF
:10437000E41BB7F1200E2FBF02FA0EF3BB40C7F1CA
:10438000200E22FA0EFE38BF43EA0E03BA40641C28
:1043900082E750EA410E14BF52EA430E6FF000016B
:1043A0004FF4001717EB430F8ABF194617EB410F65
:1043B000B5E74CEA05510020B0BDD4F10104B4F1D9
:1043C00020070FDAC4F12007520828BF42F001028B
:1043D00010FA07F501FA07F7E1BF2A43E040384336
:1043E000E1400FE0352C98DCC7F1200452EA40028E
:1043F00020FA07F218BF42F0010231FA07F0A1409B
:104400000A43002172F1004250F1000051EB0C010F
:10441000B0BD0000F446400D40EAC120490006D27C
:1044200000F014F8004248BF6FF00040604700F011
:104430000DF84FF0004188428CBF0846404260476B
:10444000400D40EAC120490080F00D8040F000405E
:10445000490DA1F58061491C05D4D1F11F0154BF5C
:10446000C840C01770474FF000007047DFF82C0BB2
:104470000068704710B5012001F073FDFFF7F6FFEB
:104480000400FFF7F3FFA11C8842FAD3002001F0DB
:1044900068FDFFF7EBFF0400FFF7E8FFA11D88426E
:1044A000FAD310BD10B50400FFF7E4FFDFF81C0AD3
:1044B000DFF8EC1A0860002000F0D0F8E4B2002C1D
:1044C00033D0DFF8DC0A0068407850F08000DFF875
:1044D000D01A09684870DFF8C80A006841780120DE
:1044E00001F018FD012000F0B9F80020DFF8B41A3F
:1044F00008700020DFF8AC1A48700020DFF8A41A1A
:1045000088700020DFF89C1AC8700020DFF8941A29
:1045100008710020DFF88C1A4871DFF8882AD2E988
:10452000000100F0CAF800F09AF910BD2DE9F0433F
:1045300095B006000F0000A8DFF86C1A502202F0B8
:1045400013FDF6B200A810EBC600D0E90023904698
:104550009946FFB23800FFF77DFE02000B000020F5
:104560005FF0804102F043FF42464B4603F058F9AA
:1045700004000D002000290015B0BDE8F0832DE9EE
:10458000F04F85B00600F6B2B01CADF80200DFF8BF
:104590001C0A90F80680DFF8140A407A8DF80100B2
:1045A000DFF8080A807D8DF80000DFF8000A90F837
:1045B00007905FFA89F919F10400FFF741FE82467E
:1045C0008B46BDF80200C0005FFA88F8B0EB8800A7
:1045D0002C309DF80110142202FB1100FFF730FE71
:1045E00004000D005FFA88F89DF80000B8EB400069
:1045F0008000FFF725FE02000B002000290003F0D9
:104600000FF903F031FA52465B46FFF731FECDE970
:104610000201DDE90201FFF713FF0700002F02D0BE
:1046200017F1080000E0082005B0BDE8F08F80B564
:10463000FF20FFF7A4FF3221B0FBF1F0C0B202BDB2
:10464000DFF86C090068704780B5DFF8540900682E
:1046500010F14101422001F066FC01BD10B50400DB
:10466000DFF83C090068407810F0F8002043DFF8DC
:10467000301909684870DFF828090068417801207E
:1046800001F048FC10BD80B5DFF81409006810F196
:104690000C010C2001F047FCDFF804090068007BE6
:1046A000C0B2400902BDDFF8100990F90000704760
:1046B000DFF80829D2E90001704703B581B09DF801
:1046C00004009DF8051008439DF8061008439DF866
:1046D00007100843DFF8C818096881F83F009DF803
:1046E00008009DF809100843DFF8B418096881F83C
:1046F00040000222DFF8A808006810F13F014020C6
:1047000001F0C7FB07BD80B500A9192001F00BFC23
:104710009DF80000000612D59DF80000C043401C23
:10472000801010F03F00DFF890180870DFF888085C
:1047300090F900004042DFF88018087006E09DF80C
:104740000000C0B28008DFF870180870DFF8680851
:1047500090F9000002BDF8B5DFF84408006810F1D8
:104760001A011A2001F0DFFBDFF840080068DFF8CB
:104770005018884233D2DFF8400890F90000002832
:1047800019D5DFF81C080068807EFFF763FD002262
:10479000DFF8303803F098F906000F00DFF818084A
:1047A00090F90000FFF74CFD32003B0003F08CF95C
:1047B00004000D0046E0DFF8E8070068807EFFF7A0
:1047C00049FDDFF80828DFF80838FFF751FD00221F
:1047D000DFF8F03703F078F904000D0032E0DFF87D
:1047E000D80790F90000002819D5DFF8B407006851
:1047F000807EFFF72FFD0022DFF8CC3703F064F94D
:1048000006000F00DFF8B00790F90000FFF718FD71
:1048100032003B0003F058F904000D0012E0DFF80D
:1048200080070068807EFFF715FDDFF8A027DFF81E
:10483000A037FFF71DFD0022DFF88C3703F044F9A5
:1048400004000D0020002900F4BDDFF8880790F86F
:1048500000017047DFF87C1781F80001704780B5D0
:10486000FFF7F2FE6F22DFF87017012001F030FB36
:104870002020DFF82C1709680873DFF82407006888
:10488000017B0C2001F046FB0020FFF7E7FEDFF87C
:104890001C07006803F08CF9DFF81007807903F03B
:1048A0005CFADFF80807C07903F08DFADFF8FC0640
:1048B000007A03F0A9FADFF8F406407903F02CFA45
:1048C000DFF8E806407A03F0E1FA40F2FF3003F047
:1048D0004EFBDFF8D806407D03F0F5FADFF8CC0692
:1048E000D0F8170080B203F0B0FADFF8C006817983
:1048F000DFF8B8064079FFF719FE0022DFF8DC3652
:1049000003F094FB03D8012003F051FB02E00020E8
:1049100003F04DFB802003F011FB002003F0E3FACD
:10492000DFF8880690F9040003F069F9FFF77FFECD
:10493000DFF8781608730120FFF78CFF002000F0E5
:104940008DF901BD38B504000D00EDB22A0021003B
:10495000DFF88006FFF760FBDFF8780680F8025189
:1049600031BD10B50400DFF84406807A012805D176
:104970000320DFF8601681F8000106E00220DFF86E
:10498000541681F8000100F08AF8DFF8480680F834
:10499000FF400020DFF83C1681F8030110BD10B580
:1049A0000400DFF80806807A012836D1DFF8F00528
:1049B0000068C07BDFF8E81509684873DFF8E00598
:1049C0000068417B0D2001F0A5FADFF8E005407A90
:1049D000012809D1DFF8C805006890F82200DFF847
:1049E000F41581F801010FE0DFF8B405006810F15B
:1049F0001301132001F097FADFF8A4050068C07CCA
:104A0000DFF8D01581F80101DFF8C80590F8011131
:104A1000DFF8C00501F09BFA3DE0DFF8840500688F
:104A200010F11001102001F07EFADFF88005407AC5
:104A3000012809D1DFF86805006890F82200DFF846
:104A4000941581F801010FE0DFF85405006810F1BA
:104A50001301132001F067FADFF844050068C07CF9
:104A6000DFF8701581F80101DFF834050068007C7B
:104A7000DFF82C1509684873DFF824050068417BCE
:104A80000D2001F047FADFF84C0590F80111DFF82E
:104A9000440501F05CFA0120FFF763FF10BD80B50B
:104AA0000121012001F070FA0121082001F06CFAC7
:104AB000DFF8F804C07A00280CD0DFF8240500786D
:104AC000DFF8201551F8200003F072F801210420CE
:104AD00001F05AFA01BD38B504000D000120FFF7BE
:104AE000BDFDFF20DFF8B81409684874FF211220CB
:104AF00001F010FA00211F2001F046FADFF8AC04A3
:104B0000C07A00282ED0DFF898040068407C10F0AE
:104B1000F500DFF88C1409684874DFF89004007B16
:104B2000DFF87C14096881F82400DFF87404006859
:104B300010F11C011C2001F0F6F9DFF8A404007844
:104B4000DFF8A01451F8200003F032F80220FFF73C
:104B500085FD4020DFF84C1408700020DFF8441475
:104B6000887018E0DFF84404006803F021F8DFF8EB
:104B700030040068407C10F0F700DFF82414096866
:104B800048740020DFF81814096881F824004020D8
:104B9000DFF810140870DFF80804006890F824109B
:104BA000242001F0B7F9DFF8F8030068417C1120F8
:104BB00001F0B0F9DFF8EC23D2E90001FFF77DFD49
:104BC000DFF8DC03006880F82250DFF8D4030068C7
:104BD00090F82210222001F09DF90020DFF8C01388
:104BE00009688873DFF8B8030068817B0E2001F044
:104BF00091F9DFF8AC030068807BDFF8A413096843
:104C00004873DFF89C030068417B0D2001F082F9B6
:104C10000720FFF71FFE2900C9B22000FFF792FE10
:104C20002900C9B2DFF8AC0301F087F901210120A6
:104C300001F0AAF9DFF87403C07A002803D001213B
:104C4000042001F0A1F90320FFF708FDDFF8982305
:104C50008621DFF89803FEF7C6FD31BD10B50400CC
:104C60000120FFF7FBFCFF20CD4909684874CC48C0
:104C70000068407C10F08F00C94909684874002022
:104C8000C84908700120C749C870C848C07A0028C0
:104C90001FD0C648007BC249096881F82400C0487B
:104CA0000068407C10F0FD00BD4909684874BC48AC
:104CB000006810F11C011C2001F035F9C84800788B
:104CC000C84951F8200002F073FF0020B5498870F0
:104CD00008E0B648006802F06BFF0020B0490968A0
:104CE00081F82400B148807A012820D1AC480068BE
:104CF000417C112001F00EF9A948006890F82410B9
:104D0000242001F007F9A74AD2E90001FFF7D5FCFA
:104D1000FFF796FCA549C1F81700A448D0F8170082
:104D200080B203F092F80620FFF798FC27E09C4839
:104D30000068C07B9A490968487399480068417BBC
:104D40000D2001F0E7F896480068417C112001F041
:104D5000E1F89348006890F82410242001F0DAF874
:104D6000904AD2E90001FFF7A8FC20208F49C1F842
:104D70001700202003F069F80520FFF76FFC0220E0
:104D8000944981F800018948C07A002803D00121A4
:104D9000042001F0F9F80121012001F0F5F80121CA
:104DA000082001F0F1F810BD80B5012003F09AF958
:104DB000002800F08A80012003F0A8F9042003F005
:104DC000A5F9844890F80001072804D00B286AD080
:104DD0000E281CD079E00021012001F0D5F8002137
:104DE000042001F0D1F80821122001F093F8804846
:104DF00000F054FC0820774981F800010120FFF7FA
:104E00002DFC794A86217948FEF7EDFC5DE0002112
:104E10001F2001F0B9F8764800F040FC4021122034
:104E200001F078F85E48006810F11201122001F0DC
:104E30007AF85B480068807C800620D5202112200B
:104E400001F068F8FFF787FC5C4AC2E90001FFF750
:104E50005AFC594908700020FFF783FD5748D0E9F4
:104E600000236448FCF713FFFFF71DFC40B201006C
:104E70006148FCF70CFF6148FCF709FF12E0FFF7FF
:104E80006AFC4E4AC2E90001FFF73DFC4A4908703E
:104E9000504890F80501FFF782FD534A8621534898
:104EA000FEF7A1FC11E00421122001F033F81021DB
:104EB0005348FEF71CFF012806D10121122001F002
:104EC00029F80020FFF7CAFEFFE701BD6C1E002095
:104ED00080B5022003F006F9002802D0022003F07A
:104EE00015F901BD80B5042003F0FCF800282FD08F
:104EF000042003F00BF92A48006810F11201122077
:104F000001F011F826480068807C800720D5022136
:104F1000122000F0FFFFFFF7B6FB2649087020487B
:104F2000006810F11C011C2000F0FDFF2C480078E7
:104F30001B490968097F081810F03F00322190FBD7
:104F4000F1F201FB1200274951F8200002F030FE77
:104F500001BD80B5082003F0C5F800281CD008204A
:104F600003F0D4F80021082001F00EF810211220DF
:104F700000F0D0FF174890F80001022808D10E2059
:104F8000144981F80001184A86211848FEF72BFCC5
:104F90000120104981F8030101BD0000E81F002035
:104FA000EC1F0020B81F0020E09D0008A800002092
:104FB000F01F00209901002008200020B01F0020D1
:104FC000008F4233008064C000A063C01B9E5E2936
:104FD000CB10F13F401A00206D1E00200000304031
:104FE0009A010020649A0008401B0020D400002091
:104FF000601F002018A5000824A5000830A500089F
:105000000010014080B503F02BF901BD10B504007C
:105010002000C0B203F088F810BD10B504000121D3
:10502000A848FEF771FE1021A748FEF770FEE4B213
:10503000002C03D00620FFF7E9FF02E00420FFF771
:10504000E5FF1021A048FEF75FFE10BD10B501215D
:105050009C48FEF759FE10219B48FEF758FE05209C
:10506000FFF7D4FFAA20FFF7D1FF040010219648D4
:10507000FEF74AFE2000C0B210BD2DE9F041040049
:105080000D0016001F00FFF7E1FFC007FBD4012150
:105090008C48FEF739FE10218B48FEF738FEFFB230
:1050A000002F03D00B20FFF7B1FF02E00320FFF732
:1050B000ADFF200CC0B2FFF7A9FF200AC0B2FFF776
:1050C000A5FF2000C0B2FFF7A1FFFFB2002F02D062
:1050D000AA20FFF79BFF5FF00008B04507D2AA2087
:1050E000FFF794FF08F8050018F10108F5E7102113
:1050F0007548FEF709FEBDE8F0812DE9F041040096
:105100000D0016001F00FFF7A1FFC007FBD4012010
:10511000FFF783FF01216B48FEF7F6FD10216A4877
:10512000FEF7F5FDFFB2002F03D0F220FFF76EFF70
:1051300002E00220FFF76AFF200CC0B2FFF766FF13
:10514000200AC0B2FFF762FF2000C0B2FFF75EFF87
:105150005FF000081FFA88F8B6B2B04508D21FFA0F
:1051600088F818F80500FFF751FF18F10108F1E77A
:1051700010215548FEF7C8FDBDE8F08138B50400A0
:105180000D00FFF763FFC007FBD40120FFF745FFC9
:1051900001214C48FEF7B8FD10214B48FEF7B7FD42
:1051A000EDB2002D05D0022D0BD006D3032D0CD06F
:1051B0000FE02020FFF72AFF0BE05220FFF726FF29
:1051C00007E0D820FFF722FF03E06020FFF71EFF73
:1051D000FFE7EDB2032D0BD0200CC0B2FFF716FF96
:1051E000200AC0B2FFF712FF2000C0B2FFF70EFF87
:1051F00010213548FEF788FD31BD2DE9F84F040038
:105200000D001600A1464FF48070B4FBF0F101FBD5
:1052100010414F42AA46B046FFB2B7423ED20023E9
:10522000FFB23A0092B251464846FFF766FFFFB21E
:1052300017EB0909FFB217EB0A0AFFB2F01B804611
:105240005FEA1820ADF802004FF48070B8FBF0F16F
:1052500001FB1081ADF800105FF0000BBDF80200FB
:105260001FFA8BFB83450DD200234FF48072514609
:105270004846FFF742FF19F580791AF5807A1BF14D
:10528000010BEBE7BDF8000000280ED00023BDF8AD
:10529000002051464846FFF730FF06E00023320069
:1052A00092B251464846FFF728FFBDE8F18F70B52E
:1052B00004000D0016000023320029002000FFF733
:1052C000DCFE70BD000C0140000801400148006890
:1052D00070470000E81F0020401E012801D0002870
:1052E000FAD1704738B504000025FFF7EFFF05003D
:1052F000FFF7ECFF401BA4B2A04202D2FEF76CFE07
:10530000F6E731BD10B402004FF6FF700B00591ED6
:105310009BB2002B0BD003009BB2147894EA23239A
:10532000044C34F8133093EA0020521CEEE780B2AC
:1053300010BC7047EC91000830B583B00400042520
:10534000FEF74AFE02F096FF342002F0FCFF200038
:1053500002F0A4FF0500EDB2042D18D000F0D9F939
:10536000010000A800F060FA9DF805309DF80420C7
:105370009DF80310DFF85C01FCF789FCEDB22A0010
:105380002100DFF85401FCF782FC012002E002F06A
:105390007CFF00203EBD2DE9FE4F04000D001600ED
:1053A0005FF00008B1465FF0040A02F063FF3420AA
:1053B00002F0C9FF1FFA89F9022099FBF0F101FB05
:1053C00010910F00FFB2002F01D0B9F101090020A8
:1053D00080461FFA88F81FFA89F9C8453AD21FFAA1
:1053E00088F818EB050040781FFA88F818F80510BF
:1053F00051EA002189B21FFA88F818EB040002F084
:105400007CFF82465FFA8AFABAF1040F1FD000F0DF
:1054100080F9010001A800F007FA9DF809309DF815
:1054200008209DF80710DFF8AC00FCF730FC5FFAAD
:105430008AFACDF800A01FFA88F84346B6B23200C7
:105440002100DFF89800FCF722FC022040E018F170
:105450000208BEE7FFB2002F37D0B6B2002E34D01C
:10546000B6B2701910F8010C50F47F4083465946CB
:1054700089B21FFA88F818EB040002F03EFF82465A
:105480005FFA8AFABAF1040F1FD000F042F9010066
:1054900001A800F0C9F99DF809309DF808209DF891
:1054A0000710DFF83000FCF7F2FB5FFA8AFACDF85C
:1054B00000A01FFA88F84346B6B232002100DFF898
:1054C0001C00FCF7E4FB022002E002F0DEFE0020FC
:1054D000BDE8FE8FE8A10008309E0008949D0008FA
:1054E00070B580480068002803D100207E4908601C
:1054F0001DE002F091FF05007A4800680600306860
:1055000071680818401B0400B668002E0CD0306883
:1055100071680818401BA04204D2306871680818EE
:10552000401B0400B668F0E760196F49086070BD61
:105530002DE9F04104000D0016000121208800280B
:1055400002D0592806D05EE000206649086000219C
:1055500059202080C9B2002901D1012058E0EDB2C4
:10556000872D24D130005F49096800290AD05D49A0
:105570000968C968814205D15A4909688968594A48
:105580001160F0E75749096800290FD055490968AB
:105590000F00B968002909D0B968C968814203D1F0
:1055A000B9688968B960F4E7BF68F2E7CFE7EDB2A0
:1055B000822DCCD1002080464A4800680700002F89
:1055C000C5D0380002F03CFF002819D03A008821ED
:1055D000F868FEF708F9002810D10020F860B8F14B
:1055E000000F03D0B868C8F8080002E0B8683D4969
:1055F00008600020B860FFF773FFDBE700F00AF8EF
:10560000B846BF68DBE700200100002020800320AF
:10561000BDE8F08180B53548FEF726F901BD38B503
:105620000400FFF7F7FFE06800280ED02D4800685F
:105630000500002D09D0A54205D12D480068E06085
:10564000FFF74EFF0BE0AD68F3E729480068E06024
:1056500024480068A06023480460FFF741FF31BD83
:1056600038B504000D002900200002F0E1FE200002
:10567000FFF7D5FF31BD1B480068002801D001208D
:1056800000E00020C0B2704780B5FFF7F4FF0028AB
:1056900002D01548006800E0002002BD38B50400C3
:1056A00010480068844207D10E48006880680D49A0
:1056B0000860FFF715FF0FE00A4800680500002D9D
:1056C00004D0A868A04201D0AD68F8E7002D03D04F
:1056D000A068A860FFF704FF0020A0600020E06041
:1056E00031BD0000C81F0020CC1F0020C4000020D6
:1056F000D81F00202A48008850F010002849088050
:105700007047274800884FF6EF7108402449088009
:10571000704700210022002322480088010022480F
:10572000008803001F480088020089B292B29142AB
:1057300006D092B21C48008880B250EA024003E0D2
:1057400089B29BB253EA0140704710B50400FFF7DD
:10575000D1FF200C1349088013480480FFF7D1FFC4
:1057600010BD10B50400FFF7C5FF200C10F00F00AE
:105770000E4908800E480480FFF7C3FF10BD08489B
:1057800000888006FBD57047054800884FF6F77102
:10579000084003490880024800880007FBD570478D
:1057A00004280040182800401C2800400828004019
:1057B0000C2800409F480068704700B583B0012165
:1057C0005FF0C050FEF75FF9012002F049FE4FF490
:1057D0004070FEF7C2F8042000F044F94AF2A551E7
:1057E00088421CD00120FEF7BEF8FFF7CDFFFFF77F
:1057F000C6FF4FF22340FFF7B4FFFFF7C0FF4AF2A6
:10580000A551042000F020F9002001900020009014
:105810000023012201210A2000F084F803E0FFF7B1
:10582000B3FF00F0E4F807BD2DE9F04F83B00200AC
:105830000C00A3465FEA9B0045F26041B0FBF1F526
:10584000ADB27D4800FB15B60027A8465FF00A09F7
:10585000002082465FFA8AFABAF1020F33DA5FFA61
:105860008AFABAF1000F09D1032319EA030F02D112
:105870004FF4B77101E040F26D110EE01FFA89F9A3
:105880006E4819F8000001001FFA89F9B9F1010FFB
:1058900003D103231F4200D1491C1FFA88F889B2A3
:1058A000884504D3B8EB010819F10109D7E75FFA7D
:1058B0008AFABAF1000F03D148460700002081465A
:1058C0001AF1010AC6E78DF8007019F101008DF890
:1058D000010018F101008DF802004FF46160B6FB81
:1058E000F0F08DF803009DF803004FF4616101FBB7
:1058F00010603C21B0FBF1F08DF804009DF803002E
:105900004FF4616101FB10603C21B0FBF1F301FB3E
:1059100013008DF80500100000A9062201F014FB09
:10592000BDE8FE8F2DE9F44F84B006000F009B46C2
:105930000E9C0F9D5FFA8BFB4FF46160E4B23C213B
:1059400001FB04F100FB0B10EDB215EB00089DF814
:105950001000B0F10109EDB20295E4B201945FFAD2
:105960008BFBCDF800B09DF81030FFB23A00F6B2D4
:1059700031003348FCF78BF90A2082465FFA8AFA35
:10598000F6B2B2450AD209F26D1903211AEA010FE3
:1059900001D119F101091AF1010AEFE7002082464D
:1059A0005FFA8AFAFFB2781E824509DA5FFA8AFA4C
:1059B00022481AF8000010EB09091AF1010AEFE772
:1059C000FFB2032F04DB03210E4201D119F10109BB
:1059D0001FFA89F9184800FB0988FFF7D0FE4046F6
:1059E000FFF7B3FEFFF7CBFE05B0BDE8F08F10B5B3
:1059F00088B0FFF78EFE010005A8FFF715FFFFF73F
:105A0000D9FE0400FFF785FE049403909DF8190069
:105A100002909DF8180001909DF8170000909DF8E5
:105A200016309DF815209DF814100648FCF72FF944
:105A300008B010BDE81F0020805101000CA500082F
:105A40009C9E0008689E000881B0002200920C4ACB
:105A50000092009A80B28218009289B2009A116076
:105A600001B0704781B00100002000900448009010
:105A7000009889B2081800900098008801B070471B
:105A8000006C004030B403000020C0B2D2B290429B
:105A900009D2C0B2C45CC0B2455CAC4201D00020A7
:105AA00002E0401CF1E7012030BC704730B585B002
:105AB000DFF8B806FCF7EBF8DFF8B40600786828E2
:105AC00040F01081DFF8A806C079682840F00A810C
:105AD000DFF89C06407ADFF898164018C07A16283E
:105AE00040F00081DFF88806407A10F10A01DFF803
:105AF0008006FCF754FADFF87816497ADFF870264A
:105B00008918897A884240F0ED80DFF86406407A8F
:105B10000C3004001222E4B2DFF85406211800A869
:105B2000FEF76AFADFF84806007A000640F1DA80EC
:105B30000422DFF84016DFF84006FFF7A3FF002835
:105B400040F082806820DFF834160870DFF8200605
:105B5000407A2B30DFF824164870DFF81406407ABC
:105B60002B3080B2000ADFF8141688708120DFF82D
:105B70000C16C870122200A9DFF80406FEF73CFAE2
:105B80001320DFF8F81588750120DFF8F015C875C7
:105B90000020DFF8E81508760020DFF8E0154876E9
:105BA0000020DFF8D81588760220DFF8D015C876F7
:105BB000DFF8BC05407A0C30DFF8C0150877DFF855
:105BC000BC05027F92B2DFF8A815DFF8B805FEF732
:105BD00013FADFF89C05407A10F12601DFF8A805DA
:105BE000FCF7DDF9DFF88815497ADFF89025891888
:105BF00081F829001620DFF87815497ADFF87C252E
:105C0000891881F82A00DFF86805407A10F12B0224
:105C100092B2DFF868150020FCF705FD0025EDB213
:105C2000DFF84C05407A2B30854209DAEDB2DFF817
:105C30004C05295CDFF85405FCF729F86D1CEEE7EC
:105C4000B3A0FCF724F84DE06820DFF830150870A9
:105C50002420DFF8281548700020DFF82015887010
:105C60008120DFF81815C870122200A9DFF810058E
:105C7000FEF7C2F90320DFF8041588750120DFF86C
:105C8000FC14C8750020DFF8F41408760922DFF848
:105C90000015DFF80005FEF7AFF91F21DFF8E80473
:105CA000FCF77DF9DFF8D41481F822001620DFF824
:105CB000CC1481F823002422DFF8C0140020FCF764
:105CC000B2FC0025EDB2242D09DAEDB2DFF8AC0408
:105CD000295CDFF8B804FBF7DAFF6D1CF2E78CA053
:105CE000FBF7D5FF05B030BDF8B504000D00160078
:105CF00001212088002802D0D82803D066E00021A6
:105D0000D8202080C9B2002901D1012063E0EDB282
:105D1000862DF4D13078072806D14FF4FA61DFF8E8
:105D20007804FFF79DFCEAE73078082803D10020CB
:105D3000FEF794FFE3E730780E2806D14FF4FA61BE
:105D4000DFF85404FFF78CFCD9E73078022820D123
:105D5000FEF7A9FC0700FEF7ABFC7FB2009702003C
:105D60000B00DFF83804FBF792FFDFF8040490F82B
:105D7000FF000028C3D00020DFF8F41381F8FF00F3
:105D80000120FDF74BF86420FFF7ACFAFFF78EFE19
:105D9000B5E7EDB2882DB2D1DFF8FC038642AED173
:105DA000FEF753FD072803D1DFF8F403FBF76FFF7D
:105DB000FEF74BFD0E2803D1DFF8E803FBF767FF82
:105DC00000F0BEF90020FEF749FF98E7002001002F
:105DD000002020800320F2BD70B504000D001600E5
:105DE00001212088002806D040F26512801A0CD0CC
:105DF000103829D02EE0DFF8B013DFF8B003FFF73A
:105E00002FFC002140F265102080C9B2002906D085
:105E1000EDB2882D03D1DFF89403864201D0012032
:105E20001DE0FEF712FD072806D0FEF70EFD0E2836
:105E300002D000F08BF9DEE7DFF87403FDF714FD04
:105E4000002140F275102080C9B2002901D1012043
:105E500005E0E6E70020010000202080032070BD5F
:105E600010B504000221D34802F064FB0028F9D0E9
:105E7000E4B2210089B2CF4802F058FB0121CD489D
:105E800002F058FB0028F9D0CA4802F051FBC0B21A
:105E900010BDF8B504000D0016004FF48051C6483F
:105EA000FDF735FF54F08000C0B2FFF7D9FF00279F
:105EB000FFB2F6B2B74205D2FFB2785DFFF7D0FF6E
:105EC0007F1CF5E74FF48051BB48FDF71DFFF1BD86
:105ED000F8B504000D0016004FF48051B648FDF7E8
:105EE00016FF2000C0B2FFF7BBFF0027FFB2F6B2DB
:105EF000B74206D2FF20FFF7B3FFFFB278557F1CF1
:105F0000F4E74FF48051AC48FDF7FEFEF1BD000010
:105F10000D0A000013B50400012201A92000C0B23F
:105F2000FFF7B7FF13BD38B504000D0001222900AB
:105F30002000C0B2FFF7CCFF31BD38B504000D0022
:105F40002A00D2B221000020FFF7A3FF31BD38B5EF
:105F500004000D002A00D2B221000020FFF7B8FF94
:105F600031BD10B50400E4B2012C06D100224FF47B
:105F700000419248FDF7CEFE05E001224FF40041BA
:105F80008E48FDF7C7FE10BD30B583B004000D008C
:105F9000009400208DF8040008208DF805008DF88D
:105FA000065000A802F05AF837BD80B50121142030
:105FB000FDF75AFD00211F20FFF7E6FF01214FF4F6
:105FC0008040FDF760FD01210120FDF73EFD00212D
:105FD0000120FDF767FD03208DF802004FF400401B
:105FE000ADF8000010208DF8030000A97348FDF7FC
:105FF000E3FD4FF40050ADF8000003208DF80200DF
:1060000018208DF8030000A96B48FDF7D5FD4FF46B
:106010000040ADF8000000A96748FDF7CDFD4FF442
:106020008040ADF8000004208DF8030000A962480C
:10603000FDF7C2FD4FF48050ADF8000010208DF840
:10604000030000A95C48FDF7B7FD0F20ADF8000084
:1060500003208DF8020028208DF8030000A958487D
:10606000FDF7AAFD03208DF802004FF48050ADF833
:10607000000010208DF8030000A95048FDF79CFD9A
:1060800001210120FDF7F0FC01BD80B501210120B7
:10609000FDF7EAFC012002F039F8022002F036F8A0
:1060A000042002F033F8082002F030F8002102202A
:1060B000FDF739FE01210220FDF735FE0221022005
:1060C000FDF731FE03210220FDF72DFE00211F20E8
:1060D000FFF75AFF01BD00B585B04FF48051364837
:1060E000FDF712FE0021334802F012FA314802F0A7
:1060F000BDF90020ADF800004FF48270ADF8020049
:106100000020ADF804000020ADF806000020ADF836
:1061100008004FF40070ADF80A001020ADF80C0034
:106120000020ADF80E000720ADF8100000A92148AE
:1061300002F0C8F901211F4802F0EAF905B000BDDC
:1061400080B5FFF732FFFFF7C6FF01BD80B51248EB
:10615000FFF7A4FAFFF7F4FFFFF797FF0120FEF720
:10616000A1F91848FBF793FD01BD0000ACA00008A1
:10617000401A00204A1A002088010020481C0020F4
:106180004C1C0020651C00204B1C002068A500084A
:106190004E1A0020611C0020601F0020C4A00008CF
:1061A00064A3000874A3000840771B00701F002040
:1061B000E400002000380040000C014000080140CD
:1061C00000100140E8A40008EFF3108072B6704799
:1061D00080F31088704700002DE9F04FA1B082468F
:1061E00002AE002017461D46029170620DF1440870
:1061F0000AE017F8011B0298D0470290002800F02F
:10620000DA82706A401C7062387808B9706AD4E229
:106210002528EED10020F06030617061B061F0613E
:10622000306201E040F0010017F8011F2029F9D089
:1062300023290DD02B2904D02D2906D030290AD0AE
:106240000CE040F0020080B2EEE740F00400FAE714
:1062500040F00800F7E740F01000F4E72A290DD1DC
:1062600029680A1D2A600968F162002904D549429B
:1062700040F00400F16280B27F1C13E00021F16263
:106280000BE0F16A6FF00043994205D001EB810306
:1062900002EB43013039F1627F1C3A78A2F1300100
:1062A0000A29EED339782E2903D04FF0FF31B1629D
:1062B0001EE017F8011F2A2906D129680A1D2A6045
:1062C0007F1C0968B16213E00021B1620BE0B16A82
:1062D0006FF00043994205D001EB810302EB4301CB
:1062E0003039B1627F1C3A78A2F130010A29EED32D
:1062F00030860FF63840397802F028F908B117F8DF
:10630000010B8DF83A009DF83A00682802BF3978F1
:106310006829622005D06C2804BF38786C2803D126
:1063200071208DF83A007F1C11A8B0603978B1F166
:10633000250029D01C3800F0C080001F022840F240
:10634000BC80133800F0E480093800F0B680801E6D
:1063500000F07781401E00F02081401E022840F2AC
:10636000AC80001F00F01981401F7BD0401E00F060
:10637000CF80401E22D0C01E0BD0801E00F0C880EF
:10638000C01E00F0C58064E1F068411CF160252169
:1063900069E12868011D29600068B26A7060002AFE
:1063A00002D502F0DFF807E0002102F0F7F800283C
:1063B0001ABF7168401AB06A306156E12868011D41
:1063C000296000210068CDE900014FF03C0E11A8C2
:1063D0007060DDE9000111B908B9B26ACAB10206FC
:1063E000120FA0EB02123032AEF10103D2B29E4680
:1063F0003A2AA8BF2732000903F8082040EA0170B2
:10640000090908BF002804D0726811AB73449A428E
:10641000E5D311A971447160CEF13C00B16A3061DD
:10642000884207DA081AB0614FF6EF71308E0840E3
:1064300030861AE1002940F1188196F8301001F0F9
:106440001401102940F01181F16AF268891AB269C9
:10645000891AA1EB000EBEF1010FC0F20681C6F849
:1064600018E002E19DF83A00622818D0682806D0AA
:106470006A280BD06C2819D0712807D016E028683C
:10648000011D29600068716A0180EEE02A68101D14
:1064900028601268706AC117C2E90001E5E0286847
:1064A000011D29600068716A0170DEE02868011D25
:1064B00029600068716A0160D7E02868C01D20F07B
:1064C0000700286000F108022A60D0E90023CDE926
:1064D0000023002B04D5F068421CF2602D220DE051
:1064E000308E820704D5F068421CF2602B2205E052
:1064F000C00705D5F068421CF260202200F8082091
:10650000F06811AA8018706000A800F0DDF9ACE016
:106510009DF83A006C2808BF2A6811D0712808BF7E
:106520002A6802D02A686A280AD1D21D22F00702FE
:106530002A60144604F108022A60D4E9002303E02B
:10654000131D2B6000231268CDE90023682808BFC3
:1065500092B207D0622808BFD2B203D0742818BF05
:106560007A2802D10023CDE9002396F830000007F5
:106570005FD5DDE90023002B08BF002A59D041F088
:106580002000782855D1F068302200F80820401CFF
:10659000421CF26000F808104BE09DF83A006228B7
:1065A0000CD0682810D06A281AD06C2823D0712803
:1065B00016D074281FD07A280CD01CE02868021D41
:1065C0002A6090F900201AE02868021D2A60B0F9BC
:1065D000002014E02868021D2A60002302680FE0F2
:1065E0002868C01D20F00700286000F108022A601A
:1065F000D0E9002304E02868021D2A600268D3174E
:10660000CDE90023002B04DAF068421CF2602D2251
:106610000DE0308E820704D5F068421CF2602B2218
:1066200005E0C00705D5F068421CF260202200F8A2
:106630000820F06811AA8018706000A800F0C0F867
:1066400013E0F068411CF16029680A1D2A6009689E
:1066500009E0F068421CF260252200F8082021B110
:10666000F068421CF26000F80810F06AF168401A05
:10667000B169401A3169401AF169401A7169401ACA
:10668000316AA0EB010996F830007F1C400710D456
:1066900020208DF84000002409E0012310AA00A961
:1066A000504600F02CFC002840F08580641C4C45CE
:1066B000F3DBF4680DF1440B0AE01BF8011B0298B0
:1066C000D0470290002876D0706A401C7062641E29
:1066D000002CF2D130208DF840004FF0000BB4694F
:1066E00009E0012310AA00A9504600F008FC002888
:1066F00061D10BF1010BA345F3DB3469D6F804B08B
:106700000AE01BF8011B0298D0470290002852D0E3
:10671000706A401C7062641E002CF2D130208DF82B
:1067200040004FF0000BF46909E0012310AA00A912
:10673000504600F0E4FB00283DD10BF1010BA345CE
:10674000F3DB30697168746900EB010B09E01BF839
:10675000011B0298D047029068B3706A401C7062B7
:10676000641E002CF3D130208DF840004FF0000B58
:10677000346A08E0012310AA00A9504600F0BFFBCC
:10678000C8B90BF1010BA345F4DB96F830004007C4
:106790007FF53AAD20208DF84000002400E0641C15
:1067A0004C45BFF631AD012310AA00A9504600F0B8
:1067B000A6FB0028F3D04FF0FF3021B0BDE8F08FEA
:1067C0002DE9FA4E05460A462F696F2A08BF0824AC
:1067D00005D041F02000782814BF0A241024D5E900
:1067E00000013C2681468B46642A18BF692A05D1E0
:1067F000002903DAD9F100096BEB4B0BBBF1000F59
:1068000008BFB9F1000F0CD1286B50B9082C36D154
:1068100095F83800000732D530203B2687F83B003A
:106820002DE0E31748465946224601F0E3FEA4FB5B
:106830000023A9EB02023032A6F1010AD2B2564679
:106840003A2A03DB9DF80030513B9A180AF80720DA
:1068500081465FEA010B08BFB9F1000F03D0E86879
:10686000F1198842DDD3082C09D195F838000007CA
:1068700005D5F05D302802D0761E3020F055C6F1E7
:106880003C00A861F119E960296B884208DA081A0E
:1068900028624FF6EF71288F08402887BDE8F38EF5
:1068A00000290ED595F8381001F01401102908D1EF
:1068B000696B6A69891A2A6A891A081A0128A8BFA5
:1068C0002862BDE8F38E00002DE9F04F07468FB037
:1068D0008B46D7E90001CDE9020104AE4BF0200060
:1068E00061280BD0386B002848BF062005D404BFB0
:1068F0004BF02000672801D1012038637968C1F38B
:106900000A5040F2FF7290421AD1080304BF38685F
:10691000002808D10320B861ABF161001A2835D3F3
:106920000FF21C6107E00320B861ABF161001A2887
:1069300029D30FF20461F868032200F005FBB6E1E9
:10694000012816DA384601F0CCFE012811DB0024BC
:1069500000204BF0200161291FD1F968302201F895
:10696000012B4A1CFA60BBF1610F0CBF7822582240
:106970000FE07A6840F2FE3161F31E52441A7A60E9
:106980004FF0FF30E5E70FF2AC51D4E70FF2AC5116
:10699000D1E70A707969891C796110B90025002452
:1069A0007DE14BF02000612840F09580386B002895
:1069B0004CBF2125451CDDE902012DB26E1CD7E933
:1069C00000890022002301F0ADFE3ABF89F00040AB
:1069D000CDE90280CDE90289241F8DF810200DF148
:1069E000110A01E000F2070A012E32DBDDE90201A3
:1069F0000022002301F01AFB2BD21C2102A801F077
:106A0000A9FEDDE90201FDF705FDF61F8046012E16
:106A100009DBFDF715FC02460B46DDE9020101F03A
:106A20001FFFCDE902010AF20700072105E008F087
:106A30000F0200F8012D4FEA2818B8F1010F01DB11
:106A4000491EF4D5491E5CBF002200F8012DF9D57E
:106A5000C8E70DF11100AAEB00010DF11106A942E2
:106A6000B8BF0D462DB228002ED4884206DA04A9FC
:106A7000411849780829A8BF0F2100DA002104AA8B
:106A8000821800E06D1E12F80139401E8B42F9D0C9
:106A90000F2904D104A941184A78521C4A700028D1
:106AA00002D504AE6D1C241D2DB2681E0CD48119B4
:106AB000ABF13A030A783032D2B23A2AA8BF9A1818
:106AC00001F80129401EF5D5386B002840F1E78018
:106AD000681E3863E3E0DDE902010022002301F0D3
:106AE00021FE3CBF81F00041CDE9020124B247F212
:106AF000975060434849DFF824A190FBF1F424B299
:106B0000C4F107050026012D19DBDDE90289E8073C
:106B100007D53246534640464946FDF7A9FB804615
:106B200089466D103046514632465346FDF7A0FB6C
:106B300006468A46002DEAD1CDE9028921E06D4260
:106B40009046DFF8DC9012E0E80707D5324653465E
:106B500040464946FDF78CFB804689466D1030461D
:106B6000514632465346FDF783FB06468A46002DC2
:106B7000EAD1DDE9020142464B4600F051FECDE983
:106B800002014BF0200066280CBF04F10A00062029
:106B9000396B4518142DA8BF132530208DF810002F
:106BA0000DF11106DFF87C90012D3DDBDDE90201DE
:106BB000FDF746FC06F1080104220A23B0FBF3F3BB
:106BC00003EB8306A0EB4600303001F8010D0A20EC
:106BD000B3FBF0F000EB8006A3EB4603303301F883
:106BE000013D521EE9D1083D01F10806012DDBDB14
:106BF000DDE90201FDF724FCFDF72CFB02460B4604
:106C0000DDE9020101F02CFE00224B46FDF730FBCE
:106C1000CDE90201CAE700BFA086010000002440C0
:106C20000000F03F84D797410DF11100301A0DF1AB
:106C3000110602E0401E641E761C31783029F9D01E
:106C40004BF02001662902D124B2611C03E06529C2
:106C50000CBF012100213A6B8D182DB2A842B8BF9C
:106C600005462DB229001AD4814204DA885D352800
:106C7000A8BF392000DA30208A19521E00E06D1EAC
:106C800012F80139491E8342F9D0392802D1885DB2
:106C9000401C8855002902D5761E6D1C641C24B248
:106CA00000942BB232465946384600F003F80FB034
:106CB000BDE8F08F2DE9F04786B006468A4690463B
:106CC0001D4601F0AAFE406A376B90F80090012D36
:106CD00002DA01250FF26C284AF02000BDF9384095
:106CE000662808BF641C12D0672875D114F1040F00
:106CF00078DBBC4276DA96F83800641C000702D4D0
:106D0000BD42B8BF2F4624B23F1B48BF0027F068E2
:106D1000B16924B2012C21DA30234A1C0B54012F13
:106D200003DA96F83810090702D502F80090521CD1
:106D3000B261E742B8BF7C4224B26142E719716296
:106D4000AF42B8BF3D462DB2F5612A46B369414610
:106D5000181800F0F9F8781BB062B9E00818A542DD
:106D600016DA2A46414600F0EFF8B1696918B161B8
:106D7000601B7062012F03DA96F83800000705D512
:106D8000F06801F80090F069401CF061B7629FE084
:106D90002246414600F0D8F8B06920182D1B012F7B
:106DA00003DA96F83810090703D5F16800F8019066
:106DB000401C2DB2B061AF42B8BF3D46F3682DB262
:106DC0002A4604EB0801C01800F0BEF8B069281884
:106DD000B061781B70627BE0BAF1610F14D14FF0A3
:106DE000700A16E0BD4204DA96F83810090758BF59
:106DF0002F467F1E48BF0027BAF1670F14BF4FF020
:106E0000450A4FF0650A04E0BAF1410F08BF4FF0A0
:106E1000500AB169F06818F8013B0B544A1C012F65
:106E200005DA96F83810090758BFB26115D502F88F
:106E30000090531CB361012F0FDB6D1E2DB2AF42CA
:106E4000B8BF3D462DB22A464146181800F07CF8DE
:106E5000B0692818B061781B7062B069F16800EB06
:106E60000108200008F801AB03D42B2008F8010B1F
:106E700003E02D2108F8011B6442002502AF08E061
:106E80000A2200A801F0E2FD019807F8010B6D1C31
:106E9000009C21B20129F3DA022D06DA4AF0200023
:106EA000652804BF302008F8010B4DB9302008F8E0
:106EB000010B07E06D1E02A8285C303008F8010BBA
:106EC000012DF7DAB069F1684018A8EB0000F06115
:106ED00096F8380000F0140010280DD17069B169DF
:106EE0000818716A0818F1690818B16A0818716BF6
:106EF0008842BCBF081A306206B0BDE8F087F8B51A
:106F000004460D4616461F46002004E0E86A401C71
:106F1000E8627F1E002047B116F8011BA868A04751
:106F2000A8600028F2D14FF0FF30F2BD686A6C749F
:106F30007A4C00006E616E004E414E00696E660034
:106F4000494E46003000000062B38B0708D0521E45
:106F500011F8013B00F8013B00F024808B07F6D1CB
:106F6000830740F0208000BF103A07D330B4B1E867
:106F70003810103AA0E83810F9D230BC530724BFBB
:106F8000B1E80810A0E8081044BF51F8043B40F8ED
:106F9000043BD20724BF31F8022B20F8022B44BF58
:106FA0000B7803707047083A07D3B1E80810083A25
:106FB00040F8043B40F804CBF7D25307E4E7000065
:106FC0002DE9FF4D8AB0DDE90C01CDE904010B98F4
:106FD000C0F30A5040F2FF7188420AD10020ADF898
:106FE00000000B98000305BF0A9800280225012520
:106FF00016E0012809DA0AA801F073FB012804DB76
:107000000020ADF8000000250AE00B9A40F2FE31A6
:1070100061F31E52401A0B92ADF800004FF0FF359D
:10702000002104A801F019FD0646169810B1169922
:107030000020088036B9DDE90C230020002101F092
:107040004BFD12D0002D12D5BDF90040012C13D1FB
:10705000DDE90A230020CB4901F03EFD05D0012ED9
:107060000AD1C94901F038FD2ED1C849BCE1022D31
:1070700004D1DDE90A01B7E1012E5ADB022E08BF77
:10708000DDE90C0100F0B081012D1BD10B98002827
:107090000D9802D4002849D533E0002809D4002EE9
:1070A00044D14FF0FF3104A801F0D7FC00283DD5B2
:1070B00039E036BB4FF0FF3104A801F0CEFC0028C8
:1070C0001FD51AE0012E0AD10D98BDF90040002805
:1070D00002D4012C2ADA14E0012C12DA26E00D98F1
:1070E000002811D46EB94FF0FF3104A801F0B5FCAF
:1070F000002844BF0B98002803D500204FF0004122
:1071000072E1002000216FE101F0F6FC2221016014
:1071100066B94FF0FF3104A801F09FFC002844BF7E
:107120000B98002802D5002099495DE1002099497B
:107130005AE10B98002848BF002E08D501F0DCFC6E
:10714000212101604FF0FF306FF000414CE1DDE99B
:107150000A010022002300F069FF38BFADF80420C7
:107160000AD381F00041CDE90A014FF0FF3104A8B4
:1071700001F073FCADF80400012C14D1DDE90A0123
:10718000854A864B01F0CEFA0DD2DDE90A230026AE
:107190004FF000087D4F30464FF08041FDF768F812
:1071A000CDE90A011BE0DDE90A23764D7C49002088
:1071B000FDF75EF800222B4600F086FCFDF72AF969
:1071C000A0F120084046FDF73BF80022754BFDF783
:1071D0004FF800222B4600F077FC06460F460FF2D0
:1071E000202000EB481006903246DDE90A013B46BC
:1071F00001F036FB82468B46DDE90A0132463B460A
:1072000000F062FC02460B465046594600F008FB6F
:10721000CDE90801DDE90823FDF72AF8CDE90AAB3D
:1072200004460D4601F06EFC22462B46FDF720F881
:10723000DDE90A2301F014FB04460D460020534902
:1072400032463B4601F00CFB00224FF08043FDF735
:107250000FF822462B4600F037FCDDE90823FDF746
:1072600007F802460B46DDE90A0100F02DFC044652
:107270000D464D4A4D4B00F0D3FACDE90401BDF95E
:107280000000FCF7DDFF069A82468B46D2E900013A
:1072900052465B4600F018FCDDE9042300F014FCC4
:1072A000CDE90401DDE90C23FCF7E2FFCDE90201A1
:1072B00000223F4B01F036FAC0F07E8001223D4BA8
:1072C00000F0B4FE7CD90022002301F02BFADDE9A6
:1072D000022339BF00202C4900202A4900F0F4FB8A
