:020000040800F2
:10000000D02E00205D8400084D7E0008797E000817
:10001000D17E0008D37E0008D57E000800000000D5
:10002000000000000000000000000000D77E000873
:10003000D97E000800000000DB7E0008696200082D
:10004000AD860008B1860008B5860008B9860008AC
:10005000BD860008C5720008EF390008193B00088A
:100060002D3B00089B3B0008C1860008C5860008A0
:10007000C9860008CD860008D1860008D58600080C
:10008000D9860008955C0008DD860008E186000836
:10009000E5860008E9860008ED860008F18600087C
:1000A000F5860008F9860008FD860008018700082B
:1000B00005870008098700080D87000811870008D8
:1000C00015870008198700081D8700082187000888
:1000D0002587000829870008575D00082D8700083C
:1000E0003187000835870008398700083D870008F8
:1000F0004187000845870008498700084D870008A8
:1001000051870008558700081181000859870008A9
:10011000C35B00085D8700086187000865870008E9
:10012000698700086D87000871870008935B0008E5
:100130002DE9F04FA1B0824602AE002017461D46C1
:10014000029170620DF144080AE017F8011B029851
:10015000D0470290002800F0DA82706A401C70627A
:10016000387808B9706AD4E22528EED10020F06012
:1001700030617061B061F061306201E040F0010017
:1001800017F8011F2029F9D023290DD02B2904D0DD
:100190002D2906D030290AD00CE040F0020080B2B0
:1001A000EEE740F00400FAE740F00800F7E740F01F
:1001B0001000F4E72A290DD129680A1D2A60096870
:1001C000F162002904D5494240F00400F16280B296
:1001D0007F1C13E00021F1620BE0F16A6FF0004335
:1001E000994205D001EB810302EB43013039F16202
:1001F0007F1C3A78A2F130010A29EED339782E29F2
:1002000003D04FF0FF31B1621EE017F8011F2A2919
:1002100006D129680A1D2A607F1C0968B16213E0B3
:100220000021B1620BE0B16A6FF00043994205D042
:1002300001EB810302EB43013039B1627F1C3A7854
:10024000A2F130010A29EED330860FF63840397812
:1002500000F036FE08B117F8010B8DF83A009DF852
:100260003A00682802BF39786829622005D06C28D6
:1002700004BF38786C2803D171208DF83A007F1CB8
:1002800011A8B0603978B1F1250029D01C3800F0F0
:10029000C080001F022840F2BC80133800F0E480C8
:1002A000093800F0B680801E00F07781401E00F013
:1002B0002081401E022840F2AC80001F00F019810E
:1002C000401F7BD0401E00F0CF80401E22D0C01EB9
:1002D0000BD0801E00F0C880C01E00F0C58064E115
:1002E000F068411CF160252169E12868011D296041
:1002F0000068B26A7060002A02D500F0F9FD07E0DC
:10030000002100F011FE00281ABF7168401AB06A7F
:10031000306156E12868011D296000210068CDE99F
:1003200000014FF03C0E11A87060DDE9000111B929
:1003300008B9B26ACAB10206120FA0EB021230323B
:10034000AEF10103D2B29E463A2AA8BF2732000975
:1003500003F8082040EA0170090908BF002804D00A
:10036000726811AB73449A42E5D311A9714471606C
:10037000CEF13C00B16A3061884207DA081AB061F8
:100380004FF6EF71308E084030861AE1002940F1B7
:10039000188196F8301001F01401102940F01181F5
:1003A000F16AF268891AB269891AA1EB000EBEF1EE
:1003B000010FC0F20681C6F818E002E19DF83A008C
:1003C000622818D0682806D06A280BD06C2819D06B
:1003D000712807D016E02868011D29600068716A3D
:1003E0000180EEE02A68101D28601268706AC1174B
:1003F000C2E90001E5E02868011D29600068716A12
:100400000170DEE02868011D29600068716A0160E2
:10041000D7E02868C01D20F00700286000F108021E
:100420002A60D0E90023CDE90023002B04D5F06831
:10043000421CF2602D220DE0308E820704D5F06858
:10044000421CF2602B2205E0C00705D5F068421C73
:10045000F260202200F80820F06811AA801870606D
:1004600000A800F0DDF9ACE09DF83A006C2808BF68
:100470002A6811D0712808BF2A6802D02A686A2821
:100480000AD1D21D22F007022A60144604F10802A4
:100490002A60D4E9002303E0131D2B6000231268B7
:1004A000CDE90023682808BF92B207D0622808BFB0
:1004B000D2B203D0742818BF7A2802D10023CDE924
:1004C000002396F8300000075FD5DDE90023002BFC
:1004D00008BF002A59D041F02000782855D1F06893
:1004E000302200F80820401C421CF26000F808107E
:1004F0004BE09DF83A0062280CD0682810D06A289A
:100500001AD06C2823D0712816D074281FD07A28CE
:100510000CD01CE02868021D2A6090F900201AE027
:100520002868021D2A60B0F9002014E02868021D26
:100530002A60002302680FE02868C01D20F0070031
:10054000286000F108022A60D0E9002304E028684E
:10055000021D2A600268D317CDE90023002B04DABC
:10056000F068421CF2602D220DE0308E820704D527
:10057000F068421CF2602B2205E0C00705D5F06848
:10058000421CF260202200F80820F06811AA8018AE
:10059000706000A800F0C0F813E0F068411CF16042
:1005A00029680A1D2A60096809E0F068421CF260A7
:1005B000252200F8082021B1F068421CF26000F802
:1005C0000810F06AF168401AB169401A3169401A9E
:1005D000F169401A7169401A316AA0EB010996F875
:1005E00030007F1C400710D420208DF840000024EC
:1005F00009E0012310AA00A9504600F02CFC0028B5
:1006000040F08580641C4C45F3DBF4680DF1440B2D
:100610000AE01BF8011B0298D0470290002876D010
:10062000706A401C7062641E002CF2D130208DF87C
:1006300040004FF0000BB46909E0012310AA00A9A3
:10064000504600F008FC002861D10BF1010BA345D6
:10065000F3DB3469D6F804B00AE01BF8011B0298FA
:10066000D0470290002852D0706A401C7062641E0D
:10067000002CF2D130208DF840004FF0000BF469CF
:1006800009E0012310AA00A9504600F0E4FB00286D
:100690003DD10BF1010BA345F3DB3069716874693F
:1006A00000EB010B09E01BF8011B0298D0470290F8
:1006B00068B3706A401C7062641E002CF3D1302055
:1006C0008DF840004FF0000B346A08E0012310AAB7
:1006D00000A9504600F0BFFBC8B90BF1010BA345C0
:1006E000F4DB96F8300040077FF53AAD20208DF816
:1006F0004000002400E0641C4C45BFF631AD0123EE
:1007000010AA00A9504600F0A6FB0028F3D04FF035
:10071000FF3021B0BDE8F08F2DE9FA4E05460A46BC
:100720002F696F2A08BF082405D041F020007828DF
:1007300014BF0A241024D5E900013C2681468B46CB
:10074000642A18BF692A05D1002903DAD9F1000902
:100750006BEB4B0BBBF1000F08BFB9F1000F0CD1D5
:10076000286B50B9082C36D195F83800000732D5DF
:1007700030203B2687F83B002DE0E31748465946DA
:10078000224600F0FDFBA4FB0023A9EB020230325D
:10079000A6F1010AD2B256463A2A03DB9DF8003090
:1007A000513B9A180AF8072081465FEA010B08BFFF
:1007B000B9F1000F03D0E868F1198842DDD3082CA5
:1007C00009D195F83800000705D5F05D302802D032
:1007D000761E3020F055C6F13C00A861F119E960A1
:1007E000296B884208DA081A28624FF6EF71288FC1
:1007F00008402887BDE8F38E00290ED595F83810FB
:1008000001F01401102908D1696B6A69891A2A6AF2
:10081000891A081A0128A8BF2862BDE8F38E0000D3
:100820002DE9F04F07468FB08B46D7E90001CDE99F
:10083000020104AE4BF0200061280BD0386B002879
:1008400048BF062005D404BF4BF02000672801D123
:10085000012038637968C1F30A5040F2FF72904278
:100860001AD1080304BF3868002808D10320B861F2
:10087000ABF161001A2835D30FF21C6107E00320A9
:10088000B861ABF161001A2829D30FF20461F8684E
:10089000032200F0EDFBB6E1012816DA384600F03D
:1008A00022FC012811DB002400204BF020016129EB
:1008B0001FD1F968302201F8012B4A1CFA60BBF104
:1008C000610F0CBF782258220FE07A6840F2FE31A7
:1008D00061F31E52441A7A604FF0FF30E5E70FF2E1
:1008E000AC51D4E70FF2AC51D1E70A707969891C99
:1008F000796110B9002500247DE14BF020006128CA
:1009000040F09580386B00284CBF2125451CDDE95F
:1009100002012DB26E1CD7E900890022002300F0ED
:1009200003FC3ABF89F00040CDE90280CDE902899D
:10093000241F8DF810200DF1110A01E000F2070AC2
:10094000012E32DBDDE902010022002300F004FC6D
:100950002BD21C2102A800F017FCDDE9020100F0F7
:1009600099FCF61F8046012E09DB00F0BFFC024611
:100970000B46DDE9020100F0D1FCCDE902010AF2EB
:100980000700072105E008F00F0200F8012D4FEAEB
:100990002818B8F1010F01DB491EF4D5491E5CBFD0
:1009A000002200F8012DF9D5C8E70DF11100AAEBDE
:1009B00000010DF11106A942B8BF0D462DB2280065
:1009C0002ED4884206DA04A9411849780829A8BF1C
:1009D0000F2100DA002104AA821800E06D1E12F82F
:1009E0000139401E8B42F9D00F2904D104A94118C6
:1009F0004A78521C4A70002802D504AE6D1C241D92
:100A00002DB2681E0CD48119ABF13A030A7830324A
:100A1000D2B23A2AA8BF9A1801F80129401EF5D58A
:100A2000386B002840F1E780681E3863E3E0DDE9B9
:100A300002010022002300F077FB3CBF81F000415F
:100A4000CDE9020124B247F2975060434849DFF8EC
:100A500024A190FBF1F424B2C4F107050026012D76
:100A600019DBDDE90289E80707D5324653464046DF
:100A7000494600F013FD804689466D1030465146C8
:100A80003246534600F00AFD06468A46002DEAD15A
:100A9000CDE9028921E06D429046DFF8DC9012E05A
:100AA000E80707D5324653464046494600F0F6FC73
:100AB000804689466D10304651463246534600F016
:100AC000EDFC06468A46002DEAD1DDE902014246E8
:100AD0004B4600F0B5FDCDE902014BF02000662841
:100AE0000CBF04F10A000620396B4518142DA8BF6D
:100AF000132530208DF810000DF11106DFF87C90E1
:100B0000012D3DDBDDE9020100F0DAFB06F1080111
:100B100004220A23B0FBF3F303EB8306A0EB4600A9
:100B2000303001F8010D0A20B3FBF0F000EB800635
:100B3000A3EB4603303301F8013D521EE9D1083DD5
:100B400001F10806012DDBDBDDE9020100F0B8FB55
:100B500000F0D6FB02460B46DDE9020100F0DEFBA9
:100B600000224B4600F09AFCCDE90201CAE700BF23
:100B7000A0860100000024400000F03F84D7974188
:100B80000DF11100301A0DF1110602E0401E641E35
:100B9000761C31783029F9D04BF02001662902D13A
:100BA00024B2611C03E065290CBF012100213A6BCE
:100BB0008D182DB2A842B8BF05462DB229001AD40F
:100BC000814204DA885D3528A8BF392000DA302058
:100BD0008A19521E00E06D1E12F80139491E834227
:100BE000F9D0392802D1885D401C8855002902D5EA
:100BF000761E6D1C641C24B200942BB232465946FA
:100C0000384600F003F80FB0BDE8F08F2DE9F0474B
:100C100086B006468A4690461D4600F052FE406A5F
:100C2000376B90F80090012D02DA01250FF26C2845
:100C30004AF02000BDF93840662808BF641C12D075
:100C4000672875D114F1040F78DBBC4276DA96F888
:100C50003800641C000702D4BD42B8BF2F4624B23E
:100C60003F1B48BF0027F068B16924B2012C21DA8C
:100C700030234A1C0B54012F03DA96F83810090769
:100C800002D502F80090521CB261E742B8BF7C4224
:100C900024B26142E7197162AF42B8BF3D462DB23E
:100CA000F5612A46B3694146181800F0E1F9781B4E
:100CB000B062B9E00818A54216DA2A46414600F0AB
:100CC000D7F9B1696918B161601B7062012F03DA4D
:100CD00096F83800000705D5F06801F80090F06933
:100CE000401CF061B7629FE02246414600F0C0F927
:100CF000B06920182D1B012F03DA96F83810090768
:100D000003D5F16800F80190401C2DB2B061AF42EC
:100D1000B8BF3D46F3682DB22A4604EB0801C0185F
:100D200000F0A6F9B0692818B061781B70627BE00A
:100D3000BAF1610F14D14FF0700A16E0BD4204DA27
:100D400096F83810090758BF2F467F1E48BF002766
:100D5000BAF1670F14BF4FF0450A4FF0650A04E07F
:100D6000BAF1410F08BF4FF0500AB169F06818F8A6
:100D7000013B0B544A1C012F05DA96F8381009077D
:100D800058BFB26115D502F80090531CB361012F12
:100D90000FDB6D1E2DB2AF42B8BF3D462DB22A46C5
:100DA0004146181800F064F9B0692818B061781B42
:100DB0007062B069F16800EB0108200008F801AB2F
:100DC00003D42B2008F8010B03E02D2108F8011BA8
:100DD0006442002502AF08E00A2200A800F08AFD64
:100DE000019807F8010B6D1C009C21B20129F3DA70
:100DF000022D06DA4AF02000652804BF302008F8EA
:100E0000010B4DB9302008F8010B07E06D1E02A858
:100E1000285C303008F8010B012DF7DAB069F16871
:100E20004018A8EB0000F06196F8380000F01400BC
:100E300010280DD17069B1690818716A0818F16934
:100E40000818B16A0818716B8842BCBF081A306272
:100E500006B0BDE8F087F8B504460D4616461F46B5
:100E6000002004E0E86A401CE8627F1E002047B1D1
:100E700016F8011BA868A047A8600028F2D14FF01F
:100E8000FF30F2BD686A6C747A4C00006E616E00CF
:100E90004E414E00696E6600494E4600300050F8E3
:100EA000041B61B150F8042BD30744BFA9F101031F
:100EB0009A18002342F8043B091FFAD1EFE7704764
:100EC0000278C9B28A421AB11CBF10F8012FF9E7A3
:100ED00018BF002070478268521C8260426832B19D
:100EE0000268531C036011704168491E41607047DD
:100EF00000F10103810704D010F8011B89B18107BB
:100F0000FAD10268B2F10131914311F0803F04BF80
:100F100050F8042FF6E710F8011B11B110F8011B6F
:100F2000FBE7C01A70470000C9B2830706D0521E03
:100F300022D310F8013B9942F7D11FE0083A13D3AE
:100F400002F1040241EA012141EA014150F8043B67
:100F5000121F21BF4B40A3F1013C2CEA030C1CF0F3
:100F6000803FF3D0C9B2001F083210F8013B521E77
:100F700028BF91EA030FF8D818BF0120401E704720
:100F80001B4213D1094236D12AB18446B0FBF2F09C
:100F900002FB10C2704700F0B5BCFCD30022002356
:100FA00070470B000200002100207047904271EB57
:100FB000030CF6D370B5B1FA81F4B3FA83F52C1BA8
:100FC000A340C4F1200532FA05F63343A2405FF096
:100FD0000046E64002E05B085FEA3202841A71EBE9
:100FE000030524BF204629467641F4D302000B00B6
:100FF0003000002170BD012ACFD970B5140C20D06B
:10100000B1FA81F4B2FA82F5C4F120046419B4F1A2
:101010002006D6D3B2405FF00044F440002502E041
:1010200052085FEA3303C61A71EB020E24BF304642
:10103000714664416D41F3D302000B00200029008A
:1010400070BD0C46B1FBF2F102FB11452D0445EADF
:101050001045B5FBF2F402FB145580B240EA054599
:10106000B5FBF2F002FB105240EA044070BD0000F4
:1010700062B38B0708D0521E11F8013B00F8013B08
:1010800000F024808B07F6D1830740F0208000BF5A
:10109000103A07D330B4B1E83810103AA0E838104D
:1010A000F9D230BC530724BFB1E80810A0E80810FB
:1010B00044BF51F8043B40F8043BD20724BF31F849
:1010C000022B20F8022B44BF0B7803707047083ABC
:1010D00007D3B1E80810083A40F8043B40F804CBC5
:1010E000F7D25307E4E730B4436803F0004201212C
:1010F0001B031B0B436004BF0368002B08D10DE0EA
:101100000368DD0F45EA440444605B000360491E48
:101110004468E302F4D523031B0B436043681A437E
:101120004260084630BC70474FF4001C1CEB410F76
:1011300094BF1CEB430F09E041EA030C50EA4C0C4E
:1011400052EA0C0C03D2994208BF9042704714BF78
:101150008B428242704700004FF4001C1CEB410F91
:1011600094BF1CEB430F09E041EA030C50EA4C0C1E
:1011700052EA0C0C03D28B4208BF8242704714BF64
:10118000994290427047000070B504460D46606871
:10119000C0F30A5040F2FF71884207D16068000333
:1011A00004BF2068002817D0022070BD20B9204657
:1011B000FFF799FF012867DA012D0FDB40F2FF717D
:1011C000091A8D420AD36068002847BF00202F49C2
:1011D00000202F49C4E90001012070BD4142A9420D
:1011E000616806DA6FF31E51401941EA00506060F1
:1011F00041E0401E63680122451962F31F5305F167
:10120000350001F000416360352803D361600020A0
:10121000206070BD002215F11F0F04DA22682360E0
:10122000002020356060684213D0521E256892412C
:10123000C0F12003D2439D4045EAD272256866681A
:10124000C54006FA03F32B432360636823FA00F0DA
:101250006060606808436060B2F1004F03D80DD150
:101260002078C0070AD52068401C2060206828B973
:101270006068401C60604FF0FF3070BD606888425D
:1012800004BF20680028F6D1002070BD0000F0FFE8
:101290000000F07FF446400D40EAC120490006D22C
:1012A00000F014F8004248BF6FF00040604700F0C3
:1012B0000DF84FF0004188428CBF0846404260471D
:1012C000400D40EAC120490080F00D8040F0004010
:1012D000490DA1F58061491C05D4D1F11F0154BF0E
:1012E000C840C01770474FF000007047010040F140
:1012F0000980F446404200F005F851F00041604793
:10130000010000BF09D0B0FA80F18840C91CC1F5C6
:101310008461090501EBD0214005704770B44FF09E
:10132000004591EA030F44BF6B4000F0F7BA00BFDD
:10133000841A71EB030604D26E40001BB1411219EE
:1013400073414FF4001C1CEB410F34BF7CEB430690
:1013500084E00C0DA4EB1356362E7DDC012E43DC0D
:1013600045EAC32343EA525312BFD20292025B08FA
:10137000240545EAC12141EA5051D2EBC0209941F0
:1013800025D407D1B0FA80F610FA06F164D0002017
:10139000203608E0B1FA81F6B140C6F1200220FA09
:1013A00002F21143B0404FEAF474B4EB465434F007
:1013B00001064FEA74040AD8D6F50016760D04F03B
:1013C0000044F04061FA06F25040F1404840C00A43
:1013D00040EA415021F0004128BF5FEA500550F13A
:1013E000000044EBD12137E045EAC323DB0A45EA9C
:1013F000C121C90AB6F120050EDD42EA0242120CF3
:10140000C5F1200603FA06F6EB4042EA06056D42F6
:10141000984161F100010DE062FA06F5F240554095
:1014200063FA06FC82EA0C02F3405A406D42904196
:1014300061EB030111F4801F05D1641E620502D027
:101440006D004041494121F48011430875F100438A
:1014500050F1000041EB045170BC70471CEB410F90
:1014600015D223F0004352EA43060BD04FEA4C0C4E
:10147000BCEB410F04D80C0D661E342EB7DDEBE734
:10148000801A994150EA410608BF0021E4E708BFED
:101490001CEB430F28BF6FF00001DDE7B0B581EA18
:1014A000030C0CF0004C40F2FF7515EA11541DBFFF
:1014B00015EA1357AC42AF4239E0E41923EA455329
:1014C00043F48013C90241F0004141EA505EC70273
:1014D0001100A7FB020200284FF00000EEFB0120E4
:1014E0004FF00001E3FB072118BF42F00102401852
:1014F00000214941E3FB0E01A4F580640F0302D2F1
:1015000052004041494154F101046CDD470872F139
:10151000004250F1000051EB0451A1F580115CBF75
:1015200041EA0C01B0BD4CEA05510020B0BD05EA0E
:101530001357AC4214BFAF4241E050EA410E1CBF0A
:1015400052EA430E02E061460020B0BD24423C4412
:101550001BD15FEA070EF6D0090302BF0146002047
:10156000AEF1140EB1FA81F7AEEB070401FA07FEF3
:101570000C37C7F1200100FA07F7C8404EEA000E09
:1015800023EA455343F48013A2E733F00043B3FA50
:1015900083F704BFB2FA82FE77440B3FE41BB7F136
:1015A000200E2FBF02FA0EF3BB40C7F1200E22FA25
:1015B0000EFE38BF43EA0E03BA40641C82E750EACD
:1015C000410E14BF52EA430E6FF000014FF40017B2
:1015D00017EB430F8ABF194617EB410FB5E74CEAEB
:1015E00005510020B0BDD4F10104B4F120070FDA99
:1015F000C4F12007520828BF42F0010210FA07F593
:1016000001FA07F7E1BF2A43E0403843E1400FE029
:10161000352C98DCC7F1200452EA400220FA07F288
:1016200018BF42F0010231FA07F0A1400A4300213D
:1016300072F1004250F1000051EB0C01B0BD00000E
:10164000F0B540F2FF7581EA030C0CF0004C15EA8E
:1016500011541DBF15EA1357AC42AF42E5E0BC413F
:10166000C1F31301C3F31303801A994143F48013A8
:1016700004D2641E4000494180185941C90241EA20
:101680005051B1FBF3F603FB1611A2FB0675D7EB25
:10169000C020A94102D2761E80185941C90241EAF0
:1016A0005051B1FBF3FE03FB1E11A2FB0E75D7EBED
:1016B000C020A94103D2AEF1010E80185941890220
:1016C00041EA9051760546EA8E2EB1FBF3F603FB14
:1016D0001611A2FB0675D7EB8020A94102D2761E17
:1016E00080185941C90241EA50514EEA060EB1FB39
:1016F000F3F603FB1611A2FB0675D7EBC020A94138
:1017000002D2761E80185941C90241EA5051B1FBFC
:10171000F3F703FB1711A2FB0735D3EBC020A94158
:1017200067F100070CBF004247F0010766F3D527B9
:101730004FEA1E31B80814F5806412DDBD0775F15B
:10174000004250EB0E5051EB045111F5801F5CBF6D
:1017500041EA0C01F0BD4CF07F6141F0E041002016
:10176000F0BDBD076D0840EA0E5041F48011D4F180
:101770000104B4F120060ADAC4F120060200E040B8
:1017800001FA06F3E1401843B24015430EE0342C51
:1017900013DCC6F1200445EA40056D0820FA06F284
:1017A000154321FA06F0A1400D43002175F10042D6
:1017B00050F1000051EB0C01F0BD00205FEA0C017C
:1017C000F0BDCFB992185B41B3FA83F704BFB2FA08
:1017D00082F6BF190B3FB7F120062FBF02FA06F3BE
:1017E000BB40C7F1200622FA06F638BF3343BA40A1
:1017F0001CB1E419641E33E77F4231F00041B1FAB5
:1018000081F404BFB0FA80F6A4190B3CB4F12006B1
:101810002FBF00FA06F1A140C4F1200620FA06F617
:1018200038BF3143A0403C1B1AE7AC421ABF05EA5F
:101830001357AF4212E050EA41061CBF52EA43067A
:10184000BFE750EA4107304661461CBF41EA0551F7
:10185000F0BD52EA430C08BFC143F0BD00204FF475
:10186000001616EB410F98BF16EB430F08BF16EB9F
:10187000410F24BFC14305E016EB430F0CBF614687
:101880004CEA0551F0BD000080B5134800F0B0F8F7
:101890000FF24801016041608160C16001614161F6
:1018A00081610FF23C0242628162C1620163416365
:1018B0000FF2300282630FF23402C26301644164AA
:1018C00001BD10B5044800F093F80446206808B93B
:1018D000FFF7DAFF204610BD0000002000000000E6
:1018E0002E00000066616C736500000074727565FF
:1018F0000000000091FBF2F303FB1211C0E900317C
:10190000704700007047000070B44FF0004591EA46
:10191000030C44BF6B40FFF70BBD00BF841A71EB93
:10192000030603D2001BB141121973414FF4001C8E
:101930001CEB410F34BF7CEB430443E00C0DA4EBE4
:101940001356352E50DC45EAC323DB0A45EAC12194
:10195000C912B6F120050DDD63FA05F6EB4086EA03
:101960000305124218BF45F00105C01851F10001EE
:101970000CD213E062FA06F5F2405540F3415A40AA
:10198000B340F3405A408018594107D349085FEAF1
:1019900030005FEA350528BF45F0010501F58011EB
:1019A000420875F1004250F1000041EB045170BC57
:1019B0004FF4001C1CEB410F38BF70470020090D8D
:1019C000090570471CEB410F10D252EA43060BD0B9
:1019D000BCEB410F05D80C0DAB43661E342EB5DDB4
:1019E00002E0AB438018594170BC704770BC70472F
:1019F0007047000038B504000D00607A50F0010017
:101A000060721E2221002DB2402000FB05F000F084
:101A1000E4FD31BD38B504000D001E2221002DB2B9
:101A2000402000FB05F000F0B9FD31BD00B24022BE
:101A300002FB00101E3070472DE9F04F89B0040002
:101A40000D0006220021280000F0D3FD0020804672
:101A500007000600A4B2002C07D10020DFF8201BED
:101A600008800020DFF81C1B0870A14619F1010056
:101A70008246DFF8100B0078002816D0DFF8000B44
:101A8000B0F9000001280ADB01202880DFF8F00A05
:101A90000088401EDFF8E81A0880002094E0DFF894
:101AA000E00AB0F90000060021E0DFF8D40AB0F93E
:101AB0000000012816DB01206880DFF8C40A0088D6
:101AC000401EDFF8BC1A0880DFF8B40AB0F9000045
:101AD000012801DB002003E0DFF8A40AB0F90000D0
:101AE00000B271E0DFF8980AB0F900000700DFF8F3
:101AF000900A008810EB090083460FFA8BFB0FFA5F
:101B00008AFAD34531DA594609B200A8FFF782FFB5
:101B10000020DFF8701A08709DF8090010F0260008
:101B200002280BD10120DFF85C1A0870BDF806000E
:101B300010EB0B0BBDF806008619DEE79DF80900D7
:101B4000800603D51BF1010B7F1CD6E79DF8090029
:101B5000400707D5BDF8060010EB0B0BBDF80600DB
:101B6000C719CAE7BAEB0B008046B81918EB00009A
:101B7000401EDFF80C1A0880DFF8040AB0F90000F4
:101B800001280BDBDFF8FC090078002803D0D7F12F
:101B90000100060002E0D6F1010007002E806F80F0
:101BA000A5F80480DFF8DC090078002805D1DFF80B
:101BB000D009B0F90000012801DB002003E0DFF8C4
:101BC000C009B0F9000000B209B0BDE8F08F70B5EF
:101BD00088B004000D001E22002100A800F009FDBD
:101BE00022208DF809000020060036B22DB2AE4248
:101BF00006DA311909B200A8FFF7FCFE761CF4E7FB
:101C000008B070BDF0B583B0040000200500ADB28F
:101C1000B5F5007F36D200A9280080B2FFF70CFF8F
:101C20000700BDF9000001282ADA012C03D1BDF913
:101C30000400002805D0002C22D1BDF902000128A3
:101C40001EDB2E00DFF840090068B0F9000036B254
:101C5000864203DADFF83009006806803FB2012FC0
:101C600005DB390009B2701C00B2FFF7B0FF280095
:101C7000C0B200F09FFC012C02D13FB2012F01DA6B
:101C80006D1CC4E7F7BD4A7A920702D4401C00B22B
:101C900008E04A7A920602D5401C00B202E0C988E8
:101CA000081800B27047F0B40200002003005FF093
:101CB000FF3005000400042B17DA0C20DFF8CC7885
:101CC0003F6800FB0370B0F90600002801D11D0039
:101CD0000BE00C20DFF8B4783F6800FB0370807ADB
:101CE000002800D11C005B1CE5E715F1010F06D1AF
:101CF00014F1010F01D0230001E0002019E00C20B5
:101D0000DFF888783F6800FB03700600B2805FF060
:101D1000FF303060C888F0800020F072487A0007F9
:101D200003D5F07A50F00100F0725FF0FF3030819F
:101D30003000F0BC704770B588B00400002005008A
:101D4000042D2ADA0C20DFF84418096800FB05107E
:101D5000B0F9060000281ED00C20DFF83018096802
:101D600000FB0510B0F9041000A8FFF753FE9DF822
:101D7000090010F0360002280DD10DF10A012000F3
:101D800000F042FC002806D10C20DFF8001809689A
:101D900000FB051027E06D1CD2E70020060036B2DC
:101DA000B6F5007F1EDA310009B200A8FFF732FE57
:101DB0009DF8090010F0360002280CD10DF10A013F
:101DC000200000F021FC002805D100A9300000B25D
:101DD000FFF769FF07E000A9300000B2FFF753FFEB
:101DE0000600DCE7002008B070BD70B598B00400B4
:101DF000210009B210A8FFF70DFEBDF84600401EF5
:101E000005002DB2002D21D4402200A924B22DB20C
:101E100028194023584300F0C1FB3F200600002E44
:101E200012D400A8305C00280CD02DB2002D03D1B4
:101E30001E2E01D200200AE02DB2402000FB0560DA
:101E40001D3804E0761EEAE76D1EDAE7002018B0C0
:101E500070BD70B588B004005FF0FF300600DFF899
:101E600028070068B0F9000005002DB2B5F5007F25
:101E700039DA290009B200A8FFF7CCFD9DF8090066
:101E8000800726D436B216F1010F06D12E0036B2E5
:101E900024B2A019B0F5007F25DA00A9280000B20D
:101EA000FFF7F1FE05002DB236B224B2A01985422B
:101EB000DBDBDFF8D4060068B0F9000036B28642FA
:101EC00004D1A019DFF8C01609680880300000B2FC
:101ED0000BE05FF0FF30060000A9280000B2FFF71A
:101EE000D2FE0500C1E75FF0FF3008B070BD2DE9FC
:101EF000F04188B004000D0016001F00210009B257
:101F000000A8FFF787FD9DF8090010F026000228C1
:101F100002D05FF0FF3075E0002D0FD09DF8090072
:101F200000070BD5002300220021BDF90000FFF7B8
:101F3000DEFF002802D55FF0FF3063E09DF8090066
:101F400050F004008DF80900210009B200A8FFF745
:101F500051FD0020DFF8381609680870002E24D0E3
:101F600000208046B8F1080F1FDA0C20DFF8241695
:101F7000096800FB08104068002813D00C20DFF827
:101F80001416096800FB08104068B0F9040024B278
:101F9000A04207D100200C21DFF8F825126801FBD0
:101FA0000821087218F10108DCE700208046B8F12A
:101FB000040F26DA0C20DFF8D415096800FB08109E
:101FC000B0F9040024B2A04218D15FF0FF300C2118
:101FD000DFF8B825126801FB0821888000200C2159
:101FE000DFF8A825126801FB0821887200200C2167
:101FF000DFF89825126801FB0821C88018F1010854
:10200000D5E7002008B0BDE8F0815D30800900B25E
:1020100070472DE9F04389B004000D0016001F0041
:10202000002E06D12000FFF786FE002801D00020F8
:1020300048E0280000B2FFF70CFF80460FFA88F84E
:1020400018F1010F1BD1DFF848050068007800285F
:1020500001D0002036E00020FFF7D4FD280000B2B8
:10206000FFF7F7FE80460FFA88F818F1010F06D146
:102070000120DFF81C1509680870002022E01E22EC
:10208000002100A800F0B5FA132221000DF10A008A
:1020900000F0DBFAADF8065057F002008DF80900A9
:1020A000414609B200A8FFF7A5FC00A9404600B2CE
:1020B000FFF7F9FD8146B9F1000F02D00020C9F801
:1020C0000000484609B0BDE8F0832DE9F24F92B018
:1020D0000400210009B201A8FFF79CFC01210DF1C9
:1020E0000E0000F0CBF80500002D02D55FF0FF30A8
:1020F000ADE0BDF90A0012998840ADF80000002358
:102100000122BDF900100DF10E00FFF782FF80469D
:10211000B8F1000F05D1280000F004F95FF0FF309E
:1021200095E000200700BDF80800002802D15FF00C
:10213000400B01E0BDF808B0584600F08CFA82462A
:102140005A465146280000F06EF90600002E0FD5C1
:10215000012300220021B8F90400FFF7C8FE28007F
:1021600000F0E0F8504600F07FFA5FF0FF306EE0DC
:10217000012E09DB3900B8F90400FFF757FC3200E3
:10218000514600F02AFAF719504600F06DFA002E79
:10219000C9D100208146B9F1080F24DA0C20DFF8FC
:1021A000F413096800FB0910007A002818D00C20ED
:1021B000DFF8E013096800FB09104068B0F904007B
:1021C00024B2A0420CD10C20DFF8C813096800FB30
:1021D0000910C0F8048098F80A00401C88F80A002A
:1021E00019F10109D7E7002300220121200000B2E4
:1021F000FFF77DFE00280CD5002300220021B8F94E
:102200000400FFF774FE280000F08CF85FF0FF3048
:102210001DE0B8F9041009A8FFF7FCFBBDF80800A1
:10222000ADF82800BDF80600ADF82600B8F9041096
:1022300009A8FFF7DFFB98F80B0010F0FE0088F804
:102240000B00C8F80070280000F06CF8002013B0F4
:10225000BDE8F08F0020010008290CDA0C20DFF81F
:102260003423126800FB0120007A002801D1080005
:1022700003E0491CF0E75FF0FF307047F8B5040059
:102280000D00FFF7E7FF0600002E02D55FF0FF30DC
:1022900047E00C20DFF8FC12096800FB061007007D
:1022A000002038722000FFF746FD7860786800282B
:1022B0001BD115F00300012802D15FF0FF3030E0A0
:1022C0004020FFF7A2FE00230122010009B22000F6
:1022D000FFF79FFE78607868002802D15FF0FF303A
:1022E0001FE00020796808600BE07868006810F152
:1022F000010F06D17868B0F90400FFF776FD796820
:102300000860387A28433872680702D57868006810
:1023100000E0002038607868807A401C7968887214
:102320003000F2BD002829D4082827DA0C21DFF874
:102330006422126801FB0021097A00291ED00021C5
:102340000C22DFF850321B6802FB003211720C21A4
:10235000DFF84022126801FB002149680C228D4BF6
:102360001B6802FB00325268927A521E8A72002168
:102370000C22884B1B6802FB00325160704770B41E
:102380000300002B09D4082B07DA0C20814E366895
:1023900000FB0360007A002802D15FF0FF302DE0DF
:1023A0000C207C4E366800FB03600400002A01D13B
:1023B0000D000FE0022A04D16068006808180500CB
:1023C00008E0012A03D120680818050002E05FF048
:1023D000FF3013E0002D06D46068B0F906004026F7
:1023E0007043A84202DA5FF0FF3007E060680068DF
:1023F000A84201DA606805602560280070BC70475B
:1024000038B504002000FFF796FC0500002D02D12E
:102410005FF0FF3006E0012301220121B5F904003D
:10242000FFF765FD32BD2DE9F04104000D001600F7
:10243000002C11D4082C0FDA0C205649096800FB37
:102440000410007A002807D00C205249096800FBCC
:102450000410007AC00702D45FF0FF3025E00C20A2
:102460004C49096800FB0410070078688046D8F8DA
:10247000000039687118884204D2D8F80000396821
:10248000401A060098F80B00C0070DD43968B8F957
:102490000400FFF7CBFA3200290000F07FF838681B
:1024A00030183860300000E03000BDE8F0812DE9E0
:1024B000F04104000D001600002C11D4082C0FDA96
:1024C0000C203449096800FB0410007A002807D06A
:1024D0000C203049096800FB0410007A800702D400
:1024E0005FF0FF3032E00C202A49096800FB04103D
:1024F000070078688046B8F90600402148433968EB
:1025000089191E3188420CD20121B8F90400FFF765
:10251000DCFD002802D55FF0FF3017E078688046C8
:10252000E9E73968B8F90400FFF780FA32002900BA
:1025300000F053F8386830183860D8F8000039686F
:10254000884202DA3868C8F800003000BDE8F0813F
:1025500010B500200C490968088000200400B4F57B
:10256000007F05D22000C0B200F024F8641CF6E71A
:1025700094220021084800F03CF8002010BD000023
:10258000BC1E0020C41E0020248600081C860008F3
:102590002886000820860008CC1C002070B50400A6
:1025A0000D001600320092B22900200080B200F027
:1025B00024F970BD70B50400E4B2402000FB04F5BE
:1025C00015F14006B6B2B6F5004F05DC40220021F9
:1025D000280080B200F074F970BD70B504000D00E1
:1025E0001600320092B22900200080B200F033F9C8
:1025F00070BD10B5044610460A460146204600F05C
:102600009BF9204610BD0000820707D010F8012B6F
:1026100011F8013BBAB19A42F6D014E002680B6897
:102620009A42A2F1013301BF934313F0803F50F867
:10263000042F51F8043FF3D010F8012B11F8013B9F
:102640000AB19A42F8D0D01A704710B50446FEF786
:102650000FFD204610BD80B500F0A2F9009008B92A
:1026600000F0F8F9009802BD00F0F8B910B50400C8
:102670000221DFF8B80200F095FA0028F8D0E4B2A1
:10268000210089B2DFF8A40200F088FA0121DFF806
:102690009C0200F087FA0028F8D0A44800F080FAE5
:1026A000C0B210BD80B501210C2000F057FB2020E6
:1026B000ADF8000003208DF8020018208DF803000B
:1026C00000A99B4800F0F2FB8020ADF8000000A9B3
:1026D000974800F0EBFB4020ADF8000004208DF897
:1026E000030000A9924800F0E1FB0120ADF80000D2
:1026F00010208DF8030000A98E4800F0D7FB1020B1
:10270000ADF8000003208DF8020010208DF80300C2
:1027100000A9874800F0CAFB1021854800F06EFC34
:1027200001BD00B585B001214FF4805000F016FBCB
:102730000121804800F062FC00217C4800F020FA72
:102740007A4800F0CBF90020ADF800004FF4827019
:10275000ADF802000020ADF804000020ADF806003E
:102760000020ADF808004FF40070ADF80A0010200A
:10277000ADF80C000020ADF80E000720ADF81000F9
:1027800000A96A4800F0D6F90121684800F0F8F97C
:1027900005B000BD80B5FFF785FFFFF7C2FF01BDA3
:1027A00080B50121634800F02CFC0620FFF75EFF96
:1027B0000121604800F022FC01BD80B501215D4887
:1027C00000F01FFC0420FFF751FF0121594800F0E1
:1027D00015FC01BD10B50121564800F012FC052082
:1027E000FFF744FFAA20FFF741FF040001215148F1
:1027F00000F004FC2000C0B210BDF8B504000D00CC
:10280000160001214B4800F0FCFB0320FFF72EFFD0
:10281000A4B24FF4807094FBF0F0C0B2FFF726FF33
:10282000A4B24FF4807194FBF1F000FB1140C0B2F0
:10283000FFF71CFF0027BFB2B6B2B74206D2AA20EC
:10284000FFF714FFBFB278557F1CF4E70121394828
:1028500000F0D4FBF1BDF8B504000D001600FFF741
:10286000B9FF800701D4FFF79BFF0121314800F039
:10287000C8FB0220FFF7FAFEA4B24FF4807094FB6D
:10288000F0F0C0B2FFF7F2FEA4B24FF4807194FBF7
:10289000F1F000FB1140C0B2FFF7E8FE0027BFB225
:1028A000B6B2B74205D2BFB2785DFFF7DFFE7F1C3C
:1028B000F5E701211F4800F0A1FBFFF77EFFF1BD06
:1028C000F8B504000D001600FFF784FF800701D45F
:1028D000FFF766FF0121174800F093FB0220FFF786
:1028E000C5FEA4B24FF4807094FBF0F0C0B2FFF7C5
:1028F000BDFEA4B24FF4807194FBF1F000FB1140D7
:10290000C0B2FFF7B3FE0027BFB2B6B2B74205D2DE
:102910002800C0B2FFF7AAFE7F1CF5E70121054899
:1029200000F06CFBFFF749FFF1BD000000300140F3
:1029300000080140000C014062F30F2262F31F42C5
:10294000401810F0030308D0C91A1FD3DB0748BF93
:1029500000F8012D28BF20F8022D130030B41446D2
:102960001546103928BF20E93C00FAD8490728BF8E
:1029700020E90C0048BF40F8042D890028BF20F84A
:10298000022D48BF00F8012D30BC7047C91818BF90
:1029900000F8012DCB0728BF00F8012D704700007B
:1029A00070B5054605F10F00C408E400C046C046F6
:1029B000A54232D2082C04D2082402E0083000F0EC
:1029C0004DF82348026811000CD1011D0A6802B3BA
:1029D0001368A34238BF111DF8D310E01D68A5424B
:1029E0000DD2191D0B68002BF8D11268011D00E0F3
:1029F000191D0B6893420CD01D68A542F8D361B134
:102A00000D682A68A2F10803A3420AD26A680A6024
:102A100010E000F02DFB0028D0D1C046C0460020B9
:102A200070BD63190B60121B0E686B6873600B68D6
:102A30001A602C60096800291DBF4A68002A091D18
:102A400000210160C046C04605F1080070BD0000CD
:102A5000781E0020012000F021BB000000B9704763
:102A600010B5A0F108042068082833D310F0070F30
:102A700030D1C046C0461848416809B18C4203D2E3
:102A80006160446017E019464B680BB1A342FAD36A
:102A90000A6853189C421BD3A34204D123689A1896
:102AA0000A600C4607E04A681AB123681B199A426B
:102AB0000ED362604C60616851B1226813198B4279
:102AC00006D10023036008688018206048686060B1
:102AD000C046C04610BD0000781E002010B504009E
:102AE000244884420AD101214FF4805000F054F967
:102AF00000214FF4805000F04FF91AE01E48844244
:102B00000AD101214FF4804000F055F900214FF423
:102B1000804000F050F90CE01848844209D10121AE
:102B20004FF4004000F047F900214FF4004000F05E
:102B300042F910BD10B4002203881A0012F4415269
:102B40000B884C8823438C882343CC8823430C89EF
:102B500023434C8923438C892343CC8923431A4341
:102B60000280838B4FF2FF74234083830B8A03829E
:102B700010BC70470030014000380040003C00406D
:102B8000C9B2002904D0028852F04002028004E059
:102B900002884FF6BF731A400280704781817047E8
:102BA000808970470200002013890B4202D0012364
:102BB000180001E000231800C0B27047DFF8A0122F
:102BC000096831F48031DFF898221160DFF8901243
:102BD000096831F48021DFF8882211600100B1F525
:102BE000803F03D0B1F5802F09D011E0DFF87012DB
:102BF000096851F48031DFF86822116008E0DFF8DD
:102C00006012096851F4A021DFF854221160FFE737
:102C10007047C0B2DFF85412086070470021914A33
:102C2000126811008908890001438E4A11607047BB
:102C3000C9B2002905D08E4A127802438C4B1A7013
:102C400004E08B4A12788243894B1A707047894995
:102C500009680143874A11607047C0B2864908601D
:102C6000704730B400210022002300247D4D2D68E0
:102C700015F00C0529000D00002D04D0042D05D001
:102C8000082D06D026E07D4D056025E07B4D0560D2
:102C900022E0744D2D6815F470152A00714D2D68D1
:102CA00015F480352B00920C921C002B04D1744D2E
:102CB00005FB02F505600CE06A4D2D68AD0304D5F7
:102CC0006F4D05FB02F5056003E06C4D05FB02F559
:102CD000056001E0694D0560624D2D6815F0F00555
:102CE00029000909674D4D5D2C000568E5404560E8
:102CF0005C4D2D6815F4E0652900090A614D4D5DB4
:102D00002C004568E5408560564D2D6815F46055EA
:102D10002900C90A5B4D4D5D2C004568E540C56042
:102D2000504D2D6815F440452900890B564D4D5DD9
:102D30002C00C568B5FBF4F5056130BC7047C9B21D
:102D4000002905D0514A12680243504B1A6004E032
:102D50004E4A126882434D4B1A607047C9B200292F
:102D600005D04B4A12680243494B1A6004E0484AB6
:102D700012688243464B1A607047C9B2002905D0D9
:102D8000444A12680243434B1A6004E0414A126805
:102D90008243404B1A607047C9B2002905D03E4AB1
:102DA000126802433C4B1A6004E03B4A12688243BB
:102DB000394B1A607047C9B2002905D0374A1268EA
:102DC0000243364B1A6004E0344A12688243334BA4
:102DD0001A607047C0B232490860704710B40100F1
:102DE000002200230020C9B24C09E4B22200012ACB
:102DF00003D11B4C2468230008E0022A03D11D4C98
:102E00002468230002E0274C24682300C9B211F093
:102E10001F04220033FA02F4E40702D50124200043
:102E200001E000242000C0B210BC70471D480068BB
:102E300050F080701B4908607047010000200A4A6A
:102E40001268C9B20A4202D00122100001E0002239
:102E50001000C0B2704714490870704700000000AD
:102E6000001002400410024008100240600042427C
:102E700009100240201002403C04424200127A0035
:102E800000093D00F40000207801002014100240E9
:102E9000181002401C1002400C100240101002409A
:102EA0004C004242241002400A100240F0B50027B4
:102EB0000022002300240025002691F803C01CF006
:102EC0000F0C674691F803C05FEACC6C03D591F80C
:102ED00002C05CEA070791F800C05FEA0C6C3AD0C8
:102EE000D0F800C065465FF0000C6346082B31D275
:102EF0005FF0010C1CFA03FC6446B1F800C014EA50
:102F00000C0C6246A24223D15FEA830C64465FF058
:102F10000F0C1CFA04FC6646B54317FA04FC5CEA85
:102F2000050591F803C0BCF1280F06D15FF0010C34
:102F30001CFA03FCC0F814C00AE091F803C0BCF10D
:102F4000480F05D15FF0010C1CFA03FCC0F810C05B
:102F50005B1CCBE70560B1F800C0BCF1FF0F3FDDA3
:102F6000D0F804C065465FF0000C6346082B36D2EB
:102F70005FF0010C13F1080E1CFA0EFC6446B1F868
:102F800000C014EA0C0C6246A24226D15FEA830C10
:102F900064465FF00F0C1CFA04FC6646B54317FA52
:102FA00004FC5CEA050591F803C0BCF1280F07D1C9
:102FB0005FF0010C13F1080E1CFA0EFCC0F814C0EF
:102FC00091F803C0BCF1480F07D15FF0010C13F179
:102FD000080E1CFA0EFCC0F810C05B1CC6E745606A
:102FE000F0BD02000020936889B20B4202D0012399
:102FF000180001E000231800C0B2704789B20161D7
:10300000704789B241617047D2B2002A02D089B2BA
:10301000016101E089B24161704730B400220F23A1
:1030200011F00304E4B2A400A3401A00C9B28B104B
:103030000E4C54F823309343C9B28C100B4D45F815
:103040002430C9B28B10094C54F82330C0B211F0AF
:103050000304E4B2A40010FA04F42343C9B28C10B0
:10306000024D45F8243030BC704700000800014094
:103070000749086808B1002070470648C008C0002A
:1030800008600549C908C900091A0160704700BFF6
:10309000B81E0020D72E0020D032002080B5C046B8
:1030A000C046024A11001820ABBEFBE72600020012
:1030B000DFF8240B0068704710B5012000F014FF02
:1030C000FFF7F6FF0400FFF7F3FFA11C8842FAD3D5
:1030D000002000F009FFFFF7EBFF0400FFF7E8FF17
:1030E000A11D8842FAD310BD10B50400FFF7E4FF1C
:1030F000DFF8200ADFF8E41A0860002000F0D0F8BA
:10310000E4B2002C33D0DFF8D40A0068407850F0E5
:103110008000DFF8C81A09684870DFF8C00A006844
:103120004178012000F0B9FE012000F0B9F800203C
:10313000DFF8AC1A08700020DFF8A41A48700020ED
:10314000DFF89C1A88700020DFF8941AC8700020FD
:10315000DFF88C1A08710020DFF8841A4871DFF854
:10316000802AD2E9000100F0CAF800F09AF910BDF7
:103170002DE9F04395B006000F0000A8DFF8641AAF
:103180005022FDF785FFF6B200A810EBC600D0E98B
:10319000002390469946FFB23800FEF7B1F80200CE
:1031A0000B0000205FF0804101F0E1F942464B4600
:1031B000FEF746FA04000D002000290015B0BDE816
:1031C000F0832DE9F04F85B00600F6B2B01CADF8E3
:1031D0000200DFF8140A90F80680DFF80C0A407A43
:1031E0008DF80100DFF8000A807D8DF80000DFF81F
:1031F000F80990F807905FFA89F919F10400FEF7D1
:1032000075F882468B46BDF80200C0005FFA88F868
:10321000B0EB88002C309DF80110142202FB110045
:10322000FEF764F804000D005FFA88F89DF80000CE
:10323000B8EB40008000FEF759F802000B002000B8
:103240002900FEF7FDF901F0ABFB52465B46FEF7A5
:1032500025F9CDE90201DDE90201FEF731F80700A9
:10326000002F02D017F1080000E0082005B0BDE8EB
:10327000F08F80B5FF20FFF7A4FF3221B0FBF1F003
:10328000C0B202BDDFF864090068704780B5DFF89E
:103290004C09006810F14101422000F007FE01BD19
:1032A00010B50400DFF834090068407810F0F80029
:1032B0002043DFF8281909684870DFF82009006802
:1032C0004178012000F0E9FD10BD80B5DFF80C0960
:1032D000006810F10C010C2000F0E8FDDFF8FC089C
:1032E0000068007BC0B2400902BDDFF8080990F910
:1032F00000007047DFF80029D2E90001704703B5EC
:1033000081B09DF804009DF8051008439DF8061053
:1033100008439DF807100843DFF8C018096881F8D2
:103320003F009DF808009DF809100843DFF8AC182D
:10333000096881F840000222DFF8A008006810F157
:103340003F01402000F06BFD07BD80B500A91920AA
:1033500000F0ACFD9DF80000000612D59DF80000BD
:10336000C043401C801010F03F00DFF88818087040
:10337000DFF8800890F900004042DFF87818087004
:1033800006E09DF80000C0B28008DFF868180870F9
:10339000DFF8600890F9000002BDF8B5DFF83C08DE
:1033A000006810F11A011A2000F080FDDFF83808DB
:1033B0000068DFF84818884233D2DFF8380890F9FF
:1033C0000000002819D5DFF814080068807EFDF79A
:1033D00097FF0022DFF82838FEF796FA06000F0064
:1033E000DFF8100890F90000FDF780FF32003B0085
:1033F000FEF78AFA04000D0046E0DFF8E0070068F7
:10340000807EFDF77DFFDFF80028DFF80038FEF74B
:1034100045F80022DFF8E837FEF776FA04000D00E1
:1034200032E0DFF8D00790F90000002819D5DFF866
:10343000AC070068807EFDF763FF0022DFF8C43729
:10344000FEF762FA06000F00DFF8A80790F9000007
:10345000FDF74CFF32003B00FEF756FA04000D006A
:1034600012E0DFF878070068807EFDF749FFDFF89B
:103470009827DFF89837FEF711F80022DFF8843735
:10348000FEF742FA04000D0020002900F4BDDFF829
:10349000800790F800017047DFF8741781F8000189
:1034A000704780B5FFF7F2FE6F22DFF86817012042
:1034B00000F0D4FC2020DFF8241709680873DFF837
:1034C0001C070068017B0C2000F0E7FC0020FFF7E0
:1034D000E7FEDFF81407006801F092FADFF808074A
:1034E000807901F062FBDFF80007C07901F093FBFF
:1034F000DFF8F406007A01F0AFFBDFF8EC06407964
:1035000001F032FBDFF8E006407A01F0E7FB40F221
:10351000FF3001F054FCDFF8D006407D01F0FBFBEA
:10352000DFF8C406D0F8170080B201F0B6FBDFF870
:10353000B8068179DFF8B0064079FFF719FE00225E
:10354000DFF8D436FDF708FE03D8012001F057FC60
:1035500002E0002001F053FC802001F017FC002065
:1035600001F0E9FBDFF8800690F9040001F06FFA42
:10357000FFF77FFEDFF8701608730120FFF78CFF5E
:10358000002000F08EF901BD38B504000D00EDB249
:103590002A0092B22100DFF8780601F06FFCDFF814
:1035A000700680F8025131BD10B50400DFF838060E
:1035B000807A012805D10320DFF8541681F8000134
:1035C00006E00220DFF8481681F8000100F08AF8D2
:1035D000DFF83C0680F8FF400020DFF8341681F861
:1035E000030110BD10B50400DFF8FC05807A012846
:1035F00036D1DFF8E8050068C07BDFF8E015096820
:103600004873DFF8D8050068417B0D2000F045FCC9
:10361000DFF8D405407A012809D1DFF8C005006839
:1036200090F82200DFF8E81581F801010FE0DFF8DB
:10363000AC05006810F11301132000F037FCDFF82F
:103640009C050068C07CDFF8C81581F80101DFF82F
:10365000C00590F80111DFF8B80500F03BFC3DE033
:10366000DFF87805006810F11001102000F01EFC52
:10367000DFF87405407A012809D1DFF86005006899
:1036800090F82200DFF8881581F801010FE0DFF8DB
:103690004C05006810F11301132000F007FCDFF85F
:1036A0003C050068C07CDFF8681581F80101DFF88F
:1036B0002C050068007CDFF8241509684873DFF8E2
:1036C0001C050068417B0D2000F0E7FBDFF840059A
:1036D00090F80111DFF8380500F0FCFB0120FFF73E
:1036E00063FF10BD80B50121012000F015FC012110
:1036F000082000F011FCDFF8F004C07A00280CD09C
:10370000DFF818050078DFF8181551F8200001F0EF
:1037100077F90121042000F0FFFB01BD38B504005A
:103720000D000120FFF7BCFDFF20DFF8B014096891
:103730004874FF21122000F0B0FB00211F2000F090
:10374000EBFBDFF8A404C07A00282ED0DFF88C044D
:103750000068407C10F0F500DFF8801409684874B8
:10376000DFF88404007BDFF87414096881F8240012
:10377000DFF86804006810F11C011C2000F096FBC3
:10378000DFF898040078DFF8981451F8200001F071
:1037900037F90220FFF784FD4020DFF84414087059
:1037A0000020DFF83C14887018E0DFF83C04006863
:1037B00001F026F9DFF824040068407C10F0F700DF
:1037C000DFF81814096848740020DFF8101409683D
:1037D00081F824004020DFF808140870DFF8FC03AB
:1037E000006890F82410242000F057FBDFF8EC0369
:1037F0000068417C112000F050FBDFF8E423D2E99F
:103800000001FFF77CFDDFF8D403006880F8225048
:10381000DFF8C803006890F82210222000F03DFB7A
:103820000020DFF8B81309688873DFF8B003006878
:10383000817B0E2000F031FBDFF8A0030068807B65
:10384000DFF8981309684873DFF890030068417B3C
:103850000D2000F022FB0720FFF71EFE2900C9B251
:103860002000FFF791FE2900C9B2DFF8A40300F0A1
:1038700027FB0121012000F04FFBDFF86C03C07A29
:10388000002803D00121042000F046FB0320FFF7AD
:1038900007FDDFF890238621DFF88C0301F021FC7F
:1038A00031BD10B504000120FFF7FAFCFF20CB4921
:1038B00009684874C9480068407C10F08F00C74907
:1038C000096848740020C64908700120C449C870BE
:1038D000C548C07A00281FD0C348007BBF4909688B
:1038E00081F82400BD480068407C10F0FD00BB4911
:1038F00009684874B948006810F11C011C2000F0E8
:10390000D5FAC6480078C64951F8200001F078F889
:103910000020B349887008E0B348006801F070F8EF
:103920000020AE49096881F82400AF48807A012858
:1039300020D1AA480068417C112000F0AEFAA748C7
:10394000006890F82410242000F0A7FAA44AD2E9D5
:103950000001FFF7D4FCFFF795FCA349C1F817005D
:10396000A148D0F8170080B201F097F90620FFF7C0
:1039700097FC27E099480068C07B9849096848731C
:1039800096480068417B0D2000F087FA9348006854
:10399000417C112000F081FA9048006890F82410D2
:1039A000242000F07AFA8E4AD2E90001FFF7A7FC42
:1039B00020208D49C1F81700202001F06EF9052064
:1039C000FFF76EFC0220924981F800018648C07A18
:1039D000002803D00121042000F09EFA01210120DB
:1039E00000F09AFA0121082000F096FA10BD80B587
:1039F000012001F02BFC002800F08A80012001F05A
:103A000039FC042001F036FC814890F800010728B9
:103A100004D00B286AD00E281CD079E000210120A8
:103A200000F07AFA0021042000F076FA0821122032
:103A300000F033FA7D4801F009FD0820744981F84F
:103A400000010120FFF72CFC764A8621764801F020
:103A500048FB5DE000211F2000F05EFA734801F092
:103A6000F5FC4021122000F018FA5C48006810F1C3
:103A70001201122000F01AFA58480068807C800673
:103A800020D52021122000F008FAFFF786FC5A4AC0
:103A9000C2E90001FFF759FC564908700020FFF702
:103AA00083FD5548D0E90023614801F0B5FEFFF7DA
:103AB0001CFC40B201005F4801F0AEFE5E4801F020
:103AC000ABFE12E0FFF769FC4B4AC2E90001FFF7C9
:103AD0003CFC484908704E4890F80501FFF782FD0C
:103AE000504A8621504801F0FCFA11E004211220CE
:103AF00000F0D3F910215148FFF773FA012806D1DD
:103B00000121122000F0C9F90020FFF7CAFEFFE7EB
:103B100001BD0000601D002080B5022001F096FB71
:103B2000002802D0022001F0A5FB01BD80B50420D1
:103B300001F08CFB00282FD0042001F09BFB2748CC
:103B4000006810F11201122000F0B0F9234800685B
:103B5000807C800720D50221122000F09EF9FFF71B
:103B6000B4FB234908701D48006810F11C011C209B
:103B700000F09CF92948007818490968097F08185D
:103B800010F03F00322190FBF1F201FB12002449BA
:103B900051F8200000F034FF01BD80B5082001F08D
:103BA00055FB002817D0082001F064FB00210820F5
:103BB00000F0B2F91021122000F06FF9144890F8CB
:103BC0000001022803D10E20114981F800010120D3
:103BD0000F4981F8030101BDA41E0020A81E00208A
:103BE000701E0020707F0008A8000020AC1E00207E
:103BF00086010020CB1E0020681E0020008F42336B
:103C0000008064C000A063C01B9E5E29CB10F13F02
:103C10002C1A0020611D002000003040CC1E002026
:103C2000847D00082C1B0020D4000020541E00209E
:103C3000A4850008B0850008BC850008001001407C
:103C4000F8B504000D00160001212088002802D0DC
:103C50005B2803D0C4E000215B202080C9B200298A
:103C600001D10120C1E0EDB2862D40F09A8030787C
:103C7000072806D14FF4FA61DFF8800401F0C8FB91
:103C8000E9E73078082803D10020FFF70AFEE2E7D1
:103C900030780E280AD14FF4FA61DFF8600401F0A1
:103CA000B7FBDFF85C0401F0B7FDD4E730780228F9
:103CB000D1D1DFF8500490F8FF000028CBD00020CD
:103CC000DFF8401481F8FF00DFF83C040088401C56
:103CD000DFF834140880FFF70DFB02000B00DFF85B
:103CE0002C0401F099FDFFF700FB40B20100DFF862
:103CF000200401F091FDDFF8100400884FF480717A
:103D000090FBF1F202FB11020092DFF8FC03008845
:103D10004FF4807190FBF1F3DFF8F80300884FF463
:103D2000807190FBF1F202FB1102DFF8E8030088DA
:103D30004FF4807190FBF1F1DFF8DC0301F06CFDD2
:103D40000027DFF8C00390F80101FFB2874208D2D4
:103D5000FFB2DFF8B003395C6DA001F05DFD7F1CA0
:103D6000EFE76CA001F058FDDFF8B0030078002801
:103D70003FF471AFDFF89003008880B2000ADFF8EB
:103D8000A0130870DFF880030088DFF894134870F0
:103D9000DFF8700390F80111DFF88403FFF7BEFC31
:103DA00059E7EDB2882D7FF456AFDFF85003864215
:103DB0007FF451AFFFF76BFB072803D1DFF86403F3
:103DC00001F02AFDFFF763FB0E2803D1DFF858034B
:103DD00001F022FD00F07CF90020FFF762FD3AE7D8
:103DE00000200100002020800320F2BD10B5040057
:103DF0000221CE48FEF7D6FE0028F9D0E4B2210019
:103E000089B2CA48FEF7CAFE0121C848FEF7CAFEB9
:103E10000028F9D0C548FEF7C3FEC0B210BDF8B502
:103E200004000D0016004FF48051C148FFF7E9F877
:103E300054F08000C0B2FFF7D9FF0027FFB2F6B2FE
:103E4000B74205D2FFB2785DFFF7D0FF7F1CF5E7E0
:103E50004FF48051B648FFF7D1F8F1BDF8B5040032
:103E60000D0016004FF48051B148FFF7CAF820004A
:103E7000C0B2FFF7BBFF0027FFB2F6B2B74206D2CF
:103E8000FF20FFF7B3FFFFB278557F1CF4E74FF434
:103E90008051A748FFF7B2F8F1BD13B50400012225
:103EA00001A92000C0B2FFF7BAFF13BD38B5040066
:103EB0000D00012229002000C0B2FFF7CFFF31BD65
:103EC00038B504000D002A00D2B221000020FFF70F
:103ED000A6FF31BD38B504000D002A00D2B2210082
:103EE0000020FFF7BBFF31BD10B50400E4B2012C88
:103EF00006D100224FF400418E48FFF785F805E017
:103F000001224FF400418B48FFF77EF810BD0000FE
:103F1000257820000D0A000030B583B004000D00A4
:103F2000009400208DF8040008208DF805008DF81D
:103F3000065000A801F046F937BD80B501211420D4
:103F4000FEF70CFF00211F20FFF7E6FF01214FF4D1
:103F50008040FEF712FF01210120FEF7F0FE002154
:103F60000120FEF719FF03208DF802004FF40040F6
:103F7000ADF8000010208DF8030000A96D48FEF791
:103F800095FF4FF40050ADF8000003208DF80200BB
:103F900018208DF8030000A96548FEF787FF4FF44D
:103FA0000040ADF8000000A96148FEF77FFF4FF424
:103FB0008040ADF8000004208DF8030000A95C48A3
:103FC000FEF774FF4FF48050ADF8000010208DF81C
:103FD000030000A95648FEF769FF0F20ADF8000066
:103FE00003208DF8020028208DF8030000A9524814
:103FF000FEF75CFF03208DF802004FF48050ADF80F
:10400000000010208DF8030000A94A48FEF74EFF7B
:1040100001210120FEF7A2FE01BD80B50121012092
:10402000FEF79CFE012001F025F9022001F022F9A3
:10403000042001F01FF9082001F01CF900210220E2
:10404000FEF7EBFF01210220FEF7E7FF022102202D
:10405000FEF7E3FF03210220FEF7DFFF00211F2010
:10406000FFF75AFF01BD00B585B04FF480513048CD
:10407000FEF7C4FF00212D48FEF782FD2B48FEF716
:104080002DFD0020ADF800004FF48270ADF8020065
:104090000020ADF804000020ADF806000020ADF8C7
:1040A00008004FF40070ADF80A001020ADF80C00C5
:1040B0000020ADF80E000720ADF8100000A91B4845
:1040C000FEF738FD01211948FEF75AFD05B000BD85
:1040D00080B5FFF732FFFFF7C6FF01BD80B5074887
:1040E00001F0B4F9FFF7F4FFFFF797FF0120FEF7A7
:1040F000FBFF124801F090FB01BD0000541E0020A0
:10410000388500082C1A0020C01E002044850008B5
:1041100050850008BE1E0020FC8300088501002099
:10412000341C00200C8400081C8400080038004067
:10413000000C014000080140001001405C850008AF
:104140002DE9FF4D8AB0DDE90C01CDE904010B98A2
:10415000C0F30A5040F2FF7188420AD10020ADF846
:1041600000000B98000305BF0A98002802250125CE
:1041700016E0012809DA0AA8FCF7B5FF012804DBDC
:104180000020ADF8000000250AE00B9A40F2FE3155
:1041900061F31E52401A0B92ADF800004FF0FF354C
:1041A000002104A801F062FE0646169810B1169987
:1041B0000020088036B9DDE90C230020002101F041
:1041C00095FE12D0002D12D5BDF90040012C13D15F
:1041D000DDE90A230020CB4901F088FE05D0012E3D
:1041E0000AD1C94901F082FE2ED1C849BCE1022D95
:1041F00004D1DDE90A01B7E1012E5ADB022E08BF26
:10420000DDE90C0100F0B081012D1BD10B980028D5
:104210000D9802D4002849D533E0002809D4002E97
:1042200044D14FF0FF3104A801F020FE00283DD515
:1042300039E036BB4FF0FF3104A801F017FE00282B
:104240001FD51AE0012E0AD10D98BDF900400028B3
:1042500002D4012C2ADA14E0012C12DA26E00D989F
:10426000002811D46EB94FF0FF3104A801F0FEFD13
:10427000002844BF0B98002803D500204FF00041D0
:1042800072E1002000216FE101F040FE2221016077
:1042900066B94FF0FF3104A801F0E8FD002844BFE3
:1042A0000B98002802D5002099495DE1002099492A
:1042B0005AE10B98002848BF002E08D501F026FED1
:1042C000212101604FF0FF306FF000414CE1DDE94A
:1042D0000A0100220023FCF73FFF38BFADF804209D
:1042E0000AD381F00041CDE90A014FF0FF3104A863
:1042F00001F0BCFDADF80400012C14D1DDE90A0188
:10430000854A864BFCF710FF0DD2DDE90A23002613
:104310004FF000087D4F30464FF08041FDF7BEF86A
:10432000CDE90A011BE0DDE90A23764D7C49002036
:10433000FDF7B4F800222B46FDF7E6FAFCF7AAFFDA
:10434000A0F120084046FCF7D1FF0022754BFDF795
:10435000A5F800222B46FDF7D7FA06460F460FF2C6
:10436000202000EB481006903246DDE90A013B466A
:10437000FCF7D4FF82468B46DDE90A0132463B4614
:10438000FDF7C2FA02460B4650465946FDF758F96A
:10439000CDE90801DDE90823FDF780F8CDE90AAB96
:1043A00004460D4601F0B8FD22462B46FDF776F88F
:1043B000DDE90A23FCF7B2FF04460D46002053490D
:1043C00032463B46FCF7AAFF00224FF08043FDF740
:1043D00065F822462B46FDF797FADDE90823FDF73D
:1043E0005DF802460B46DDE90A01FDF78DFA044649
:1043F0000D464D4A4D4BFDF723F9CDE90401BDF9BA
:104400000000FCF773FF069A82468B46D2E9000152
:1044100052465B46FDF778FADDE90423FDF774FAAE
:10442000CDE90401DDE90C23FDF738F8CDE90201FF
:1044300000223F4BFCF778FEC0F07E8001223D4B0E
:10444000FCF78AFE7CD900220023FCF76DFEDDE933
:10445000022339BF00202C4900202A49FDF754FAD5
:10446000FCF718FF0646DDE90C0122462B46FDF756
:1044700015F8CDE90201069A2B4C2C4DD2E9020128
:104480001746D7E90423FDF73FFADDE90C23FDF7D2
:1044900005F822462B46FDF701F8DDE90223FDF77A
:1044A00033FACDE90201069F5246D7E900015B4687
:1044B000FDF72AFADDE90C23FCF7F0FF07468B46EF
:1044C0003046FCF713FF02460B4638465946FCF7C8
:1044D00025FF22462B46FCF7E1FFDDE90223FDF72D
:1044E00013FACDE90201169808B10680002600965D
:1044F0000022064B02A801F065FDE8B101281FD09B
:104500002AE000BF0000E03F0000E0BF0000F03FF5
:104510000000F0FF0000F07FCD3B7F669EA0E63FED
:10452000000050400000903FEF39FAFE422EE63F77
:104530000000E0C00000E0400020CDE9020007E0FC
:104540000020014902E000BF0000F07FCDE9020138
:1045500001F0DCFC22210160BDF904000028DDE946
:10456000020118BF81F000410EB0BDE8F08D10B51A
:1045700082B000240094FFF7E3FD1CBD00000000A2
:10458000000000000000F0BF0000000000000080FC
:10459000000000000000008000000000000000009B
:1045A000000000C05294EEBF00000048204E51BEF3
:1045B000000000F86467BCBC0000000000000000C0
:1045C000000000208133EDBF00000080B3DB14BE8B
:1045D000000000506706A3BC0000000000000000BF
:1045E000000000D0E9DCEBBF00000008C39259BE18
:1045F00000000080B0D3B8BC000000000000000044
:1046000000000070F98FEABF000000C0A51028BEAE
:10461000000000E8BFC0B0BC0000000000000000C7
:1046200000000070284CE9BF00000060134B42BE40
:10463000000000C03D20B8BC0000000000000000E9
:1046400000000050FA10E8BF000000C05FF62BBE6B
:10465000000000905C71A7BC00000000000000009A
:1046600000000020FCDDE6BF000000C0F8F154BEF1
:1046700000000018E9F6B9BC0000000000000000CE
:10468000000000D0C3B2E5BF00000070E43254BEA9
:1046900000000050DB06B4BC000000000000000079
:1046A00000000010EF8EE4BF00000020F36252BE55
:1046B000000000C02A879ABC000000000000000033
:1046C000000000B02272E3BF000000F0E8E056BE38
:1046D00000000028352DBDBC0000000000000000D7
:1046E000000000000A5CE2BF000000B0FA8E41BE8C
:1046F00000000040AE6FBDBC0000000000000000E4
:1047000000000000564CE1BF000000F015CD5FBE78
:1047100000000000141C90BC00000000000000001D
:1047200000000040BD42E0BF00000030F93457BE39
:10473000000000E06C1E93BC0000000000000000C0
:10474000000000E0F57DDEBF000000B08A535EBED1
:1047500000000080DA77AABC000000000000000022
:10476000000000C09D81DCBF00000000FFA226BE4B
:104770000000006057E2B0BC000000000000000034
:1047800000000060F98FDABF000000580A8151BEB6
:10479000000000F05F60B8BC0000000000000000F6
:1047A0000000000098A8D8BF000000607A7F45BED6
:1047B000000000D05433A3BC000000000000000043
:1047C000000000600FCBD6BF000000D091CB40BEF0
:1047D000000000406D1BA0BC0000000000000000B5
:1047E000000000A0FBF6D4BF00000098C5CE52BE6A
:1047F000000000003A397EBC00000000000000000C
:10480000000000E0FE2BD3BF0000004073872BBEEA
:1048100000000000926879BC000000000000000069
:1048200000000040C069D1BF00000058F16353BED2
:1048300000000080438D7CBC0000000000000000F0
:1048400000000080D85FCFBF000000181F8354BE57
:10485000000000B03F42A2BC0000000000000000C9
:104860000000008067FCCBBF00000060FAFF53BE71
:1048700000000050E00DB8BC000000000000000087
:104880000000000098A8C8BF000000607A7F35BE15
:10489000000000C0543393BC000000000000000082
:1048A00000000000DC63C5BF00000058D6FF54BE06
:1048B00000000000396490BC00000000000000000F
:1048C000000000C0AD2DC2BF00000080A45915BE7D
:1048D000000000E0484BABBC0000000000000000FE
:1048E000000000801A0BBEBF00000050BF3C5ABE43
:1048F000000000A0B364B6BC00000000000000008F
:104900000000008004D6B7BF00000040BBCF36BE19
:104910000000008076CEA8BC00000000000000006F
:104920000000008032BBB1BF000000402A0043BE3F
:1049300000000028C60CBDBC000000000000000004
:10494000000000009473A7BF000000182B3B59BE65
:10495000000000C0E55DA5BC0000000000000000F4
:1049600000000000EE4397BF000000A0E6C340BE79
:1049700000000020958DB5BC000000000000000084
:104980000000000000000080000000000000008027
:104990000000000000000080000000000000000097
:1049A00040F2FF7C1CEA115240F2FE33D21ACCBF17
:1049B000D2F1350316E0B2F1150309DA6FEA4C5370
:1049C000D340094201D4401E594100209943704709
:1049D0006FF00002DA40094202D4801851F1000160
:1049E00090437047352A09DA50EA41031CBF40F270
:1049F000FF31090528BF4FF000410020704700003B
:104A000010B50400DFF8680404602000FCF778FCAF
:104A10000022DFF86034FCF713FEFCF751FC0400C1
:104A2000200CDFF8541409688871200ADFF8481454
:104A30000968C871DFF84004006804720322DFF8D7
:104A400038040068811D0620FFF7E9F910BD10B594
:104A50000400DFF82404006810F109010920FFF7C1
:104A600025FADFF81404006810F14C014D20FFF71F
:104A70001DFADFF804040068407A000648D5DFF824
:104A8000F803006890F84C0010F0870087281FD1C9
:104A900064B2052C01DA0520040064B2152C01DB98
:104AA00014200400DFF8D0030068407A50F0700052
:104AB000DFF8C41309684872601FDFF8BC13096887
:104AC000497A60F30301DFF8B0030068417240E007
:104AD00064B2022C01DA0220040064B2122C01DB61
:104AE00011200400DFF890030068407A50F0700055
:104AF000DFF8841309684872A01EDFF87C13096888
:104B0000497A60F30301DFF870030068417220E026
:104B100064B214F1010F02DA5FF0FF30040064B2F6
:104B20000F2C01DB0E200400DFF84C030068407AF4
:104B300050F07000DFF8401309684872601CDFF81D
:104B400038130968497A60F30301DFF82C03006821
:104B50004172DFF824030068417A0920FFF79DF9CC
:104B6000DFF80C03047110BD10B50400DFF8080372
:104B7000006810F11D011D20FFF798F9DFF8F80219
:104B80000068407F10F00F0050EA0410DFF8E812D0
:104B900009684877DFF8E0020068417F1D20FFF7D1
:104BA0007CF9DFF8CC02447110BD10B50400E4B20A
:104BB0000D2C02DB0C20040004E0E4B2062C01DA28
:104BC00006200400E4B2062C03D1052000F034F9DD
:104BD00002E0032000F030F9DFF89C02006810F1D9
:104BE0001E011E20FFF762F9DFF88C020068807F4B
:104BF00010F00F0050EA0410DFF87C120968887783
:104C0000DFF874020068817F1E20FFF746F9DFF8A5
:104C10006002847110BD10B50400DFF85C0200680A
:104C200010F11D011D20FFF741F9DFF84C0200686B
:104C3000407F10F0F10050EA4400DFF83C120968B0
:104C40004877DFF834020068417F1D20FFF725F91F
:104C5000DFF81C02C47110BD10B50400DFF81802A3
:104C6000006810F11E011E20FFF720F9DFF808028E
:104C70000068807F10F0FB0050EA8400DFF8F81134
:104C800009688877DFF8F0010068817F1E20FFF750
:104C900004F9DFF8DC01047210BD10B50400022233
:104CA000DFF8D401006810F120012020FFF7D6F8CA
:104CB000A4B2200ADFF8C011096881F82000DFF8EB
:104CC000B801006880F821400222DFF8AC010068DA
:104CD00010F120012020FFF7A2F810BD10B504004C
:104CE000DFF89401006810F11D011D20FFF7DEF8C8
:104CF000DFF884010068407F10F0FE0020435E4929
:104D0000096848775C480068417F1D20FFF7C5F8B7
:104D10005748447210BD10B504005748006880F829
:104D200022405548006890F822102220FFF7B5F87D
:104D30004F48447510BD10B504004F48006810F18D
:104D40004C014D20FFF7B2F84B48006810F1090103
:104D50000920FFF7ABF848480068407A000608D5FC
:104D6000E4B2012C0AD187204349096881F84C003C
:104D700004E084204049096881F84C003E480068FE
:104D800090F84C104D20FFF788F810BD10B50400C6
:104D90003948006810F109010920FFF787F8364803
:104DA0000068407A10F07F00204333490968487258
:104DB00031480068417A0920FFF76FF810BD10B53F
:104DC000040002222C48006810F11E011E20FFF78B
:104DD00045F8A4B2200A28490968897F60F30101D7
:104DE00025480068817724480068C4770222224859
:104DF000006810F11E011E20FFF711F810BD10B55C
:104E000004001D48006810F126012620FFF74EF827
:104E10001948006890F8260010F0F70050EAC40026
:104E20001549096881F826001348006890F8261093
:104E30002620FFF732F810BD10B504000E480068B8
:104E400010F130013120FFF731F80B48006890F87D
:104E5000300010F0F80020430749096881F830005D
:104E60000548006890F830103120FFF716F810BDA3
:104E7000A800002080844E40A81E002030B403000B
:104E800018000C0015006A1EADB2002D04D0257864
:104E90000570641C401CF5E730BC704770B5040019
:104EA0000D00B94800680600A64203D0002E01D0CC
:104EB0003668F9E7A6420DD0B34800682060B248D2
:104EC00004600120A0730020A0812A00812120001D
:104ED00000F039F970BDF8B504000D00AB48076863
:104EE000A94800680600A64203D0002E01D036680B
:104EF000F9E7002E3AD0200000F05CF900281CD021
:104F00000020A073A04800680600002E08D0B4421C
:104F100004D022008721300000F029F83668F4E739
:104F2000A068002809D0AC4207D09848046000224D
:104F3000832114F10C00A3689847934800688442C9
:104F400005D19148006800688F4908600CE08E48E0
:104F500000680600002E07D03068A04202D1206809
:104F6000306001E03668F5E788480760F1BDF8B5C4
:104F700004000D001600A07BC0071CD5A068002807
:104F800019D0824804600220A07332002900C9B2FF
:104F900014F10C00A36898470700022F04D0032FD8
:104FA00002D0EDB2832D04D121002000FFF793FF42
:104FB00001E00120A073F1BD8A2072490870002031
:104FC000734908707349087000206F4908606F4981
:104FD0000860704710B500206F4908706A48006883
:104FE0000400002C0DD0E07B002808D00120A07325
:104FF0000020E073002282212000FFF7B8FF246820
:10500000EFE710BD80B563480078002859D06048AC
:1050100000780C21614A01FB00200078604908708B
:105020005B4800780C215D4A01FB002040685D4927
:105030000860574800780C21584A01FB002080681E
:105040005949086052480078401C202190FBF1F239
:1050500002FB11024E4802704E480078401E4D4936
:1050600008705148006800281BD1474800684F4924
:1050700008604E480068002823D047480078002880
:1050800001D0FFF7A7FF4748026845480178474825
:105090000068FFF76CFF45480068006843490860F6
:1050A000E7E73F480078812803D101203E4909689D
:1050B00088733C4802683A4801783B480068FFF72B
:1050C00056FF01BD80B534480078002801D0FFF7B5
:1050D00081FFFFF797FF2F4800782F4909780818BC
:1050E00002BD30B403002B480078202801D10120F4
:1050F00027E027480078274C24782018C0B22024C5
:1051000090FBF4F505FB1405294805702848007844
:105110000C24224D04FB00500170254800780C241B
:105120001E4D04FB00504260214800780C241B4DAA
:1051300004FB0050836017480078401C154C207019
:10514000002030BC7047F8B504000D0016000F4871
:10515000076832002900C9B22000FFF708FF0B489A
:105160000760F1BD00280AD0817B012902D0817B34
:10517000022904D10121C1730121074A117070472E
:1051800000000000C51E0020901E0020941E00207C
:10519000C71E0020C61E0020C81E002010160020BA
:1051A000C91E0020981E00209C1E0020A01E00206A
:1051B000CA1E0020807B002801D0012000E00020D2
:1051C000C0B2704700212D4A11008279002A36D0E2
:1051D0002A4A126803689A43284B1A60284A1268C0
:1051E00003689A43264B1A60027951180A680368CB
:1051F0001A430A60234A126803689A43214B1A60D3
:10520000214A126803689A431F4B1A604279102A98
:105210000CD11C4A126803681A431A4B1A601A4AC6
:10522000126803681A43184B1A600EE0134A110003
:10523000427951180A6803681A430A6005E0027946
:1052400051180A6803689A430A60704701000020F9
:1052500000220A4B1B680B401A000C4B1B680B42C8
:1052600004D0002A02D00123180001E00023180016
:10527000C0B2704705490860704700000004014053
:1052800004040140080401400C04014014040140DE
:1052900070B580480068002803D100207E4908606E
:1052A0001DE001F009F805007A4800680600306842
:1052B00071680818401B0400B668002E0CD03068D6
:1052C00071680818401BA04204D230687168081841
:1052D000401B0400B668F0E760196F49086070BDB4
:1052E0002DE9F04104000D0016000121208800285E
:1052F00002D0592806D05EE00020664908600021EF
:1053000059202080C9B2002901D1012058E0EDB216
:10531000872D24D130005F49096800290AD05D49F2
:105320000968C968814205D15A4909688968594A9A
:105330001160F0E75749096800290FD055490968FD
:105340000F00B968002909D0B968C968814203D142
:10535000B9688968B960F4E7BF68F2E7CFE7EDB2F2
:10536000822DCCD1002080464A4800680700002FDB
:10537000C5D0380000F0B4FF002819D03A008821C9
:10538000F868FFF7AEFE002810D10020F860B8F1F1
:10539000000F03D0B868C8F8080002E0B8683D49BB
:1053A00008600020B860FFF773FFDBE700F00AF841
:1053B000B846BF68DBE70020010000202080032002
:1053C000BDE8F08180B53548FFF7CCFE01BD38B5AA
:1053D0000400FFF7F7FFE06800280ED02D480068B2
:1053E0000500002D09D0A54205D12D480068E060D8
:1053F000FFF74EFF0BE0AD68F3E729480068E06077
:1054000024480068A06023480460FFF741FF31BDD5
:1054100038B504000D002900200000F059FF2000DD
:10542000FFF7D5FF31BD1B480068002801D00120DF
:1054300000E00020C0B2704780B5FFF7F4FF0028FD
:1054400002D01548006800E0002002BD38B5040015
:1054500010480068844207D10E48006880680D49F2
:105460000860FFF715FF0FE00A4800680500002DEF
:1054700004D0A868A04201D0AD68F8E7002D03D0A1
:10548000A068A860FFF704FF0020A0600020E06093
:1054900031BD0000841E0020881E0020C4000020B2
:1054A000941E0020DFF828090068704770B50400DA
:1054B000002500260420050000200600F6B2EDB20B
:1054C000AE4280F09180F6B254F836000078C0F316
:1054D000C200C0B2022865D1FFF7E4FFF6B254F86B
:1054E0003610D1F8011088427CD3F6B254F8360059
:1054F000007810F0C700F6B254F836100870F6B213
:105500003000002804D0022819D003282ED048E00B
:10551000012000F0E7F8FFF7C5FF10F5C170DFF8D4
:10552000B418C1F80100DFF8B00800F0E9FE02008D
:1055300092B2DFF8A418012000F061FA52E00020D6
:1055400000F0D0F8FFF7AEFF10F5C170DFF8841857
:10555000C1F80100DFF8840800F0D2FE020092B228
:10556000DFF87818012000F04AFA3BE00020DFF86D
:1055700070180880002000F0B5F8FFF793FF10F5D1
:10558000C170DFF85018C1F80100DFF8580800F0CA
:10559000B7FE020092B2DFF84C18012000F02FFA9B
:1055A00020E01FE0F6B254F836000078C0F3C200E5
:1055B000C0B2032816D1F6B254F83600007810F0C5
:1055C000C700F6B254F836100870F6B23000012861
:1055D00002D0032803D005E000F0A2FE02E000F0B4
:1055E000ADFAFFE7761C69E770BD80B500F021F8E1
:1055F000DFF8E007007810F0C700DFF8D817087070
:10560000DFF8E407007810F0C700DFF8DC17087057
:10561000DFF8D807007810F0C700DFF8D01708705F
:10562000DFF8CC07007810F0C700DFF8C417087067
:1056300001BD80B500208DF800004FF47A61DFF8DD
:10564000B40701F0D1F940F2E241DFF8AC0701F014
:10565000CBF90020DFF8A41708700020DFF89C17B2
:10566000487000AB1022FA21DFF8880701F01DF91D
:10567000DFF88C1708609DF80000002801D001F0C9
:10568000EBF89DF800000028EBD101BD80B5FFF7D5
:10569000ACFF002000F026F8012000F023F801BD47
:1056A00070B504000D00160001212088002802D0EA
:1056B000CA280BD010E0DFF84C07FFF753FDDFF8E6
:1056C0004807FFF7F3FE0021CA202080C9B2002955
:1056D00001D1012005E0EEE700200100002020803C
:1056E000032070BD10B586B004000121E4B2DFF8DC
:1056F0001C0750F82400E4B2DFF8142752F82420E5
:10570000104350F00100FDF729FBE4B2002C08D152
:105710000121E4B2DFF8FC0650F82400FDF72DFB70
:1057200007E00121E4B2DFF8EC0650F82400FDF7B1
:1057300024FB18208DF80300E4B2DFF8DC0630F813
:105740001400ADF8000003208DF8020000A9E4B2B7
:10575000DFF8C80650F82400FDF7A8FB48208DF8B4
:105760000300E4B2DFF8B80630F81400ADF800002A
:1057700000A9E4B2DFF8AC0650F82400FDF796FB70
:10578000E4B2DFF8A40650F8240001904FF48050F2
:10579000ADF808000020ADF80A004FF48060ADF8C5
:1057A0000C000020ADF810000C20ADF80E0001A98F
:1057B000E4B2DFF8780650F8240001F01FF9012167
:1057C000E4B2DFF8680650F8240001F089F90121FD
:1057D000E4B2DFF85C0650F82400FDF7B0FA2021AF
:1057E000E4B2DFF8480650F8240001F0C1F90122C4
:1057F00040F22551E4B2DFF8340650F8240001F0FD
:105800007DF901228021E4B2DFF8200650F824005F
:1058100001F09FF906B010BD0EB42DE9F04FBAB0FB
:105820000400002600275FF000085FF000090DF17A
:105830001C0A00208DF800005FF0000B43A8050053
:105840002B002200C82107A801F0D0F9060037007C
:10585000B6B2002E00F0CC80B6B2C92E80F0C8805F
:10586000B6B20C20B6FBF0F100FB1160002806D0A8
:10587000B6B20C20B6FBF0F0401C804604E0B6B295
:105880000C20B6FBF0F0804600208146FFF70AFEB0
:1058900083465FFA89F95FFA88F8C14578D2FFF745
:1058A00001FEB0EB0B00652872D201F0C9F901A925
:1058B000DFF84C05006801F07DF88DF800009DF8D8
:1058C00000000028E5D105980028E2D000A9DFF803
:1058D0003005006801F034F8001DDFF82015097864
:1058E0000522DFF8183502FB0131C1F802009DF8EE
:1058F00000000028CDD1B6B20D2E1BD30C2251468C
:10590000DFF8F80400780523DFF8F0C403FB00C0DB
:10591000D0F80200FFF7B2FA0C20DFF8E0140978A3
:105920000522DFF8D83402FB013188710C3E1AF1F0
:105930000C0A17E0320092B25146DFF8C00400783A
:105940000523DFF8B8C403FB00C0D0F80200FFF75E
:1059500095FADFF8A80400780521DFF8A02401FB00
:1059600000208671FFF79EFD834619F10109DFF8DB
:105970008C040078401CDFF884140870DFF87C0485
:105980000078FA2885DB0020DFF87014087080E7C3
:10599000DFF840040078C0F3C200C0B2022827D06C
:1059A0000220DFF83014097860F3C501DFF8240421
:1059B0000170FFF777FD10F5C170DFF81814C1F81A
:1059C0000100DFF8380440780521DFF8302401FBBE
:1059D0000020827992B2DFF8240440780521DFF8B4
:1059E0001C3401FB0030D0F80210012000F007F851
:1059F000BFB238003AB0BDE8F00F5DF810FBF0B56B
:105A00008BB004000D001600B6B2002E00F08780A7
:105A1000E4B2DFF8200430F81400B6B2B04205D288
:105A2000E4B2DFF8100430F814000600E4B2DFF846
:105A3000080450F8240001F013F9E4B2DFF8FC0385
:105A400050F824000090019510200290B6B2039601
:105A500000200490802005900020069000200790F0
:105A6000002008904FF48050099000200A9000A96F
:105A7000E4B2DFF8C40350F8240001F076F9012203
:105A80000A21E4B2DFF8B00350F8240001F09AF9DB
:105A90000121E4B2DFF8A00350F8240001F084F9FA
:105AA000E4B2002C1FD10220DFF84013097860F324
:105AB000C501DFF838030170FFF7F4FC0700B6B248
:105AC0003000FBF71DFCDFF87823DFF87833FBF7B5
:105AD000E5FCFBF7DFFB80B2C0196430DFF80C1384
