:020000040800F2
:10000000202E0020B5710008E16B00080D6C00087F
:10001000656C0008676C0008696C0008000000004F
:100020000000000000000000000000006B6C0008F1
:100030006D6C0008000000006F6C00086558000837
:10004000DD730008E1730008E5730008E973000838
:10005000ED730008595200083123000859240008A4
:100060006D240008DB240008F1730008F573000814
:10007000F9730008FD730008017400080574000896
:1000800009740008614600080D7400081174000826
:1000900015740008197400081D7400082174000804
:1000A00025740008297400082D74000831740008B4
:1000B00035740008397400083D7400084174000864
:1000C00045740008497400084D7400085174000814
:1000D0005574000859740008234700085D7400082F
:1000E0006174000865740008697400086D74000884
:1000F0007174000875740008797400087D74000834
:100100008174000885740008A96E000889740008CD
:100110008F4500088D7400089174000895740008DC
:10012000997400089D740008A17400085F450008D8
:100130002DE9F04FA1B0824602AE002017461D46C1
:10014000029170620DF144080AE017F8011B029851
:10015000D0470290002800F0DA82706A401C70627A
:10016000387808B9706AD4E22528EED10020F06012
:1001700030617061B061F061306201E040F0010017
:1001800017F8011F2029F9D023290DD02B2904D0DD
:100190002D2906D030290AD00CE040F0020080B2B0
:1001A000EEE740F00400FAE740F00800F7E740F01F
:1001B0001000F4E72A290DD129680A1D2A60096870
:1001C000F162002904D5494240F00400F16280B296
:1001D0007F1C13E00021F1620BE0F16A6FF0004335
:1001E000994205D001EB810302EB43013039F16202
:1001F0007F1C3A78A2F130010A29EED339782E29F2
:1002000003D04FF0FF31B1621EE017F8011F2A2919
:1002100006D129680A1D2A607F1C0968B16213E0B3
:100220000021B1620BE0B16A6FF00043994205D042
:1002300001EB810302EB43013039B1627F1C3A7854
:10024000A2F130010A29EED330860FF63840397812
:1002500000F036FE08B117F8010B8DF83A009DF852
:100260003A00682802BF39786829622005D06C28D6
:1002700004BF38786C2803D171208DF83A007F1CB8
:1002800011A8B0603978B1F1250029D01C3800F0F0
:10029000C080001F022840F2BC80133800F0E480C8
:1002A000093800F0B680801E00F07781401E00F013
:1002B0002081401E022840F2AC80001F00F019810E
:1002C000401F7BD0401E00F0CF80401E22D0C01EB9
:1002D0000BD0801E00F0C880C01E00F0C58064E115
:1002E000F068411CF160252169E12868011D296041
:1002F0000068B26A7060002A02D500F0F9FD07E0DC
:10030000002100F011FE00281ABF7168401AB06A7F
:10031000306156E12868011D296000210068CDE99F
:1003200000014FF03C0E11A87060DDE9000111B929
:1003300008B9B26ACAB10206120FA0EB021230323B
:10034000AEF10103D2B29E463A2AA8BF2732000975
:1003500003F8082040EA0170090908BF002804D00A
:10036000726811AB73449A42E5D311A9714471606C
:10037000CEF13C00B16A3061884207DA081AB061F8
:100380004FF6EF71308E084030861AE1002940F1B7
:10039000188196F8301001F01401102940F01181F5
:1003A000F16AF268891AB269891AA1EB000EBEF1EE
:1003B000010FC0F20681C6F818E002E19DF83A008C
:1003C000622818D0682806D06A280BD06C2819D06B
:1003D000712807D016E02868011D29600068716A3D
:1003E0000180EEE02A68101D28601268706AC1174B
:1003F000C2E90001E5E02868011D29600068716A12
:100400000170DEE02868011D29600068716A0160E2
:10041000D7E02868C01D20F00700286000F108021E
:100420002A60D0E90023CDE90023002B04D5F06831
:10043000421CF2602D220DE0308E820704D5F06858
:10044000421CF2602B2205E0C00705D5F068421C73
:10045000F260202200F80820F06811AA801870606D
:1004600000A800F0DDF9ACE09DF83A006C2808BF68
:100470002A6811D0712808BF2A6802D02A686A2821
:100480000AD1D21D22F007022A60144604F10802A4
:100490002A60D4E9002303E0131D2B6000231268B7
:1004A000CDE90023682808BF92B207D0622808BFB0
:1004B000D2B203D0742818BF7A2802D10023CDE924
:1004C000002396F8300000075FD5DDE90023002BFC
:1004D00008BF002A59D041F02000782855D1F06893
:1004E000302200F80820401C421CF26000F808107E
:1004F0004BE09DF83A0062280CD0682810D06A289A
:100500001AD06C2823D0712816D074281FD07A28CE
:100510000CD01CE02868021D2A6090F900201AE027
:100520002868021D2A60B0F9002014E02868021D26
:100530002A60002302680FE02868C01D20F0070031
:10054000286000F108022A60D0E9002304E028684E
:10055000021D2A600268D317CDE90023002B04DABC
:10056000F068421CF2602D220DE0308E820704D527
:10057000F068421CF2602B2205E0C00705D5F06848
:10058000421CF260202200F80820F06811AA8018AE
:10059000706000A800F0C0F813E0F068411CF16042
:1005A00029680A1D2A60096809E0F068421CF260A7
:1005B000252200F8082021B1F068421CF26000F802
:1005C0000810F06AF168401AB169401A3169401A9E
:1005D000F169401A7169401A316AA0EB010996F875
:1005E00030007F1C400710D420208DF840000024EC
:1005F00009E0012310AA00A9504600F02CFC0028B5
:1006000040F08580641C4C45F3DBF4680DF1440B2D
:100610000AE01BF8011B0298D0470290002876D010
:10062000706A401C7062641E002CF2D130208DF87C
:1006300040004FF0000BB46909E0012310AA00A9A3
:10064000504600F008FC002861D10BF1010BA345D6
:10065000F3DB3469D6F804B00AE01BF8011B0298FA
:10066000D0470290002852D0706A401C7062641E0D
:10067000002CF2D130208DF840004FF0000BF469CF
:1006800009E0012310AA00A9504600F0E4FB00286D
:100690003DD10BF1010BA345F3DB3069716874693F
:1006A00000EB010B09E01BF8011B0298D0470290F8
:1006B00068B3706A401C7062641E002CF3D1302055
:1006C0008DF840004FF0000B346A08E0012310AAB7
:1006D00000A9504600F0BFFBC8B90BF1010BA345C0
:1006E000F4DB96F8300040077FF53AAD20208DF816
:1006F0004000002400E0641C4C45BFF631AD0123EE
:1007000010AA00A9504600F0A6FB0028F3D04FF035
:10071000FF3021B0BDE8F08F2DE9FA4E05460A46BC
:100720002F696F2A08BF082405D041F020007828DF
:1007300014BF0A241024D5E900013C2681468B46CB
:10074000642A18BF692A05D1002903DAD9F1000902
:100750006BEB4B0BBBF1000F08BFB9F1000F0CD1D5
:10076000286B50B9082C36D195F83800000732D5DF
:1007700030203B2687F83B002DE0E31748465946DA
:10078000224600F0FDFBA4FB0023A9EB020230325D
:10079000A6F1010AD2B256463A2A03DB9DF8003090
:1007A000513B9A180AF8072081465FEA010B08BFFF
:1007B000B9F1000F03D0E868F1198842DDD3082CA5
:1007C00009D195F83800000705D5F05D302802D032
:1007D000761E3020F055C6F13C00A861F119E960A1
:1007E000296B884208DA081A28624FF6EF71288FC1
:1007F00008402887BDE8F38E00290ED595F83810FB
:1008000001F01401102908D1696B6A69891A2A6AF2
:10081000891A081A0128A8BF2862BDE8F38E0000D3
:100820002DE9F04F07468FB08B46D7E90001CDE99F
:10083000020104AE4BF0200061280BD0386B002879
:1008400048BF062005D404BF4BF02000672801D123
:10085000012038637968C1F30A5040F2FF72904278
:100860001AD1080304BF3868002808D10320B861F2
:10087000ABF161001A2835D30FF21C6107E00320A9
:10088000B861ABF161001A2829D30FF20461F8684E
:10089000032200F0EDFBB6E1012816DA384600F03D
:1008A00022FC012811DB002400204BF020016129EB
:1008B0001FD1F968302201F8012B4A1CFA60BBF104
:1008C000610F0CBF782258220FE07A6840F2FE31A7
:1008D00061F31E52441A7A604FF0FF30E5E70FF2E1
:1008E000AC51D4E70FF2AC51D1E70A707969891C99
:1008F000796110B9002500247DE14BF020006128CA
:1009000040F09580386B00284CBF2125451CDDE95F
:1009100002012DB26E1CD7E900890022002300F0ED
:1009200003FC3ABF89F00040CDE90280CDE902899D
:10093000241F8DF810200DF1110A01E000F2070AC2
:10094000012E32DBDDE902010022002300F004FC6D
:100950002BD21C2102A800F017FCDDE9020100F0F7
:1009600099FCF61F8046012E09DB00F0BFFC024611
:100970000B46DDE9020100F0D1FCCDE902010AF2EB
:100980000700072105E008F00F0200F8012D4FEAEB
:100990002818B8F1010F01DB491EF4D5491E5CBFD0
:1009A000002200F8012DF9D5C8E70DF11100AAEBDE
:1009B00000010DF11106A942B8BF0D462DB2280065
:1009C0002ED4884206DA04A9411849780829A8BF1C
:1009D0000F2100DA002104AA821800E06D1E12F82F
:1009E0000139401E8B42F9D00F2904D104A94118C6
:1009F0004A78521C4A70002802D504AE6D1C241D92
:100A00002DB2681E0CD48119ABF13A030A7830324A
:100A1000D2B23A2AA8BF9A1801F80129401EF5D58A
:100A2000386B002840F1E780681E3863E3E0DDE9B9
:100A300002010022002300F077FB3CBF81F000415F
:100A4000CDE9020124B247F2975060434849DFF8EC
:100A500024A190FBF1F424B2C4F107050026012D76
:100A600019DBDDE90289E80707D5324653464046DF
:100A7000494600F013FD804689466D1030465146C8
:100A80003246534600F00AFD06468A46002DEAD15A
:100A9000CDE9028921E06D429046DFF8DC9012E05A
:100AA000E80707D5324653464046494600F0F6FC73
:100AB000804689466D10304651463246534600F016
:100AC000EDFC06468A46002DEAD1DDE902014246E8
:100AD0004B4600F0B5FDCDE902014BF02000662841
:100AE0000CBF04F10A000620396B4518142DA8BF6D
:100AF000132530208DF810000DF11106DFF87C90E1
:100B0000012D3DDBDDE9020100F0DAFB06F1080111
:100B100004220A23B0FBF3F303EB8306A0EB4600A9
:100B2000303001F8010D0A20B3FBF0F000EB800635
:100B3000A3EB4603303301F8013D521EE9D1083DD5
:100B400001F10806012DDBDBDDE9020100F0B8FB55
:100B500000F0D6FB02460B46DDE9020100F0DEFBA9
:100B600000224B4600F09AFCCDE90201CAE700BF23
:100B7000A0860100000024400000F03F84D7974188
:100B80000DF11100301A0DF1110602E0401E641E35
:100B9000761C31783029F9D04BF02001662902D13A
:100BA00024B2611C03E065290CBF012100213A6BCE
:100BB0008D182DB2A842B8BF05462DB229001AD40F
:100BC000814204DA885D3528A8BF392000DA302058
:100BD0008A19521E00E06D1E12F80139491E834227
:100BE000F9D0392802D1885D401C8855002902D5EA
:100BF000761E6D1C641C24B200942BB232465946FA
:100C0000384600F003F80FB0BDE8F08F2DE9F0474B
:100C100086B006468A4690461D4600F052FE406A5F
:100C2000376B90F80090012D02DA01250FF26C2845
:100C30004AF02000BDF93840662808BF641C12D075
:100C4000672875D114F1040F78DBBC4276DA96F888
:100C50003800641C000702D4BD42B8BF2F4624B23E
:100C60003F1B48BF0027F068B16924B2012C21DA8C
:100C700030234A1C0B54012F03DA96F83810090769
:100C800002D502F80090521CB261E742B8BF7C4224
:100C900024B26142E7197162AF42B8BF3D462DB23E
:100CA000F5612A46B3694146181800F0E1F9781B4E
:100CB000B062B9E00818A54216DA2A46414600F0AB
:100CC000D7F9B1696918B161601B7062012F03DA4D
:100CD00096F83800000705D5F06801F80090F06933
:100CE000401CF061B7629FE02246414600F0C0F927
:100CF000B06920182D1B012F03DA96F83810090768
:100D000003D5F16800F80190401C2DB2B061AF42EC
:100D1000B8BF3D46F3682DB22A4604EB0801C0185F
:100D200000F0A6F9B0692818B061781B70627BE00A
:100D3000BAF1610F14D14FF0700A16E0BD4204DA27
:100D400096F83810090758BF2F467F1E48BF002766
:100D5000BAF1670F14BF4FF0450A4FF0650A04E07F
:100D6000BAF1410F08BF4FF0500AB169F06818F8A6
:100D7000013B0B544A1C012F05DA96F8381009077D
:100D800058BFB26115D502F80090531CB361012F12
:100D90000FDB6D1E2DB2AF42B8BF3D462DB22A46C5
:100DA0004146181800F064F9B0692818B061781B42
:100DB0007062B069F16800EB0108200008F801AB2F
:100DC00003D42B2008F8010B03E02D2108F8011BA8
:100DD0006442002502AF08E00A2200A800F08AFD64
:100DE000019807F8010B6D1C009C21B20129F3DA70
:100DF000022D06DA4AF02000652804BF302008F8EA
:100E0000010B4DB9302008F8010B07E06D1E02A858
:100E1000285C303008F8010B012DF7DAB069F16871
:100E20004018A8EB0000F06196F8380000F01400BC
:100E300010280DD17069B1690818716A0818F16934
:100E40000818B16A0818716B8842BCBF081A306272
:100E500006B0BDE8F087F8B504460D4616461F46B5
:100E6000002004E0E86A401CE8627F1E002047B1D1
:100E700016F8011BA868A047A8600028F2D14FF01F
:100E8000FF30F2BD686A6C747A4C00006E616E00CF
:100E90004E414E00696E6600494E4600300050F8E3
:100EA000041B61B150F8042BD30744BFA9F101031F
:100EB0009A18002342F8043B091FFAD1EFE7704764
:100EC0000278C9B28A421AB11CBF10F8012FF9E7A3
:100ED00018BF002070478268521C8260426832B19D
:100EE0000268531C036011704168491E41607047DD
:100EF00000F10103810704D010F8011B89B18107BB
:100F0000FAD10268B2F10131914311F0803F04BF80
:100F100050F8042FF6E710F8011B11B110F8011B6F
:100F2000FBE7C01A70470000C9B2830706D0521E03
:100F300022D310F8013B9942F7D11FE0083A13D3AE
:100F400002F1040241EA012141EA014150F8043B67
:100F5000121F21BF4B40A3F1013C2CEA030C1CF0F3
:100F6000803FF3D0C9B2001F083210F8013B521E77
:100F700028BF91EA030FF8D818BF0120401E704720
:100F80001B4213D1094236D12AB18446B0FBF2F09C
:100F900002FB10C2704700F0B5BCFCD30022002356
:100FA00070470B000200002100207047904271EB57
:100FB000030CF6D370B5B1FA81F4B3FA83F52C1BA8
:100FC000A340C4F1200532FA05F63343A2405FF096
:100FD0000046E64002E05B085FEA3202841A71EBE9
:100FE000030524BF204629467641F4D302000B00B6
:100FF0003000002170BD012ACFD970B5140C20D06B
:10100000B1FA81F4B2FA82F5C4F120046419B4F1A2
:101010002006D6D3B2405FF00044F440002502E041
:1010200052085FEA3303C61A71EB020E24BF304642
:10103000714664416D41F3D302000B00200029008A
:1010400070BD0C46B1FBF2F102FB11452D0445EADF
:101050001045B5FBF2F402FB145580B240EA054599
:10106000B5FBF2F002FB105240EA044070BD0000F4
:1010700062B38B0708D0521E11F8013B00F8013B08
:1010800000F024808B07F6D1830740F0208000BF5A
:10109000103A07D330B4B1E83810103AA0E838104D
:1010A000F9D230BC530724BFB1E80810A0E80810FB
:1010B00044BF51F8043B40F8043BD20724BF31F849
:1010C000022B20F8022B44BF0B7803707047083ABC
:1010D00007D3B1E80810083A40F8043B40F804CBC5
:1010E000F7D25307E4E730B4436803F0004201212C
:1010F0001B031B0B436004BF0368002B08D10DE0EA
:101100000368DD0F45EA440444605B000360491E48
:101110004468E302F4D523031B0B436043681A437E
:101120004260084630BC70474FF4001C1CEB410F76
:1011300094BF1CEB430F09E041EA030C50EA4C0C4E
:1011400052EA0C0C03D2994208BF9042704714BF78
:101150008B428242704700004FF4001C1CEB410F91
:1011600094BF1CEB430F09E041EA030C50EA4C0C1E
:1011700052EA0C0C03D28B4208BF8242704714BF64
:10118000994290427047000070B504460D46606871
:10119000C0F30A5040F2FF71884207D16068000333
:1011A00004BF2068002817D0022070BD20B9204657
:1011B000FFF799FF012867DA012D0FDB40F2FF717D
:1011C000091A8D420AD36068002847BF00202F49C2
:1011D00000202F49C4E90001012070BD4142A9420D
:1011E000616806DA6FF31E51401941EA00506060F1
:1011F00041E0401E63680122451962F31F5305F167
:10120000350001F000416360352803D361600020A0
:10121000206070BD002215F11F0F04DA22682360E0
:10122000002020356060684213D0521E256892412C
:10123000C0F12003D2439D4045EAD272256866681A
:10124000C54006FA03F32B432360636823FA00F0DA
:101250006060606808436060B2F1004F03D80DD150
:101260002078C0070AD52068401C2060206828B973
:101270006068401C60604FF0FF3070BD606888425D
:1012800004BF20680028F6D1002070BD0000F0FFE8
:101290000000F07FF446400D40EAC120490006D22C
:1012A00000F014F8004248BF6FF00040604700F0C3
:1012B0000DF84FF0004188428CBF0846404260471D
:1012C000400D40EAC120490080F00D8040F0004010
:1012D000490DA1F58061491C05D4D1F11F0154BF0E
:1012E000C840C01770474FF000007047010040F140
:1012F0000980F446404200F005F851F00041604793
:10130000010000BF09D0B0FA80F18840C91CC1F5C6
:101310008461090501EBD0214005704770B44FF09E
:10132000004591EA030F44BF6B4000F0F7BA00BFDD
:10133000841A71EB030604D26E40001BB1411219EE
:1013400073414FF4001C1CEB410F34BF7CEB430690
:1013500084E00C0DA4EB1356362E7DDC012E43DC0D
:1013600045EAC32343EA525312BFD20292025B08FA
:10137000240545EAC12141EA5051D2EBC0209941F0
:1013800025D407D1B0FA80F610FA06F164D0002017
:10139000203608E0B1FA81F6B140C6F1200220FA09
:1013A00002F21143B0404FEAF474B4EB465434F007
:1013B00001064FEA74040AD8D6F50016760D04F03B
:1013C0000044F04061FA06F25040F1404840C00A43
:1013D00040EA415021F0004128BF5FEA500550F13A
:1013E000000044EBD12137E045EAC323DB0A45EA9C
:1013F000C121C90AB6F120050EDD42EA0242120CF3
:10140000C5F1200603FA06F6EB4042EA06056D42F6
:10141000984161F100010DE062FA06F5F240554095
:1014200063FA06FC82EA0C02F3405A406D42904196
:1014300061EB030111F4801F05D1641E620502D027
:101440006D004041494121F48011430875F100438A
:1014500050F1000041EB045170BC70471CEB410F90
:1014600015D223F0004352EA43060BD04FEA4C0C4E
:10147000BCEB410F04D80C0D661E342EB7DDEBE734
:10148000801A994150EA410608BF0021E4E708BFED
:101490001CEB430F28BF6FF00001DDE7B0B581EA18
:1014A000030C0CF0004C40F2FF7515EA11541DBFFF
:1014B00015EA1357AC42AF4239E0E41923EA455329
:1014C00043F48013C90241F0004141EA505EC70273
:1014D0001100A7FB020200284FF00000EEFB0120E4
:1014E0004FF00001E3FB072118BF42F00102401852
:1014F00000214941E3FB0E01A4F580640F0302D2F1
:1015000052004041494154F101046CDD470872F139
:10151000004250F1000051EB0451A1F580115CBF75
:1015200041EA0C01B0BD4CEA05510020B0BD05EA0E
:101530001357AC4214BFAF4241E050EA410E1CBF0A
:1015400052EA430E02E061460020B0BD24423C4412
:101550001BD15FEA070EF6D0090302BF0146002047
:10156000AEF1140EB1FA81F7AEEB070401FA07FEF3
:101570000C37C7F1200100FA07F7C8404EEA000E09
:1015800023EA455343F48013A2E733F00043B3FA50
:1015900083F704BFB2FA82FE77440B3FE41BB7F136
:1015A000200E2FBF02FA0EF3BB40C7F1200E22FA25
:1015B0000EFE38BF43EA0E03BA40641C82E750EACD
:1015C000410E14BF52EA430E6FF000014FF40017B2
:1015D00017EB430F8ABF194617EB410FB5E74CEAEB
:1015E00005510020B0BDD4F10104B4F120070FDA99
:1015F000C4F12007520828BF42F0010210FA07F593
:1016000001FA07F7E1BF2A43E0403843E1400FE029
:10161000352C98DCC7F1200452EA400220FA07F288
:1016200018BF42F0010231FA07F0A1400A4300213D
:1016300072F1004250F1000051EB0C01B0BD00000E
:10164000F0B540F2FF7581EA030C0CF0004C15EA8E
:1016500011541DBF15EA1357AC42AF42E5E0BC413F
:10166000C1F31301C3F31303801A994143F48013A8
:1016700004D2641E4000494180185941C90241EA20
:101680005051B1FBF3F603FB1611A2FB0675D7EB25
:10169000C020A94102D2761E80185941C90241EAF0
:1016A0005051B1FBF3FE03FB1E11A2FB0E75D7EBED
:1016B000C020A94103D2AEF1010E80185941890220
:1016C00041EA9051760546EA8E2EB1FBF3F603FB14
:1016D0001611A2FB0675D7EB8020A94102D2761E17
:1016E00080185941C90241EA50514EEA060EB1FB39
:1016F000F3F603FB1611A2FB0675D7EBC020A94138
:1017000002D2761E80185941C90241EA5051B1FBFC
:10171000F3F703FB1711A2FB0735D3EBC020A94158
:1017200067F100070CBF004247F0010766F3D527B9
:101730004FEA1E31B80814F5806412DDBD0775F15B
:10174000004250EB0E5051EB045111F5801F5CBF6D
:1017500041EA0C01F0BD4CF07F6141F0E041002016
:10176000F0BDBD076D0840EA0E5041F48011D4F180
:101770000104B4F120060ADAC4F120060200E040B8
:1017800001FA06F3E1401843B24015430EE0342C51
:1017900013DCC6F1200445EA40056D0820FA06F284
:1017A000154321FA06F0A1400D43002175F10042D6
:1017B00050F1000051EB0C01F0BD00205FEA0C017C
:1017C000F0BDCFB992185B41B3FA83F704BFB2FA08
:1017D00082F6BF190B3FB7F120062FBF02FA06F3BE
:1017E000BB40C7F1200622FA06F638BF3343BA40A1
:1017F0001CB1E419641E33E77F4231F00041B1FAB5
:1018000081F404BFB0FA80F6A4190B3CB4F12006B1
:101810002FBF00FA06F1A140C4F1200620FA06F617
:1018200038BF3143A0403C1B1AE7AC421ABF05EA5F
:101830001357AF4212E050EA41061CBF52EA43067A
:10184000BFE750EA4107304661461CBF41EA0551F7
:10185000F0BD52EA430C08BFC143F0BD00204FF475
:10186000001616EB410F98BF16EB430F08BF16EB9F
:10187000410F24BFC14305E016EB430F0CBF614687
:101880004CEA0551F0BD000080B5134800F0B0F8F7
:101890000FF24801016041608160C16001614161F6
:1018A00081610FF23C0242628162C1620163416365
:1018B0000FF2300282630FF23402C26301644164AA
:1018C00001BD10B5044800F093F80446206808B93B
:1018D000FFF7DAFF204610BD0000002000000000E6
:1018E0002E00000066616C736500000074727565FF
:1018F0000000000091FBF2F303FB1211C0E900317C
:10190000704700007047000070B44FF0004591EA46
:10191000030C44BF6B40FFF70BBD00BF841A71EB93
:10192000030603D2001BB141121973414FF4001C8E
:101930001CEB410F34BF7CEB430443E00C0DA4EBE4
:101940001356352E50DC45EAC323DB0A45EAC12194
:10195000C912B6F120050DDD63FA05F6EB4086EA03
:101960000305124218BF45F00105C01851F10001EE
:101970000CD213E062FA06F5F2405540F3415A40AA
:10198000B340F3405A408018594107D349085FEAF1
:1019900030005FEA350528BF45F0010501F58011EB
:1019A000420875F1004250F1000041EB045170BC57
:1019B0004FF4001C1CEB410F38BF70470020090D8D
:1019C000090570471CEB410F10D252EA43060BD0B9
:1019D000BCEB410F05D80C0DAB43661E342EB5DDB4
:1019E00002E0AB438018594170BC704770BC70472F
:1019F00070470000DFF8200B0068704710B5012029
:101A000000F012FFFFF7F6FF0400FFF7F3FFA11C41
:101A10008842FAD3002000F007FFFFF7EBFF040035
:101A2000FFF7E8FFA11D8842FAD310BD10B50400EE
:101A3000FFF7E4FFDFF81C0ADFF8E01A0860002077
:101A400000F0D0F8E4B2002C33D0DFF8D00A006800
:101A5000407850F08000DFF8C41A09684870DFF859
:101A6000BC0A00684178012000F0B7FE012000F0B8
:101A7000B9F80020DFF8A81A08700020DFF8A01AD3
:101A800048700020DFF8981A88700020DFF8901A5C
:101A9000C8700020DFF8881A08710020DFF8801A6B
:101AA0004871DFF87C2AD2E9000100F0CAF800F0A2
:101AB0009AF910BD2DE9F04395B006000F0000A87B
:101AC000DFF8601A5022FFF7E3FAF6B200A810EB35
:101AD000C600D0E9002390469946FFB23800FFF7D0
:101AE0000FFC02000B0000205FF0804101F0DFF9E5
:101AF00042464B46FFF7A4FD04000D0020002900DC
:101B000015B0BDE8F0832DE9F04F85B00600F6B2C0
:101B1000B01CADF80200DFF8100A90F80680DFF87C
:101B2000080A407A8DF80100DFF8FC09807D8DF805
:101B30000000DFF8F40990F807905FFA89F919F1CD
:101B40000400FFF7D3FB82468B46BDF80200C000BD
:101B50005FFA88F8B0EB88002C309DF80110142251
:101B600002FB1100FFF7C2FB04000D005FFA88F8CA
:101B70009DF80000B8EB40008000FFF7B7FB0200C3
:101B80000B0020002900FFF75BFD01F0A9FB524686
:101B90005B46FFF783FCCDE90201DDE90201FFF7B7
:101BA0008FFB0700002F02D017F1080000E008208B
:101BB00005B0BDE8F08F80B5FF20FFF7A4FF32210C
:101BC000B0FBF1F0C0B202BDDFF8600900687047F9
:101BD00080B5DFF84809006810F14101422000F0AB
:101BE00005FE01BD10B50400DFF83009006840783B
:101BF00010F0F8002043DFF8241909684870DFF876
:101C00001C0900684178012000F0E7FD10BD80B597
:101C1000DFF80809006810F10C010C2000F0E6FD67
:101C2000DFF8F8080068007BC0B2400902BDDFF8A9
:101C3000040990F900007047DFF8FC28D2E90001A0
:101C4000704703B581B09DF804009DF80510084366
:101C50009DF8061008439DF807100843DFF8BC18EC
:101C6000096881F83F009DF808009DF809100843B5
:101C7000DFF8A818096881F840000222DFF89C0804
:101C8000006810F13F01402000F069FD07BD80B5FC
:101C900000A9192000F0AAFD9DF80000000612D549
:101CA0009DF80000C043401C801010F03F00DFF89A
:101CB00084180870DFF87C0890F900004042DFF8D3
:101CC0007418087006E09DF80000C0B28008DFF8C4
:101CD00064180870DFF85C0890F9000002BDF8B5E0
:101CE000DFF83808006810F11A011A2000F07EFDB4
:101CF000DFF834080068DFF84418884233D2DFF890
:101D0000340890F90000002819D5DFF810080068A1
:101D1000807EFFF7F5FA0022DFF82438FFF7F4FDA4
:101D200006000F00DFF80C0890F90000FFF7DEFA5C
:101D300032003B00FFF7E8FD04000D0046E0DFF84D
:101D4000DC070068807EFFF7DBFADFF8FC27DFF8AE
:101D5000FC37FFF7A3FB0022DFF8E437FFF7D4FDE1
:101D600004000D0032E0DFF8CC0790F900000028F5
:101D700019D5DFF8A8070068807EFFF7C1FA0022B6
:101D8000DFF8C037FFF7C0FD06000F00DFF8A4073B
:101D900090F90000FFF7AAFA32003B00FFF7B4FD0C
:101DA00004000D0012E0DFF874070068807EFFF782
:101DB000A7FADFF89427DFF89437FFF76FFB0022CC
:101DC000DFF88037FFF7A0FD04000D002000290098
:101DD000F4BDDFF87C0790F800017047DFF870175A
:101DE00081F80001704780B5FFF7F2FE6F22DFF83F
:101DF0006417012000F0D2FC2020DFF820170968CA
:101E00000873DFF818070068017B0C2000F0E5FC80
:101E10000020FFF7E7FEDFF81007006801F090FAF6
:101E2000DFF80407807901F060FBDFF8FC06C07979
:101E300001F091FBDFF8F006007A01F0ADFBDFF86E
:101E4000E806407901F030FBDFF8DC06407A01F06B
:101E5000E5FB40F2FF3001F052FCDFF8CC06407D9C
:101E600001F0F9FBDFF8C006D0F8170080B201F0EE
:101E7000B4FBDFF8B4068179DFF8AC064079FFF7F0
:101E800019FE0022DFF8D036FFF766F903D80120EB
:101E900001F055FC02E0002001F051FC802001F02F
:101EA00015FC002001F0E7FBDFF87C0690F9040048
:101EB00001F06DFAFFF77FFEDFF86C160873012062
:101EC000FFF78CFF002000F08DF901BD38B504004C
:101ED0000D00EDB22A002100DFF8740601F0B6FC17
:101EE000DFF86C0680F8025131BD10B50400DFF850
:101EF0003806807A012805D10320DFF8541681F8CE
:101F0000000106E00220DFF8481681F8000100F029
:101F10008AF8DFF83C0680F8FF400020DFF8301632
:101F200081F8030110BD10B50400DFF8FC05807ACC
:101F3000012836D1DFF8E4050068C07BDFF8DC1546
:101F400009684873DFF8D4050068417B0D2000F074
:101F500044FCDFF8D405407A012809D1DFF8BC053C
:101F6000006890F82200DFF8E81581F801010FE021
:101F7000DFF8A805006810F11301132000F036FC0B
:101F8000DFF898050068C07CDFF8C41581F801010E
:101F9000DFF8BC0590F80111DFF8B40500F03AFC59
:101FA0003DE0DFF87805006810F11001102000F026
:101FB0001DFCDFF87405407A012809D1DFF85C05C3
:101FC000006890F82200DFF8881581F801010FE021
:101FD000DFF84805006810F11301132000F006FC3B
:101FE000DFF838050068C07CDFF8641581F801016E
:101FF000DFF828050068007CDFF8201509684873C1
:10200000DFF818050068417B0D2000F0E6FBDFF8E3
:10201000400590F80111DFF8380500F0FBFB0120C6
:10202000FFF763FF10BD80B50121012000F014FC13
:102030000121082000F010FCDFF8EC04C07A002831
:102040000CD0DFF818050078DFF8141551F82000DF
:1020500001F076F90121042000F0FEFB01BD38B546
:1020600004000D000120FFF7BDFDFF20DFF8AC14D8
:1020700009684874FF21122000F0AFFB00211F20E7
:1020800000F0EAFBDFF8A004C07A00282ED0DFF8C9
:102090008C040068407C10F0F500DFF880140968BB
:1020A0004874DFF88404007BDFF87014096881F855
:1020B0002400DFF86804006810F11C011C2000F007
:1020C00095FBDFF898040078DFF8941451F82000AD
:1020D00001F036F90220FFF785FD4020DFF84014BB
:1020E00008700020DFF83814887018E0DFF8380432
:1020F000006801F025F9DFF824040068407C10F046
:10210000F700DFF81814096848740020DFF80C1491
:10211000096881F824004020DFF804140870DFF813
:10212000FC03006890F82410242000F056FBDFF830
:10213000EC030068417C112000F04FFBDFF8E02346
:10214000D2E90001FFF77DFDDFF8D003006880F8D9
:102150002250DFF8C803006890F82210222000F017
:102160003CFB0020DFF8B41309688873DFF8AC0388
:102170000068817B0E2000F030FBDFF8A0030068D0
:10218000807BDFF8981309684873DFF890030068D4
:10219000417B0D2000F021FB0720FFF71FFE2900E7
:1021A000C9B22000FFF792FE2900C9B2DFF8A003F0
:1021B00000F026FB0121012000F04EFBDFF8680350
:1021C000C07A002803D00121042000F045FB032041
:1021D000FFF708FDDFF88C238621DFF88C0301F080
:1021E00066FC31BD10B504000120FFF7FBFCFF20A9
:1021F000CA4909684874C9480068407C10F08F00DB
:10220000C649096848740020C54908700120C449BE
:10221000C870C548C07A00281FD0C348007BBF499A
:10222000096881F82400BD480068407C10F0FD007A
:10223000BA4909684874B948006810F11C011C20AB
:1022400000F0D4FAC5480078C54951F8200001F0E3
:1022500077F80020B249887008E0B348006801F0C0
:102260006FF80020AD49096881F82400AE48807AF3
:10227000012820D1A9480068417C112000F0ADFA66
:10228000A648006890F82410242000F0A6FAA44A7A
:10229000D2E90001FFF7D5FCFFF796FCA249C1F88F
:1022A0001700A148D0F8170080B201F096F9062077
:1022B000FFF798FC27E099480068C07B97490968B8
:1022C000487396480068417B0D2000F086FA9348D9
:1022D0000068417C112000F080FA9048006890F876
:1022E0002410242000F079FA8D4AD2E90001FFF78A
:1022F000A8FC20208C49C1F81700202001F06DF9BE
:102300000520FFF76FFC0220914981F80001864803
:10231000C07A002803D00121042000F09DFA012199
:10232000012000F099FA0121082000F095FA10BD73
:1023300080B5012001F070FC002800F08A800120A7
:1023400001F07EFC042001F07BFC814890F8000144
:10235000072804D00B286AD00E281CD079E0002171
:10236000012000F079FA0021042000F075FA08211C
:10237000122000F032FA7D4801F04EFD0820744929
:1023800081F800010120FFF72DFC764A862176486E
:1023900001F08DFB5DE000211F2000F05DFA734825
:1023A00001F03AFD4021122000F017FA5B48006866
:1023B00010F11201122000F019FA58480068807CD0
:1023C000800620D52021122000F007FAFFF787FCB5
:1023D000594AC2E90001FFF75AFC5649087000202B
:1023E000FFF783FD5448D0E90023614801F0FAFE6D
:1023F000FFF71DFC40B201005E4801F0F3FE5E48AD
:1024000001F0F0FE12E0FFF76AFC4B4AC2E900015E
:10241000FFF73DFC474908704D4890F80501FFF76C
:1024200082FD504A8621504801F041FB11E0042111
:10243000122000F0D2F91021504802F098FA012839
:1024400006D10121122000F0C8F90020FFF7CAFED2
:10245000FFE701BDBC1C002080B5022001F0DCFBC1
:10246000002802D0022001F0EBFB01BD80B5042062
:1024700001F0D2FB00282FD0042001F0E1FB274817
:10248000006810F11201122000F0B0F92348006832
:10249000807C800720D50221122000F09EF9FFF7F2
:1024A000B6FB234908701D48006810F11C011C2070
:1024B00000F09CF92948007818490968097F081834
:1024C00010F03F00322190FBF1F201FB1200244991
:1024D00051F8200000F034FF01BD80B5082001F064
:1024E0009BFB002817D0082001F0AAFB0021082040
:1024F00000F0B2F91021122000F06FF9144890F8A2
:102500000001022803D10E20114981F800010120A9
:102510000F4981F8030101BDF81D0020FC1D0020BA
:10252000C81D0020386D0008A8000020001E0020F3
:1025300076010020181E0020C01D0020008F4233AD
:10254000008064C000A063C01B9E5E29CB10F13FD9
:102550001C1A0020BD1C002000003040191E002065
:10256000186B00081C1B0020D4000020B01D0020A8
:10257000E4720008F0720008FC72000800100140CC
:10258000F8B504000D00160001212088002802D0B3
:102590005B2803D0C4E000215B202080C9B2002961
:1025A00001D10120C1E0EDB2862D40F09A80307853
:1025B000072806D14FF4FA61DFF8800401F00EFC21
:1025C000E9E73078082803D10020FFF70BFEE2E7A7
:1025D00030780E280AD14FF4FA61DFF8600401F078
:1025E000FDFBDFF85C0401F0FDFDD4E73078022844
:1025F000D1D1DFF8500490F8FF000028CBD00020A4
:10260000DFF8401481F8FF00DFF83C040088401C2C
:10261000DFF834140880FFF70FFB02000B00DFF82F
:102620002C0401F0DFFDFFF702FB40B20100DFF8F0
:10263000200401F0D7FDDFF8100400884FF480710A
:1026400090FBF1F202FB11020092DFF8FC0300881C
:102650004FF4807190FBF1F3DFF8F80300884FF43A
:10266000807190FBF1F202FB1102DFF8E8030088B1
:102670004FF4807190FBF1F1DFF8DC0301F0B2FD63
:102680000027DFF8C00390F80101FFB2874208D2AB
:10269000FFB2DFF8B003395C6DA001F0A3FD7F1C31
:1026A000EFE76CA001F09EFDDFF8B0030078002892
:1026B0003FF471AFDFF89003008880B2000ADFF8C2
:1026C000A0130870DFF880030088DFF894134870C7
:1026D000DFF8700390F80111DFF88403FFF7BFFC07
:1026E00059E7EDB2882D7FF456AFDFF850038642EC
:1026F0007FF451AFFFF76DFB072803D1DFF86403C8
:1027000001F070FDFFF765FB0E2803D1DFF85803D9
:1027100001F068FD00F07CF90020FFF763FD3AE767
:1027200000200100002020800320F2BD10B504002D
:102730000221CE4802F0C6F90028F9D0E4B2210007
:1027400089B2CA4802F0BAF90121C84802F0BAF9C0
:102750000028F9D0C54802F0B3F9C0B210BDF8B5F1
:1027600004000D0016004FF48051C14802F00FF92B
:1027700054F08000C0B2FFF7D9FF0027FFB2F6B2D5
:10278000B74205D2FFB2785DFFF7D0FF7F1CF5E7B7
:102790004FF48051B64802F0F7F8F1BDF8B50400E7
:1027A0000D0016004FF48051B14802F0F0F82000FF
:1027B000C0B2FFF7BBFF0027FFB2F6B2B74206D2A6
:1027C000FF20FFF7B3FFFFB278557F1CF4E74FF40B
:1027D0008051A74802F0D8F8F1BD13B504000122DA
:1027E00001A92000C0B2FFF7BAFF13BD38B504003D
:1027F0000D00012229002000C0B2FFF7CFFF31BD3C
:1028000038B504000D002A00D2B221000020FFF7E5
:10281000A6FF31BD38B504000D002A00D2B2210058
:102820000020FFF7BBFF31BD10B50400E4B2012C5E
:1028300006D100224FF400418E4802F0ABF805E0CB
:1028400001224FF400418B4802F0A4F810BD0000B3
:10285000257820000D0A000030B583B004000D007B
:10286000009400208DF8040008208DF805008DF8F4
:10287000065000A801F08CF937BD80B50121142065
:1028800002F0FCF900211F20FFF7E6FF01214FF4C1
:10289000804002F002FA0121012002F0E0F900215B
:1028A000012002F009FA03208DF802004FF40040E5
:1028B000ADF8000010208DF8030000A96D4801F06C
:1028C000BBFF4FF40050ADF8000003208DF802006C
:1028D00018208DF8030000A9654801F0ADFF4FF402
:1028E0000040ADF8000000A9614801F0A5FF4FF4D9
:1028F0008040ADF8000004208DF8030000A95C487A
:1029000001F09AFF4FF48050ADF8000010208DF8D0
:10291000030000A9564801F08FFF0F20ADF800001A
:1029200003208DF8020028208DF8030000A95248EA
:1029300001F082FF03208DF802004FF48050ADF8C3
:10294000000010208DF8030000A94A4801F074FF30
:102950000121012002F092F901BD80B50121012081
:1029600002F08CF9012001F06BF9022001F068F906
:10297000042001F065F9082001F062F9002102202D
:1029800002F011F80121022002F00DF802210220CC
:1029900002F009F80321022002F005F800211F20AF
:1029A000FFF75AFF01BD00B585B04FF480513048A4
:1029B00001F0EAFF00212D4802F072F82B4802F0E6
:1029C0001DF80020ADF800004FF48270ADF8020051
:1029D0000020ADF804000020ADF806000020ADF89E
:1029E00008004FF40070ADF80A001020ADF80C009C
:1029F0000020ADF80E000720ADF8100000A91B481C
:102A000002F028F80121194802F04AF805B000BD8B
:102A100080B5FFF732FFFFF7C6FF01BD80B507485D
:102A200001F0FAF9FFF7F4FFFFF797FF0120FEF737
:102A3000FDFF124801F0D6FB01BD0000B01D0020D3
:102A4000907200081C1A00200E1E00209C720008C4
:102A5000A87200080C1E0020647100087501002097
:102A6000241C0020747100088471000800380040A4
:102A7000000C01400008014000100140B472000841
:102A80002DE9FF4D8AB0DDE90C01CDE904010B9879
:102A9000C0F30A5040F2FF7188420AD10020ADF81D
:102AA00000000B98000305BF0A98002802250125A5
:102AB00016E0012809DA0AA8FEF715FB012804DB55
:102AC0000020ADF8000000250AE00B9A40F2FE312C
:102AD00061F31E52401A0B92ADF800004FF0FF3523
:102AE000002104A802F072F90646169810B1169952
:102AF0000020088036B9DDE90C230020002102F017
:102B0000A5F912D0002D12D5BDF90040012C13D12A
:102B1000DDE90A230020CB4902F098F905D0012E07
:102B20000AD1C94902F092F92ED1C849BCE1022D5F
:102B300004D1DDE90A01B7E1012E5ADB022E08BFFC
:102B4000DDE90C0100F0B081012D1BD10B980028AC
:102B50000D9802D4002849D533E0002809D4002E6E
:102B600044D14FF0FF3104A802F030F900283DD5E0
:102B700039E036BB4FF0FF3104A802F027F90028F6
:102B80001FD51AE0012E0AD10D98BDF9004000288A
:102B900002D4012C2ADA14E0012C12DA26E00D9876
:102BA000002811D46EB94FF0FF3104A802F00EF9DD
:102BB000002844BF0B98002803D500204FF00041A7
:102BC00072E1002000216FE102F050F92221016042
:102BD00066B94FF0FF3104A802F0F8F8002844BFAE
:102BE0000B98002802D5002099495DE10020994901
:102BF0005AE10B98002848BF002E08D502F036F99C
:102C0000212101604FF0FF306FF000414CE1DDE920
:102C10000A0100220023FEF79FFA38BFADF8042016
:102C20000AD381F00041CDE90A014FF0FF3104A839
:102C300002F0CCF8ADF80400012C14D1DDE90A0152
:102C4000854A864BFEF770FA0DD2DDE90A2300268D
:102C50004FF000087D4F30464FF08041FEF71EFCDC
:102C6000CDE90A011BE0DDE90A23764D7C4900200D
:102C7000FEF714FC00222B46FEF746FEFEF70AFB89
:102C8000A0F120084046FEF731FB0022754BFEF70D
:102C900005FC00222B46FEF737FE06460F460FF2D4
:102CA000202000EB481006903246DDE90A013B4641
:102CB000FEF734FB82468B46DDE90A0132463B468D
:102CC000FEF722FE02460B4650465946FEF7B8FC78
:102CD000CDE90801DDE90823FEF7E0FBCDE90AAB09
:102CE00004460D4602F0C8F822462B46FEF7D6FBF6
:102CF000DDE90A23FEF712FB04460D460020534986
:102D000032463B46FEF70AFB00224FF08043FEF7B7
:102D1000C5FB22462B46FEF7F7FDDDE90823FEF74B
:102D2000BDFB02460B46DDE90A01FEF7EDFD044658
:102D30000D464D4A4D4BFEF783FCCDE90401BDF92C
:102D40000000FEF7D3FA069A82468B46D2E90001CC
:102D500052465B46FEF7D8FDDDE90423FEF7D4FDBD
:102D6000CDE90401DDE90C23FEF798FBCDE9020172
:102D700000223F4BFEF7D8F9C0F07E8001223D4B88
:102D8000FEF7EAF97CD900220023FEF7CDF9DDE950
:102D9000022339BF00202C4900202A49FEF7B4FD48
:102DA000FEF778FA0646DDE90C0122462B46FEF7CF
:102DB00075FBCDE90201069A2B4C2C4DD2E902019C
:102DC0001746D7E90423FEF79FFDDDE90C23FEF744
:102DD00065FB22462B46FEF761FBDDE90223FEF789
:102DE00093FDCDE90201069F5246D7E900015B46FB
:102DF000FEF78AFDDDE90C23FEF750FB07468B4604
:102E00003046FEF773FA02460B4638465946FEF73F
:102E100085FA22462B46FEF741FBDDE90223FEF749
:102E200073FDCDE90201169808B1068000260096D0
:102E30000022064B02A802F075F8E8B101281FD065
:102E40002AE000BF0000E03F0000E0BF0000F03FCC
:102E50000000F0FF0000F07FCD3B7F669EA0E63FC4
:102E6000000050400000903FEF39FAFE422EE63F4E
:102E70000000E0C00000E0400020CDE9020007E0D3
:102E80000020014902E000BF0000F07FCDE902010F
:102E900001F0ECFF22210160BDF904000028DDE90A
:102EA000020118BF81F000410EB0BDE8F08D10B5F1
:102EB00082B000240094FFF7E3FD1CBD0000000079
:102EC000000000000000F0BF0000000000000080D3
:102ED0000000000000000080000000000000000072
:102EE000000000C05294EEBF00000048204E51BECA
:102EF000000000F86467BCBC000000000000000097
:102F0000000000208133EDBF00000080B3DB14BE61
:102F1000000000506706A3BC000000000000000095
:102F2000000000D0E9DCEBBF00000008C39259BEEE
:102F300000000080B0D3B8BC00000000000000001A
:102F400000000070F98FEABF000000C0A51028BE85
:102F5000000000E8BFC0B0BC00000000000000009E
:102F600000000070284CE9BF00000060134B42BE17
:102F7000000000C03D20B8BC0000000000000000C0
:102F800000000050FA10E8BF000000C05FF62BBE42
:102F9000000000905C71A7BC000000000000000071
:102FA00000000020FCDDE6BF000000C0F8F154BEC8
:102FB00000000018E9F6B9BC0000000000000000A5
:102FC000000000D0C3B2E5BF00000070E43254BE80
:102FD00000000050DB06B4BC000000000000000050
:102FE00000000010EF8EE4BF00000020F36252BE2C
:102FF000000000C02A879ABC00000000000000000A
:10300000000000B02272E3BF000000F0E8E056BE0E
:1030100000000028352DBDBC0000000000000000AD
:10302000000000000A5CE2BF000000B0FA8E41BE62
:1030300000000040AE6FBDBC0000000000000000BA
:1030400000000000564CE1BF000000F015CD5FBE4F
:1030500000000000141C90BC0000000000000000F4
:1030600000000040BD42E0BF00000030F93457BE10
:10307000000000E06C1E93BC000000000000000097
:10308000000000E0F57DDEBF000000B08A535EBEA8
:1030900000000080DA77AABC0000000000000000F9
:1030A000000000C09D81DCBF00000000FFA226BE22
:1030B0000000006057E2B0BC00000000000000000B
:1030C00000000060F98FDABF000000580A8151BE8D
:1030D000000000F05F60B8BC0000000000000000CD
:1030E0000000000098A8D8BF000000607A7F45BEAD
:1030F000000000D05433A3BC00000000000000001A
:10310000000000600FCBD6BF000000D091CB40BEC6
:10311000000000406D1BA0BC00000000000000008B
:10312000000000A0FBF6D4BF00000098C5CE52BE40
:10313000000000003A397EBC0000000000000000E2
:10314000000000E0FE2BD3BF0000004073872BBEC1
:1031500000000000926879BC000000000000000040
:1031600000000040C069D1BF00000058F16353BEA9
:1031700000000080438D7CBC0000000000000000C7
:1031800000000080D85FCFBF000000181F8354BE2E
:10319000000000B03F42A2BC0000000000000000A0
:1031A0000000008067FCCBBF00000060FAFF53BE48
:1031B00000000050E00DB8BC00000000000000005E
:1031C0000000000098A8C8BF000000607A7F35BEEC
:1031D000000000C0543393BC000000000000000059
:1031E00000000000DC63C5BF00000058D6FF54BEDD
:1031F00000000000396490BC0000000000000000E6
:10320000000000C0AD2DC2BF00000080A45915BE53
:10321000000000E0484BABBC0000000000000000D4
:10322000000000801A0BBEBF00000050BF3C5ABE19
:10323000000000A0B364B6BC000000000000000065
:103240000000008004D6B7BF00000040BBCF36BEF0
:103250000000008076CEA8BC000000000000000046
:103260000000008032BBB1BF000000402A0043BE16
:1032700000000028C60CBDBC0000000000000000DB
:10328000000000009473A7BF000000182B3B59BE3C
:10329000000000C0E55DA5BC0000000000000000CB
:1032A00000000000EE4397BF000000A0E6C340BE50
:1032B00000000020958DB5BC00000000000000005B
:1032C00000000000000000800000000000000080FE
:1032D000000000000000008000000000000000006E
:1032E00040F2FF7C1CEA115240F2FE33D21ACCBFEE
:1032F000D2F1350316E0B2F1150309DA6FEA4C5347
:10330000D340094201D4401E5941002099437047DF
:103310006FF00002DA40094202D4801851F1000136
:1033200090437047352A09DA50EA41031CBF40F246
:10333000FF31090528BF4FF0004100207047000011
:1033400010B50400DFF8680404602000FDF7D8FF22
:103350000022DFF86034FEF773F9FDF7B1FF0400D7
:10336000200CDFF8541409688871200ADFF848142B
:103370000968C871DFF84004006804720322DFF8AE
:1033800038040068811D0620FFF7E9F910BD10B56B
:103390000400DFF82404006810F109010920FFF798
:1033A00025FADFF81404006810F14C014D20FFF7F6
:1033B0001DFADFF804040068407A000648D5DFF8FB
:1033C000F803006890F84C0010F0870087281FD1A0
:1033D00064B2052C01DA0520040064B2152C01DB6F
:1033E00014200400DFF8D0030068407A50F0700029
:1033F000DFF8C41309684872601FDFF8BC1309685E
:10340000497A60F30301DFF8B0030068417240E0DD
:1034100064B2022C01DA0220040064B2122C01DB37
:1034200011200400DFF890030068407A50F070002B
:10343000DFF8841309684872A01EDFF87C1309685E
:10344000497A60F30301DFF870030068417220E0FD
:1034500064B214F1010F02DA5FF0FF30040064B2CD
:103460000F2C01DB0E200400DFF84C030068407ACB
:1034700050F07000DFF8401309684872601CDFF8F4
:1034800038130968497A60F30301DFF82C030068F8
:103490004172DFF824030068417A0920FFF79DF9A3
:1034A000DFF80C03047110BD10B50400DFF8080349
:1034B000006810F11D011D20FFF798F9DFF8F802F0
:1034C0000068407F10F00F0050EA0410DFF8E812A7
:1034D00009684877DFF8E0020068417F1D20FFF7A8
:1034E0007CF9DFF8CC02447110BD10B50400E4B2E1
:1034F0000D2C02DB0C20040004E0E4B2062C01DAFF
:1035000006200400E4B2062C03D1052000F034F9B3
:1035100002E0032000F030F9DFF89C02006810F1AF
:103520001E011E20FFF762F9DFF88C020068807F21
:1035300010F00F0050EA0410DFF87C120968887759
:10354000DFF874020068817F1E20FFF746F9DFF87C
:103550006002847110BD10B50400DFF85C020068E1
:1035600010F11D011D20FFF741F9DFF84C02006842
:10357000407F10F0F10050EA4400DFF83C12096887
:103580004877DFF834020068417F1D20FFF725F9F6
:10359000DFF81C02C47110BD10B50400DFF818027A
:1035A000006810F11E011E20FFF720F9DFF8080265
:1035B0000068807F10F0FB0050EA8400DFF8F8110B
:1035C00009688877DFF8F0010068817F1E20FFF727
:1035D00004F9DFF8DC01047210BD10B5040002220A
:1035E000DFF8D401006810F120012020FFF7D6F8A1
:1035F000A4B2200ADFF8C011096881F82000DFF8C2
:10360000B801006880F821400222DFF8AC010068B0
:1036100010F120012020FFF7A2F810BD10B5040022
:10362000DFF89401006810F11D011D20FFF7DEF89E
:10363000DFF884010068407F10F0FE0020435E49FF
:10364000096848775C480068417F1D20FFF7C5F88E
:103650005748447210BD10B504005748006880F800
:1036600022405548006890F822102220FFF7B5F854
:103670004F48447510BD10B504004F48006810F164
:103680004C014D20FFF7B2F84B48006810F10901DA
:103690000920FFF7ABF848480068407A000608D5D3
:1036A000E4B2012C0AD187204349096881F84C0013
:1036B00004E084204049096881F84C003E480068D5
:1036C00090F84C104D20FFF788F810BD10B504009D
:1036D0003948006810F109010920FFF787F83648DA
:1036E0000068407A10F07F0020433349096848722F
:1036F00031480068417A0920FFF76FF810BD10B516
:10370000040002222C48006810F11E011E20FFF761
:1037100045F8A4B2200A28490968897F60F30101AD
:1037200025480068817724480068C477022222482F
:10373000006810F11E011E20FFF711F810BD10B532
:1037400004001D48006810F126012620FFF74EF8FE
:103750001948006890F8260010F0F70050EAC400FD
:103760001549096881F826001348006890F826106A
:103770002620FFF732F810BD10B504000E4800688F
:1037800010F130013120FFF731F80B48006890F854
:10379000300010F0F80020430749096881F8300034
:1037A0000548006890F830103120FFF716F810BD7A
:1037B000A800002080844E40FC1D002030B583B05E
:1037C00004000D0001F02BFD01F068FDE4B2012CB6
:1037D00003D12800C0B201F020FE00F03DFC01F052
:1037E00048FE002001F08CFF4FF4FA7001F0CAFF90
:1037F000002001F0B1FF012001F082FF4FF4FA70C8
:1038000001F0C0FF012001F0A7FF022001F078FFC6
:103810004FF4FA7001F0B6FF022001F09DFF01F0B5
:10382000D0FF010000A801F05BFE9DF805309DF877
:1038300004209DF80310034800F0D4FC024800F077
:10384000D1FC37BD387000084C70000830B40B0054
:10385000040015006A1E002D04D01D7825705B1C25
:10386000641CF6E730BC704770B504000D00B94821
:1038700000680600A64203D0002E01D03668F9E7A2
:10388000A6420DD0B34800682060B2480460012011
:10389000A0730020A0812A008121200000F039F9C6
:1038A00070BDF8B504000D00AB480768A948006872
:1038B0000600A64203D0002E01D03668F9E7002E9C
:1038C0003AD0200000F05CF900281CD00020A07342
:1038D000A04800680600002E08D0B44204D02200A0
:1038E0008721300000F029F83668F4E7A068002846
:1038F00009D0AC4207D0984804600022832114F11B
:103900000C00A368984793480068844205D1914809
:10391000006800688F4908600CE08E480068060067
:10392000002E07D03068A04202D12068306001E04C
:103930003668F5E788480760F1BDF8B504000D006A
:103940001600A07BC0071CD5A068002819D08248AB
:1039500004600220A07332002900C9B214F10C00E7
:10396000A36898470700022F04D0032F02D0EDB2BE
:10397000832D04D121002000FFF793FF01E00120F7
:10398000A073F1BD8A207249087000207349087045
:103990007349087000206F4908606F4908607047DC
:1039A00010B500206F4908706A4800680400002CB8
:1039B0000DD0E07B002808D00120A0730020E07328
:1039C000002282212000FFF7B8FF2468EFE710BD36
:1039D00080B563480078002859D0604800780C21F1
:1039E000614A01FB00200078604908705B4800785C
:1039F0000C215D4A01FB002040685D490860574882
:103A000000780C21584A01FB002080685949086061
:103A100052480078401C202190FBF1F202FB110279
:103A20004E4802704E480078401E4D49087051487B
:103A3000006800281BD1474800684F4908604E487D
:103A40000068002823D047480078002801D0FFF7FD
:103A5000A7FF474802684548017847480068FFF7D4
:103A60006CFF45480068006843490860E7E73F4845
:103A70000078812803D101203E49096888733C48B9
:103A800002683A4801783B480068FFF756FF01BDDD
:103A900080B534480078002801D0FFF781FFFFF798
:103AA00097FF2F4800782F490978081802BD30B4D5
:103AB00003002B480078202801D1012027E0274867
:103AC0000078274C24782018C0B2202490FBF4F50D
:103AD00005FB140529480570284800780C24224D60
:103AE00004FB00500170254800780C241E4D04FB97
:103AF00000504260214800780C241B4D04FB00500C
:103B0000836017480078401C154C2070002030BCA2
:103B10007047F8B504000D0016000F480768320022
:103B20002900C9B22000FFF708FF0B480760F1BD6C
:103B300000280AD0817B012902D0817B022904D18F
:103B40000121C1730121074A117070470000000074
:103B5000121E0020E41D0020E81D0020141E00207D
:103B6000131E0020151E002000160020161E002027
:103B7000EC1D0020F01D0020F41D0020171E002069
:103B8000807B002801D0012000E00020C0B27047F7
:103B900000212D4A11008279002A36D02A4A126863
:103BA00003689A43284B1A60284A126803689A43AC
:103BB000264B1A60027951180A6803681A430A6092
:103BC000234A126803689A43214B1A60214A1268FB
:103BD00003689A431F4B1A604279102A0CD11C4A81
:103BE000126803681A431A4B1A601A4A126803686B
:103BF0001A43184B1A600EE0134A1100427951180B
:103C00000A6803681A430A6005E0027951180A68D5
:103C100003689A430A6070470100002000220A4BA3
:103C20001B680B401A000C4B1B680B4204D0002A87
:103C300002D00123180001E000231800C0B2704731
:103C40000549086070470000000401400404014079
:103C5000080401400C0401401404014070B5804880
:103C60000068002803D100207E4908601DE001F0B3
:103C700021FE05007A48006806003068716808185F
:103C8000401B0400B668002E0CD03068716808181C
:103C9000401BA04204D2306871680818401B040021
:103CA000B668F0E760196F49086070BD2DE9F04112
:103CB00004000D00160001212088002802D0592898
:103CC00006D05EE00020664908600021592020806F
:103CD000C9B2002901D1012058E0EDB2872D24D1CD
:103CE00030005F49096800290AD05D490968C96840
:103CF000814205D15A4909688968594A1160F0E73B
:103D00005749096800290FD0554909680F00B9685B
:103D1000002909D0B968C968814203D1B9688968A6
:103D2000B960F4E7BF68F2E7CFE7EDB2822DCCD1FE
:103D3000002080464A4800680700002FC5D03800A0
:103D400001F0CCFD002819D03A008821F868FFF76F
:103D5000AEFE002810D10020F860B8F1000F03D0AB
:103D6000B868C8F8080002E0B8683D49086000205B
:103D7000B860FFF773FFDBE700F00AF8B846BF68EA
:103D8000DBE700200100002020800320BDE8F08157
:103D900080B53548FFF7CCFE01BD38B50400FFF70C
:103DA000F7FFE06800280ED02D4800680500002DC0
:103DB00009D0A54205D12D480068E060FFF74EFF0D
:103DC0000BE0AD68F3E729480068E060244800682C
:103DD000A06023480460FFF741FF31BD38B50400FF
:103DE0000D002900200001F071FD2000FFF7D5FF34
:103DF00031BD1B480068002801D0012000E00020F0
:103E0000C0B2704780B5FFF7F4FF002802D0154814
:103E1000006800E0002002BD38B5040010480068CA
:103E2000844207D10E48006880680D490860FFF79A
:103E300015FF0FE00A4800680500002D04D0A868AF
:103E4000A04201D0AD68F8E7002D03D0A068A860BB
:103E5000FFF704FF0020A0600020E06031BD0000FB
:103E6000D81D0020DC1D0020C4000020E81D00201B
:103E7000DFF828090068704770B5040000250026A7
:103E80000420050000200600F6B2EDB2AE4280F03C
:103E90009180F6B254F836000078C0F3C200C0B288
:103EA000022865D1FFF7E4FFF6B254F83610D1F8D6
:103EB000011088427CD3F6B254F83600007810F036
:103EC000C700F6B254F836100870F6B23000002879
:103ED00004D0022819D003282ED048E0012000F099
:103EE000E7F8FFF7C5FF10F5C170DFF8B418C1F8A7
:103EF0000100DFF8B00801F001FD020092B2DFF826
:103F0000A418012000F061FA52E0002000F0D0F87F
:103F1000FFF7AEFF10F5C170DFF88418C1F801009B
:103F2000DFF8840801F0EAFC020092B2DFF87818AA
:103F3000012000F04AFA3BE00020DFF8701808800A
:103F4000002000F0B5F8FFF793FF10F5C170DFF81F
:103F50005018C1F80100DFF8580801F0CFFC02004A
:103F600092B2DFF84C18012000F02FFA20E01FE099
:103F7000F6B254F836000078C0F3C200C0B203288D
:103F800016D1F6B254F83600007810F0C700F6B239
:103F900054F836100870F6B23000012802D0032819
:103FA00003D005E001F0BAFC02E000F0ADFAFFE753
:103FB000761C69E770BD80B500F021F8DFF8E007F6
:103FC000007810F0C700DFF8D8170870DFF8E407B2
:103FD000007810F0C700DFF8DC170870DFF8D807AA
:103FE000007810F0C700DFF8D0170870DFF8CC07B2
:103FF000007810F0C700DFF8C417087001BD80B565
:1040000000208DF800004FF47A61DFF8B40701F06A
:10401000E9FF40F2E241DFF8AC0701F0E3FF0020E6
:10402000DFF8A41708700020DFF89C17487000AB79
:104030001022FA21DFF8880701F035FFDFF88C172E
:1040400008609DF80000002801D001F003FF9DF8F2
:1040500000000028EBD101BD80B5FFF7ACFF0020C8
:1040600000F026F8012000F023F801BD70B504002F
:104070000D00160001212088002802D0CA280BD08C
:1040800010E0DFF84C07FFF753FDDFF84807FFF7B4
:10409000F3FE0021CA202080C9B2002901D10120ED
:1040A00005E0EEE70020010000202080032070BD25
:1040B00010B586B004000121E4B2DFF81C0750F807
:1040C0002400E4B2DFF8142752F82420104350F003
:1040D000010000F0D3FDE4B2002C08D10121E4B2CC
:1040E000DFF8FC0650F8240000F0D7FD07E00121BE
:1040F000E4B2DFF8EC0650F8240000F0CEFD182002
:104100008DF80300E4B2DFF8DC0630F81400ADF8F7
:10411000000003208DF8020000A9E4B2DFF8C80611
:1041200050F8240000F088FB48208DF80300E4B22A
:10413000DFF8B80630F81400ADF8000000A9E4B2CA
:10414000DFF8AC0650F8240000F076FBE4B2DFF8AC
:10415000A40650F8240001904FF48050ADF80800F8
:104160000020ADF80A004FF48060ADF80C0000208C
:10417000ADF810000C20ADF80E0001A9E4B2DFF894
:10418000780650F8240001F037FF0121E4B2DFF88F
:10419000680650F8240001F0A1FF0121E4B2DFF825
:1041A0005C0650F8240000F05AFD2021E4B2DFF84C
:1041B000480650F8240001F0D9FF012240F22551B1
:1041C000E4B2DFF8340650F8240001F095FF012234
:1041D0008021E4B2DFF8200650F8240001F0B7FF98
:1041E00006B010BD0EB42DE9F04FBAB004000026A1
:1041F00000275FF000085FF000090DF11C0A0020A5
:104200008DF800005FF0000B43A805002B00220092
:10421000C82107A801F0E8FF06003700B6B2002E5B
:1042200000F0CC80B6B2C92E80F0C880B6B20C20A7
:10423000B6FBF0F100FB1160002806D0B6B20C20EE
:10424000B6FBF0F0401C804604E0B6B20C20B6FB92
:10425000F0F0804600208146FFF70AFE83465FFAB1
:1042600089F95FFA88F8C14578D2FFF701FEB0EB13
:104270000B00652872D201F0E1FF01A9DFF84C05BF
:10428000006801F095FE8DF800009DF80000002800
:10429000E5D105980028E2D000A9DFF830050068D4
:1042A00001F04CFE001DDFF8201509780522DFF82B
:1042B000183502FB0131C1F802009DF8000000280A
:1042C000CDD1B6B20D2E1BD30C225146DFF8F80427
:1042D00000780523DFF8F0C403FB00C0D0F802002B
:1042E00001F0BCFF0C20DFF8E01409780522DFF8AC
:1042F000D83402FB013188710C3E1AF10C0A17E028
:10430000320092B25146DFF8C00400780523DFF88E
:10431000B8C403FB00C0D0F8020001F09FFFDFF833
:10432000A80400780521DFF8A02401FB0020867195
:10433000FFF79EFD834619F10109DFF88C04007830
:10434000401CDFF884140870DFF87C040078FA2839
:1043500085DB0020DFF87014087080E7DFF8400488
:104360000078C0F3C200C0B2022827D00220DFF8D4
:104370003014097860F3C501DFF824040170FFF7F9
:1043800077FD10F5C170DFF81814C1F80100DFF8EF
:10439000380440780521DFF8302401FB00208279C1
:1043A00092B2DFF8240440780521DFF81C3401FBC9
:1043B0000030D0F80210012000F007F8BFB238003A
:1043C0003AB0BDE8F00F5DF810FBF0B58BB004001B
:1043D0000D001600B6B2002E00F08780E4B2DFF8C0
:1043E000200430F81400B6B2B04205D2E4B2DFF8CF
:1043F000100430F814000600E4B2DFF8080450F8A6
:10440000240001F03BFFE4B2DFF8FC0350F8240085
:104410000090019510200290B6B2039600200490FF
:104420008020059000200690002007900020089032
:104430004FF48050099000200A9000A9E4B2DFF800
:10444000C40350F8240001F09EFF01220A21E4B2C7
:10445000DFF8B00350F8240001F0C2FF0121E4B2FC
:10446000DFF8A00350F8240001F0ACFFE4B2002C08
:104470001FD10220DFF84013097860F3C501DFF88F
:1044800038030170FFF7F4FC0700B6B23000FCF708
:1044900037FFDFF87823DFF87833FCF7FFFFFCF70E
:1044A000F9FE80B2C0196430DFF80C13C1F80100C6
:1044B0001BE00220BA49097860F3C501B8480170D1
:1044C000FFF7D6FC0700B6B23000FCF719FFDFF8A3
:1044D0003C23DFF83C33FCF7E1FFFCF7DBFE80B266
:1044E000C0196430AE49C1F801000BB0F0BD020044
:1044F00000200B00591E9BB2002B03D01378181814
:10450000521CF6E7C0B2704700B583B001F059F90C
:10451000010000A800F0E4FF9DF805309DF804209C
:104520009DF80310BB48FFF75DFEBB48FFF75AFE3E
:104530009E484088811E89B2B848FFF7D8FF9B4942
:104540004988B64A891811F8021CC0B2884205D1C0
:1045500096484188C9B2B148FDF781FD07BD80B5D5
:10456000AF4801F048FF002808D0AD4801F058FFDF
:104570009148007810F0C7008F490870A94801F0F1
:104580003AFF002802D0A74801F04AFF01BD80B5DC
:1045900040F22551A44801F0EFFD00285FD0834888
:1045A0000088FF2802DD0020804908809E4801F035
:1045B000D9FD7E490988994A885402207F490978A3
:1045C00060F3C5017D480170FFF752FC64307B4900
:1045D000C1F8010075480088002808D0401E052851
:1045E00015D9801F03D0401E012810D915E06F484F
:1045F00000888A49405C682803D000206B49088005
:1046000004E06A480088401C6849088027E0674841
:104610000088401C6549088021E0644800887F4983
:10462000497A0B31884215DB604800887B49405C41
:1046300016280BD103206149097860F3C5015F4852
:1046400001705A480088401C58494880002057494A
:10465000088004E055480088401C5449088001BD8A
:1046600010B500245FF0007001F0C5FE00284DD0A9
:104670005FF0007001F0D4FE4948007810F0C700E8
:10468000474908705048407805214F4A01FB0020F7
:10469000D0F80200011F4D48006801F06EFC0400D4
:1046A000E4B2002C32D148484078401C464948705A
:1046B00045484078FA2802DB0020434948704248C8
:1046C000407841490978884220D00220344909784D
:1046D00060F3C50132480170FFF7CAFB10F5C170E5
:1046E0002F49C1F80100384840780521364A01FBBE
:1046F0000020827992B2344840780521324B01FB88
:104700000030D0F802100120FFF75FFE5FF000607C
:1047100001F071FE002803D05FF0006001F080FE20
:1047200010BD80B540F22551404801F025FD00281C
:1047300033D03E4801F016FD3D4909881E2902DBB1
:1047400000213B4A1180C0B2082809D138490988A4
:10475000002922D036490988491E354A11801CE0BB
:1047600033490988334A885431490988491C304AF9
:104770001180C0B20D2802D0C0B20A280DD1032189
:104780000C4A127861F3C5020A490A70284909885F
:10479000274A51800021264A118001BDF81D0020C2
:1047A00044010020B46F0008CC6F0008041E0020F4
:1047B000E46F00084C010020540100205C0100203F
:1047C0005C0600207A01002078010020FC15002002
:1047D000F4000020880000203C73000844730008A7
:1047E00034730008D07300082C010020D473000833
:1047F000340100202C730008240100204C730008B1
:10480000D87300083C010020547300081CC7711CB9
:10481000C771B83FB0700008386F0008241B002033
:104820000000021000000810004C0040004400404E
:10483000081E0020901D0020F0B500270022002354
:1048400000240025002691F803C01CF00F0C6746D9
:1048500091F803C05FEACC6C03D591F802C05CEA22
:10486000070791F800C05FEA0C6C3AD0D0F800C09E
:1048700065465FF0000C6346082B31D25FF0010CF7
:104880001CFA03FC6446B1F800C014EA0C0C624642
:10489000A24223D15FEA830C64465FF00F0C1CFA3E
:1048A00004FC6646B54317FA04FC5CEA050591F87A
:1048B00003C0BCF1280F06D15FF0010C1CFA03FC09
:1048C000C0F814C00AE091F803C0BCF1480F05D14C
:1048D0005FF0010C1CFA03FCC0F810C05B1CCBE7B6
:1048E0000560B1F800C0BCF1FF0F3FDDD0F804C097
:1048F00065465FF0000C6346082B36D25FF0010C72
:1049000013F1080E1CFA0EFC6446B1F800C014EA5C
:104910000C0C6246A24226D15FEA830C64465FF02B
:104920000F0C1CFA04FC6646B54317FA04FC5CEA5B
:10493000050591F803C0BCF1280F07D15FF0010C09
:1049400013F1080E1CFA0EFCC0F814C091F803C055
:10495000BCF1480F07D15FF0010C13F1080E1CFAEF
:104960000EFCC0F810C05B1CC6E74560F0BD02003D
:104970000020936889B20B4202D00123180001E0A5
:1049800000231800C0B2704789B20161704789B234
:1049900041617047D2B2002A02D089B2016101E0C0
:1049A00089B24161704730B400220F2311F0030433
:1049B000E4B2A400A3401A00C9B28B100E4C54F804
:1049C00023309343C9B28C100B4D45F82430C9B243
:1049D0008B10094C54F82330C0B211F00304E4B238
:1049E000A40010FA04F42343C9B28C10024D45F818
:1049F000243030BC704700000800014010B50400AE
:104A0000244884420AD101214FF4805000F054F927
:104A100000214FF4805000F04FF91AE01E48844204
:104A20000AD101214FF4804000F055F900214FF4E4
:104A3000804000F050F90CE01848844209D101216F
:104A40004FF4004000F047F900214FF4004000F01F
:104A500042F910BD10B4002203881A0012F441522A
:104A60000B884C8823438C882343CC8823430C89B0
:104A700023434C8923438C892343CC8923431A4302
:104A80000280838B4FF2FF74234083830B8A03825F
:104A900010BC70470030014000380040003C00402E
:104AA000C9B2002904D0028852F04002028004E01A
:104AB00002884FF6BF731A400280704781817047A9
:104AC000808970470200002013890B4202D0012325
:104AD000180001E000231800C0B27047DFF8A012F0
:104AE000096831F48031DFF898221160DFF8901204
:104AF000096831F48021DFF8882211600100B1F5E6
:104B0000803F03D0B1F5802F09D011E0DFF870129B
:104B1000096851F48031DFF86822116008E0DFF89D
:104B20006012096851F4A021DFF854221160FFE7F8
:104B30007047C0B2DFF85412086070470021914AF4
:104B4000126811008908890001438E4A116070477C
:104B5000C9B2002905D08E4A127802438C4B1A70D4
:104B600004E08B4A12788243894B1A707047894956
:104B700009680143874A11607047C0B286490860DE
:104B8000704730B400210022002300247D4D2D68A1
:104B900015F00C0529000D00002D04D0042D05D0C2
:104BA000082D06D026E07D4D056025E07B4D056093
:104BB00022E0744D2D6815F470152A00714D2D6892
:104BC00015F480352B00920C921C002B04D1744DEF
:104BD00005FB02F505600CE06A4D2D68AD0304D5B8
:104BE0006F4D05FB02F5056003E06C4D05FB02F51A
:104BF000056001E0694D0560624D2D6815F0F00516
:104C000029000909674D4D5D2C000568E5404560A8
:104C10005C4D2D6815F4E0652900090A614D4D5D74
:104C20002C004568E5408560564D2D6815F46055AB
:104C30002900C90A5B4D4D5D2C004568E540C56003
:104C4000504D2D6815F440452900890B564D4D5D9A
:104C50002C00C568B5FBF4F5056130BC7047C9B2DE
:104C6000002905D0514A12680243504B1A6004E0F3
:104C70004E4A126882434D4B1A607047C9B20029F0
:104C800005D04B4A12680243494B1A6004E0484A77
:104C900012688243464B1A607047C9B2002905D09A
:104CA000444A12680243434B1A6004E0414A1268C6
:104CB0008243404B1A607047C9B2002905D03E4A72
:104CC000126802433C4B1A6004E03B4A126882437C
:104CD000394B1A607047C9B2002905D0374A1268AB
:104CE0000243364B1A6004E0344A12688243334B65
:104CF0001A607047C0B232490860704710B40100B2
:104D0000002200230020C9B24C09E4B22200012A8B
:104D100003D11B4C2468230008E0022A03D11D4C58
:104D20002468230002E0274C24682300C9B211F054
:104D30001F04220033FA02F4E40702D50124200004
:104D400001E000242000C0B210BC70471D4800687C
:104D500050F080701B4908607047010000200A4A2B
:104D60001268C9B20A4202D00122100001E00022FA
:104D70001000C0B27047144908707047000000006E
:104D8000001002400410024008100240600042423D
:104D900009100240201002403C04424200127A00F6
:104DA00000093D00E40000206801002014100240CA
:104DB000181002401C1002400C100240101002405B
:104DC0004C004242241002400A1002404268C2F3E2
:104DD0000A5240F2FF739A4209D14168090304BFA5
:104DE0000068002801D10120704702207047436805
:104DF0005B0004BF0368002B25D040F233439A1AAE
:104E0000521A012A1FDB352A06DB416801F00041F6
:104E100041600021016013E0012102F01F0399406D
:104E2000491E920607D5426811404A404260026816
:104E30001143002202E0026811404A40026011B1B1
:104E40004FF0FF30704700207047000090420CD1B7
:104E500041EA030C50EA4C0C07D0994205D14FF4BB
:104E6000001C1CEB410F38BF894270470148FCF71A
:104E7000BFBD00007001002038B504460D461B4838
:104E80001B4922462B46FCF709FB1A4A1A4BFCF732
:104E90003BFD22462B46FCF701FB184A184BFCF75A
:104EA00033FD22462B46FCF7F9FA164A164BFCF75F
:104EB0002BFD22462B46FCF7F1FA144A144BFCF763
:104EC00023FD22462B46FCF7E9FA124A124BFCF767
:104ED0001BFD22462B46FCF7E1FA01B0BDE830404D
:104EE0000E4A0F4BFCF710BD00000000F7DE29BF93
:104EF000D8F8C23FF4B3FECC1A99C33F62CB68D94D
:104F00006F46C73FC6C912DAC471CC3F4AE98A94DA
:104F10002449D23FF75F97999999D93FBC55555588
:104F20005555E53F2DE9F04D804684B0D8E90001A4
:104F300014461D4601F09CFA07462046294601F01A
:104F400097FA0C9E390006D500284AD4022805D1CC
:104F5000C8E9004535E1022FF8D121E050B9D8E980
:104F600000010022514BFFF771FF0FD0C8E9004547
:104F7000002026E1012815D1D8E9000100224C4B80
:104F8000FFF764FF18BFC8E900454FD1FFF76EFF78
:104F9000212101604FF0FF306FF00041C8E90001AE
:104FA00002200EE17FB9C8E9004531464046FCF7D2
:104FB000EBF8040018BF012C40F00281FFF756FF08
:104FC00022210160FCE0D8E900010022374BFFF705
:104FD0003DFF0FD120462946FCF760FAC8E90001E1
:104FE00024E0D8E90001CDE902010022314BFCF7B1
:104FF0009BF80AD2002320462946FCF74FFAC8E95D
:10500000000104B00020BDE8F08D01222A4BFCF71E
:10501000A3F80DD80022254B20462946FCF73EFA7E
:10502000C8E90001FFF722FF222101600120C8E04A
:10503000224A234BFCF732FA00220023FCF774F8D3
:1050400034BF204B464BFCF75FFCFCF723F90746C7
:10505000FCF74CF982468B464FF078421A4BFCF72E
:105060001DFA02460B46DDE90201FCF757F9CDE9CE
:105070000001164A164B50465946FCF70FFA0246F5
:105080000B46DDE90001FCF749F96FF00102114B15
:10509000FCF762F882468B4620D800220E4BFCF7C4
:1050A00043F81BD2204629467CE000BF0000F07F79
:1050B0000000F0FF00C89CC000C89C40FE822B6529
:1050C0004715F73F0000E0BF422EE63FF2E4D5BCB3
:1050D000E7E84B3EFFFF8FBC0000903C52465B462A
:1050E000FCF7DCF9CDE90001DDE900231D481E498C
:1050F000FCF7D4F91D4A1E4BFCF706FCDDE9002342
:10510000FCF7CCF9CDE90201DDE9002319481A4981
:10511000FCF7C4F9194A1A4BFCF7F6FBDDE900234A
:10512000FCF7BCF90E4B0022FCF7EEFB52465B4647
:10513000FCF7B4F9DDE9022382468B46FCF7E4FB79
:105140000022104BFCF7E0FBCDE900015246DDE9FF
:1051500002015B46FCF7E2F800220A4B14E000BFB4
:105160000000E03F112E5781A03F503F5843128C62
:105170008F71BC3F4BE8A541B752013F0BBDF3DA3D
:10518000E8708C3F0000F03FFCF7BEFB02460B4688
:10519000DDE90001FCF754FA02460B462046294699
:1051A000FCF77CF9C8E90001F1194046FBF7ECFF78
:1051B000040018BF012C03D1FFF758FE2221016023
:1051C000204604B0BDE8F08D10B440B2002808D5E8
:1051D0000A0140B210F00F03194C1B1903F8042CFC
:1051E00003E00A0140B2174BC25410BC704710B51F
:1051F0000400601EB0F1807F01D301200EE0601E2C
:10520000114908600F215FF0FF30FFF7DDFF00203C
:105210000E49086007200E490860002010BD80B5C7
:105220000120FFF767FD0B4800684FF47A71B0FB6F
:10523000F1F0FFF7DCFF002800D0FEE701BD000021
:1052400018ED00E000E400E014E000E018E000E009
:1052500010E000E06C01002080B50820FFF77DFD24
:1052600000280AD00820FFF786FD3120FFF746FD11
:10527000002802D00120FFF75CFC1020FFF76DFD35
:1052800000280AD01020FFF776FD3920FFF736FD01
:10529000002802D00220FFF751FC01BD80B500219B
:1052A0005FF0006001F037F94FF4A06001F0FAF808
:1052B00005208DF8000000208DF8010000208DF8F9
:1052C000020001208DF8030000A801F0F0F806208C
:1052D0008DF8000001208DF8010001208DF80200FA
:1052E00001208DF8030000A801F0E1F807208DF8F7
:1052F000000001208DF8010001208DF8020001203E
:105300008DF8030000A801F0D2F808208DF8000005
:1053100001208DF8010001208DF8020001208DF898
:10532000030000A801F0C3F809208DF80000012057
:105330008DF8010001208DF8020001208DF8030096
:1053400000A801F0B4F826208DF8000002208DF8A6
:10535000010002208DF8020001208DF8030000A852
:1053600001F0A5F834208DF8000002208DF801002E
:1053700002208DF8020001208DF8030000A801F042
:1053800096F80C208DF8000000208DF80100002018
:105390008DF8020001208DF8030000A801F087F8C5
:1053A00010208DF8000000208DF8010000208DF8FD
:1053B000020001208DF8030000A801F078F8112008
:1053C0008DF8000000208DF8010000208DF802000B
:1053D00001208DF8030000A801F069F83B208DF84A
:1053E000000002208DF8010002208DF8020001204B
:1053F0008DF8030000A801F05AF832208DF8000063
:1054000002208DF8010000208DF8020001208DF8A7
:10541000030000A801F04BF801BD10B50400E4B290
:10542000002C02D10120040004E0E4B2332C01DBA3
:10543000322004007D20FFF761FC002801D0FFF737
:1054400085FC45F2555000F0EDFE062000F0EEFE22
:10545000E4B240F2E24000FB04F080B200F0EAFE69
:1054600000F0ECFE00F0EFFE10BD00009F48006869
:10547000704700B583B001215FF0C050FFF70DFC0D
:10548000012001F05DF84FF44070FFF770FB04203D
:1054900001F06AF84AF2A55188421CD00120FFF7BA
:1054A0006CFB00F0C9F900F0C2F94FF2234000F0A4
:1054B000B0F900F0BCF94AF2A551042001F046F819
:1054C00000200190002000900023012201210A20E9
:1054D00000F084F803E000F0AFF900F0E4F807BD55
:1054E0002DE9F04F83B002000C00A3465FEA9B0059
:1054F00045F26041B0FBF1F5ADB27D4800FB15B659
:105500000027A8465FF00A09002082465FFA8AFA5F
:10551000BAF1020F33DA5FFA8AFABAF1000F09D151
:10552000032319EA030F02D14FF4B77101E040F2EF
:105530006D110EE01FFA89F96E4819F8000001009C
:105540001FFA89F9B9F1010F03D103231F4200D1DA
:10555000491C1FFA88F889B2884504D3B8EB0108C2
:1055600019F10109D7E75FFA8AFABAF1000F03D1FE
:1055700048460700002081461AF1010AC6E78DF867
:10558000007019F101008DF8010018F101008DF88B
:1055900002004FF46160B6FBF0F08DF803009DF857
:1055A00003004FF4616101FB10603C21B0FBF1F09E
:1055B0008DF804009DF803004FF4616101FB106059
:1055C0003C21B0FBF1F301FB13008DF80500100046
:1055D00000A90622FBF74CFDBDE8FE8F2DE9F44F34
:1055E00084B006000F009B460E9C0F9D5FFA8BFB5C
:1055F0004FF46160E4B23C2101FB04F100FB0B10AD
:10560000EDB215EB00089DF81000B0F10109EDB204
:105610000295E4B201945FFA8BFBCDF800B09DF8DF
:105620001030FFB23A00F6B231003348FEF7DAFD2F
:105630000A2082465FFA8AFAF6B2B2450AD209F225
:105640006D1903211AEA010F01D119F101091AF1AB
:10565000010AEFE7002082465FFA8AFAFFB2781E5D
:10566000824509DA5FFA8AFA22481AF8000010EB3C
:1056700009091AF1010AEFE7FFB2032F04DB032146
:105680000E4201D119F101091FFA89F9184800FBEE
:10569000098800F0CCF8404600F0AFF800F0C7F8F9
:1056A00005B0BDE8F08F10B588B000F08AF80100B1
:1056B00005A8FFF715FFFFF7D9FE040000F081F8F9
:1056C000049403909DF8190002909DF81800019031
:1056D0009DF8170000909DF816309DF815209DF854
:1056E00014100648FEF77EFD08B010BDF81D00201E
:1056F00080510100D8720008F86D0008C46D0008E0
:1057000010B582B004000121E4B2184850F824001A
:10571000FFF7B4FAE4B2164830F81400ADF8000010
:1057200010208DF8030002208DF8020000A9E4B2D9
:10573000104850F82400FFF77FF82000C0B200F0B6
:1057400001F813BDC0B20A4931F81010C0B2094ABD
:1057500052F8202051617047C0B2054931F810104D
:10576000C0B2044A52F82020116170471001002095
:105770001C0100200401002001480068704700005F
:10578000F81D002038B504000025FFF7F5FF0500DF
:10579000FFF7F2FF401BA4B2A04202D200F04EFD80
:1057A000F6E731BD2A48008850F0100028490880EB
:1057B0007047274800884FF6EF7108402449088059
:1057C000704700210022002322480088010022485F
:1057D000008803001F480088020089B292B29142FB
:1057E00006D092B21C48008880B250EA024003E022
:1057F00089B29BB253EA0140704710B50400FFF72D
:10580000D1FF200C1349088013480480FFF7D1FF13
:1058100010BD10B50400FFF7C5FF200C10F00F00FD
:105820000E4908800E480480FFF7C3FF10BD0848EA
:1058300000888006FBD57047054800884FF6F77151
:10584000084003490880024800880007FBD57047DC
:1058500004280040182800401C2800400828004068
:105860000C28004010B515480068401C134908601A
:1058700013480068401C12490860FEF7BAFA002875
:1058800007D00F480468FEF7BDFA844201D3FEF743
:105890007FFA0C480068401E0A490860002808D1B9
:1058A00009480068401C084908604FF47A700549AF
:1058B000086010BD0248006870470000F81D002015
:1058C000D01D002064010020D41D002038B5040044
:1058D0000D006560FFF7EEFF206031BD10B50400DC
:1058E000FFF7E8FF2168401A401C6168814201D23D
:1058F000012000E00020C0B210BD00000100002225
:1059000010000A00511C1278002A01D0401CF8E750
:1059100080B27047DFF808050068704780B5DFF88F
:1059200004054088002805D000F012F8B1A0FEF769
:1059300059FC03E0DFF8F004FEF754FC1E21DFF809
:10594000EC0400F04FFB0020DFF8D814488001BDC4
:105950002DE9F04383B00024002500265FF0010804
:105960005FF00009DFF8C80400785FFA89F9814523
:1059700069D25FFA89F90C20DFF8B81400FB09102E
:1059800000680700002005005FFA89F90C20DFF8A5
:10599000A41400FB0910006800780600F6B2002E7F
:1059A0000CD06D1CEDB25FFA89F90C20DFF884147D
:1059B00000FB09100068285C0600EFE70120804624
:1059C0000020C0B2EDB2A8420CD2C0B2C15DC0B2DC
:1059D000DFF85824825C914202D00020804601E02A
:1059E000401CEEE7EDB2002D01D1002080465FFAA9
:1059F00088F8B8F1000F23D0FFF78CFF04005FFA9E
:105A000089F90C20DFF82C1400FB0910406880474E
:105A1000FFF7D7FE010000A8FFF762FD9DF80530F3
:105A20009DF804209DF80310DFF80C04FEF7DAFB64
:105A3000FFF770FF011BDFF80404FEF7D3FB02E061
:105A400019F101098EE75FFA88F8B8F1000F21D14A
:105A5000DFF8D80300780D2819D0DFF8D0030078DC
:105A60000A2814D0FFF7ADFE010000A8FFF738FDAB
:105A70009DF805309DF804209DF80310DFF8B80369
:105A8000FEF7B0FBDFF8B803FEF7ACFB02E05AA06C
:105A9000FEF7A8FBBDE8F7830100C9B2302906DB99
:105AA000C9B23A2903DAB1F13000C0B214E0C9B288
:105AB000612906DBC9B2672903DAB1F15700C0B228
:105AC0000AE0C9B2412906DBC9B2472903DAB1F1BC
:105AD0003700C0B200E0002070472DE9F047040015
