:020000040800F2
:10000000482E0020A5710008AD6C0008D96C0008CE
:10001000316D0008336D0008356D000800000000E8
:10002000000000000000000000000000376D000824
:10003000396D0008000000003B6D000841510008C8
:10004000DD730008E1730008E5730008E973000838
:10005000ED730008B9610008312300085924000835
:100060006D240008DB240008F1730008F573000814
:10007000F9730008FD730008017400080574000896
:10008000097400083B4500080D740008117400084D
:1000900015740008197400081D7400082174000804
:1000A00025740008297400082D74000831740008B4
:1000B00035740008397400083D7400084174000864
:1000C00045740008497400084D7400085174000814
:1000D0005574000859740008FD4500085D74000857
:1000E0006174000865740008697400086D74000884
:1000F0007174000875740008797400087D74000834
:100100008174000885740008896C000889740008EF
:10011000DB4400088D740008917400089574000891
:10012000997400089D740008A1740008A544000893
:100130002DE9F04FA1B0824602AE002017461D46C1
:10014000029170620DF144080AE017F8011B029851
:10015000D0470290002800F0DA82706A401C70627A
:10016000387808B9706AD4E22528EED10020F06012
:1001700030617061B061F061306201E040F0010017
:1001800017F8011F2029F9D023290DD02B2904D0DD
:100190002D2906D030290AD00CE040F0020080B2B0
:1001A000EEE740F00400FAE740F00800F7E740F01F
:1001B0001000F4E72A290DD129680A1D2A60096870
:1001C000F162002904D5494240F00400F16280B296
:1001D0007F1C13E00021F1620BE0F16A6FF0004335
:1001E000994205D001EB810302EB43013039F16202
:1001F0007F1C3A78A2F130010A29EED339782E29F2
:1002000003D04FF0FF31B1621EE017F8011F2A2919
:1002100006D129680A1D2A607F1C0968B16213E0B3
:100220000021B1620BE0B16A6FF00043994205D042
:1002300001EB810302EB43013039B1627F1C3A7854
:10024000A2F130010A29EED330860FF63840397812
:1002500000F036FE08B117F8010B8DF83A009DF852
:100260003A00682802BF39786829622005D06C28D6
:1002700004BF38786C2803D171208DF83A007F1CB8
:1002800011A8B0603978B1F1250029D01C3800F0F0
:10029000C080001F022840F2BC80133800F0E480C8
:1002A000093800F0B680801E00F07781401E00F013
:1002B0002081401E022840F2AC80001F00F019810E
:1002C000401F7BD0401E00F0CF80401E22D0C01EB9
:1002D0000BD0801E00F0C880C01E00F0C58064E115
:1002E000F068411CF160252169E12868011D296041
:1002F0000068B26A7060002A02D500F0F9FD07E0DC
:10030000002100F011FE00281ABF7168401AB06A7F
:10031000306156E12868011D296000210068CDE99F
:1003200000014FF03C0E11A87060DDE9000111B929
:1003300008B9B26ACAB10206120FA0EB021230323B
:10034000AEF10103D2B29E463A2AA8BF2732000975
:1003500003F8082040EA0170090908BF002804D00A
:10036000726811AB73449A42E5D311A9714471606C
:10037000CEF13C00B16A3061884207DA081AB061F8
:100380004FF6EF71308E084030861AE1002940F1B7
:10039000188196F8301001F01401102940F01181F5
:1003A000F16AF268891AB269891AA1EB000EBEF1EE
:1003B000010FC0F20681C6F818E002E19DF83A008C
:1003C000622818D0682806D06A280BD06C2819D06B
:1003D000712807D016E02868011D29600068716A3D
:1003E0000180EEE02A68101D28601268706AC1174B
:1003F000C2E90001E5E02868011D29600068716A12
:100400000170DEE02868011D29600068716A0160E2
:10041000D7E02868C01D20F00700286000F108021E
:100420002A60D0E90023CDE90023002B04D5F06831
:10043000421CF2602D220DE0308E820704D5F06858
:10044000421CF2602B2205E0C00705D5F068421C73
:10045000F260202200F80820F06811AA801870606D
:1004600000A800F0DDF9ACE09DF83A006C2808BF68
:100470002A6811D0712808BF2A6802D02A686A2821
:100480000AD1D21D22F007022A60144604F10802A4
:100490002A60D4E9002303E0131D2B6000231268B7
:1004A000CDE90023682808BF92B207D0622808BFB0
:1004B000D2B203D0742818BF7A2802D10023CDE924
:1004C000002396F8300000075FD5DDE90023002BFC
:1004D00008BF002A59D041F02000782855D1F06893
:1004E000302200F80820401C421CF26000F808107E
:1004F0004BE09DF83A0062280CD0682810D06A289A
:100500001AD06C2823D0712816D074281FD07A28CE
:100510000CD01CE02868021D2A6090F900201AE027
:100520002868021D2A60B0F9002014E02868021D26
:100530002A60002302680FE02868C01D20F0070031
:10054000286000F108022A60D0E9002304E028684E
:10055000021D2A600268D317CDE90023002B04DABC
:10056000F068421CF2602D220DE0308E820704D527
:10057000F068421CF2602B2205E0C00705D5F06848
:10058000421CF260202200F80820F06811AA8018AE
:10059000706000A800F0C0F813E0F068411CF16042
:1005A00029680A1D2A60096809E0F068421CF260A7
:1005B000252200F8082021B1F068421CF26000F802
:1005C0000810F06AF168401AB169401A3169401A9E
:1005D000F169401A7169401A316AA0EB010996F875
:1005E00030007F1C400710D420208DF840000024EC
:1005F00009E0012310AA00A9504600F02CFC0028B5
:1006000040F08580641C4C45F3DBF4680DF1440B2D
:100610000AE01BF8011B0298D0470290002876D010
:10062000706A401C7062641E002CF2D130208DF87C
:1006300040004FF0000BB46909E0012310AA00A9A3
:10064000504600F008FC002861D10BF1010BA345D6
:10065000F3DB3469D6F804B00AE01BF8011B0298FA
:10066000D0470290002852D0706A401C7062641E0D
:10067000002CF2D130208DF840004FF0000BF469CF
:1006800009E0012310AA00A9504600F0E4FB00286D
:100690003DD10BF1010BA345F3DB3069716874693F
:1006A00000EB010B09E01BF8011B0298D0470290F8
:1006B00068B3706A401C7062641E002CF3D1302055
:1006C0008DF840004FF0000B346A08E0012310AAB7
:1006D00000A9504600F0BFFBC8B90BF1010BA345C0
:1006E000F4DB96F8300040077FF53AAD20208DF816
:1006F0004000002400E0641C4C45BFF631AD0123EE
:1007000010AA00A9504600F0A6FB0028F3D04FF035
:10071000FF3021B0BDE8F08F2DE9FA4E05460A46BC
:100720002F696F2A08BF082405D041F020007828DF
:1007300014BF0A241024D5E900013C2681468B46CB
:10074000642A18BF692A05D1002903DAD9F1000902
:100750006BEB4B0BBBF1000F08BFB9F1000F0CD1D5
:10076000286B50B9082C36D195F83800000732D5DF
:1007700030203B2687F83B002DE0E31748465946DA
:10078000224600F0FDFBA4FB0023A9EB020230325D
:10079000A6F1010AD2B256463A2A03DB9DF8003090
:1007A000513B9A180AF8072081465FEA010B08BFFF
:1007B000B9F1000F03D0E868F1198842DDD3082CA5
:1007C00009D195F83800000705D5F05D302802D032
:1007D000761E3020F055C6F13C00A861F119E960A1
:1007E000296B884208DA081A28624FF6EF71288FC1
:1007F00008402887BDE8F38E00290ED595F83810FB
:1008000001F01401102908D1696B6A69891A2A6AF2
:10081000891A081A0128A8BF2862BDE8F38E0000D3
:100820002DE9F04F07468FB08B46D7E90001CDE99F
:10083000020104AE4BF0200061280BD0386B002879
:1008400048BF062005D404BF4BF02000672801D123
:10085000012038637968C1F30A5040F2FF72904278
:100860001AD1080304BF3868002808D10320B861F2
:10087000ABF161001A2835D30FF21C6107E00320A9
:10088000B861ABF161001A2829D30FF20461F8684E
:10089000032200F0EDFBB6E1012816DA384600F03D
:1008A00022FC012811DB002400204BF020016129EB
:1008B0001FD1F968302201F8012B4A1CFA60BBF104
:1008C000610F0CBF782258220FE07A6840F2FE31A7
:1008D00061F31E52441A7A604FF0FF30E5E70FF2E1
:1008E000AC51D4E70FF2AC51D1E70A707969891C99
:1008F000796110B9002500247DE14BF020006128CA
:1009000040F09580386B00284CBF2125451CDDE95F
:1009100002012DB26E1CD7E900890022002300F0ED
:1009200003FC3ABF89F00040CDE90280CDE902899D
:10093000241F8DF810200DF1110A01E000F2070AC2
:10094000012E32DBDDE902010022002300F004FC6D
:100950002BD21C2102A800F017FCDDE9020100F0F7
:1009600099FCF61F8046012E09DB00F0BFFC024611
:100970000B46DDE9020100F0D1FCCDE902010AF2EB
:100980000700072105E008F00F0200F8012D4FEAEB
:100990002818B8F1010F01DB491EF4D5491E5CBFD0
:1009A000002200F8012DF9D5C8E70DF11100AAEBDE
:1009B00000010DF11106A942B8BF0D462DB2280065
:1009C0002ED4884206DA04A9411849780829A8BF1C
:1009D0000F2100DA002104AA821800E06D1E12F82F
:1009E0000139401E8B42F9D00F2904D104A94118C6
:1009F0004A78521C4A70002802D504AE6D1C241D92
:100A00002DB2681E0CD48119ABF13A030A7830324A
:100A1000D2B23A2AA8BF9A1801F80129401EF5D58A
:100A2000386B002840F1E780681E3863E3E0DDE9B9
:100A300002010022002300F077FB3CBF81F000415F
:100A4000CDE9020124B247F2975060434849DFF8EC
:100A500024A190FBF1F424B2C4F107050026012D76
:100A600019DBDDE90289E80707D5324653464046DF
:100A7000494600F013FD804689466D1030465146C8
:100A80003246534600F00AFD06468A46002DEAD15A
:100A9000CDE9028921E06D429046DFF8DC9012E05A
:100AA000E80707D5324653464046494600F0F6FC73
:100AB000804689466D10304651463246534600F016
:100AC000EDFC06468A46002DEAD1DDE902014246E8
:100AD0004B4600F0B5FDCDE902014BF02000662841
:100AE0000CBF04F10A000620396B4518142DA8BF6D
:100AF000132530208DF810000DF11106DFF87C90E1
:100B0000012D3DDBDDE9020100F0DAFB06F1080111
:100B100004220A23B0FBF3F303EB8306A0EB4600A9
:100B2000303001F8010D0A20B3FBF0F000EB800635
:100B3000A3EB4603303301F8013D521EE9D1083DD5
:100B400001F10806012DDBDBDDE9020100F0B8FB55
:100B500000F0D6FB02460B46DDE9020100F0DEFBA9
:100B600000224B4600F09AFCCDE90201CAE700BF23
:100B7000A0860100000024400000F03F84D7974188
:100B80000DF11100301A0DF1110602E0401E641E35
:100B9000761C31783029F9D04BF02001662902D13A
:100BA00024B2611C03E065290CBF012100213A6BCE
:100BB0008D182DB2A842B8BF05462DB229001AD40F
:100BC000814204DA885D3528A8BF392000DA302058
:100BD0008A19521E00E06D1E12F80139491E834227
:100BE000F9D0392802D1885D401C8855002902D5EA
:100BF000761E6D1C641C24B200942BB232465946FA
:100C0000384600F003F80FB0BDE8F08F2DE9F0474B
:100C100086B006468A4690461D4600F052FE406A5F
:100C2000376B90F80090012D02DA01250FF26C2845
:100C30004AF02000BDF93840662808BF641C12D075
:100C4000672875D114F1040F78DBBC4276DA96F888
:100C50003800641C000702D4BD42B8BF2F4624B23E
:100C60003F1B48BF0027F068B16924B2012C21DA8C
:100C700030234A1C0B54012F03DA96F83810090769
:100C800002D502F80090521CB261E742B8BF7C4224
:100C900024B26142E7197162AF42B8BF3D462DB23E
:100CA000F5612A46B3694146181800F0E1F9781B4E
:100CB000B062B9E00818A54216DA2A46414600F0AB
:100CC000D7F9B1696918B161601B7062012F03DA4D
:100CD00096F83800000705D5F06801F80090F06933
:100CE000401CF061B7629FE02246414600F0C0F927
:100CF000B06920182D1B012F03DA96F83810090768
:100D000003D5F16800F80190401C2DB2B061AF42EC
:100D1000B8BF3D46F3682DB22A4604EB0801C0185F
:100D200000F0A6F9B0692818B061781B70627BE00A
:100D3000BAF1610F14D14FF0700A16E0BD4204DA27
:100D400096F83810090758BF2F467F1E48BF002766
:100D5000BAF1670F14BF4FF0450A4FF0650A04E07F
:100D6000BAF1410F08BF4FF0500AB169F06818F8A6
:100D7000013B0B544A1C012F05DA96F8381009077D
:100D800058BFB26115D502F80090531CB361012F12
:100D90000FDB6D1E2DB2AF42B8BF3D462DB22A46C5
:100DA0004146181800F064F9B0692818B061781B42
:100DB0007062B069F16800EB0108200008F801AB2F
:100DC00003D42B2008F8010B03E02D2108F8011BA8
:100DD0006442002502AF08E00A2200A800F08AFD64
:100DE000019807F8010B6D1C009C21B20129F3DA70
:100DF000022D06DA4AF02000652804BF302008F8EA
:100E0000010B4DB9302008F8010B07E06D1E02A858
:100E1000285C303008F8010B012DF7DAB069F16871
:100E20004018A8EB0000F06196F8380000F01400BC
:100E300010280DD17069B1690818716A0818F16934
:100E40000818B16A0818716B8842BCBF081A306272
:100E500006B0BDE8F087F8B504460D4616461F46B5
:100E6000002004E0E86A401CE8627F1E002047B1D1
:100E700016F8011BA868A047A8600028F2D14FF01F
:100E8000FF30F2BD686A6C747A4C00006E616E00CF
:100E90004E414E00696E6600494E4600300050F8E3
:100EA000041B61B150F8042BD30744BFA9F101031F
:100EB0009A18002342F8043B091FFAD1EFE7704764
:100EC0000278C9B28A421AB11CBF10F8012FF9E7A3
:100ED00018BF002070478268521C8260426832B19D
:100EE0000268531C036011704168491E41607047DD
:100EF00000F10103810704D010F8011B89B18107BB
:100F0000FAD10268B2F10131914311F0803F04BF80
:100F100050F8042FF6E710F8011B11B110F8011B6F
:100F2000FBE7C01A70470000C9B2830706D0521E03
:100F300022D310F8013B9942F7D11FE0083A13D3AE
:100F400002F1040241EA012141EA014150F8043B67
:100F5000121F21BF4B40A3F1013C2CEA030C1CF0F3
:100F6000803FF3D0C9B2001F083210F8013B521E77
:100F700028BF91EA030FF8D818BF0120401E704720
:100F80001B4213D1094236D12AB18446B0FBF2F09C
:100F900002FB10C2704700F0B5BCFCD30022002356
:100FA00070470B000200002100207047904271EB57
:100FB000030CF6D370B5B1FA81F4B3FA83F52C1BA8
:100FC000A340C4F1200532FA05F63343A2405FF096
:100FD0000046E64002E05B085FEA3202841A71EBE9
:100FE000030524BF204629467641F4D302000B00B6
:100FF0003000002170BD012ACFD970B5140C20D06B
:10100000B1FA81F4B2FA82F5C4F120046419B4F1A2
:101010002006D6D3B2405FF00044F440002502E041
:1010200052085FEA3303C61A71EB020E24BF304642
:10103000714664416D41F3D302000B00200029008A
:1010400070BD0C46B1FBF2F102FB11452D0445EADF
:101050001045B5FBF2F402FB145580B240EA054599
:10106000B5FBF2F002FB105240EA044070BD0000F4
:1010700062B38B0708D0521E11F8013B00F8013B08
:1010800000F024808B07F6D1830740F0208000BF5A
:10109000103A07D330B4B1E83810103AA0E838104D
:1010A000F9D230BC530724BFB1E80810A0E80810FB
:1010B00044BF51F8043B40F8043BD20724BF31F849
:1010C000022B20F8022B44BF0B7803707047083ABC
:1010D00007D3B1E80810083A40F8043B40F804CBC5
:1010E000F7D25307E4E730B4436803F0004201212C
:1010F0001B031B0B436004BF0368002B08D10DE0EA
:101100000368DD0F45EA440444605B000360491E48
:101110004468E302F4D523031B0B436043681A437E
:101120004260084630BC70474FF4001C1CEB410F76
:1011300094BF1CEB430F09E041EA030C50EA4C0C4E
:1011400052EA0C0C03D2994208BF9042704714BF78
:101150008B428242704700004FF4001C1CEB410F91
:1011600094BF1CEB430F09E041EA030C50EA4C0C1E
:1011700052EA0C0C03D28B4208BF8242704714BF64
:10118000994290427047000070B504460D46606871
:10119000C0F30A5040F2FF71884207D16068000333
:1011A00004BF2068002817D0022070BD20B9204657
:1011B000FFF799FF012867DA012D0FDB40F2FF717D
:1011C000091A8D420AD36068002847BF00202F49C2
:1011D00000202F49C4E90001012070BD4142A9420D
:1011E000616806DA6FF31E51401941EA00506060F1
:1011F00041E0401E63680122451962F31F5305F167
:10120000350001F000416360352803D361600020A0
:10121000206070BD002215F11F0F04DA22682360E0
:10122000002020356060684213D0521E256892412C
:10123000C0F12003D2439D4045EAD272256866681A
:10124000C54006FA03F32B432360636823FA00F0DA
:101250006060606808436060B2F1004F03D80DD150
:101260002078C0070AD52068401C2060206828B973
:101270006068401C60604FF0FF3070BD606888425D
:1012800004BF20680028F6D1002070BD0000F0FFE8
:101290000000F07FF446400D40EAC120490006D22C
:1012A00000F014F8004248BF6FF00040604700F0C3
:1012B0000DF84FF0004188428CBF0846404260471D
:1012C000400D40EAC120490080F00D8040F0004010
:1012D000490DA1F58061491C05D4D1F11F0154BF0E
:1012E000C840C01770474FF000007047010040F140
:1012F0000980F446404200F005F851F00041604793
:10130000010000BF09D0B0FA80F18840C91CC1F5C6
:101310008461090501EBD0214005704770B44FF09E
:10132000004591EA030F44BF6B4000F0F7BA00BFDD
:10133000841A71EB030604D26E40001BB1411219EE
:1013400073414FF4001C1CEB410F34BF7CEB430690
:1013500084E00C0DA4EB1356362E7DDC012E43DC0D
:1013600045EAC32343EA525312BFD20292025B08FA
:10137000240545EAC12141EA5051D2EBC0209941F0
:1013800025D407D1B0FA80F610FA06F164D0002017
:10139000203608E0B1FA81F6B140C6F1200220FA09
:1013A00002F21143B0404FEAF474B4EB465434F007
:1013B00001064FEA74040AD8D6F50016760D04F03B
:1013C0000044F04061FA06F25040F1404840C00A43
:1013D00040EA415021F0004128BF5FEA500550F13A
:1013E000000044EBD12137E045EAC323DB0A45EA9C
:1013F000C121C90AB6F120050EDD42EA0242120CF3
:10140000C5F1200603FA06F6EB4042EA06056D42F6
:10141000984161F100010DE062FA06F5F240554095
:1014200063FA06FC82EA0C02F3405A406D42904196
:1014300061EB030111F4801F05D1641E620502D027
:101440006D004041494121F48011430875F100438A
:1014500050F1000041EB045170BC70471CEB410F90
:1014600015D223F0004352EA43060BD04FEA4C0C4E
:10147000BCEB410F04D80C0D661E342EB7DDEBE734
:10148000801A994150EA410608BF0021E4E708BFED
:101490001CEB430F28BF6FF00001DDE7B0B581EA18
:1014A000030C0CF0004C40F2FF7515EA11541DBFFF
:1014B00015EA1357AC42AF4239E0E41923EA455329
:1014C00043F48013C90241F0004141EA505EC70273
:1014D0001100A7FB020200284FF00000EEFB0120E4
:1014E0004FF00001E3FB072118BF42F00102401852
:1014F00000214941E3FB0E01A4F580640F0302D2F1
:1015000052004041494154F101046CDD470872F139
:10151000004250F1000051EB0451A1F580115CBF75
:1015200041EA0C01B0BD4CEA05510020B0BD05EA0E
:101530001357AC4214BFAF4241E050EA410E1CBF0A
:1015400052EA430E02E061460020B0BD24423C4412
:101550001BD15FEA070EF6D0090302BF0146002047
:10156000AEF1140EB1FA81F7AEEB070401FA07FEF3
:101570000C37C7F1200100FA07F7C8404EEA000E09
:1015800023EA455343F48013A2E733F00043B3FA50
:1015900083F704BFB2FA82FE77440B3FE41BB7F136
:1015A000200E2FBF02FA0EF3BB40C7F1200E22FA25
:1015B0000EFE38BF43EA0E03BA40641C82E750EACD
:1015C000410E14BF52EA430E6FF000014FF40017B2
:1015D00017EB430F8ABF194617EB410FB5E74CEAEB
:1015E00005510020B0BDD4F10104B4F120070FDA99
:1015F000C4F12007520828BF42F0010210FA07F593
:1016000001FA07F7E1BF2A43E0403843E1400FE029
:10161000352C98DCC7F1200452EA400220FA07F288
:1016200018BF42F0010231FA07F0A1400A4300213D
:1016300072F1004250F1000051EB0C01B0BD00000E
:10164000F0B540F2FF7581EA030C0CF0004C15EA8E
:1016500011541DBF15EA1357AC42AF42E5E0BC413F
:10166000C1F31301C3F31303801A994143F48013A8
:1016700004D2641E4000494180185941C90241EA20
:101680005051B1FBF3F603FB1611A2FB0675D7EB25
:10169000C020A94102D2761E80185941C90241EAF0
:1016A0005051B1FBF3FE03FB1E11A2FB0E75D7EBED
:1016B000C020A94103D2AEF1010E80185941890220
:1016C00041EA9051760546EA8E2EB1FBF3F603FB14
:1016D0001611A2FB0675D7EB8020A94102D2761E17
:1016E00080185941C90241EA50514EEA060EB1FB39
:1016F000F3F603FB1611A2FB0675D7EBC020A94138
:1017000002D2761E80185941C90241EA5051B1FBFC
:10171000F3F703FB1711A2FB0735D3EBC020A94158
:1017200067F100070CBF004247F0010766F3D527B9
:101730004FEA1E31B80814F5806412DDBD0775F15B
:10174000004250EB0E5051EB045111F5801F5CBF6D
:1017500041EA0C01F0BD4CF07F6141F0E041002016
:10176000F0BDBD076D0840EA0E5041F48011D4F180
:101770000104B4F120060ADAC4F120060200E040B8
:1017800001FA06F3E1401843B24015430EE0342C51
:1017900013DCC6F1200445EA40056D0820FA06F284
:1017A000154321FA06F0A1400D43002175F10042D6
:1017B00050F1000051EB0C01F0BD00205FEA0C017C
:1017C000F0BDCFB992185B41B3FA83F704BFB2FA08
:1017D00082F6BF190B3FB7F120062FBF02FA06F3BE
:1017E000BB40C7F1200622FA06F638BF3343BA40A1
:1017F0001CB1E419641E33E77F4231F00041B1FAB5
:1018000081F404BFB0FA80F6A4190B3CB4F12006B1
:101810002FBF00FA06F1A140C4F1200620FA06F617
:1018200038BF3143A0403C1B1AE7AC421ABF05EA5F
:101830001357AF4212E050EA41061CBF52EA43067A
:10184000BFE750EA4107304661461CBF41EA0551F7
:10185000F0BD52EA430C08BFC143F0BD00204FF475
:10186000001616EB410F98BF16EB430F08BF16EB9F
:10187000410F24BFC14305E016EB430F0CBF614687
:101880004CEA0551F0BD000080B5134800F0B0F8F7
:101890000FF24801016041608160C16001614161F6
:1018A00081610FF23C0242628162C1620163416365
:1018B0000FF2300282630FF23402C26301644164AA
:1018C00001BD10B5044800F093F80446206808B93B
:1018D000FFF7DAFF204610BD0000002000000000E6
:1018E0002E00000066616C736500000074727565FF
:1018F0000000000091FBF2F303FB1211C0E900317C
:10190000704700007047000070B44FF0004591EA46
:10191000030C44BF6B40FFF70BBD00BF841A71EB93
:10192000030603D2001BB141121973414FF4001C8E
:101930001CEB410F34BF7CEB430443E00C0DA4EBE4
:101940001356352E50DC45EAC323DB0A45EAC12194
:10195000C912B6F120050DDD63FA05F6EB4086EA03
:101960000305124218BF45F00105C01851F10001EE
:101970000CD213E062FA06F5F2405540F3415A40AA
:10198000B340F3405A408018594107D349085FEAF1
:1019900030005FEA350528BF45F0010501F58011EB
:1019A000420875F1004250F1000041EB045170BC57
:1019B0004FF4001C1CEB410F38BF70470020090D8D
:1019C000090570471CEB410F10D252EA43060BD0B9
:1019D000BCEB410F05D80C0DAB43661E342EB5DDB4
:1019E00002E0AB438018594170BC704770BC70472F
:1019F00070470000DFF8200B0068704710B5012029
:101A000000F017FFFFF7F6FF0400FFF7F3FFA11C3C
:101A10008842FAD3002000F00CFFFFF7EBFF040030
:101A2000FFF7E8FFA11D8842FAD310BD10B50400EE
:101A3000FFF7E4FFDFF81C0ADFF8E01A0860002077
:101A400000F0D0F8E4B2002C33D0DFF8D00A006800
:101A5000407850F08000DFF8C41A09684870DFF859
:101A6000BC0A00684178012000F0BCFE012000F0B3
:101A7000B9F80020DFF8A81A08700020DFF8A01AD3
:101A800048700020DFF8981A88700020DFF8901A5C
:101A9000C8700020DFF8881A08710020DFF8801A6B
:101AA0004871DFF87C2AD2E9000100F0CAF800F0A2
:101AB0009AF910BD2DE9F04395B006000F0000A87B
:101AC000DFF8601A5022FFF7E3FAF6B200A810EB35
:101AD000C600D0E9002390469946FFB23800FFF7D0
:101AE0000FFC02000B0000205FF0804101F0FBF9C9
:101AF00042464B46FFF7A4FD04000D0020002900DC
:101B000015B0BDE8F0832DE9F04F85B00600F6B2C0
:101B1000B01CADF80200DFF8100A90F80680DFF87C
:101B2000080A407A8DF80100DFF8FC09807D8DF805
:101B30000000DFF8F40990F807905FFA89F919F1CD
:101B40000400FFF7D3FB82468B46BDF80200C000BD
:101B50005FFA88F8B0EB88002C309DF80110142251
:101B600002FB1100FFF7C2FB04000D005FFA88F8CA
:101B70009DF80000B8EB40008000FFF7B7FB0200C3
:101B80000B0020002900FFF75BFD01F0C5FB52466A
:101B90005B46FFF783FCCDE90201DDE90201FFF7B7
:101BA0008FFB0700002F02D017F1080000E008208B
:101BB00005B0BDE8F08F80B5FF20FFF7A4FF32210C
:101BC000B0FBF1F0C0B202BDDFF8600900687047F9
:101BD00080B5DFF84809006810F14101422000F0AB
:101BE0000AFE01BD10B50400DFF830090068407836
:101BF00010F0F8002043DFF8241909684870DFF876
:101C00001C0900684178012000F0ECFD10BD80B592
:101C1000DFF80809006810F10C010C2000F0EBFD62
:101C2000DFF8F8080068007BC0B2400902BDDFF8A9
:101C3000040990F900007047DFF8FC28D2E90001A0
:101C4000704703B581B09DF804009DF80510084366
:101C50009DF8061008439DF807100843DFF8BC18EC
:101C6000096881F83F009DF808009DF809100843B5
:101C7000DFF8A818096881F840000222DFF89C0804
:101C8000006810F13F01402000F06EFD07BD80B5F7
:101C900000A9192000F0AFFD9DF80000000612D544
:101CA0009DF80000C043401C801010F03F00DFF89A
:101CB00084180870DFF87C0890F900004042DFF8D3
:101CC0007418087006E09DF80000C0B28008DFF8C4
:101CD00064180870DFF85C0890F9000002BDF8B5E0
:101CE000DFF83808006810F11A011A2000F083FDAF
:101CF000DFF834080068DFF84418884233D2DFF890
:101D0000340890F90000002819D5DFF810080068A1
:101D1000807EFFF7F5FA0022DFF82438FFF7F4FDA4
:101D200006000F00DFF80C0890F90000FFF7DEFA5C
:101D300032003B00FFF7E8FD04000D0046E0DFF84D
:101D4000DC070068807EFFF7DBFADFF8FC27DFF8AE
:101D5000FC37FFF7A3FB0022DFF8E437FFF7D4FDE1
:101D600004000D0032E0DFF8CC0790F900000028F5
:101D700019D5DFF8A8070068807EFFF7C1FA0022B6
:101D8000DFF8C037FFF7C0FD06000F00DFF8A4073B
:101D900090F90000FFF7AAFA32003B00FFF7B4FD0C
:101DA00004000D0012E0DFF874070068807EFFF782
:101DB000A7FADFF89427DFF89437FFF76FFB0022CC
:101DC000DFF88037FFF7A0FD04000D002000290098
:101DD000F4BDDFF87C0790F800017047DFF870175A
:101DE00081F80001704780B5FFF7F2FE6F22DFF83F
:101DF0006417012000F0D7FC2020DFF820170968C5
:101E00000873DFF818070068017B0C2000F0EAFC7B
:101E10000020FFF7E7FEDFF81007006801F0ACFADA
:101E2000DFF80407807901F07CFBDFF8FC06C0795D
:101E300001F0ADFBDFF8F006007A01F0C9FBDFF836
:101E4000E806407901F04CFBDFF8DC06407A01F04F
:101E500001FC40F2FF3001F06EFCDFF8CC06407D63
:101E600001F015FCDFF8C006D0F8170080B201F0D1
:101E7000D0FBDFF8B4068179DFF8AC064079FFF7D4
:101E800019FE0022DFF8D036FFF766F903D80120EB
:101E900001F071FC02E0002001F06DFC002001F077
:101EA00031FC002001F003FCDFF87C0690F904000F
:101EB00001F089FAFFF77FFEDFF86C160873012046
:101EC000FFF78CFF002000F08DF901BD38B504004C
:101ED0000D00EDB22A002100DFF8740601F09AFC33
:101EE000DFF86C0680F8025131BD10B50400DFF850
:101EF0003806807A012805D10320DFF8541681F8CE
:101F0000000106E00220DFF8481681F8000100F029
:101F10008AF8DFF83C0680F8FF400020DFF8301632
:101F200081F8030110BD10B50400DFF8FC05807ACC
:101F3000012836D1DFF8E4050068C07BDFF8DC1546
:101F400009684873DFF8D4050068417B0D2000F074
:101F500049FCDFF8D405407A012809D1DFF8BC0537
:101F6000006890F82200DFF8E81581F801010FE021
:101F7000DFF8A805006810F11301132000F03BFC06
:101F8000DFF898050068C07CDFF8C41581F801010E
:101F9000DFF8BC0590F80111DFF8B40500F03FFC54
:101FA0003DE0DFF87805006810F11001102000F026
:101FB00022FCDFF87405407A012809D1DFF85C05BE
:101FC000006890F82200DFF8881581F801010FE021
:101FD000DFF84805006810F11301132000F00BFC36
:101FE000DFF838050068C07CDFF8641581F801016E
:101FF000DFF828050068007CDFF8201509684873C1
:10200000DFF818050068417B0D2000F0EBFBDFF8DE
:10201000400590F80111DFF8380500F000FC0120C0
:10202000FFF763FF10BD80B50121012000F01AFC0D
:102030000121082000F016FCDFF8EC04C07A00282B
:102040000CD0DFF818050078DFF8141551F82000DF
:1020500001F092F90121042000F004FC01BD38B523
:1020600004000D000120FFF7BDFDFF20DFF8AC14D8
:1020700009684874FF21122000F0B4FB00211F20E2
:1020800000F0F0FBDFF8A004C07A00282ED0DFF8C3
:102090008C040068407C10F0F500DFF880140968BB
:1020A0004874DFF88404007BDFF87014096881F855
:1020B0002400DFF86804006810F11C011C2000F007
:1020C0009AFBDFF898040078DFF8941451F82000A8
:1020D00001F052F90220FFF785FD4020DFF840149F
:1020E00008700020DFF83814887018E0DFF8380432
:1020F000006801F041F9DFF824040068407C10F02A
:10210000F700DFF81814096848740020DFF80C1491
:10211000096881F824004020DFF804140870DFF813
:10212000FC03006890F82410242000F05BFBDFF82B
:10213000EC030068417C112000F054FBDFF8E02341
:10214000D2E90001FFF77DFDDFF8D003006880F8D9
:102150002250DFF8C803006890F82210222000F017
:1021600041FB0020DFF8B41309688873DFF8AC0383
:102170000068817B0E2000F035FBDFF8A0030068CB
:10218000807BDFF8981309684873DFF890030068D4
:10219000417B0D2000F026FB0720FFF71FFE2900E2
:1021A000C9B22000FFF792FE2900C9B2DFF8A003F0
:1021B00000F02BFB0121012000F054FBDFF8680345
:1021C000C07A002803D00121042000F04BFB03203B
:1021D000FFF708FDDFF88C238621DFF88C0301F080
:1021E0004AFC31BD10B504000120FFF7FBFCFF20C5
:1021F000CA4909684874C9480068407C10F08F00DB
:10220000C649096848740020C54908700120C449BE
:10221000C870C548C07A00281FD0C348007BBF499A
:10222000096881F82400BD480068407C10F0FD007A
:10223000BA4909684874B948006810F11C011C20AB
:1022400000F0D9FAC5480078C54951F8200001F0DE
:1022500093F80020B249887008E0B348006801F0A4
:102260008BF80020AD49096881F82400AE48807AD7
:10227000012820D1A9480068417C112000F0B2FA61
:10228000A648006890F82410242000F0ABFAA44A75
:10229000D2E90001FFF7D5FCFFF796FCA249C1F88F
:1022A0001700A148D0F8170080B201F0B2F906205B
:1022B000FFF798FC27E099480068C07B97490968B8
:1022C000487396480068417B0D2000F08BFA9348D4
:1022D0000068417C112000F085FA9048006890F871
:1022E0002410242000F07EFA8D4AD2E90001FFF785
:1022F000A8FC20208C49C1F81700202001F089F9A2
:102300000520FFF76FFC0220914981F80001864803
:10231000C07A002803D00121042000F0A3FA012193
:10232000012000F09FFA0121082000F09BFA10BD67
:1023300080B5012001F054FC002800F08A800120C3
:1023400001F062FC042001F05FFC814890F800017C
:10235000072804D00B286AD00E281CD079E0002171
:10236000012000F07FFA0021042000F07BFA082110
:10237000122000F037FA7D4801F032FD0820744940
:1023800081F800010120FFF72DFC764A862176486E
:1023900001F071FB5DE000211F2000F063FA73483B
:1023A00001F01EFD4021122000F01CFA5B4800687D
:1023B00010F11201122000F01EFA58480068807CCB
:1023C000800620D52021122000F00CFAFFF787FCB0
:1023D000594AC2E90001FFF75AFC5649087000202B
:1023E000FFF783FD5448D0E90023614801F0D8FE8F
:1023F000FFF71DFC40B201005E4801F0D1FE5E48CF
:1024000001F0CEFE12E0FFF76AFC4B4AC2E9000180
:10241000FFF73DFC474908704D4890F80501FFF76C
:1024200082FD504A8621504801F025FB11E004212D
:10243000122000F0D7F91021504802F002FA0128CA
:1024400006D10121122000F0CDF90020FFF7CAFECD
:10245000FFE701BDCC1C002080B5022001F0C0FBCD
:10246000002802D0022001F0CFFB01BD80B504207E
:1024700001F0B6FB00282FD0042001F0C5FB27484F
:10248000006810F11201122000F0B5F9234800682D
:10249000807C800720D50221122000F0A3F9FFF7ED
:1024A000B6FB234908701D48006810F11C011C2070
:1024B00000F0A1F92948007818490968097F08182F
:1024C00010F03F00322190FBF1F201FB1200244991
:1024D00051F8200000F050FF01BD80B5082001F048
:1024E0007FFB002817D0082001F08EFB0021082078
:1024F00000F0B8F91021122000F074F9144890F897
:102500000001022803D10E20114981F800010120A9
:102510000F4981F8030101BD241E0020281E002060
:10252000F81D0020106E0008A80000202C1E0020BE
:1025300085010020401E0020F01D0020008F423346
:10254000008064C000A063C01B9E5E29CB10F13FD9
:102550002C1A0020CD1C002000003040411E00201D
:10256000F06A00082C1B0020D4000020C01D0020B1
:10257000E0720008EC720008F872000800100140D8
:10258000F8B504000D00160001212088002802D0B3
:102590005C2803D085E000215C202080C9B200299E
:1025A00001D1012082E0EDB2862DF4D130780728E8
:1025B00006D14FF4FA61DFF8900401F0F3FBEAE78B
:1025C0003078082803D10020FFF70CFEE3E73078CD
:1025D0000E2806D14FF4FA61DFF86C0401F0E2FB3B
:1025E000D9E7307802283FD1DFF8600490F8FF0087
:1025F0000028D0D00020DFF8541481F8FF0001201B
:1026000002F088F9642002F0A5F9DFF8400490F8A0
:10261000012192B2DFF83414002001F0B4FEFFF77C
:102620000BFB02000B00DFF8280401F0B9FDFFF7F7
:10263000FEFA40B20100DFF81C0401F0B1FD0027F2
:10264000DFF8080490F80101FFB2874208D2FFB218
:10265000DFF8F803395C81A001F0A2FD7F1CEFE7F1
:102660007FA001F09DFD96E7EDB2882D93D1DFF8B4
:10267000D80386428FD1FFF7ACFB072803D1DFF8E0
:10268000D80301F08DFDFFF7A4FB0E2803D1DFF87E
:10269000CC0301F085FD00F0C1F90020FFF7A2FD99
:1026A00079E700200100002020800320F2BD70B5F2
:1026B00004000D00160001212088002804D0E42821
:1026C0000BD0F6282BD030E0DFF89413DFF894031A
:1026D00001F068FB0021E4202080C9B2002906D067
:1026E000EDB2882D03D1DFF87C03864201D00120B2
:1026F00020E0FFF76EFB072806D0FFF76AFB0E28E5
:1027000002D000F091F9DFE7DFF85C0301F048FD4B
:10271000DFF8580301F0F0F90021F6202080C9B25B
:10272000002901D1012005E0E3E70020010000209D
:102730002080032070BD10B504000221CC4802F0B7
:102740007DF90028F9D0E4B2210089B2C84802F02E
:1027500071F90121C64802F071F90028F9D0C44886
:1027600002F06AF9C0B210BDF8B504000D00160001
:102770004FF48051BF4802F074F854F08000C0B2AA
:10278000FFF7D9FF0027FFB2F6B2B74205D2FFB27A
:10279000785DFFF7D0FF7F1CF5E74FF48051B54817
:1027A00002F05CF8F1BDF8B504000D0016004FF41E
:1027B0008051B04802F055F82000C0B2FFF7BBFFCF
:1027C0000027FFB2F6B2B74206D2FF20FFF7B3FFF1
:1027D000FFB278557F1CF4E74FF48051A54802F012
:1027E0003DF8F1BD13B50400012201A92000C0B2DB
:1027F000FFF7BAFF13BD38B504000D000122290010
:102800002000C0B2FFF7CFFF31BD38B504000D0086
:102810002A00D2B221000020FFF7A6FF31BD38B553
:1028200004000D002A00D2B221000020FFF7BBFFF8
:1028300031BD10B50400E4B2012C06D100224FF4E2
:1028400000418D4802F010F805E001224FF40041EC
:10285000894802F009F810BD00000000257820002A
:102860000D0A000030B583B004000D000094002074
:102870008DF8040008208DF805008DF8065000A89A
:1028800001F06AF937BD80B50121142002F0B2F9D8
:1028900000211F20FFF7E6FF01214FF4804002F0E6
:1028A000B8F90121012002F096F90021012002F07F
:1028B000BFF903208DF802004FF40040ADF800008E
:1028C00010208DF8030000A96B4801F01FFF4FF4A2
:1028D0000050ADF8000003208DF8020018208DF89C
:1028E000030000A9634801F011FF4FF40040ADF868
:1028F000000000A95F4801F009FF4FF48040ADF8E7
:10290000000004208DF8030000A95A4801F0FEFEE3
:102910004FF48050ADF8000010208DF8030000A99E
:10292000544801F0F3FE0F20ADF8000003208DF8AD
:10293000020028208DF8030000A9504801F0E6FEAF
:1029400003208DF802004FF48050ADF800001020F5
:102950008DF8030000A9484801F0D8FE01210120AC
:1029600002F048F901BD80B50121012002F042F9D1
:10297000012001F049F9022001F046F9042001F09C
:1029800043F9082001F040F90021022001F075FF11
:102990000121022001F071FF0221022001F06DFFF0
:1029A0000321022001F069FF00211F20FFF75AFFD9
:1029B00001BD00B585B04FF480512E4801F04EFFA7
:1029C00000212B4802F028F8294801F0D3FF00200D
:1029D000ADF800004FF48270ADF802000020ADF8B1
:1029E00004000020ADF806000020ADF808004FF408
:1029F0000070ADF80A001020ADF80C000020ADF812
:102A00000E000720ADF8100000A9194801F0DEFF04
:102A10000121174802F000F805B000BD80B5FFF7AE
:102A200032FFFFF7C6FF01BD80B5074801F0D8F9B6
:102A3000FFF7F4FFFFF797FF0120FEF7F7FF1048BD
:102A400001F0AEFB01BD0000C01D00202C1A0020CB
:102A50008C72000898720008647100087471000894
:102A6000C0270900D01D0020A4720008E400002047
:102A700000380040000C01400008014000100140F7
:102A8000B0720008BBF1C8A1CFB5CDB3CAB1BCE4E8
:102A900020253032642D253032642D2530326420DB
:102AA000253032643A253032643A253032642025AC
:102AB000642025640D0A00002DE9FF4D8AB0DDE990
:102AC0000C01CDE904010B98C0F30A5040F2FF71EC
:102AD00088420AD10020ADF800000B98000305BF22
:102AE0000A9800280225012516E0012809DA0AA81B
:102AF000FEF7F9FA012804DB0020ADF800000025FC
:102B00000AE00B9A40F2FE3161F31E52401A0B921A
:102B1000ADF800004FF0FF35002104A802F012F9D3
:102B20000646169810B116990020088036B9DDE9DE
:102B30000C230020002102F045F912D0002D12D5FF
:102B4000BDF90040012C13D1DDE90A230020CB4957
:102B500002F038F905D0012E0AD1C94902F032F944
:102B60002ED1C849BCE1022D04D1DDE90A01B7E14B
:102B7000012E5ADB022E08BFDDE90C0100F0B08106
:102B8000012D1BD10B9800280D9802D4002849D59F
:102B900033E0002809D4002E44D14FF0FF3104A8BF
:102BA00002F0D0F800283DD539E036BB4FF0FF31B8
:102BB00004A802F0C7F800281FD51AE0012E0AD198
:102BC0000D98BDF90040002802D4012C2ADA14E047
:102BD000012C12DA26E00D98002811D46EB94FF0BE
:102BE000FF3104A802F0AEF8002844BF0B9800287B
:102BF00003D500204FF0004172E1002000216FE179
:102C000002F0F0F82221016066B94FF0FF3104A80C
:102C100002F098F8002844BF0B98002802D5002045
:102C200099495DE1002099495AE10B98002848BF75
:102C3000002E08D502F0D6F8212101604FF0FF30B8
:102C40006FF000414CE1DDE90A0100220023FEF7AC
:102C500083FA38BFADF804200AD381F00041CDE9F2
:102C60000A014FF0FF3104A802F06CF8ADF804003F
:102C7000012C14D1DDE90A01854A864BFEF754FA8E
:102C80000DD2DDE90A2300264FF000087D4F3046C3
:102C90004FF08041FEF702FCCDE90A011BE0DDE9BF
:102CA0000A23764D7C490020FEF7F8FB00222B46D4
:102CB000FEF72AFEFEF7EEFAA0F120084046FEF7E6
:102CC00015FB0022754BFEF7E9FB00222B46FEF7B1
:102CD0001BFE06460F460FF2202000EB4810069020
:102CE0003246DDE90A013B46FEF718FB82468B4679
:102CF000DDE90A0132463B46FEF706FE02460B4678
:102D000050465946FEF79CFCCDE90801DDE9082351
:102D1000FEF7C4FBCDE90AAB04460D4602F068F8A5
:102D200022462B46FEF7BAFBDDE90A23FEF7F6FA48
:102D300004460D460020534932463B46FEF7EEFA64
:102D400000224FF08043FEF7A9FB22462B46FEF7F8
:102D5000DBFDDDE90823FEF7A1FB02460B46DDE9BA
:102D60000A01FEF7D1FD04460D464D4A4D4BFEF7D4
:102D700067FCCDE90401BDF90000FEF7B7FA069A39
:102D800082468B46D2E9000152465B46FEF7BCFD07
:102D9000DDE90423FEF7B8FDCDE90401DDE90C23EC
:102DA000FEF77CFBCDE9020100223F4BFEF7BCF9A8
:102DB000C0F07E8001223D4BFEF7CEF97CD9002287
:102DC0000023FEF7B1F9DDE9022339BF00202C49C9
:102DD00000202A49FEF798FDFEF75CFA0646DDE979
:102DE0000C0122462B46FEF759FBCDE90201069A5B
:102DF0002B4C2C4DD2E902011746D7E90423FEF7EC
:102E000083FDDDE90C23FEF749FB22462B46FEF746
:102E100045FBDDE90223FEF777FDCDE90201069FC0
:102E20005246D7E900015B46FEF76EFDDDE90C2353
:102E3000FEF734FB07468B463046FEF757FA02464C
:102E40000B4638465946FEF769FA22462B46FEF7EE
:102E500025FBDDE90223FEF757FDCDE902011698B7
:102E600008B10680002600960022064B02A802F058
:102E700015F8E8B101281FD02AE000BF0000E03FAC
:102E80000000E0BF0000F03F0000F0FF0000F07F16
:102E9000CD3B7F669EA0E63F000050400000903F83
:102EA000EF39FAFE422EE63F0000E0C00000E040AD
:102EB0000020CDE9020007E00020014902E000BF48
:102EC0000000F07FCDE9020101F08CFF22210160BA
:102ED000BDF904000028DDE9020118BF81F00041BE
:102EE0000EB0BDE8F08D10B582B000240094FFF75D
:102EF000E3FD1CBD00000000000000000000F0BF6A
:102F000000000000000000800000000000000080C1
:102F10000000000000000000000000C05294EEBF5E
:102F200000000048204E51BE000000F86467BCBCA1
:102F30000000000000000000000000208133EDBF11
:102F400000000080B3DB14BE000000506706A3BC85
:102F50000000000000000000000000D0E9DCEBBF32
:102F600000000008C39259BE00000080B0D3B8BC76
:102F7000000000000000000000000070F98FEABFB0
:102F8000000000C0A51028BE000000E8BFC0B0BC13
:102F9000000000000000000000000070284CE9BFA5
:102FA00000000060134B42BE000000C03D20B8BCD2
:102FB000000000000000000000000050FA10E8BF10
:102FC000000000C05FF62BBE000000905C71A7BC43
:102FD000000000000000000000000020FCDDE6BF53
:102FE000000000C0F8F154BE00000018E9F6B9BCBA
:102FF0000000000000000000000000D0C3B2E5BFE8
:1030000000000070E43254BE00000050DB06B4BC87
:10301000000000000000000000000010EF8EE4BF80
:1030200000000020F36252BE000000C02A879ABC54
:103030000000000000000000000000B02272E3BFAA
:10304000000000F0E8E056BE00000028352DBDBCB1
:103050000000000000000000000000000A5CE2BF69
:10306000000000B0FA8E41BE00000040AE6FBDBC53
:10307000000000000000000000000000564CE1BF0E
:10308000000000F015CD5FBE00000000141C90BCD5
:10309000000000000000000000000040BD42E0BF52
:1030A00000000030F93457BE000000E06C1E93BCF5
:1030B0000000000000000000000000E0F57DDEBF21
:1030C000000000B08A535EBE00000080DA77AABC20
:1030D0000000000000000000000000C09D81DCBF77
:1030E00000000000FFA226BE0000006057E2B0BC56
:1030F000000000000000000000000060F98FDABF4F
:10310000000000580A8151BE000000F05F60B8BCAA
:1031100000000000000000000000000098A8D8BFD8
:10312000000000607A7F45BE000000D05433A3BC8D
:103130000000000000000000000000600FCBD6BFC0
:10314000000000D091CB40BE000000406D1BA0BC31
:103150000000000000000000000000A0FBF6D4BF4B
:1031600000000098C5CE52BE000000003A397EBC77
:103170000000000000000000000000E0FE2BD3BFB4
:103180000000004073872BBE00000000926879BCED
:10319000000000000000000000000040C069D1BF36
:1031A00000000058F16353BE00000080438D7CBCDA
:1031B000000000000000000000000080D85FCFBFCA
:1031C000000000181F8354BE000000B03F42A2BCA4
:1031D00000000000000000000000008067FCCBBF82
:1031E00000000060FAFF53BE00000050E00DB8BCC4
:1031F00000000000000000000000000098A8C8BF08
:10320000000000607A7F35BE000000C0543393BCDC
:10321000000000000000000000000000DC63C5BFEB
:1032200000000058D6FF54BE00000000396490BC76
:103230000000000000000000000000C0AD2DC2BF73
:1032400000000080A45915BE000000E0484BABBC54
:103250000000000000000000000000801A0BBEBF4C
:1032600000000050BF3C5ABE000000A0B364B6BCD2
:1032700000000000000000000000008004D6B7BF7E
:1032800000000040BBCF36BE0000008076CEA8BC58
:1032900000000000000000000000008032BBB1BF51
:1032A000000000402A0043BE00000028C60CBDBC40
:1032B0000000000000000000000000009473A7BFA1
:1032C000000000182B3B59BE000000C0E55DA5BC06
:1032D000000000000000000000000000EE4397BF67
:1032E000000000A0E6C340BE00000020958DB5BCE4
:1032F000000000000000000000000000000000804E
:1033000000000000000000800000000000000080BD
:10331000000000000000000040F2FF7C1CEA115297
:1033200040F2FE33D21ACCBFD2F1350316E0B2F12F
:10333000150309DA6FEA4C53D340094201D4401E09
:1033400059410020994370476FF00002DA4009426A
:1033500002D4801851F1000190437047352A09DAF0
:1033600050EA41031CBF40F2FF31090528BF4FF06E
:10337000004100207047000010B50400DFF8680429
:1033800004602000FDF7BCFF0022DFF86034FEF788
:1033900057F9FDF795FF0400200CDFF85414096875
:1033A0008871200ADFF848140968C871DFF8400402
:1033B000006804720322DFF838040068811D0620CB
:1033C000FFF7D2F910BD10B50400DFF8240400683F
:1033D00010F109010920FFF70EFADFF81404006864
:1033E00010F14C014D20FFF706FADFF804040068E5
:1033F000407A000648D5DFF8F803006890F84C00E2
:1034000010F0870087281FD164B2052C01DA05204F
:10341000040064B2152C01DB14200400DFF8D00393
:103420000068407A50F07000DFF8C41309684872F1
:10343000601FDFF8BC130968497A60F30301DFF805
:10344000B0030068417240E064B2022C01DA02204D
:10345000040064B2122C01DB11200400DFF8900399
:103460000068407A50F07000DFF8841309684872F1
:10347000A01EDFF87C130968497A60F30301DFF8C6
:1034800070030068417220E064B214F1010F02DAA7
:103490005FF0FF30040064B20F2C01DB0E2004004B
:1034A000DFF84C030068407A50F07000DFF84013FA
:1034B00009684872601CDFF838130968497A60F3BC
:1034C0000301DFF82C0300684172DFF82403006871
:1034D000417A0920FFF786F9DFF80C03047110BD6B
:1034E00010B50400DFF80803006810F11D011D206D
:1034F000FFF781F9DFF8F8020068407F10F00F0055
:1035000050EA0410DFF8E81209684877DFF8E002B3
:103510000068417F1D20FFF765F9DFF8CC02447198
:1035200010BD10B50400E4B20D2C02DB0C20040029
:1035300004E0E4B2062C01DA06200400E4B2062C12
:1035400003D1052000F034F902E0032000F030F947
:10355000DFF89C02006810F11E011E20FFF74BF9F6
:10356000DFF88C020068807F10F00F0050EA041032
:10357000DFF87C1209688877DFF874020068817FC1
:103580001E20FFF72FF9DFF86002847110BD10B51F
:103590000400DFF85C02006810F11D011D20FFF738
:1035A0002AF9DFF84C020068407F10F0F10050EA81
:1035B0004400DFF83C1209684877DFF834020068FD
:1035C000417F1D20FFF70EF9DFF81C02C47110BD0A
:1035D00010B50400DFF81802006810F11E011E206B
:1035E000FFF709F9DFF808020068807F10F0FB00A0
:1035F00050EA8400DFF8F81109688877DFF8F001F5
:103600000068817F1E20FFF7EDF8DFF8DC0104720F
:1036100010BD10B504000222DFF8D401006810F1DB
:1036200020012020FFF7BFF8A4B2200ADFF8C01164
:10363000096881F82000DFF8B801006880F82140AF
:103640000222DFF8AC01006810F120012020FFF712
:103650008BF810BD10B50400DFF89401006810F17C
:103660001D011D20FFF7C7F8DFF884010068407FC7
:1036700010F0FE0020435E49096848775C48006806
:10368000417F1D20FFF7AEF85748447210BD10B5BA
:1036900004005748006880F822405548006890F8B8
:1036A00022102220FFF79EF84F48447510BD10B538
:1036B00004004F48006810F14C014D20FFF79BF8C3
:1036C0004B48006810F109010920FFF794F84848B9
:1036D0000068407A000608D5E4B2012C0AD18720A0
:1036E0004349096881F84C0004E084204049096896
:1036F00081F84C003E48006890F84C104D20FFF7D0
:1037000071F810BD10B504003948006810F10901C6
:103710000920FFF770F836480068407A10F07F0003
:10372000204333490968487231480068417A0920CA
:10373000FFF758F810BD10B5040002222C480068AD
:1037400010F11E011E20FFF72EF8A4B2200A28490E
:103750000968897F60F30101254800688177244862
:103760000068C47702222248006810F11E011E2062
:10377000FEF7FAFF10BD10B504001D48006810F1F7
:1037800026012620FFF737F81948006890F8260030
:1037900010F0F70050EAC4001549096881F82600C6
:1037A0001348006890F826102620FFF71BF810BD7C
:1037B00010B504000E48006810F130013120FFF709
:1037C0001AF80B48006890F8300010F0F800204319
:1037D0000749096881F830000548006890F8301002
:1037E0003120FEF7FFFF10BDA800002080844E406E
:1037F000281E002030B4030018000C0015006A1EBB
:10380000ADB2002D04D025780570641C401CF5E78E
:1038100030BC704730B40B00040015006A1E002D48
:1038200004D01D7825705B1C641CF6E730BC704723
:1038300070B504000D00B94800680600A64203D028
:10384000002E01D03668F9E7A6420DD0B3480068D3
:103850002060B24804600120A0730020A0812A00EB
:103860008121200000F039F970BDF8B504000D0089
:10387000AB480768A94800680600A64203D0002E9E
:1038800001D03668F9E7002E3AD0200000F05CF94C
:1038900000281CD00020A073A04800680600002E5D
:1038A00008D0B44204D022008721300000F029F86B
:1038B0003668F4E7A068002809D0AC4207D09848E1
:1038C00004600022832114F10C00A36898479348F8
:1038D0000068844205D19148006800688F490860FB
:1038E0000CE08E4800680600002E07D03068A04229
:1038F00002D12068306001E03668F5E7884807604B
:10390000F1BDF8B504000D001600A07BC0071CD562
:10391000A068002819D0824804600220A0733200F9
:103920002900C9B214F10C00A36898470700022FC0
:1039300004D0032F02D0EDB2832D04D1210020004A
:10394000FFF793FF01E00120A073F1BD8A207249C7
:1039500008700020734908707349087000206F498F
:1039600008606F490860704710B500206F49087003
:103970006A4800680400002C0DD0E07B002808D0C5
:103980000120A0730020E073002282212000FFF7B5
:10399000B8FF2468EFE710BD80B5634800780028C1
:1039A00059D0604800780C21614A01FB0020007862
:1039B000604908705B4800780C215D4A01FB0020DB
:1039C00040685D490860574800780C21584A01FB5F
:1039D000002080685949086052480078401C202126
:1039E00090FBF1F202FB11024E4802704E48007843
:1039F000401E4D4908705148006800281BD14748B7
:103A000000684F4908604E480068002823D04748A6
:103A10000078002801D0FFF7A7FF47480268454813
:103A2000017847480068FFF76CFF45480068006868
:103A300043490860E7E73F480078812803D1012027
:103A40003E49096888733C4802683A4801783B4817
:103A50000068FFF756FF01BD80B5344800780028A4
:103A600001D0FFF781FFFFF797FF2F4800782F491C
:103A70000978081802BD30B403002B4800782028CC
:103A800001D1012027E027480078274C247820180E
:103A9000C0B2202490FBF4F505FB140529480570FD
:103AA000284800780C24224D04FB00500170254862
:103AB00000780C241E4D04FB005042602148007821
:103AC0000C241B4D04FB0050836017480078401CF9
:103AD000154C2070002030BC7047F8B504000D0074
:103AE00016000F48076832002900C9B22000FFF70E
:103AF00008FF0B480760F1BD00280AD0817B01292F
:103B000002D0817B022904D10121C1730121074A1E
:103B100011707047000000003A1E0020101E0020A7
:103B2000141E00203C1E00203B1E00203D1E0020D5
:103B3000101600203E1E0020181E00201C1E002013
:103B4000201E00203F1E0020807B002801D0012085
:103B500000E00020C0B2704700212D4A1100827998
:103B6000002A36D02A4A126803689A43284B1A6002
:103B7000284A126803689A43264B1A600279511842
:103B80000A6803681A430A60234A126803689A4362
:103B9000214B1A60214A126803689A431F4B1A602E
:103BA0004279102A0CD11C4A126803681A431A4B36
:103BB0001A601A4A126803681A43184B1A600EE01A
:103BC000134A1100427951180A6803681A430A60BF
:103BD00005E0027951180A6803689A430A60704741
:103BE0000100002000220A4B1B680B401A000C4BFE
:103BF0001B680B4204D0002A02D00123180001E008
:103C000000231800C0B270470549086070470000E3
:103C10000004014004040140080401400C04014078
:103C20001404014070B580480068002803D10020CA
:103C30007E4908601DE001F0ABFA05007A48006893
:103C40000600306871680818401B0400B668002E32
:103C50000CD0306871680818401BA04204D230684C
:103C600071680818401B0400B668F0E760196F49D6
:103C7000086070BD2DE9F04104000D00160001211F
:103C80002088002802D0592806D05EE0002066492E
:103C90000860002159202080C9B2002901D10120EB
:103CA00058E0EDB2872D24D130005F490968002922
:103CB0000AD05D490968C968814205D15A49096835
:103CC0008968594A1160F0E75749096800290FD0FF
:103CD000554909680F00B968002909D0B968C96851
:103CE000814203D1B9688968B960F4E7BF68F2E737
:103CF000CFE7EDB2822DCCD1002080464A48006843
:103D00000700002FC5D0380001F056FA002819D05E
:103D10003A008821F868FFF7AEFE002810D1002095
:103D2000F860B8F1000F03D0B868C8F8080002E0E6
:103D3000B8683D4908600020B860FFF773FFDBE713
:103D400000F00AF8B846BF68DBE700200100002059
:103D500020800320BDE8F08180B53548FFF7CCFE18
:103D600001BD38B50400FFF7F7FFE06800280ED06A
:103D70002D4800680500002D09D0A54205D12D4829
:103D80000068E060FFF74EFF0BE0AD68F3E72948FD
:103D90000068E06024480068A06023480460FFF7E2
:103DA00041FF31BD38B504000D002900200001F0AD
:103DB000FBF92000FFF7D5FF31BD1B480068002844
:103DC00001D0012000E00020C0B2704780B5FFF7AD
:103DD000F4FF002802D01548006800E0002002BD72
:103DE00038B5040010480068844207D10E480068C6
:103DF00080680D490860FFF715FF0FE00A4800686A
:103E00000500002D04D0A868A04201D0AD68F8E7F5
:103E1000002D03D0A068A860FFF704FF0020A06079
:103E20000020E06031BD0000041E0020081E0020BC
:103E3000C4000020141E0020DFF83C080068704712
:103E400070B50400002500260420050000200600AF
:103E5000F6B2EDB2AE4280F08B80F6B254F8360086
:103E60000078C0F3C200C0B202285FD1FFF7E4FFC0
:103E7000F6B254F83610D1F80110884276D3F6B273
:103E800054F83600007810F0C700F6B254F8361037
:103E90000870F6B23000002804D0022819D0032898
:103EA0002ED042E0012000F0E1F8FFF7C5FF10F549
:103EB000C170DFF8C817C1F80100DFF8C40701F0CE
:103EC0008BF9020092B2DFF8B817012000F05BFA1C
:103ED0004CE0002000F0CAF8FFF7AEFF10F5C1700B
:103EE000DFF89817C1F80100DFF8980701F074F9BE
:103EF000020092B2DFF88C17012000F044FA35E09E
:103F0000002000F0B3F8002000F00EFD0020DFF8E4
:103F100078170880DFF87407007810F0C700DFF822
:103F20006C17087000F0B6FA20E01FE0F6B254F803
:103F300036000078C0F3C200C0B2032816D1F6B232
:103F400054F83600007810F0C700F6B254F8361076
:103F50000870F6B23000012802D0032803D005E033
:103F600001F04AF902E000F095FAFFE7761C6FE7EE
:103F700070BD80B500F021F8DFF80007007810F080
:103F8000C700DFF8F8160870DFF80407007810F0B3
:103F9000C700DFF8FC160870DFF8F806007810F0AC
:103FA000C700DFF8F0160870DFF8E006007810F0C0
:103FB000C700DFF8D816087001BD80B500208DF865
:103FC00000004FF47A61DFF8D00601F087FC40F280
:103FD000E241DFF8C80601F081FC0020DFF8C016DE
:103FE00008700020DFF8B816487000AB1022FA21E4
:103FF000DFF8A40601F0D3FBDFF8A81608609DF8EF
:104000000000002801D001F0A1FB9DF8000000286D
:10401000EBD101BD80B5FFF7ACFF002000F026F822
:10402000012000F023F801BD70B504000D0016005A
:1040300001212088002802D0CC280BD010E0DFF826
:104040006806FFF759FDDFF86406FFF7F9FE002167
:10405000CC202080C9B2002901D1012005E0EEE783
:104060000020010000202080032070BD10B586B024
:1040700004000121E4B2DFF8380650F82400E4B26D
:10408000DFF8302652F82420104350F0010000F0F1
:10409000B1FDE4B2002C08D10121E4B2DFF818062A
:1040A00050F8240000F0B5FD07E00121E4B2DFF88C
:1040B000080650F8240000F0ACFD18208DF803002D
:1040C000E4B2DFF8F80530F81400ADF80000032082
:1040D0008DF8020000A9E4B2DFF8E40550F82400EE
:1040E00000F014FB48208DF80300E4B2DFF8D4059B
:1040F00030F81400ADF8000000A9E4B2DFF8C805FC
:1041000050F8240000F002FBE4B2DFF8C00550F8DC
:10411000240001904FF48050ADF808000020ADF865
:104120000A004FF48060ADF80C000020ADF81000DC
:104130000C20ADF80E0001A9E4B2DFF8940550F8A8
:10414000240001F0D5FB0121E4B2DFF8840550F82A
:10415000240001F03FFC0121E4B2DFF8780550F8BB
:10416000240000F038FD2021E4B2DFF8640550F8A7
:10417000240001F077FC012240F22551E4B2DFF87F
:10418000500550F8240001F033FC01228021E4B2F4
:10419000DFF83C0550F8240001F055FC06B010BDD6
:1041A0000EB42DE9F04FBAB00400002600275FF0EE
:1041B00000085FF000090DF11C0A00208DF80000D6
:1041C0005FF0000B43A805002B002200C82107A8C0
:1041D00001F086FC06003700B6B2002E00F0CC805D
:1041E000B6B2C92E80F0C880B6B20C20B6FBF0F192
:1041F00000FB1160002806D0B6B20C20B6FBF0F030
:10420000401C804604E0B6B20C20B6FBF0F08046BD
:1042100000208146FFF710FE83465FFA89F95FFAB6
:1042200088F8C14578D2FFF707FEB0EB0B00652890
:1042300072D201F07FFC01A9DFF86804006801F088
:1042400033FB8DF800009DF800000028E5D10598AB
:104250000028E2D000A9DFF84C04006801F0EAFA77
:10426000001DDFF83C1409780522DFF8343402FB26
:104270000131C1F802009DF800000028CDD1B6B28E
:104280000D2E1BD30C225146DFF8140400780523B1
:10429000DFF80CC403FB00C0D0F80200FFF7AAFA55
:1042A0000C20DFF8FC1309780522DFF8F43302FB59
:1042B000013188710C3E1AF10C0A17E0320092B2FB
:1042C0005146DFF8DC0300780523DFF8D4C303FB95
:1042D00000C0D0F80200FFF78DFADFF8C4030078C1
:1042E0000521DFF8BC2301FB00208671FFF7A4FD48
:1042F000834619F10109DFF8A8030078401CDFF8B4
:10430000A0130870DFF898030078FA2885DB0020F6
:10431000DFF88C13087080E7DFF860030078C0F3E3
:10432000C200C0B2022827D00220DFF8501309785B
:1043300060F3C501DFF844030170FFF77DFD10F560
:10434000C170DFF83813C1F80100DFF8540340787A
:104350000521DFF84C2301FB0020827992B2DFF8BF
:10436000400340780521DFF8383301FB0030D0F8F6
:104370000210012000F007F8BFB238003AB0BDE8E3
:10438000F00F5DF810FBF0B58BB004000D001600C7
:10439000B6B2002E7CD0E4B2DFF83C0330F8140053
:1043A000B6B2B04205D2E4B2DFF82C0330F8140004
:1043B0000600E4B2DFF8240350F8240001F0CAFB41
:1043C000E4B2C74850F824000090019510200290F4
:1043D000B6B203960020049080200590002006903D
:1043E00000200790002008904FF480500990002092
:1043F0000A9000A9E4B2B94850F8240001F02FFC5B
:1044000001220A21E4B2B54850F8240001F054FC1E
:104410000121E4B2B14850F8240001F03FFCE4B2BD
:10442000002C1BD102209B49097860F3C5019948F3
:104430000170FFF701FD0700B6B23000FCF760FF26
:104440005FF05532A74BFDF729F8FCF723FF80B248
:10445000C01964308F49C1F8010019E00220874972
:10446000097860F3C50185480170FFF7E5FC070096
:10447000B6B23000FCF744FF9B4A9C4BFDF70EF8A8
:10448000FCF708FF80B2C01964307C49C1F8010014
:104490000BB0F0BD80B57C484188C9B29448FDF7A7
:1044A000DEFD01BD80B5934801F011FC00280BD062
:1044B000904801F021FC7748007810F0C70075495A
:1044C0000870012000F030FA8B4801F000FC002851
:1044D00002D0894801F010FC01BD80B540F22551A1
:1044E000864801F0C5FA002826D067480088FF28D2
:1044F00002DD002064490880804801F0AFFA62497B
:1045000009887B4A885402206049097860F3C50114
:104510005E480170FFF790FC64305C49C1F801000F
:1045200059480088401C5849088057480088564917
:104530004880002000F0EEF901BD10B500245FF0C6
:10454000007001F0C4FB00284DD05FF0007001F056
:10455000D3FB4A48007810F0C7004849087050481B
:10456000407805214E4A01FB0020D0F80200011FCF
:104570004C48006801F07DF90400E4B2002C32D10F
:1045800047484078401C4649487045484078FA28DA
:1045900002DB002042494870414840784049097890
:1045A000884220D002203549097860F3C50133489C
:1045B0000170FFF741FC10F5C1703049C1F80100EE
:1045C000374840780521364A01FB0020827992B2B3
:1045D000334840780521324B01FB0030D0F80210FF
:1045E0000120FFF7D0FE5FF0006001F070FB0028B3
:1045F00003D05FF0006001F07FFB10BD80B540F29A
:1046000025513F4801F034FA002833D03C4801F0EE
:1046100025FA3C4909881E2902DB0021394A11800C
:10462000C0B2082809D137490988002922D0354964
:104630000988491E334A11801CE032490988324AF0
:10464000885430490988491C2E4A1180C0B20D286F
:1046500002D0C0B20A280DD103210D4A127861F3AD
:10466000C5020B490A7027490988264A5180002152
:10467000244A118001BD0000241E002054010020A6
:10468000E06F0008F86F0008301E00206C01002069
:104690005C010020640100206C0600208A010020DB
:1046A000880100200C160020040100208800002052
:1046B000387300084073000830730008D073000896
:1046C0003C010020D4730008440100202873000836
:1046D0003401002048730008D87300084C01002002
:1046E000507300085555F23F1CC7711CC771B83F85
:1046F000341B00200000021000000810004C004095
:1047000000440040341E0020A01D0020F0B500270A
:104710000022002300240025002691F803C01CF08D
:104720000F0C674691F803C05FEACC6C03D591F893
:1047300002C05CEA070791F800C05FEA0C6C3AD04F
:10474000D0F800C065465FF0000C6346082B31D2FC
:104750005FF0010C1CFA03FC6446B1F800C014EAD7
:104760000C0C6246A24223D15FEA830C64465FF0E0
:104770000F0C1CFA04FC6646B54317FA04FC5CEA0D
:10478000050591F803C0BCF1280F06D15FF0010CBC
:104790001CFA03FCC0F814C00AE091F803C0BCF195
:1047A000480F05D15FF0010C1CFA03FCC0F810C0E3
:1047B0005B1CCBE70560B1F800C0BCF1FF0F3FDD2B
:1047C000D0F804C065465FF0000C6346082B36D273
:1047D0005FF0010C13F1080E1CFA0EFC6446B1F8F0
:1047E00000C014EA0C0C6246A24226D15FEA830C98
:1047F00064465FF00F0C1CFA04FC6646B54317FADA
:1048000004FC5CEA050591F803C0BCF1280F07D150
:104810005FF0010C13F1080E1CFA0EFCC0F814C076
:1048200091F803C0BCF1480F07D15FF0010C13F100
:10483000080E1CFA0EFCC0F810C05B1CC6E74560F1
:10484000F0BD02000020936889B20B4202D0012320
:10485000180001E000231800C0B2704789B201615E
:10486000704789B241617047D2B2002A02D089B242
:10487000016101E089B24161704730B400220F2329
:1048800011F00304E4B2A400A3401A00C9B28B10D3
:104890000E4C54F823309343C9B28C100B4D45F89D
:1048A0002430C9B28B10094C54F82330C0B211F037
:1048B0000304E4B2A40010FA04F42343C9B28C1038
:1048C000024D45F8243030BC70470000080001401C
:1048D00010B582B004000121E4B2184850F8240059
:1048E00000F088F9E4B2164830F81400ADF8000082
:1048F00010208DF8030002208DF8020000A9E4B218
:10490000104850F82400FFF701FF2000C0B200F06B
:1049100001F813BDC0B20A4931F81010C0B2094AFB
:1049200052F8202051617047C0B2054931F810108B
:10493000C0B2044A52F820201161704720010020C3
:104940002C0100201401002001480068704700007D
:10495000241E002038B504000025FFF7F5FF0500F0
:10496000FFF7F2FF401BA4B2A04202D201F0E2F82E
:10497000F6E731BD10B50400244884420AD1012174
:104980004FF4805000F054F900214FF4805000F0B3
:104990004FF91AE01E4884420AD101214FF48040A9
:1049A00000F055F900214FF4804000F050F90CE080
:1049B0001848844209D101214FF4004000F047F922
:1049C00000214FF4004000F042F910BD10B4002265
:1049D00003881A0012F441520B884C8823438C88B8
:1049E0002343CC8823430C8923434C8923438C895C
:1049F0002343CC8923431A430280838B4FF2FF74F5
:104A0000234083830B8A038210BC7047003001402F
:104A100000380040003C0040C9B2002904D00288A0
:104A200052F04002028004E002884FF6BF731A4041
:104A300002807047818170478089704702000020A2
:104A400013890B4202D00123180001E00023180053
:104A5000C0B27047DFF8A012096831F48031DFF886
:104A600098221160DFF89012096831F48021DFF894
:104A7000882211600100B1F5803F03D0B1F5802F8D
:104A800009D011E0DFF87012096851F48031DFF8C5
:104A90006822116008E0DFF86012096851F4A02173
:104AA000DFF854221160FFE77047C0B2DFF85412FC
:104AB000086070470021914A126811008908890036
:104AC00001438E4A11607047C9B2002905D08E4A51
:104AD000127802438C4B1A7004E08B4A127882439E
:104AE000894B1A707047894909680143874A1160E8
:104AF0007047C0B286490860704730B40021002278
:104B0000002300247D4D2D6815F00C0529000D00B3
:104B1000002D04D0042D05D0082D06D026E07D4DB3
:104B2000056025E07B4D056022E0744D2D6815F48D
:104B300070152A00714D2D6815F480352B00920CEC
:104B4000921C002B04D1744D05FB02F505600CE0AE
:104B50006A4D2D68AD0304D56F4D05FB02F5056068
:104B600003E06C4D05FB02F5056001E0694D056051
:104B7000624D2D6815F0F00529000909674D4D5D5E
:104B80002C000568E54045605C4D2D6815F4E06536
:104B90002900090A614D4D5D2C004568E54085609E
:104BA000564D2D6815F460552900C90A5B4D4D5DC1
:104BB0002C004568E540C560504D2D6815F4404512
:104BC0002900890B564D4D5D2C00C568B5FBF4F5E9
:104BD000056130BC7047C9B2002905D0514A12683E
:104BE0000243504B1A6004E04E4A126882434D4B18
:104BF0001A607047C9B2002905D04B4A12680243B7
:104C0000494B1A6004E0484A12688243464B1A60D6
:104C10007047C9B2002905D0444A12680243434B89
:104C20001A6004E0414A12688243404B1A607047A0
:104C3000C9B2002905D03E4A126802433C4B1A60B3
:104C400004E03B4A12688243394B1A607047C9B28C
:104C5000002905D0374A12680243364B1A6004E037
:104C6000344A12688243334B1A607047C0B23249EB
:104C70000860704710B40100002200230020C9B270
:104C80004C09E4B22200012A03D11B4C2468230002
:104C900008E0022A03D11D4C2468230002E0274CBF
:104CA00024682300C9B211F01F04220033FA02F471
:104CB000E40702D50124200001E000242000C0B256
:104CC00010BC70471D48006850F080701B49086098
:104CD0007047010000200A4A1268C9B20A4202D095
:104CE0000122100001E000221000C0B270471449F8
:104CF00008707047000000000010024004100240DD
:104D00000810024060004242091002402010024098
:104D10003C04424200127A0000093D00F4000020E9
:104D20007801002014100240181002401C100240AC
:104D30000C100240101002404C004242241002406D
:104D40000A1002404268C2F30A5240F2FF739A42CC
:104D500009D14168090304BF0068002801D101207E
:104D600070470220704743685B0004BF0368002B54
:104D700025D040F233439A1A521A012A1FDB352AF2
:104D800006DB416801F0004141600021016013E051
:104D9000012102F01F039940491E920607D542687F
:104DA00011404A40426002681143002202E002685A
:104DB00011404A40026011B14FF0FF3070470020AF
:104DC0007047000090420CD141EA030C50EA4C0CB1
:104DD00007D0994205D14FF4001C1CEB410F38BF9E
:104DE000894270470148FCF703BE000080010020A3
:104DF00038B504460D461B481B4922462B46FCF796
:104E00004DFB1A4A1A4BFCF77FFD22462B46FCF756
:104E100045FB184A184BFCF777FD22462B46FCF75A
:104E20003DFB164A164BFCF76FFD22462B46FCF75E
:104E300035FB144A144BFCF767FD22462B46FCF762
:104E40002DFB124A124BFCF75FFD22462B46FCF766
:104E500025FB01B0BDE830400E4A0F4BFCF754BDB6
:104E600000000000F7DE29BFD8F8C23FF4B3FECC43
:104E70001A99C33F62CB68D96F46C73FC6C912DAD9
:104E8000C471CC3F4AE98A942449D23FF75F97998D
:104E90009999D93FBC5555555555E53F2DE9F04DEC
:104EA000804684B0D8E9000114461D4600F04CFF4E
:104EB00007462046294600F047FF0C9E390006D5DC
:104EC00000284AD4022805D1C8E9004535E1022F5F
:104ED000F8D121E050B9D8E900010022514BFFF789
:104EE00071FF0FD0C8E90045002026E1012815D147
:104EF000D8E9000100224C4BFFF764FF18BFC8E956
:104F000000454FD1FFF76EFF212101604FF0FF30C8
:104F10006FF00041C8E9000102200EE17FB9C8E945
:104F2000004531464046FCF72FF9040018BF012C1C
:104F300040F00281FFF756FF22210160FCE0D8E932
:104F400000010022374BFFF73DFF0FD120462946D5
:104F5000FCF7A4FAC8E9000124E0D8E90001CDE992
:104F600002010022314BFCF7DFF80AD20023204671
:104F70002946FCF793FAC8E9000104B00020BDE817
:104F8000F08D01222A4BFCF7E7F80DD80022254BC3
:104F900020462946FCF782FAC8E90001FFF722FF04
:104FA000222101600120C8E0224A234BFCF776FA57
:104FB00000220023FCF7B8F834BF204B464BFCF727
:104FC000A3FCFCF767F90746FCF790F982468B468D
:104FD0004FF078421A4BFCF761FA02460B46DDE9C6
:104FE0000201FCF79BF9CDE90001164A164B504629
:104FF0005946FCF753FA02460B46DDE90001FCF77F
:105000008DF96FF00102114BFCF7A6F882468B4632
:1050100020D800220E4BFCF787F81BD220462946E9
:105020007CE000BF0000F07F0000F0FF00C89CC0E3
:1050300000C89C40FE822B654715F73F0000E0BF8B
:10504000422EE63FF2E4D5BCE7E84B3EFFFF8FBCC3
:105050000000903C52465B46FCF720FACDE9000187
:10506000DDE900231D481E49FCF718FA1D4A1E4BB6
:10507000FCF74AFCDDE90023FCF710FACDE9020158
:10508000DDE9002319481A49FCF708FA194A1A4BB6
:10509000FCF73AFCDDE90023FCF700FA0E4B002296
:1050A000FCF732FC52465B46FCF7F8F9DDE90223D7
:1050B00082468B46FCF728FC0022104BFCF724FCB0
:1050C000CDE900015246DDE902015B46FCF726F915
:1050D00000220A4B14E000BF0000E03F112E578170
:1050E000A03F503F5843128C8F71BC3F4BE8A54105
:1050F000B752013F0BBDF3DAE8708C3F0000F03F80
:10510000FCF702FC02460B46DDE90001FCF798FAC9
:1051100002460B4620462946FCF7C0F9C8E90001C3
:10512000F1194046FCF730F8040018BF012C03D1F8
:10513000FFF758FE22210160204604B0BDE8F08D43
:1051400010B515480068401C1349086013480068F2
:10515000401C12490860FEF730FE002807D00F48B7
:105160000468FEF733FE844201D3FEF7F5FD0C48D8
:105170000068401E0A490860002808D109480068F4
:10518000401C084908604FF47A700549086010BD5A
:105190000248006870470000241E0020EC1D00201B
:1051A00074010020001E002038B504000D00656069
:1051B000FFF7EEFF206031BD10B50400FFF7E8FFF8
:1051C0002168401A401C6168814201D2012000E040
:1051D0000020C0B210BD00000100002210000A0033
:1051E000511C1278002A01D0401CF8E780B27047A9
:1051F000DFF820050068704780B5DFF81C0540889F
:10520000002805D000F012F8B1A0FEF7C9FF03E0B6
:10521000DFF80805FEF7C4FF1E21DFF8040500F0E3
:105220005DFB0020DFF8F014488001BD2DE9F0435C
:1052300083B00024002500265FF001085FF000091C
:10524000DFF8E00400785FFA89F9814569D25FFAF6
:1052500089F90C20DFF8D01400FB09100068070062
:10526000002005005FFA89F90C20DFF8BC1400FB70
:105270000910006800780600F6B2002E0CD06D1CF4
:10528000EDB25FFA89F90C20DFF89C1400FB0910DD
:105290000068285C0600EFE7012080460020C0B2CD
:1052A000EDB2A8420CD2C0B2C15DC0B2DFF870242A
:1052B000825C914202D00020804601E0401CEEE773
:1052C000EDB2002D01D1002080465FFA88F8B8F1D8
:1052D000000F23D0FFF78CFF04005FFA89F90C2040
:1052E000DFF8441400FB09104068804700F055FDCA
:1052F000010000A800F0DCFD9DF805309DF80420B9
:105300009DF80310DFF82404FEF74AFFFFF770FF53
:10531000011BDFF81C04FEF743FF02E019F101094D
:105320008EE75FFA88F8B8F1000F21D1DFF8F003BB
:1053300000780D2819D0DFF8E80300780A2814D087
:1053400000F02BFD010000A800F0B2FD9DF8053033
:105350009DF804209DF80310DFF8D003FEF720FF2E
:10536000DFF8D003FEF71CFF02E05AA0FEF718FF9B
:10537000BDE8F7830100C9B2302906DBC9B23A297A
:1053800003DAB1F13000C0B214E0C9B2612906DB22
:10539000C9B2672903DAB1F15700C0B20AE0C9B255
:1053A000412906DBC9B2472903DAB1F13700C0B29F
:1053B00000E0002070472DE9F04704000D000026B2
:1053C0000027DFF854034088BFB287427CD2BFB2C7
:1053D000DFF84C03385C202874D1761CF6B2EDB2AD
:1053E000AE426FD1BFB2DFF838033818807820287A
:1053F0000DD0BFB2DFF82803381880780D2806D00A
:10540000BFB2DFF81C03381880780A2808D1BFB271
:10541000DFF80C0338184078FFF7ACFF207050E03D
:10542000BFB2DFF8FC023818C07820280DD0BFB218
:10543000DFF8EC023818C0780D2806D0BFB2DFF8CC
:10544000E0023818C0780A2817D1BFB2DFF8D002BE
:1054500038184078FFF78EFF81460A2000FB09F9D3
:10546000BFB2DFF8BC0238188078FFF783FF8046B0
:1054700019EB080884F8008023E0BFB2DFF8A0022F
:1054800038184078FFF776FF8046642000FB08F864
:10549000BFB2DFF88C0238188078FFF76BFF8146C7
:1054A0000A2000FB09F9BFB2DFF874023818C0788F
:1054B000FFF760FF824619EB080010EB0A0A84F838
:1054C00000A003E07F1C7CE700202070BDE8F0878F
:1054D000433E00000D0A0000704770477047704758
:1054E0007047704770477047704770477047704704
:1054F00070477047704770477047704700B585B078
:105500000A208DF80A0001208DF8090001208DF88D
:10551000080000208DF80D0000208DF80C00002000
:105520008DF80B0001210DF10A00FFF744FF022165
:105530000DF10900FFF73FFF032102A8FFF73BFF32
:1055400004210DF10D00FFF736FF052103A8FFF739
:1055500032FF06210DF10B00FFF72DFF9DF80A0029
:10556000002803D09DF80A00642802DB0A208DF889
:105570000A009DF80900002803D09DF809000D28B5
:1055800002DB01208DF809009DF80800002803D0F7
:105590009DF80800202802DB01208DF808009DF806
:1055A0000D00182802DB00208DF80D009DF80C007E
:1055B0003C2802DB00208DF80C009DF80B003C28F5
:1055C00002DB00208DF80B009DF80B0001909DF888
:1055D0000C0000909DF80D309DF808209DF80910F2
:1055E0009DF80A0000F0E2FC05B000BD80B500F0B7
:1055F00042FD01BD70477047704770477047704764
:1056000000B583B00C2000F071FD4B49088000F01C
:10561000C4FB010000A800F04BFC9DF805309DF88C
:1056200004209DF803104148FEF7BAFD4248018866
:105630004248FEF7B5FD07BD1CB5002004003948FF
:105640000078E4B284421FD200F0A7FB010000A85A
:1056500000F02EFC9DF805309DF804209DF8031005
:105660003248FEF79DFDE4B20C202F4900FB0410E8
:105670008268E4B20C202C4900FB04100168304819
:10568000FEF78EFD641CDAE713BD10B582B0002072
:105690008DF8010000208DF8000001210DF10100BE
:1056A000FFF789FE022100A8FFF785FE9DF8014063
:1056B0009DF80000E4B2A0421AD3E4B20A2094FBA1
:1056C000F0F100FB1140002805D1E4B2002C02D01B
:1056D0000FA0FEF765FD0DF102012000C0B2FDF73D
:1056E0008AF89DF802101748FEF75AFD641CDFE7A0
:1056F00007A0FEF755FD13BD80B5012100A8FFF7F7
:105700005AFE9DF800101048FCF7A9FC01BD0000EE
:105710000D0A0000241E0020341E0020486F0008DF
:10572000A01D00208401002084640008247000086B
:105730003471000838700008381E0020C86F000857
:105740004471000820730008341C002080B500F06C
:1057500001F801BD38B56421344800F0BFF80020DD
:105760000500ADB2042D0ED2ADB214202F4900FBBE
:1057700005100400ADB214202C4900FB05101430B4
:1057800060606D1CEDE7ADB21420284900FB0510E8
:1057900004000020606025482549086031BD2DE9DE
:1057A000F04F83B004000D0016001F005FF0000AE8
:1057B00000F0ACFC82461E48006880461C48006829
:1057C000002804D01A48006840681949086050460B
:1057D00000F0A0FCB8F1000F03D15A20387000206F
:1057E00022E00094A346681E0190002081460198A3
:1057F000814509D216EB0B0B0098C0F800B0CDF82C
:1058000000B019F10109F2E7002000990860C8F81A
:105810000040C8F80440C8F81050C8F80C50C8F848
:105820000860002038704046BDE8FE8F3C1D002017
:105830000C1E0020F8B504000D00002700F066FCE7
:105840000700206900280DD060680600306860609D
:105850002069401E2061380000F05CFC00202870A8
:10586000300005E0380000F055FC5D202870002075
:10587000F2BD70B504000D00002600F047FC0600E4
:105880002069E168884204D3300000F043FC5E20C8
:1058900009E06068286065602069401C2061300074
:1058A00000F038FC002070BD70B504000D0000262B
:1058B00000F02CFC06002068286060686860A06822
:1058C000A860E068E86020692861300000F022FCF0
:1058D000E8682969401A6861002070BD89B2002912
:1058E00004D000220270401C491EF7E770470000F8
:1058F0002DE9F04786B004000D00002600275FF078
:1059000000085FF000095FF0000AA8890028A2469D
:10591000208A06004CF6FF700640E888064326827F
:10592000A08906004EF6F3100640A888298908438E
:10593000698908430643A681A08A06004FF6FF4006
:105940000640A8890643A68200A8FFF7D6F820489B
:10595000824502D10398070001E002980700A08960
:10596000000408D5192000FB07F029684900B0FBA6
:10597000F1F0804607E0192000FB07F02968890054
:10598000B0FBF1F080466420B8FBF0F000010600A7
:105990003009642101FB10808146A089000409D5EB
:1059A0005FEAC90032306421B0FBF1F010F007006B
:1059B000064308E05FEA091032306421B0FBF1F0E1
:1059C00010F00F000643268106B0BDE8F087000006
:1059D00000380140C9B2002904D0828952F4005233
:1059E000828104E082894DF6FF731A4082817047FC
:1059F000F0B4002300240025002689B240F66A177F
:105A0000B94206000F00FFB27F09FFB23B0089B226
:105A100011F01F073C000127A7403D00012B01D1D9
:105A20000C3604E0022B01D1103600E01436D2B25D
:105A3000002A03D037682F43376002E03768AF434E
:105A40003760F0BC7047D2B2002A03D0838A0B4380
:105A5000838202E0838A8B43838270478088C005FB
:105A6000C00D704789B28A0589B2CA430280704767
:105A700070B40200002300250024002089B240F603
:105A80006A16B1420E00F6B27609F6B2340089B257
:105A900011F01F063500012616FA05F5012C02D17A
:105AA0009689354006E0022C02D1168A354001E085
:105AB000968A354089B20E0AB6B23300012616FA2C
:105AC00003F316883340002D04D0002B02D00126AA
:105AD000300001E000263000C0B270BC704700000A
