:020000040800F2
:10000000482E0020B1720008896D0008B56D000807
:100010000D6E00080F6E0008116E00080000000051
:10002000000000000000000000000000136E000847
:10003000156E000800000000176E00081D52000831
:10004000E9740008ED740008F1740008F574000804
:10005000F97400089562000831230008592400084B
:100060006D240008DB240008FD74000801750008F9
:1000700005750008097500080D7500081175000860
:10008000157500080B460008197500081D75000855
:100090002175000825750008297500082D750008D0
:1000A0003175000835750008397500083D75000880
:1000B0004175000845750008497500084D75000830
:1000C0005175000855750008597500085D750008E0
:1000D0006175000865750008CD460008697500085F
:1000E0006D75000871750008757500087975000850
:1000F0007D75000881750008857500088975000800
:100100008D75000891750008656D000895750008EB
:1001100013450008997500089D750008A175000831
:10012000A5750008A9750008AD750008DD44000834
:100130002DE9F04FA1B0824602AE002017461D46C1
:10014000029170620DF144080AE017F8011B029851
:10015000D0470290002800F0DA82706A401C70627A
:10016000387808B9706AD4E22528EED10020F06012
:1001700030617061B061F061306201E040F0010017
:1001800017F8011F2029F9D023290DD02B2904D0DD
:100190002D2906D030290AD00CE040F0020080B2B0
:1001A000EEE740F00400FAE740F00800F7E740F01F
:1001B0001000F4E72A290DD129680A1D2A60096870
:1001C000F162002904D5494240F00400F16280B296
:1001D0007F1C13E00021F1620BE0F16A6FF0004335
:1001E000994205D001EB810302EB43013039F16202
:1001F0007F1C3A78A2F130010A29EED339782E29F2
:1002000003D04FF0FF31B1621EE017F8011F2A2919
:1002100006D129680A1D2A607F1C0968B16213E0B3
:100220000021B1620BE0B16A6FF00043994205D042
:1002300001EB810302EB43013039B1627F1C3A7854
:10024000A2F130010A29EED330860FF63840397812
:1002500000F036FE08B117F8010B8DF83A009DF852
:100260003A00682802BF39786829622005D06C28D6
:1002700004BF38786C2803D171208DF83A007F1CB8
:1002800011A8B0603978B1F1250029D01C3800F0F0
:10029000C080001F022840F2BC80133800F0E480C8
:1002A000093800F0B680801E00F07781401E00F013
:1002B0002081401E022840F2AC80001F00F019810E
:1002C000401F7BD0401E00F0CF80401E22D0C01EB9
:1002D0000BD0801E00F0C880C01E00F0C58064E115
:1002E000F068411CF160252169E12868011D296041
:1002F0000068B26A7060002A02D500F0F9FD07E0DC
:10030000002100F011FE00281ABF7168401AB06A7F
:10031000306156E12868011D296000210068CDE99F
:1003200000014FF03C0E11A87060DDE9000111B929
:1003300008B9B26ACAB10206120FA0EB021230323B
:10034000AEF10103D2B29E463A2AA8BF2732000975
:1003500003F8082040EA0170090908BF002804D00A
:10036000726811AB73449A42E5D311A9714471606C
:10037000CEF13C00B16A3061884207DA081AB061F8
:100380004FF6EF71308E084030861AE1002940F1B7
:10039000188196F8301001F01401102940F01181F5
:1003A000F16AF268891AB269891AA1EB000EBEF1EE
:1003B000010FC0F20681C6F818E002E19DF83A008C
:1003C000622818D0682806D06A280BD06C2819D06B
:1003D000712807D016E02868011D29600068716A3D
:1003E0000180EEE02A68101D28601268706AC1174B
:1003F000C2E90001E5E02868011D29600068716A12
:100400000170DEE02868011D29600068716A0160E2
:10041000D7E02868C01D20F00700286000F108021E
:100420002A60D0E90023CDE90023002B04D5F06831
:10043000421CF2602D220DE0308E820704D5F06858
:10044000421CF2602B2205E0C00705D5F068421C73
:10045000F260202200F80820F06811AA801870606D
:1004600000A800F0DDF9ACE09DF83A006C2808BF68
:100470002A6811D0712808BF2A6802D02A686A2821
:100480000AD1D21D22F007022A60144604F10802A4
:100490002A60D4E9002303E0131D2B6000231268B7
:1004A000CDE90023682808BF92B207D0622808BFB0
:1004B000D2B203D0742818BF7A2802D10023CDE924
:1004C000002396F8300000075FD5DDE90023002BFC
:1004D00008BF002A59D041F02000782855D1F06893
:1004E000302200F80820401C421CF26000F808107E
:1004F0004BE09DF83A0062280CD0682810D06A289A
:100500001AD06C2823D0712816D074281FD07A28CE
:100510000CD01CE02868021D2A6090F900201AE027
:100520002868021D2A60B0F9002014E02868021D26
:100530002A60002302680FE02868C01D20F0070031
:10054000286000F108022A60D0E9002304E028684E
:10055000021D2A600268D317CDE90023002B04DABC
:10056000F068421CF2602D220DE0308E820704D527
:10057000F068421CF2602B2205E0C00705D5F06848
:10058000421CF260202200F80820F06811AA8018AE
:10059000706000A800F0C0F813E0F068411CF16042
:1005A00029680A1D2A60096809E0F068421CF260A7
:1005B000252200F8082021B1F068421CF26000F802
:1005C0000810F06AF168401AB169401A3169401A9E
:1005D000F169401A7169401A316AA0EB010996F875
:1005E00030007F1C400710D420208DF840000024EC
:1005F00009E0012310AA00A9504600F02CFC0028B5
:1006000040F08580641C4C45F3DBF4680DF1440B2D
:100610000AE01BF8011B0298D0470290002876D010
:10062000706A401C7062641E002CF2D130208DF87C
:1006300040004FF0000BB46909E0012310AA00A9A3
:10064000504600F008FC002861D10BF1010BA345D6
:10065000F3DB3469D6F804B00AE01BF8011B0298FA
:10066000D0470290002852D0706A401C7062641E0D
:10067000002CF2D130208DF840004FF0000BF469CF
:1006800009E0012310AA00A9504600F0E4FB00286D
:100690003DD10BF1010BA345F3DB3069716874693F
:1006A00000EB010B09E01BF8011B0298D0470290F8
:1006B00068B3706A401C7062641E002CF3D1302055
:1006C0008DF840004FF0000B346A08E0012310AAB7
:1006D00000A9504600F0BFFBC8B90BF1010BA345C0
:1006E000F4DB96F8300040077FF53AAD20208DF816
:1006F0004000002400E0641C4C45BFF631AD0123EE
:1007000010AA00A9504600F0A6FB0028F3D04FF035
:10071000FF3021B0BDE8F08F2DE9FA4E05460A46BC
:100720002F696F2A08BF082405D041F020007828DF
:1007300014BF0A241024D5E900013C2681468B46CB
:10074000642A18BF692A05D1002903DAD9F1000902
:100750006BEB4B0BBBF1000F08BFB9F1000F0CD1D5
:10076000286B50B9082C36D195F83800000732D5DF
:1007700030203B2687F83B002DE0E31748465946DA
:10078000224600F0FDFBA4FB0023A9EB020230325D
:10079000A6F1010AD2B256463A2A03DB9DF8003090
:1007A000513B9A180AF8072081465FEA010B08BFFF
:1007B000B9F1000F03D0E868F1198842DDD3082CA5
:1007C00009D195F83800000705D5F05D302802D032
:1007D000761E3020F055C6F13C00A861F119E960A1
:1007E000296B884208DA081A28624FF6EF71288FC1
:1007F00008402887BDE8F38E00290ED595F83810FB
:1008000001F01401102908D1696B6A69891A2A6AF2
:10081000891A081A0128A8BF2862BDE8F38E0000D3
:100820002DE9F04F07468FB08B46D7E90001CDE99F
:10083000020104AE4BF0200061280BD0386B002879
:1008400048BF062005D404BF4BF02000672801D123
:10085000012038637968C1F30A5040F2FF72904278
:100860001AD1080304BF3868002808D10320B861F2
:10087000ABF161001A2835D30FF21C6107E00320A9
:10088000B861ABF161001A2829D30FF20461F8684E
:10089000032200F0EDFBB6E1012816DA384600F03D
:1008A00022FC012811DB002400204BF020016129EB
:1008B0001FD1F968302201F8012B4A1CFA60BBF104
:1008C000610F0CBF782258220FE07A6840F2FE31A7
:1008D00061F31E52441A7A604FF0FF30E5E70FF2E1
:1008E000AC51D4E70FF2AC51D1E70A707969891C99
:1008F000796110B9002500247DE14BF020006128CA
:1009000040F09580386B00284CBF2125451CDDE95F
:1009100002012DB26E1CD7E900890022002300F0ED
:1009200003FC3ABF89F00040CDE90280CDE902899D
:10093000241F8DF810200DF1110A01E000F2070AC2
:10094000012E32DBDDE902010022002300F004FC6D
:100950002BD21C2102A800F017FCDDE9020100F0F7
:1009600099FCF61F8046012E09DB00F0BFFC024611
:100970000B46DDE9020100F0D1FCCDE902010AF2EB
:100980000700072105E008F00F0200F8012D4FEAEB
:100990002818B8F1010F01DB491EF4D5491E5CBFD0
:1009A000002200F8012DF9D5C8E70DF11100AAEBDE
:1009B00000010DF11106A942B8BF0D462DB2280065
:1009C0002ED4884206DA04A9411849780829A8BF1C
:1009D0000F2100DA002104AA821800E06D1E12F82F
:1009E0000139401E8B42F9D00F2904D104A94118C6
:1009F0004A78521C4A70002802D504AE6D1C241D92
:100A00002DB2681E0CD48119ABF13A030A7830324A
:100A1000D2B23A2AA8BF9A1801F80129401EF5D58A
:100A2000386B002840F1E780681E3863E3E0DDE9B9
:100A300002010022002300F077FB3CBF81F000415F
:100A4000CDE9020124B247F2975060434849DFF8EC
:100A500024A190FBF1F424B2C4F107050026012D76
:100A600019DBDDE90289E80707D5324653464046DF
:100A7000494600F013FD804689466D1030465146C8
:100A80003246534600F00AFD06468A46002DEAD15A
:100A9000CDE9028921E06D429046DFF8DC9012E05A
:100AA000E80707D5324653464046494600F0F6FC73
:100AB000804689466D10304651463246534600F016
:100AC000EDFC06468A46002DEAD1DDE902014246E8
:100AD0004B4600F0B5FDCDE902014BF02000662841
:100AE0000CBF04F10A000620396B4518142DA8BF6D
:100AF000132530208DF810000DF11106DFF87C90E1
:100B0000012D3DDBDDE9020100F0DAFB06F1080111
:100B100004220A23B0FBF3F303EB8306A0EB4600A9
:100B2000303001F8010D0A20B3FBF0F000EB800635
:100B3000A3EB4603303301F8013D521EE9D1083DD5
:100B400001F10806012DDBDBDDE9020100F0B8FB55
:100B500000F0D6FB02460B46DDE9020100F0DEFBA9
:100B600000224B4600F09AFCCDE90201CAE700BF23
:100B7000A0860100000024400000F03F84D7974188
:100B80000DF11100301A0DF1110602E0401E641E35
:100B9000761C31783029F9D04BF02001662902D13A
:100BA00024B2611C03E065290CBF012100213A6BCE
:100BB0008D182DB2A842B8BF05462DB229001AD40F
:100BC000814204DA885D3528A8BF392000DA302058
:100BD0008A19521E00E06D1E12F80139491E834227
:100BE000F9D0392802D1885D401C8855002902D5EA
:100BF000761E6D1C641C24B200942BB232465946FA
:100C0000384600F003F80FB0BDE8F08F2DE9F0474B
:100C100086B006468A4690461D4600F052FE406A5F
:100C2000376B90F80090012D02DA01250FF26C2845
:100C30004AF02000BDF93840662808BF641C12D075
:100C4000672875D114F1040F78DBBC4276DA96F888
:100C50003800641C000702D4BD42B8BF2F4624B23E
:100C60003F1B48BF0027F068B16924B2012C21DA8C
:100C700030234A1C0B54012F03DA96F83810090769
:100C800002D502F80090521CB261E742B8BF7C4224
:100C900024B26142E7197162AF42B8BF3D462DB23E
:100CA000F5612A46B3694146181800F0E1F9781B4E
:100CB000B062B9E00818A54216DA2A46414600F0AB
:100CC000D7F9B1696918B161601B7062012F03DA4D
:100CD00096F83800000705D5F06801F80090F06933
:100CE000401CF061B7629FE02246414600F0C0F927
:100CF000B06920182D1B012F03DA96F83810090768
:100D000003D5F16800F80190401C2DB2B061AF42EC
:100D1000B8BF3D46F3682DB22A4604EB0801C0185F
:100D200000F0A6F9B0692818B061781B70627BE00A
:100D3000BAF1610F14D14FF0700A16E0BD4204DA27
:100D400096F83810090758BF2F467F1E48BF002766
:100D5000BAF1670F14BF4FF0450A4FF0650A04E07F
:100D6000BAF1410F08BF4FF0500AB169F06818F8A6
:100D7000013B0B544A1C012F05DA96F8381009077D
:100D800058BFB26115D502F80090531CB361012F12
:100D90000FDB6D1E2DB2AF42B8BF3D462DB22A46C5
:100DA0004146181800F064F9B0692818B061781B42
:100DB0007062B069F16800EB0108200008F801AB2F
:100DC00003D42B2008F8010B03E02D2108F8011BA8
:100DD0006442002502AF08E00A2200A800F08AFD64
:100DE000019807F8010B6D1C009C21B20129F3DA70
:100DF000022D06DA4AF02000652804BF302008F8EA
:100E0000010B4DB9302008F8010B07E06D1E02A858
:100E1000285C303008F8010B012DF7DAB069F16871
:100E20004018A8EB0000F06196F8380000F01400BC
:100E300010280DD17069B1690818716A0818F16934
:100E40000818B16A0818716B8842BCBF081A306272
:100E500006B0BDE8F087F8B504460D4616461F46B5
:100E6000002004E0E86A401CE8627F1E002047B1D1
:100E700016F8011BA868A047A8600028F2D14FF01F
:100E8000FF30F2BD686A6C747A4C00006E616E00CF
:100E90004E414E00696E6600494E4600300050F8E3
:100EA000041B61B150F8042BD30744BFA9F101031F
:100EB0009A18002342F8043B091FFAD1EFE7704764
:100EC0000278C9B28A421AB11CBF10F8012FF9E7A3
:100ED00018BF002070478268521C8260426832B19D
:100EE0000268531C036011704168491E41607047DD
:100EF00000F10103810704D010F8011B89B18107BB
:100F0000FAD10268B2F10131914311F0803F04BF80
:100F100050F8042FF6E710F8011B11B110F8011B6F
:100F2000FBE7C01A70470000C9B2830706D0521E03
:100F300022D310F8013B9942F7D11FE0083A13D3AE
:100F400002F1040241EA012141EA014150F8043B67
:100F5000121F21BF4B40A3F1013C2CEA030C1CF0F3
:100F6000803FF3D0C9B2001F083210F8013B521E77
:100F700028BF91EA030FF8D818BF0120401E704720
:100F80001B4213D1094236D12AB18446B0FBF2F09C
:100F900002FB10C2704700F0B5BCFCD30022002356
:100FA00070470B000200002100207047904271EB57
:100FB000030CF6D370B5B1FA81F4B3FA83F52C1BA8
:100FC000A340C4F1200532FA05F63343A2405FF096
:100FD0000046E64002E05B085FEA3202841A71EBE9
:100FE000030524BF204629467641F4D302000B00B6
:100FF0003000002170BD012ACFD970B5140C20D06B
:10100000B1FA81F4B2FA82F5C4F120046419B4F1A2
:101010002006D6D3B2405FF00044F440002502E041
:1010200052085FEA3303C61A71EB020E24BF304642
:10103000714664416D41F3D302000B00200029008A
:1010400070BD0C46B1FBF2F102FB11452D0445EADF
:101050001045B5FBF2F402FB145580B240EA054599
:10106000B5FBF2F002FB105240EA044070BD0000F4
:1010700062B38B0708D0521E11F8013B00F8013B08
:1010800000F024808B07F6D1830740F0208000BF5A
:10109000103A07D330B4B1E83810103AA0E838104D
:1010A000F9D230BC530724BFB1E80810A0E80810FB
:1010B00044BF51F8043B40F8043BD20724BF31F849
:1010C000022B20F8022B44BF0B7803707047083ABC
:1010D00007D3B1E80810083A40F8043B40F804CBC5
:1010E000F7D25307E4E730B4436803F0004201212C
:1010F0001B031B0B436004BF0368002B08D10DE0EA
:101100000368DD0F45EA440444605B000360491E48
:101110004468E302F4D523031B0B436043681A437E
:101120004260084630BC70474FF4001C1CEB410F76
:1011300094BF1CEB430F09E041EA030C50EA4C0C4E
:1011400052EA0C0C03D2994208BF9042704714BF78
:101150008B428242704700004FF4001C1CEB410F91
:1011600094BF1CEB430F09E041EA030C50EA4C0C1E
:1011700052EA0C0C03D28B4208BF8242704714BF64
:10118000994290427047000070B504460D46606871
:10119000C0F30A5040F2FF71884207D16068000333
:1011A00004BF2068002817D0022070BD20B9204657
:1011B000FFF799FF012867DA012D0FDB40F2FF717D
:1011C000091A8D420AD36068002847BF00202F49C2
:1011D00000202F49C4E90001012070BD4142A9420D
:1011E000616806DA6FF31E51401941EA00506060F1
:1011F00041E0401E63680122451962F31F5305F167
:10120000350001F000416360352803D361600020A0
:10121000206070BD002215F11F0F04DA22682360E0
:10122000002020356060684213D0521E256892412C
:10123000C0F12003D2439D4045EAD272256866681A
:10124000C54006FA03F32B432360636823FA00F0DA
:101250006060606808436060B2F1004F03D80DD150
:101260002078C0070AD52068401C2060206828B973
:101270006068401C60604FF0FF3070BD606888425D
:1012800004BF20680028F6D1002070BD0000F0FFE8
:101290000000F07FF446400D40EAC120490006D22C
:1012A00000F014F8004248BF6FF00040604700F0C3
:1012B0000DF84FF0004188428CBF0846404260471D
:1012C000400D40EAC120490080F00D8040F0004010
:1012D000490DA1F58061491C05D4D1F11F0154BF0E
:1012E000C840C01770474FF000007047010040F140
:1012F0000980F446404200F005F851F00041604793
:10130000010000BF09D0B0FA80F18840C91CC1F5C6
:101310008461090501EBD0214005704770B44FF09E
:10132000004591EA030F44BF6B4000F0F7BA00BFDD
:10133000841A71EB030604D26E40001BB1411219EE
:1013400073414FF4001C1CEB410F34BF7CEB430690
:1013500084E00C0DA4EB1356362E7DDC012E43DC0D
:1013600045EAC32343EA525312BFD20292025B08FA
:10137000240545EAC12141EA5051D2EBC0209941F0
:1013800025D407D1B0FA80F610FA06F164D0002017
:10139000203608E0B1FA81F6B140C6F1200220FA09
:1013A00002F21143B0404FEAF474B4EB465434F007
:1013B00001064FEA74040AD8D6F50016760D04F03B
:1013C0000044F04061FA06F25040F1404840C00A43
:1013D00040EA415021F0004128BF5FEA500550F13A
:1013E000000044EBD12137E045EAC323DB0A45EA9C
:1013F000C121C90AB6F120050EDD42EA0242120CF3
:10140000C5F1200603FA06F6EB4042EA06056D42F6
:10141000984161F100010DE062FA06F5F240554095
:1014200063FA06FC82EA0C02F3405A406D42904196
:1014300061EB030111F4801F05D1641E620502D027
:101440006D004041494121F48011430875F100438A
:1014500050F1000041EB045170BC70471CEB410F90
:1014600015D223F0004352EA43060BD04FEA4C0C4E
:10147000BCEB410F04D80C0D661E342EB7DDEBE734
:10148000801A994150EA410608BF0021E4E708BFED
:101490001CEB430F28BF6FF00001DDE7B0B581EA18
:1014A000030C0CF0004C40F2FF7515EA11541DBFFF
:1014B00015EA1357AC42AF4239E0E41923EA455329
:1014C00043F48013C90241F0004141EA505EC70273
:1014D0001100A7FB020200284FF00000EEFB0120E4
:1014E0004FF00001E3FB072118BF42F00102401852
:1014F00000214941E3FB0E01A4F580640F0302D2F1
:1015000052004041494154F101046CDD470872F139
:10151000004250F1000051EB0451A1F580115CBF75
:1015200041EA0C01B0BD4CEA05510020B0BD05EA0E
:101530001357AC4214BFAF4241E050EA410E1CBF0A
:1015400052EA430E02E061460020B0BD24423C4412
:101550001BD15FEA070EF6D0090302BF0146002047
:10156000AEF1140EB1FA81F7AEEB070401FA07FEF3
:101570000C37C7F1200100FA07F7C8404EEA000E09
:1015800023EA455343F48013A2E733F00043B3FA50
:1015900083F704BFB2FA82FE77440B3FE41BB7F136
:1015A000200E2FBF02FA0EF3BB40C7F1200E22FA25
:1015B0000EFE38BF43EA0E03BA40641C82E750EACD
:1015C000410E14BF52EA430E6FF000014FF40017B2
:1015D00017EB430F8ABF194617EB410FB5E74CEAEB
:1015E00005510020B0BDD4F10104B4F120070FDA99
:1015F000C4F12007520828BF42F0010210FA07F593
:1016000001FA07F7E1BF2A43E0403843E1400FE029
:10161000352C98DCC7F1200452EA400220FA07F288
:1016200018BF42F0010231FA07F0A1400A4300213D
:1016300072F1004250F1000051EB0C01B0BD00000E
:10164000F0B540F2FF7581EA030C0CF0004C15EA8E
:1016500011541DBF15EA1357AC42AF42E5E0BC413F
:10166000C1F31301C3F31303801A994143F48013A8
:1016700004D2641E4000494180185941C90241EA20
:101680005051B1FBF3F603FB1611A2FB0675D7EB25
:10169000C020A94102D2761E80185941C90241EAF0
:1016A0005051B1FBF3FE03FB1E11A2FB0E75D7EBED
:1016B000C020A94103D2AEF1010E80185941890220
:1016C00041EA9051760546EA8E2EB1FBF3F603FB14
:1016D0001611A2FB0675D7EB8020A94102D2761E17
:1016E00080185941C90241EA50514EEA060EB1FB39
:1016F000F3F603FB1611A2FB0675D7EBC020A94138
:1017000002D2761E80185941C90241EA5051B1FBFC
:10171000F3F703FB1711A2FB0735D3EBC020A94158
:1017200067F100070CBF004247F0010766F3D527B9
:101730004FEA1E31B80814F5806412DDBD0775F15B
:10174000004250EB0E5051EB045111F5801F5CBF6D
:1017500041EA0C01F0BD4CF07F6141F0E041002016
:10176000F0BDBD076D0840EA0E5041F48011D4F180
:101770000104B4F120060ADAC4F120060200E040B8
:1017800001FA06F3E1401843B24015430EE0342C51
:1017900013DCC6F1200445EA40056D0820FA06F284
:1017A000154321FA06F0A1400D43002175F10042D6
:1017B00050F1000051EB0C01F0BD00205FEA0C017C
:1017C000F0BDCFB992185B41B3FA83F704BFB2FA08
:1017D00082F6BF190B3FB7F120062FBF02FA06F3BE
:1017E000BB40C7F1200622FA06F638BF3343BA40A1
:1017F0001CB1E419641E33E77F4231F00041B1FAB5
:1018000081F404BFB0FA80F6A4190B3CB4F12006B1
:101810002FBF00FA06F1A140C4F1200620FA06F617
:1018200038BF3143A0403C1B1AE7AC421ABF05EA5F
:101830001357AF4212E050EA41061CBF52EA43067A
:10184000BFE750EA4107304661461CBF41EA0551F7
:10185000F0BD52EA430C08BFC143F0BD00204FF475
:10186000001616EB410F98BF16EB430F08BF16EB9F
:10187000410F24BFC14305E016EB430F0CBF614687
:101880004CEA0551F0BD000080B5134800F0B0F8F7
:101890000FF24801016041608160C16001614161F6
:1018A00081610FF23C0242628162C1620163416365
:1018B0000FF2300282630FF23402C26301644164AA
:1018C00001BD10B5044800F093F80446206808B93B
:1018D000FFF7DAFF204610BD0000002000000000E6
:1018E0002E00000066616C736500000074727565FF
:1018F0000000000091FBF2F303FB1211C0E900317C
:10190000704700007047000070B44FF0004591EA46
:10191000030C44BF6B40FFF70BBD00BF841A71EB93
:10192000030603D2001BB141121973414FF4001C8E
:101930001CEB410F34BF7CEB430443E00C0DA4EBE4
:101940001356352E50DC45EAC323DB0A45EAC12194
:10195000C912B6F120050DDD63FA05F6EB4086EA03
:101960000305124218BF45F00105C01851F10001EE
:101970000CD213E062FA06F5F2405540F3415A40AA
:10198000B340F3405A408018594107D349085FEAF1
:1019900030005FEA350528BF45F0010501F58011EB
:1019A000420875F1004250F1000041EB045170BC57
:1019B0004FF4001C1CEB410F38BF70470020090D8D
:1019C000090570471CEB410F10D252EA43060BD0B9
:1019D000BCEB410F05D80C0DAB43661E342EB5DDB4
:1019E00002E0AB438018594170BC704770BC70472F
:1019F00070470000DFF8200B0068704710B5012029
:101A000000F015FFFFF7F6FF0400FFF7F3FFA11C3E
:101A10008842FAD3002000F00AFFFFF7EBFF040032
:101A2000FFF7E8FFA11D8842FAD310BD10B50400EE
:101A3000FFF7E4FFDFF81C0ADFF8E01A0860002077
:101A400000F0D0F8E4B2002C33D0DFF8D00A006800
:101A5000407850F08000DFF8C41A09684870DFF859
:101A6000BC0A00684178012000F0BAFE012000F0B5
:101A7000B9F80020DFF8A81A08700020DFF8A01AD3
:101A800048700020DFF8981A88700020DFF8901A5C
:101A9000C8700020DFF8881A08710020DFF8801A6B
:101AA0004871DFF87C2AD2E9000100F0CAF800F0A2
:101AB0009AF910BD2DE9F04395B006000F0000A87B
:101AC000DFF8601A5022FFF7E3FAF6B200A810EB35
:101AD000C600D0E9002390469946FFB23800FFF7D0
:101AE0000FFC02000B0000205FF0804101F0F7F9CD
:101AF00042464B46FFF7A4FD04000D0020002900DC
:101B000015B0BDE8F0832DE9F04F85B00600F6B2C0
:101B1000B01CADF80200DFF8100A90F80680DFF87C
:101B2000080A407A8DF80100DFF8FC09807D8DF805
:101B30000000DFF8F40990F807905FFA89F919F1CD
:101B40000400FFF7D3FB82468B46BDF80200C000BD
:101B50005FFA88F8B0EB88002C309DF80110142251
:101B600002FB1100FFF7C2FB04000D005FFA88F8CA
:101B70009DF80000B8EB40008000FFF7B7FB0200C3
:101B80000B0020002900FFF75BFD01F0C1FB52466E
:101B90005B46FFF783FCCDE90201DDE90201FFF7B7
:101BA0008FFB0700002F02D017F1080000E008208B
:101BB00005B0BDE8F08F80B5FF20FFF7A4FF32210C
:101BC000B0FBF1F0C0B202BDDFF8600900687047F9
:101BD00080B5DFF84809006810F14101422000F0AB
:101BE00008FE01BD10B50400DFF830090068407838
:101BF00010F0F8002043DFF8241909684870DFF876
:101C00001C0900684178012000F0EAFD10BD80B594
:101C1000DFF80809006810F10C010C2000F0E9FD64
:101C2000DFF8F8080068007BC0B2400902BDDFF8A9
:101C3000040990F900007047DFF8FC28D2E90001A0
:101C4000704703B581B09DF804009DF80510084366
:101C50009DF8061008439DF807100843DFF8BC18EC
:101C6000096881F83F009DF808009DF809100843B5
:101C7000DFF8A818096881F840000222DFF89C0804
:101C8000006810F13F01402000F06CFD07BD80B5F9
:101C900000A9192000F0ADFD9DF80000000612D546
:101CA0009DF80000C043401C801010F03F00DFF89A
:101CB00084180870DFF87C0890F900004042DFF8D3
:101CC0007418087006E09DF80000C0B28008DFF8C4
:101CD00064180870DFF85C0890F9000002BDF8B5E0
:101CE000DFF83808006810F11A011A2000F081FDB1
:101CF000DFF834080068DFF84418884233D2DFF890
:101D0000340890F90000002819D5DFF810080068A1
:101D1000807EFFF7F5FA0022DFF82438FFF7F4FDA4
:101D200006000F00DFF80C0890F90000FFF7DEFA5C
:101D300032003B00FFF7E8FD04000D0046E0DFF84D
:101D4000DC070068807EFFF7DBFADFF8FC27DFF8AE
:101D5000FC37FFF7A3FB0022DFF8E437FFF7D4FDE1
:101D600004000D0032E0DFF8CC0790F900000028F5
:101D700019D5DFF8A8070068807EFFF7C1FA0022B6
:101D8000DFF8C037FFF7C0FD06000F00DFF8A4073B
:101D900090F90000FFF7AAFA32003B00FFF7B4FD0C
:101DA00004000D0012E0DFF874070068807EFFF782
:101DB000A7FADFF89427DFF89437FFF76FFB0022CC
:101DC000DFF88037FFF7A0FD04000D002000290098
:101DD000F4BDDFF87C0790F800017047DFF870175A
:101DE00081F80001704780B5FFF7F2FE6F22DFF83F
:101DF0006417012000F0D5FC2020DFF820170968C7
:101E00000873DFF818070068017B0C2000F0E8FC7D
:101E10000020FFF7E7FEDFF81007006801F0A8FADE
:101E2000DFF80407807901F078FBDFF8FC06C07961
:101E300001F0A9FBDFF8F006007A01F0C5FBDFF83E
:101E4000E806407901F048FBDFF8DC06407A01F053
:101E5000FDFB40F2FF3001F06AFCDFF8CC06407D6C
:101E600001F011FCDFF8C006D0F8170080B201F0D5
:101E7000CCFBDFF8B4068179DFF8AC064079FFF7D8
:101E800019FE0022DFF8D036FFF766F903D80120EB
:101E900001F06DFC02E0002001F069FC002001F07F
:101EA0002DFC002001F0FFFBDFF87C0690F9040018
:101EB00001F085FAFFF77FFEDFF86C16087301204A
:101EC000FFF78CFF002000F08DF901BD38B504004C
:101ED0000D00EDB22A002100DFF8740601F096FC37
:101EE000DFF86C0680F8025131BD10B50400DFF850
:101EF0003806807A012805D10320DFF8541681F8CE
:101F0000000106E00220DFF8481681F8000100F029
:101F10008AF8DFF83C0680F8FF400020DFF8301632
:101F200081F8030110BD10B50400DFF8FC05807ACC
:101F3000012836D1DFF8E4050068C07BDFF8DC1546
:101F400009684873DFF8D4050068417B0D2000F074
:101F500047FCDFF8D405407A012809D1DFF8BC0539
:101F6000006890F82200DFF8E81581F801010FE021
:101F7000DFF8A805006810F11301132000F039FC08
:101F8000DFF898050068C07CDFF8C41581F801010E
:101F9000DFF8BC0590F80111DFF8B40500F03DFC56
:101FA0003DE0DFF87805006810F11001102000F026
:101FB00020FCDFF87405407A012809D1DFF85C05C0
:101FC000006890F82200DFF8881581F801010FE021
:101FD000DFF84805006810F11301132000F009FC38
:101FE000DFF838050068C07CDFF8641581F801016E
:101FF000DFF828050068007CDFF8201509684873C1
:10200000DFF818050068417B0D2000F0E9FBDFF8E0
:10201000400590F80111DFF8380500F0FEFB0120C3
:10202000FFF763FF10BD80B50121012000F016FC11
:102030000121082000F012FCDFF8EC04C07A00282F
:102040000CD0DFF818050078DFF8141551F82000DF
:1020500001F08EF90121042000F000FC01BD38B52B
:1020600004000D000120FFF7BDFDFF20DFF8AC14D8
:1020700009684874FF21122000F0B2FB00211F20E4
:1020800000F0ECFBDFF8A004C07A00282ED0DFF8C7
:102090008C040068407C10F0F500DFF880140968BB
:1020A0004874DFF88404007BDFF87014096881F855
:1020B0002400DFF86804006810F11C011C2000F007
:1020C00098FBDFF898040078DFF8941451F82000AA
:1020D00001F04EF90220FFF785FD4020DFF84014A3
:1020E00008700020DFF83814887018E0DFF8380432
:1020F000006801F03DF9DFF824040068407C10F02E
:10210000F700DFF81814096848740020DFF80C1491
:10211000096881F824004020DFF804140870DFF813
:10212000FC03006890F82410242000F059FBDFF82D
:10213000EC030068417C112000F052FBDFF8E02343
:10214000D2E90001FFF77DFDDFF8D003006880F8D9
:102150002250DFF8C803006890F82210222000F017
:102160003FFB0020DFF8B41309688873DFF8AC0385
:102170000068817B0E2000F033FBDFF8A0030068CD
:10218000807BDFF8981309684873DFF890030068D4
:10219000417B0D2000F024FB0720FFF71FFE2900E4
:1021A000C9B22000FFF792FE2900C9B2DFF8A003F0
:1021B00000F029FB0121012000F050FBDFF868034B
:1021C000C07A002803D00121042000F047FB03203F
:1021D000FFF708FDDFF88C238621DFF88C0301F080
:1021E00046FC31BD10B504000120FFF7FBFCFF20C9
:1021F000CA4909684874C9480068407C10F08F00DB
:10220000C649096848740020C54908700120C449BE
:10221000C870C548C07A00281FD0C348007BBF499A
:10222000096881F82400BD480068407C10F0FD007A
:10223000BA4909684874B948006810F11C011C20AB
:1022400000F0D7FAC5480078C54951F8200001F0E0
:102250008FF80020B249887008E0B348006801F0A8
:1022600087F80020AD49096881F82400AE48807ADB
:10227000012820D1A9480068417C112000F0B0FA63
:10228000A648006890F82410242000F0A9FAA44A77
:10229000D2E90001FFF7D5FCFFF796FCA249C1F88F
:1022A0001700A148D0F8170080B201F0AEF906205F
:1022B000FFF798FC27E099480068C07B97490968B8
:1022C000487396480068417B0D2000F089FA9348D6
:1022D0000068417C112000F083FA9048006890F873
:1022E0002410242000F07CFA8D4AD2E90001FFF787
:1022F000A8FC20208C49C1F81700202001F085F9A6
:102300000520FFF76FFC0220914981F80001864803
:10231000C07A002803D00121042000F09FFA012197
:10232000012000F09BFA0121082000F097FA10BD6F
:1023300080B5012001F050FC002800F08A800120C7
:1023400001F05EFC042001F05BFC814890F8000184
:10235000072804D00B286AD00E281CD079E0002171
:10236000012000F07BFA0021042000F077FA082118
:10237000122000F035FA7D4801F02EFD0820744946
:1023800081F800010120FFF72DFC764A862176486E
:1023900001F06DFB5DE000211F2000F05FFA734843
:1023A00001F01AFD4021122000F01AFA5B48006883
:1023B00010F11201122000F01CFA58480068807CCD
:1023C000800620D52021122000F00AFAFFF787FCB2
:1023D000594AC2E90001FFF75AFC5649087000202B
:1023E000FFF783FD5448D0E90023614801F0CFFE98
:1023F000FFF71DFC40B201005E4801F0C8FE5E48D8
:1024000001F0C5FE12E0FFF76AFC4B4AC2E9000189
:10241000FFF73DFC474908704D4890F80501FFF76C
:1024200082FD504A8621504801F021FB11E0042131
:10243000122000F0D5F91021504802F070FA01285E
:1024400006D10121122000F0CBF90020FFF7CAFECF
:10245000FFE701BDCC1C002080B5022001F0BCFBD1
:10246000002802D0022001F0CBFB01BD80B5042082
:1024700001F0B2FB00282FD0042001F0C1FB274857
:10248000006810F11201122000F0B3F9234800682F
:10249000807C800720D50221122000F0A1F9FFF7EF
:1024A000B6FB234908701D48006810F11C011C2070
:1024B00000F09FF92948007818490968097F081831
:1024C00010F03F00322190FBF1F201FB1200244991
:1024D00051F8200000F04CFF01BD80B5082001F04C
:1024E0007BFB002817D0082001F08AFB0021082080
:1024F00000F0B4F91021122000F072F9144890F89D
:102500000001022803D10E20114981F800010120A9
:102510000F4981F8030101BD241E0020281E002060
:10252000F81D0020186F0008A80000202C1E0020B5
:1025300085010020401E0020F01D0020008F423346
:10254000008064C000A063C01B9E5E29CB10F13FD9
:102550002C1A0020CD1C00200000304086010020F5
:10256000CC6B00082C1B0020D4000020C01D0020D4
:10257000EC730008F87300080474000800100140B0
:10258000F8B504000D00160001212088002802D0B3
:102590005C2803D085E000215C202080C9B200299E
:1025A00001D1012082E0EDB2862DF4D130780728E8
:1025B00006D14FF4FA61DFF8880401F0EFFBEAE797
:1025C0003078082803D10020FFF70CFEE3E73078CD
:1025D0000E2806D14FF4FA61DFF8640401F0DEFB47
:1025E000D9E7307802283FD1DFF8580490F8FF008F
:1025F0000028D0D00020DFF84C1481F8FF00012023
:1026000002F0F6F9642002F013FADFF8380490F8CB
:10261000012192B2DFF82C14002001F0ABFEFFF78D
:102620000BFB02000B00DFF8200401F0B0FDFFF708
:10263000FEFA40B20100DFF8140401F0A8FD002703
:10264000DFF8000490F80101FFB2874208D2FFB220
:10265000DFF8F003395C7FA001F099FD7F1CEFE704
:102660007DA001F094FD96E7EDB2882D93D1DFF8BF
:10267000D00386428FD1FFF7ACFB072803D1DFF8E8
:10268000D00301F084FDFFF7A4FB0E2803D1DFF88F
:10269000C40301F07CFD00F0BDF90020FFF7A2FDAE
:1026A00079E700200100002020800320F2BD70B5F2
:1026B00004000D00160001212088002804D0E42821
:1026C0000BD0F62829D02EE0DFF88C13DFF88C032E
:1026D00001F064FB0021E4202080C9B2002906D06B
:1026E000EDB2882D03D1DFF87403864201D00120BA
:1026F0001EE0FFF76EFB072806D0FFF76AFB0E28E7
:1027000002D000F08DF9DFE7D54801F040FDD54853
:1027100001F0EEF90021F6202080C9B2002901D194
:10272000012005E0E5E700200100002020800320D3
:1027300070BD10B504000221CB4802F0EDF900286D
:10274000F9D0E4B2210089B2C74802F0E1F90121D1
:10275000C54802F0E1F90028F9D0C34802F0DAF9DF
:10276000C0B210BDF8B504000D0016004FF4805142
:10277000BE4802F0E4F854F08000C0B2FFF7D9FF81
:102780000027FFB2F6B2B74205D2FFB2785DFFF77D
:10279000D0FF7F1CF5E74FF48051B44802F0CCF82D
:1027A000F1BDF8B504000D0016004FF48051AF489C
:1027B00002F0C5F82000C0B2FFF7BBFF0027FFB250
:1027C000F6B2B74206D2FF20FFF7B3FFFFB278554B
:1027D0007F1CF4E74FF48051A44802F0ADF8F1BD3E
:1027E00013B50400012201A92000C0B2FFF7BAFF0F
:1027F00013BD38B504000D00012229002000C0B22D
:10280000FFF7CFFF31BD38B504000D002A00D2B26A
:1028100021000020FFF7A6FF31BD38B504000D00F0
:102820002A00D2B221000020FFF7BBFF31BD10B556
:102830000400E4B2012C06D100224FF400418C4880
:1028400002F080F805E001224FF40041884802F0D0
:1028500079F810BD257820000D0A000030B583B04E
:1028600004000D00009400208DF8040008208DF86D
:1028700005008DF8065000A801F06AF937BD80B553
:102880000121142002F024FA00211F20FFF7E6FFA7
:1028900001214FF4804002F02AFA0121012002F0C8
:1028A00008FA0021012002F031FA03208DF802001D
:1028B0004FF40040ADF8000010208DF8030000A98F
:1028C0006B4801F091FF4FF40050ADF80000032079
:1028D0008DF8020018208DF8030000A9634801F06C
:1028E00083FF4FF40040ADF8000000A95F4801F0FD
:1028F0007BFF4FF48040ADF8000004208DF803000A
:1029000000A95A4801F070FF4FF48050ADF8000064
:1029100010208DF8030000A9544801F065FF0F2036
:10292000ADF8000003208DF8020028208DF8030088
:1029300000A9504801F058FF03208DF802004FF421
:102940008050ADF8000010208DF8030000A9484821
:1029500001F04AFF0121012002F0BAF901BD80B562
:102960000121012002F0B4F9012001F049F902200F
:1029700001F046F9042001F043F9082001F040F984
:102980000021022001F0E7FF0121022001F0E3FF16
:102990000221022001F0DFFF0321022001F0DBFF12
:1029A00000211F20FFF75AFF01BD00B585B04FF48D
:1029B00080512E4801F0C0FF00212B4802F09AF808
:1029C000294802F045F80020ADF800004FF482706D
:1029D000ADF802000020ADF804000020ADF80600BC
:1029E0000020ADF808004FF40070ADF80A00102088
:1029F000ADF80C000020ADF80E000720ADF8100077
:102A000000A9194802F050F80121174802F072F8A5
:102A100005B000BD80B5FFF732FFFFF7C6FF01BD6F
:102A200080B5074801F0D8F9FFF7F4FFFFF797FFEB
:102A30000120FEF7FBFF104801F0A9FB01BD0000DB
:102A4000C01D00202C1A002098730008A4730008F1
:102A50007072000880720008C0270900D01D002095
:102A6000B0730008E400002000380040000C014072
:102A70000008014000100140BC730008BBF1C8A170
:102A8000CFB5CDB3CAB1BCE420253032642D25309A
:102A900032642D2530326420253032643A253032BC
:102AA000643A253032642025642025640D0A000034
:102AB0002DE9FF4D8AB0DDE90C01CDE904010B9849
:102AC000C0F30A5040F2FF7188420AD10020ADF8ED
:102AD00000000B98000305BF0A9800280225012575
:102AE00016E0012809DA0AA8FEF7FDFA012804DB3E
:102AF0000020ADF8000000250AE00B9A40F2FE31FC
:102B000061F31E52401A0B92ADF800004FF0FF35F2
:102B1000002104A802F084F90646169810B116990F
:102B20000020088036B9DDE90C230020002102F0E6
:102B3000B7F912D0002D12D5BDF90040012C13D1E8
:102B4000DDE90A230020CB4902F0AAF905D0012EC5
:102B50000AD1C94902F0A4F92ED1C849BCE1022D1D
:102B600004D1DDE90A01B7E1012E5ADB022E08BFCC
:102B7000DDE90C0100F0B081012D1BD10B9800287C
:102B80000D9802D4002849D533E0002809D4002E3E
:102B900044D14FF0FF3104A802F042F900283DD59E
:102BA00039E036BB4FF0FF3104A802F039F90028B4
:102BB0001FD51AE0012E0AD10D98BDF9004000285A
:102BC00002D4012C2ADA14E0012C12DA26E00D9846
:102BD000002811D46EB94FF0FF3104A802F020F99B
:102BE000002844BF0B98002803D500204FF0004177
:102BF00072E1002000216FE102F062F92221016000
:102C000066B94FF0FF3104A802F00AF9002844BF6A
:102C10000B98002802D5002099495DE100209949D0
:102C20005AE10B98002848BF002E08D502F048F959
:102C3000212101604FF0FF306FF000414CE1DDE9F0
:102C40000A0100220023FEF787FA38BFADF80420FE
:102C50000AD381F00041CDE90A014FF0FF3104A809
:102C600002F0DEF8ADF80400012C14D1DDE90A0110
:102C7000854A864BFEF758FA0DD2DDE90A23002675
:102C80004FF000087D4F30464FF08041FEF706FCC4
:102C9000CDE90A011BE0DDE90A23764D7C490020DD
:102CA000FEF7FCFB00222B46FEF72EFEFEF7F2FAA3
:102CB000A0F120084046FEF719FB0022754BFEF7F5
:102CC000EDFB00222B46FEF71FFE06460F460FF2D5
:102CD000202000EB481006903246DDE90A013B4611
:102CE000FEF71CFB82468B46DDE90A0132463B4675
:102CF000FEF70AFE02460B4650465946FEF7A0FC78
:102D0000CDE90801DDE90823FEF7C8FBCDE90AABF0
:102D100004460D4602F0DAF822462B46FEF7BEFBCB
:102D2000DDE90A23FEF7FAFA04460D46002053496E
:102D300032463B46FEF7F2FA00224FF08043FEF7A0
:102D4000ADFB22462B46FEF7DFFDDDE90823FEF74B
:102D5000A5FB02460B46DDE90A01FEF7D5FD044658
:102D60000D464D4A4D4BFEF76BFCCDE90401BDF914
:102D70000000FEF7BBFA069A82468B46D2E90001B4
:102D800052465B46FEF7C0FDDDE90423FEF7BCFDBD
:102D9000CDE90401DDE90C23FEF780FBCDE902015A
:102DA00000223F4BFEF7C0F9C0F07E8001223D4B70
:102DB000FEF7D2F97CD900220023FEF7B5F9DDE950
:102DC000022339BF00202C4900202A49FEF79CFD30
:102DD000FEF760FA0646DDE90C0122462B46FEF7B7
:102DE0005DFBCDE90201069A2B4C2C4DD2E9020184
:102DF0001746D7E90423FEF787FDDDE90C23FEF72C
:102E00004DFB22462B46FEF749FBDDE90223FEF788
:102E10007BFDCDE90201069F5246D7E900015B46E2
:102E2000FEF772FDDDE90C23FEF738FB07468B4603
:102E30003046FEF75BFA02460B4638465946FEF727
:102E40006DFA22462B46FEF729FBDDE90223FEF749
:102E50005BFDCDE90201169808B1068000260096B8
:102E60000022064B02A802F087F8E8B101281FD023
:102E70002AE000BF0000E03F0000E0BF0000F03F9C
:102E80000000F0FF0000F07FCD3B7F669EA0E63F94
:102E9000000050400000903FEF39FAFE422EE63F1E
:102EA0000000E0C00000E0400020CDE9020007E0A3
:102EB0000020014902E000BF0000F07FCDE90201DF
:102EC00001F0FEFF22210160BDF904000028DDE9C8
:102ED000020118BF81F000410EB0BDE8F08D10B5C1
:102EE00082B000240094FFF7E3FD1CBD0000000049
:102EF000000000000000F0BF0000000000000080A3
:102F00000000000000000080000000000000000041
:102F1000000000C05294EEBF00000048204E51BE99
:102F2000000000F86467BCBC000000000000000066
:102F3000000000208133EDBF00000080B3DB14BE31
:102F4000000000506706A3BC000000000000000065
:102F5000000000D0E9DCEBBF00000008C39259BEBE
:102F600000000080B0D3B8BC0000000000000000EA
:102F700000000070F98FEABF000000C0A51028BE55
:102F8000000000E8BFC0B0BC00000000000000006E
:102F900000000070284CE9BF00000060134B42BEE7
:102FA000000000C03D20B8BC000000000000000090
:102FB00000000050FA10E8BF000000C05FF62BBE12
:102FC000000000905C71A7BC000000000000000041
:102FD00000000020FCDDE6BF000000C0F8F154BE98
:102FE00000000018E9F6B9BC000000000000000075
:102FF000000000D0C3B2E5BF00000070E43254BE50
:1030000000000050DB06B4BC00000000000000001F
:1030100000000010EF8EE4BF00000020F36252BEFB
:10302000000000C02A879ABC0000000000000000D9
:10303000000000B02272E3BF000000F0E8E056BEDE
:1030400000000028352DBDBC00000000000000007D
:10305000000000000A5CE2BF000000B0FA8E41BE32
:1030600000000040AE6FBDBC00000000000000008A
:1030700000000000564CE1BF000000F015CD5FBE1F
:1030800000000000141C90BC0000000000000000C4
:1030900000000040BD42E0BF00000030F93457BEE0
:1030A000000000E06C1E93BC000000000000000067
:1030B000000000E0F57DDEBF000000B08A535EBE78
:1030C00000000080DA77AABC0000000000000000C9
:1030D000000000C09D81DCBF00000000FFA226BEF2
:1030E0000000006057E2B0BC0000000000000000DB
:1030F00000000060F98FDABF000000580A8151BE5D
:10310000000000F05F60B8BC00000000000000009C
:103110000000000098A8D8BF000000607A7F45BE7C
:10312000000000D05433A3BC0000000000000000E9
:10313000000000600FCBD6BF000000D091CB40BE96
:10314000000000406D1BA0BC00000000000000005B
:10315000000000A0FBF6D4BF00000098C5CE52BE10
:10316000000000003A397EBC0000000000000000B2
:10317000000000E0FE2BD3BF0000004073872BBE91
:1031800000000000926879BC000000000000000010
:1031900000000040C069D1BF00000058F16353BE79
:1031A00000000080438D7CBC000000000000000097
:1031B00000000080D85FCFBF000000181F8354BEFE
:1031C000000000B03F42A2BC000000000000000070
:1031D0000000008067FCCBBF00000060FAFF53BE18
:1031E00000000050E00DB8BC00000000000000002E
:1031F0000000000098A8C8BF000000607A7F35BEBC
:10320000000000C0543393BC000000000000000028
:1032100000000000DC63C5BF00000058D6FF54BEAC
:1032200000000000396490BC0000000000000000B5
:10323000000000C0AD2DC2BF00000080A45915BE23
:10324000000000E0484BABBC0000000000000000A4
:10325000000000801A0BBEBF00000050BF3C5ABEE9
:10326000000000A0B364B6BC000000000000000035
:103270000000008004D6B7BF00000040BBCF36BEC0
:103280000000008076CEA8BC000000000000000016
:103290000000008032BBB1BF000000402A0043BEE6
:1032A00000000028C60CBDBC0000000000000000AB
:1032B000000000009473A7BF000000182B3B59BE0C
:1032C000000000C0E55DA5BC00000000000000009B
:1032D00000000000EE4397BF000000A0E6C340BE20
:1032E00000000020958DB5BC00000000000000002B
:1032F00000000000000000800000000000000080CE
:10330000000000000000008000000000000000003D
:1033100040F2FF7C1CEA115240F2FE33D21ACCBFBD
:10332000D2F1350316E0B2F1150309DA6FEA4C5316
:10333000D340094201D4401E5941002099437047AF
:103340006FF00002DA40094202D4801851F1000106
:1033500090437047352A09DA50EA41031CBF40F216
:10336000FF31090528BF4FF00041002070470000E1
:1033700010B50400DFF8680404602000FDF7C0FF0A
:103380000022DFF86034FEF75BF9FDF799FF0400D7
:10339000200CDFF8541409688871200ADFF84814FB
:1033A0000968C871DFF84004006804720322DFF87E
:1033B00038040068811D0620FFF7D4F910BD10B550
:1033C0000400DFF82404006810F109010920FFF768
:1033D00010FADFF81404006810F14C014D20FFF7DB
:1033E00008FADFF804040068407A000648D5DFF8E0
:1033F000F803006890F84C0010F0870087281FD170
:1034000064B2052C01DA0520040064B2152C01DB3E
:1034100014200400DFF8D0030068407A50F07000F8
:10342000DFF8C41309684872601FDFF8BC1309682D
:10343000497A60F30301DFF8B0030068417240E0AD
:1034400064B2022C01DA0220040064B2122C01DB07
:1034500011200400DFF890030068407A50F07000FB
:10346000DFF8841309684872A01EDFF87C1309682E
:10347000497A60F30301DFF870030068417220E0CD
:1034800064B214F1010F02DA5FF0FF30040064B29D
:103490000F2C01DB0E200400DFF84C030068407A9B
:1034A00050F07000DFF8401309684872601CDFF8C4
:1034B00038130968497A60F30301DFF82C030068C8
:1034C0004172DFF824030068417A0920FFF788F988
:1034D000DFF80C03047110BD10B50400DFF8080319
:1034E000006810F11D011D20FFF783F9DFF8F802D5
:1034F0000068407F10F00F0050EA0410DFF8E81277
:1035000009684877DFF8E0020068417F1D20FFF777
:1035100067F9DFF8CC02447110BD10B50400E4B2C5
:103520000D2C02DB0C20040004E0E4B2062C01DACE
:1035300006200400E4B2062C03D1052000F034F983
:1035400002E0032000F030F9DFF89C02006810F17F
:103550001E011E20FFF74DF9DFF88C020068807F06
:1035600010F00F0050EA0410DFF87C120968887729
:10357000DFF874020068817F1E20FFF731F9DFF861
:103580006002847110BD10B50400DFF85C020068B1
:1035900010F11D011D20FFF72CF9DFF84C02006827
:1035A000407F10F0F10050EA4400DFF83C12096857
:1035B0004877DFF834020068417F1D20FFF710F9DB
:1035C000DFF81C02C47110BD10B50400DFF818024A
:1035D000006810F11E011E20FFF70BF9DFF808024A
:1035E0000068807F10F0FB0050EA8400DFF8F811DB
:1035F00009688877DFF8F0010068817F1E20FFF7F7
:10360000EFF8DFF8DC01047210BD10B504000222EF
:10361000DFF8D401006810F120012020FFF7C1F885
:10362000A4B2200ADFF8C011096881F82000DFF891
:10363000B801006880F821400222DFF8AC01006880
:1036400010F120012020FFF78DF810BD10B5040007
:10365000DFF89401006810F11D011D20FFF7C9F883
:10366000DFF884010068407F10F0FE0020435E49CF
:10367000096848775C480068417F1D20FFF7B0F873
:103680005748447210BD10B504005748006880F8D0
:1036900022405548006890F822102220FFF7A0F839
:1036A0004F48447510BD10B504004F48006810F134
:1036B0004C014D20FFF79DF84B48006810F10901BF
:1036C0000920FFF796F848480068407A000608D5B8
:1036D000E4B2012C0AD187204349096881F84C00E3
:1036E00004E084204049096881F84C003E480068A5
:1036F00090F84C104D20FFF773F810BD10B5040082
:103700003948006810F109010920FFF772F83648BE
:103710000068407A10F07F002043334909684872FE
:1037200031480068417A0920FFF75AF810BD10B5FA
:10373000040002222C48006810F11E011E20FFF731
:1037400030F8A4B2200A28490968897F60F3010192
:1037500025480068817724480068C47702222248FF
:10376000006810F11E011E20FEF7FCFF10BD10B511
:1037700004001D48006810F126012620FFF739F8E3
:103780001948006890F8260010F0F70050EAC400CD
:103790001549096881F826001348006890F826103A
:1037A0002620FFF71DF810BD10B504000E48006874
:1037B00010F130013120FFF71CF80B48006890F839
:1037C000300010F0F80020430749096881F8300004
:1037D0000548006890F830103120FFF701F810BD5F
:1037E000A800002080844E40281E002030B4030032
:1037F00018000C0015006A1EADB2002D04D025780B
:103800000570641C401CF5E730BC704730B40B00F9
:10381000040015006A1E002D04D01D7825705B1C65
:10382000641CF6E730BC704770B504000D00B94861
:1038300000680600A64203D0002E01D03668F9E7E2
:10384000A6420DD0B34800682060B2480460012051
:10385000A0730020A0812A008121200000F039F906
:1038600070BDF8B504000D00AB480768A9480068B2
:103870000600A64203D0002E01D03668F9E7002EDC
:103880003AD0200000F05CF900281CD00020A07382
:10389000A04800680600002E08D0B44204D02200E0
:1038A0008721300000F029F83668F4E7A068002886
:1038B00009D0AC4207D0984804600022832114F15B
:1038C0000C00A368984793480068844205D191484A
:1038D000006800688F4908600CE08E4800680600A8
:1038E000002E07D03068A04202D12068306001E08D
:1038F0003668F5E788480760F1BDF8B504000D00AB
:103900001600A07BC0071CD5A068002819D08248EB
:1039100004600220A07332002900C9B214F10C0027
:10392000A36898470700022F04D0032F02D0EDB2FE
:10393000832D04D121002000FFF793FF01E0012037
:10394000A073F1BD8A207249087000207349087085
:103950007349087000206F4908606F49086070471C
:1039600010B500206F4908706A4800680400002CF8
:103970000DD0E07B002808D00120A0730020E07368
:10398000002282212000FFF7B8FF2468EFE710BD76
:1039900080B563480078002859D0604800780C2131
:1039A000614A01FB00200078604908705B4800789C
:1039B0000C215D4A01FB002040685D4908605748C2
:1039C00000780C21584A01FB0020806859490860A2
:1039D00052480078401C202190FBF1F202FB1102BA
:1039E0004E4802704E480078401E4D4908705148BC
:1039F000006800281BD1474800684F4908604E48BE
:103A00000068002823D047480078002801D0FFF73D
:103A1000A7FF474802684548017847480068FFF714
:103A20006CFF45480068006843490860E7E73F4885
:103A30000078812803D101203E49096888733C48F9
:103A400002683A4801783B480068FFF756FF01BD1D
:103A500080B534480078002801D0FFF781FFFFF7D8
:103A600097FF2F4800782F490978081802BD30B415
:103A700003002B480078202801D1012027E02748A7
:103A80000078274C24782018C0B2202490FBF4F54D
:103A900005FB140529480570284800780C24224DA0
:103AA00004FB00500170254800780C241E4D04FBD7
:103AB00000504260214800780C241B4D04FB00504C
:103AC000836017480078401C154C2070002030BCE3
:103AD0007047F8B504000D0016000F480768320063
:103AE0002900C9B22000FFF708FF0B480760F1BDAD
:103AF00000280AD0817B012902D0817B022904D1D0
:103B00000121C1730121074A1170704700000000B4
:103B10003A1E0020101E0020141E00203C1E002013
:103B20003B1E00203D1E0020101600203E1E0020DF
:103B3000181E00201C1E0020201E00203F1E0020FA
:103B4000807B002801D0012000E00020C0B2704737
:103B500000212D4A11008279002A36D02A4A1268A3
:103B600003689A43284B1A60284A126803689A43EC
:103B7000264B1A60027951180A6803681A430A60D2
:103B8000234A126803689A43214B1A60214A12683B
:103B900003689A431F4B1A604279102A0CD11C4AC1
:103BA000126803681A431A4B1A601A4A12680368AB
:103BB0001A43184B1A600EE0134A1100427951184B
:103BC0000A6803681A430A6005E0027951180A6816
:103BD00003689A430A6070470100002000220A4BE4
:103BE0001B680B401A000C4B1B680B4204D0002AC8
:103BF00002D00123180001E000231800C0B2704772
:103C000005490860704700000004014004040140B9
:103C1000080401400C0401401404014070B58048C0
:103C20000068002803D100207E4908601DE001F0F3
:103C30001DFB05007A4800680600306871680818A6
:103C4000401B0400B668002E0CD03068716808185C
:103C5000401BA04204D2306871680818401B040061
:103C6000B668F0E760196F49086070BD2DE9F04152
:103C700004000D00160001212088002802D05928D8
:103C800006D05EE0002066490860002159202080AF
:103C9000C9B2002901D1012058E0EDB2872D24D10D
:103CA00030005F49096800290AD05D490968C96880
:103CB000814205D15A4909688968594A1160F0E77B
:103CC0005749096800290FD0554909680F00B9689C
:103CD000002909D0B968C968814203D1B9688968E7
:103CE000B960F4E7BF68F2E7CFE7EDB2822DCCD13F
:103CF000002080464A4800680700002FC5D03800E1
:103D000001F0C8FA002819D03A008821F868FFF7B6
:103D1000AEFE002810D10020F860B8F1000F03D0EB
:103D2000B868C8F8080002E0B8683D49086000209B
:103D3000B860FFF773FFDBE700F00AF8B846BF682A
:103D4000DBE700200100002020800320BDE8F08197
:103D500080B53548FFF7CCFE01BD38B50400FFF74C
:103D6000F7FFE06800280ED02D4800680500002D00
:103D700009D0A54205D12D480068E060FFF74EFF4D
:103D80000BE0AD68F3E729480068E060244800686C
:103D9000A06023480460FFF741FF31BD38B504003F
:103DA0000D002900200001F06DFA2000FFF7D5FF7B
:103DB00031BD1B480068002801D0012000E0002030
:103DC000C0B2704780B5FFF7F4FF002802D0154855
:103DD000006800E0002002BD38B50400104800680B
:103DE000844207D10E48006880680D490860FFF7DB
:103DF00015FF0FE00A4800680500002D04D0A868F0
:103E0000A04201D0AD68F8E7002D03D0A068A860FB
:103E1000FFF704FF0020A0600020E06031BD00003B
:103E2000041E0020081E0020C4000020141E0020D4
:103E3000DFF814090068704770B5040000250026FB
:103E40000420050000200600F6B2EDB2AE4280F07C
:103E50008680F6B254F836000078C0F3C200C0B2D3
:103E600002285AD1FFF7E4FFF6B254F83610D1F821
:103E70000110884271D3F6B254F83600007810F081
:103E8000C700F6B254F836100870F6B230000028B9
:103E900004D0022819D003282ED03DE0012000F0E4
:103EA000DCF8FFF7C5FF10F5C170DFF8A018C1F806
:103EB0000100DFF89C0801F0FDF9020092B2DFF882
:103EC0009018012000F056FA47E0002000F0C5F8F5
:103ED000FFF7AEFF10F5C170DFF87018C1F80100F0
:103EE000DFF8700801F0E6F9020092B2DFF864181A
:103EF000012000F03FFA30E0002000F083FD0020B8
:103F0000DFF854180880DFF85408007810F0C70074
:103F1000DFF84818087020E01FE0F6B254F83600C9
:103F20000078C0F3C200C0B2032816D1F6B254F82C
:103F30003600007810F0C700F6B254F8361008705A
:103F4000F6B23000012802D0032803D005E001F0CA
:103F5000C1F902E000F0ADFAFFE7761C74E770BD2E
:103F600080B500F021F8DFF8E407007810F0C70012
:103F7000DFF8D8170870DFF8E807007810F0C700FE
:103F8000DFF8DC170870DFF8DC07007810F0C700F6
:103F9000DFF8D0170870DFF8C407007810F0C7000A
:103FA000DFF8B817087001BD80B500208DF800005B
:103FB0004FF47A61DFF8B00701F0FEFC40F2E24115
:103FC000DFF8A80701F0F8FC0020DFF8A41708705C
:103FD0000020DFF89C17487000AB1022FA21DFF8B0
:103FE000880701F04AFCDFF88C1708609DF8000094
:103FF000002801D001F018FC9DF800000028EBD14A
:1040000001BD80B5FFF7ACFF002000F026F80120CD
:1040100000F023F801BD70B504000D001600012169
:104020002088002802D0CB280BD010E0DFF848070A
:10403000FFF75EFDDFF84407FFF7FEFE0021CB200F
:104040002080C9B2002901D1012005E0EEE700205F
:10405000010000202080032070BD10B586B0040050
:104060000121E4B2DFF8180750F82400E4B2DFF8C9
:10407000142752F82420104350F0010000F028FECD
:10408000E4B2002C08D10121E4B2DFF8FC0650F8BC
:10409000240000F02CFE07E00121E4B2DFF8E8067E
:1040A00050F8240000F023FE18208DF80300E4B23D
:1040B000DFF8D80630F81400ADF8000003208DF8C2
:1040C000020000A9E4B2DFF8C80650F8240000F0AE
:1040D0008BFB48208DF80300E4B2DFF8B80630F817
:1040E0001400ADF8000000A9E4B2DFF8AC0650F807
:1040F000240000F079FBE4B2DFF8A00650F82400B9
:1041000001904FF48050ADF808000020ADF80A008F
:104110004FF48060ADF80C000020ADF810000C20CA
:10412000ADF80E0001A9E4B2DFF8740650F82400DF
:1041300001F04CFC0121E4B2DFF8640650F82400E1
:1041400001F0B6FC0121E4B2DFF8580650F8240073
:1041500000F0AFFD2021E4B2DFF8440650F824005F
:1041600001F0EEFC012240F22551E4B2DFF8300606
:1041700050F8240001F0AAFC01228021E4B2DFF80B
:10418000200650F8240001F0CCFC06B010BD0EB49F
:104190002DE9F04FBAB00400002600275FF00008B8
:1041A0005FF000090DF11C0A00208DF800005FF09F
:1041B000000B43A805002B002200C82107A801F02E
:1041C000FDFC06003700B6B2002E00F0CC80B6B27F
:1041D000C92E80F0C880B6B20C20B6FBF0F100FB0F
:1041E0001160002806D0B6B20C20B6FBF0F0401CDF
:1041F000804604E0B6B20C20B6FBF0F0804600200A
:104200008146FFF715FE83465FFA89F95FFA88F861
:10421000C14578D2FFF70CFEB0EB0B00652872D2D7
:1042200001F0F6FC01A9DFF84C05006801F0AAFBDB
:104230008DF800009DF800000028E5D105980028C1
:10424000E2D000A9DFF82C05006801F061FB001D39
:10425000DFF81C1509780522DFF8143502FB01315F
:10426000C1F802009DF800000028CDD1B6B20D2E95
:104270001BD30C225146DFF8F80400780523DFF841
:10428000F0C403FB00C0D0F80200FFF7AFFA0C2027
:10429000DFF8DC1409780522DFF8D43402FB0131A1
:1042A00088710C3E1AF10C0A17E0320092B25146A6
:1042B000DFF8BC0400780523DFF8B4C403FB00C0BA
:1042C000D0F80200FFF792FADFF8A4040078052185
:1042D000DFF89C2401FB00208671FFF7A9FD8346CF
:1042E00019F10109DFF888040078401CDFF8801418
:1042F0000870DFF87C040078FA2885DB0020DFF8FE
:104300007014087080E7DFF844040078C0F3C2003E
:10431000C0B2022827D00220DFF83014097860F3F9
:10432000C501DFF828040170FFF782FD10F5C170A8
:10433000DFF81814C1F80100DFF8340440780521D3
:10434000DFF82C2401FB0020827992B2DFF82004F0
:1043500040780521DFF8183401FB0030D0F8021056
:10436000012000F007F8BFB238003AB0BDE8F00F06
:104370005DF810FBF0B58BB004000D001600B6B26E
:10438000002E00F08780E4B2DFF81C0430F814003F
:10439000B6B2B04205D2E4B2DFF80C0430F8140033
:1043A0000600E4B2DFF8040450F8240001F040FCF9
:1043B000E4B2DFF8FC0350F82400009001951020CF
:1043C0000290B6B203960020049080200590002051
:1043D000069000200790002008904FF4805009902C
:1043E00000200A9000A9E4B2DFF8C00350F82400CE
:1043F00001F0A3FC01220A21E4B2DFF8B00350F877
:10440000240001F0C7FC0121E4B2DFF8A00350F85A
:10441000240001F0B1FCE4B2002C1FD10220DFF82F
:104420004413097860F3C501DFF838030170FFF722
:10443000FFFC0700B6B23000FCF762FF5FF05532B8
:10444000DFF87033FDF72AF8FCF724FF80B2C019BB
:104450006430DFF81013C1F801001BE00220BB49F3
:10446000097860F3C501B9480170FFF7E1FC070066
:10447000B6B23000FCF744FFDFF83C23DFF83C33F2
:10448000FDF70CF8FCF706FF80B2C0196430AF49A5
:10449000C1F801000BB0F0BD020000200B00591E56
:1044A0009BB2002B03D013781818521CF6E7C0B249
:1044B000704700B583B001F0C4FC010000A801F012
:1044C0004BFD9DF805309DF804209DF80310BC4875
:1044D000FFF75DFEBB48FFF75AFE07BD80B5BA483F
:1044E00001F063FC00280BD0B74801F073FC9D4835
:1044F000007810F0C7009B490870012000F082FA94
:10450000B24801F052FC002802D0B04801F062FC31
:1045100001BD80B540F22551AD4801F017FB0028E0
:1045200072D08D480088FF2802DD00208A4908806B
:10453000A74801F001FB88490988A64A885402204F
:104540008649097860F3C50184480170FFF770FC63
:10455000C8308249C1F80100002000F049FA7E48C5
:104560000088002802D0032810D01FE07A48008875
:104570009849405C682803D000207749088004E00F
:1045800075480088401C744908803DE09148407897
:10459000904989784FF4807202FB01006E4948808F
:1045A0006D480088401C6C4908802DE06A480088EE
:1045B000401C6949088068480088674949888842E2
:1045C00022D1654800888349401810F8010C16284C
:1045D00017D161484088411F89B27F48FFF75CFFCF
:1045E0005D4909887B4A891811F8021CC0B28142D2
:1045F00007D103205949097860F3C5015748017074
:1046000002E000205449088001BD10B500245FF08D
:10461000007001F0CAFB00284DD05FF0007001F07F
:10462000D9FB4A48007810F0C70048490870504844
:10463000407805214E4A01FB0020D0F80200011FFE
:104640004C48006801F083F90400E4B2002C32D138
:1046500047484078401C4649487045484078FA2809
:1046600002DB0020424948704148407840490978BF
:10467000884220D002203549097860F3C5013348CB
:104680000170FFF7D5FB10F5C1703049C1F801008A
:10469000374840780521364A01FB0020827992B2E2
:1046A000334840780521324B01FB0030D0F802102E
:1046B0000120FFF75FFE5FF0006001F076FB00284D
:1046C00003D05FF0006001F085FB10BD80B540F2C3
:1046D0002551424801F03AFA002833D03F4801F012
:1046E0002BFA3F4909881E2902DB00213C4A118030
:1046F000C0B2082809D13A490988002922D038498E
:104700000988491E364A11801CE035490988354A16
:10471000885433490988491C314A1180C0B20D2898
:1047200002D0C0B20A280DD103210D4A127861F3DC
:10473000C5020B490A702A490988294A518000217B
:10474000274A118001BD0000241E002054010020D2
:10475000D8700008F0700008301E00206C010020A6
:104760005C010020640100206C0600208A0100200A
:10477000880100200C160020040100208800002081
:10478000447400084C7400083C740008DC74000891
:104790003C010020E074000844010020347400084B
:1047A0003401002054740008E47400084C01002017
:1047B0005C7400085555F23F1CC7711CC771B83FA7
:1047C000BC7100085C7000080000021000000810B6
:1047D000004C0040341B0020371B002000440040E8
:1047E000341E0020A01D0020F0B500270022002369
:1047F00000240025002691F803C01CF00F0C67462A
:1048000091F803C05FEACC6C03D591F802C05CEA72
:10481000070791F800C05FEA0C6C3AD0D0F800C0EE
:1048200065465FF0000C6346082B31D25FF0010C47
:104830001CFA03FC6446B1F800C014EA0C0C624692
:10484000A24223D15FEA830C64465FF00F0C1CFA8E
:1048500004FC6646B54317FA04FC5CEA050591F8CA
:1048600003C0BCF1280F06D15FF0010C1CFA03FC59
:10487000C0F814C00AE091F803C0BCF1480F05D19C
:104880005FF0010C1CFA03FCC0F810C05B1CCBE706
:104890000560B1F800C0BCF1FF0F3FDDD0F804C0E7
:1048A00065465FF0000C6346082B36D25FF0010CC2
:1048B00013F1080E1CFA0EFC6446B1F800C014EAAD
:1048C0000C0C6246A24226D15FEA830C64465FF07C
:1048D0000F0C1CFA04FC6646B54317FA04FC5CEAAC
:1048E000050591F803C0BCF1280F07D15FF0010C5A
:1048F00013F1080E1CFA0EFCC0F814C091F803C0A6
:10490000BCF1480F07D15FF0010C13F1080E1CFA3F
:104910000EFCC0F810C05B1CC6E74560F0BD02008D
:104920000020936889B20B4202D00123180001E0F5
:1049300000231800C0B2704789B20161704789B284
:1049400041617047D2B2002A02D089B2016101E010
:1049500089B24161704730B400220F2311F0030483
:10496000E4B2A400A3401A00C9B28B100E4C54F854
:1049700023309343C9B28C100B4D45F82430C9B293
:104980008B10094C54F82330C0B211F00304E4B288
:10499000A40010FA04F42343C9B28C10024D45F868
:1049A000243030BC704700000800014010B582B0D0
:1049B00004000121E4B2184850F8240000F088F9FE
:1049C000E4B2164830F81400ADF8000010208DF85D
:1049D000030002208DF8020000A9E4B2104850F84C
:1049E0002400FFF701FF2000C0B200F001F813BD62
:1049F000C0B20A4931F81010C0B2094A52F820205A
:104A000051617047C0B2054931F81010C0B2044A74
:104A100052F8202011617047200100202C01002055
:104A2000140100200148006870470000241E002087
:104A300038B504000025FFF7F5FF0500FFF7F2FF8A
:104A4000401BA4B2A04202D201F0E2F8F6E731BD69
:104A500010B50400244884420AD101214FF480504B
:104A600000F054F900214FF4805000F04FF91AE0A3
:104A70001E4884420AD101214FF4804000F055F9CC
:104A800000214FF4804000F050F90CE018488442B7
:104A900009D101214FF4004000F047F900214FF403
:104AA000004000F042F910BD10B4002203881A0043
:104AB00012F441520B884C8823438C882343CC88C2
:104AC00023430C8923434C8923438C892343CC897A
:104AD00023431A430280838B4FF2FF742340838366
:104AE0000B8A038210BC7047003001400038004040
:104AF000003C0040C9B2002904D0028852F04002B4
:104B0000028004E002884FF6BF731A4002807047AB
:104B100081817047808970470200002013890B4211
:104B200002D00123180001E000231800C0B2704732
:104B3000DFF8A012096831F48031DFF898221160A3
:104B4000DFF89012096831F48021DFF888221160C3
:104B50000100B1F5803F03D0B1F5802F09D011E0FD
:104B6000DFF87012096851F48031DFF868221160B3
:104B700008E0DFF86012096851F4A021DFF8542240
:104B80001160FFE77047C0B2DFF854120860704749
:104B90000021914A126811008908890001438E4A58
:104BA00011607047C9B2002905D08E4A12780243BD
:104BB0008C4B1A7004E08B4A12788243894B1A702E
:104BC0007047894909680143874A11607047C0B23C
:104BD00086490860704730B4002100220023002479
:104BE0007D4D2D6815F00C0529000D00002D04D019
:104BF000042D05D0082D06D026E07D4D056025E06A
:104C00007B4D056022E0744D2D6815F470152A0067
:104C1000714D2D6815F480352B00920C921C002BE1
:104C200004D1744D05FB02F505600CE06A4D2D685A
:104C3000AD0304D56F4D05FB02F5056003E06C4D37
:104C400005FB02F5056001E0694D0560624D2D68C8
:104C500015F0F00529000909674D4D5D2C00056828
:104C6000E54045605C4D2D6815F4E0652900090AB2
:104C7000614D4D5D2C004568E5408560564D2D68C1
:104C800015F460552900C90A5B4D4D5D2C0045683F
:104C9000E540C560504D2D6815F440452900890B4D
:104CA000564D4D5D2C00C568B5FBF4F5056130BC73
:104CB0007047C9B2002905D0514A12680243504BCF
:104CC0001A6004E04E4A126882434D4B1A607047E6
:104CD000C9B2002905D04B4A12680243494B1A60F9
:104CE00004E0484A12688243464B1A607047C9B2D2
:104CF000002905D0444A12680243434B1A6004E07D
:104D0000414A12688243404B1A607047C9B2002979
:104D100005D03E4A126802433C4B1A6004E03B4A0D
:104D200012688243394B1A607047C9B2002905D016
:104D3000374A12680243364B1A6004E0344A12685C
:104D40008243334B1A607047C0B2324908607047E3
:104D500010B40100002200230020C9B24C09E4B2C3
:104D60002200012A03D11B4C2468230008E0022AF8
:104D700003D11D4C2468230002E0274C2468230043
:104D8000C9B211F01F04220033FA02F4E40702D57D
:104D90000124200001E000242000C0B210BC7047B4
:104DA0001D48006850F080701B4908607047010082
:104DB00000200A4A1268C9B20A4202D00122100039
:104DC00001E000221000C0B270471449087070471B
:104DD00000000000001002400410024008100240D1
:104DE0006000424209100240201002403C0442424E
:104DF00000127A0000093D00F40000207801002034
:104E000014100240181002401C1002400C10024006
:104E1000101002404C004242241002400A1002408E
:104E20004268C2F30A5240F2FF739A4209D14168C4
:104E3000090304BF0068002801D101207047022047
:104E4000704743685B0004BF0368002B25D040F225
:104E500033439A1A521A012A1FDB352A06DB4168AE
:104E600001F0004141600021016013E0012102F0E6
:104E70001F039940491E920607D5426811404A40D7
:104E8000426002681143002202E0026811404A4079
:104E9000026011B14FF0FF307047002070470000F2
:104EA00090420CD141EA030C50EA4C0C07D09942D5
:104EB00005D14FF4001C1CEB410F38BF89427047ED
:104EC0000148FCF795BD00008001002038B504467C
:104ED0000D461B481B4922462B46FCF7DFFA1A4AAF
:104EE0001A4BFCF711FD22462B46FCF7D7FA184A5D
:104EF000184BFCF709FD22462B46FCF7CFFA164A61
:104F0000164BFCF701FD22462B46FCF7C7FA144A64
:104F1000144BFCF7F9FC22462B46FCF7BFFA124A69
:104F2000124BFCF7F1FC22462B46FCF7B7FA01B016
:104F3000BDE830400E4A0F4BFCF7E6BC0000000015
:104F4000F7DE29BFD8F8C23FF4B3FECC1A99C33FAD
:104F500062CB68D96F46C73FC6C912DAC471CC3F6D
:104F60004AE98A942449D23FF75F97999999D93FA2
:104F7000BC5555555555E53F2DE9F04D804684B05B
:104F8000D8E9000114461D4601F0F6F80746204610
:104F9000294601F0F1F80C9E390006D500284AD4C4
:104FA000022805D1C8E9004535E1022FF8D121E0FA
:104FB00050B9D8E900010022514BFFF771FF0FD023
:104FC000C8E90045002026E1012815D1D8E90001F3
:104FD00000224C4BFFF764FF18BFC8E900454FD1D2
:104FE000FFF76EFF212101604FF0FF306FF00041AD
:104FF000C8E9000102200EE17FB9C8E90045314649
:105000004046FCF7C1F8040018BF012C40F00281B3
:10501000FFF756FF22210160FCE0D8E900010022E1
:10502000374BFFF73DFF0FD120462946FCF736FAF4
:10503000C8E9000124E0D8E90001CDE9020100221D
:10504000314BFCF771F80AD2002320462946FCF7C1
:1050500025FAC8E9000104B00020BDE8F08D012266
:105060002A4BFCF779F80DD80022254B204629461B
:10507000FCF714FAC8E90001FFF722FF22210160C2
:105080000120C8E0224A234BFCF708FA0022002343
:10509000FCF74AF834BF204B464BFCF735FCFCF7D5
:1050A000F9F80746FCF722F982468B464FF0784222
:1050B0001A4BFCF7F3F902460B46DDE90201FCF757
:1050C0002DF9CDE90001164A164B50465946FCF71A
:1050D000E5F902460B46DDE90001FCF71FF96FF028
:1050E0000102114BFCF738F882468B4620D800228B
:1050F0000E4BFCF719F81BD2204629467CE000BF76
:105100000000F07F0000F0FF00C89CC000C89C4079
:10511000FE822B654715F73F0000E0BF422EE63FB9
:10512000F2E4D5BCE7E84B3EFFFF8FBC0000903CAB
:1051300052465B46FCF7B2F9CDE90001DDE90023F8
:105140001D481E49FCF7AAF91D4A1E4BFCF7DCFB63
:10515000DDE90023FCF7A2F9CDE90201DDE9002336
:1051600019481A49FCF79AF9194A1A4BFCF7CCFB73
:10517000DDE90023FCF792F90E4B0022FCF7C4FB9B
:1051800052465B46FCF78AF9DDE9022382468B46EC
:10519000FCF7BAFB0022104BFCF7B6FBCDE900018F
:1051A0005246DDE902015B46FCF7B8F800220A4BE3
:1051B00014E000BF0000E03F112E5781A03F503F98
:1051C0005843128C8F71BC3F4BE8A541B752013F49
:1051D0000BBDF3DAE8708C3F0000F03FFCF794FB66
:1051E00002460B46DDE90001FCF72AFA02460B46AF
:1051F00020462946FCF752F9C8E90001F11940465A
:10520000FBF7C2FF040018BF012C03D1FFF758FEC3
:1052100022210160204604B0BDE8F08D10B515488C
:105220000068401C1349086013480068401C12497C
:105230000860FEF7BEFD002807D00F480468FEF79F
:10524000C1FD844201D3FEF783FD0C480068401E77
:105250000A490860002808D109480068401C08492C
:1052600008604FF47A700549086010BD0248006874
:1052700070470000241E0020EC1D00207401002057
:10528000001E002038B504000D006560FFF7EEFF3A
:10529000206031BD10B50400FFF7E8FF2168401A17
:1052A000401C6168814201D2012000E00020C0B2B0
:1052B00010BD00000100002210000A00511C1278ED
:1052C000002A01D0401CF8E780B27047DFF82005C3
:1052D0000068704780B5DFF81C054088002805D0BD
:1052E00000F012F8B1A0FEF752FF03E0DFF8080566
:1052F000FEF74DFF1E21DFF8040500F05DFB0020E6
:10530000DFF8F014488001BD2DE9F04383B000249C
:10531000002500265FF001085FF00009DFF8E004D7
:1053200000785FFA89F9814569D25FFA89F90C2022
:10533000DFF8D01400FB091000680700002005000A
:105340005FFA89F90C20DFF8BC1400FB0910006833
:1053500000780600F6B2002E0CD06D1CEDB25FFA9C
:1053600089F90C20DFF89C1400FB09100068285C08
:105370000600EFE7012080460020C0B2EDB2A8424F
:105380000CD2C0B2C15DC0B2DFF87024825C914221
:1053900002D00020804601E0401CEEE7EDB2002D77
:1053A00001D1002080465FFA88F8B8F1000F23D0C1
:1053B000FFF78CFF04005FFA89F90C20DFF8441432
:1053C00000FB09104068804700F03BFD010000A889
:1053D00000F0C2FD9DF805309DF804209DF80310F3
:1053E000DFF82404FEF7D3FEFFF770FF011BDFF8A0
:1053F0001C04FEF7CCFE02E019F101098EE75FFA0A
:1054000088F8B8F1000F21D1DFF8F00300780D28FB
:1054100019D0DFF8E80300780A2814D000F011FD55
:10542000010000A800F098FD9DF805309DF80420CB
:105430009DF80310DFF8D003FEF7A9FEDFF8D003D4
:10544000FEF7A5FE02E05AA0FEF7A1FEBDE8F78335
:105450000100C9B2302906DBC9B23A2903DAB1F139
:105460003000C0B214E0C9B2612906DBC9B26729B5
:1054700003DAB1F15700C0B20AE0C9B2412906DB34
:10548000C9B2472903DAB1F13700C0B200E0002009
:1054900070472DE9F04704000D0000260027DFF8D3
:1054A00054034088BFB287427CD2BFB2DFF84C03BE
:1054B000385C202874D1761CF6B2EDB2AE426FD1C2
:1054C000BFB2DFF838033818807820280DD0BFB27B
:1054D000DFF82803381880780D2806D0BFB2DFF82F
:1054E0001C03381880780A2808D1BFB2DFF80C03F3
:1054F00038184078FFF7ACFF207050E0BFB2DFF8FB
:10550000FC023818C07820280DD0BFB2DFF8EC02BA
:105510003818C0780D2806D0BFB2DFF8E00238187E
:10552000C0780A2817D1BFB2DFF8D0023818407807
:10553000FFF78EFF81460A2000FB09F9BFB2DFF8B2
:10554000BC0238188078FFF783FF804619EB080803
:1055500084F8008023E0BFB2DFF8A002381840785A
:10556000FFF776FF8046642000FB08F8BFB2DFF843
:105570008C0238188078FFF76BFF81460A2000FB09
:1055800009F9BFB2DFF874023818C078FFF760FF7E
:10559000824619EB080010EB0A0A84F800A003E029
:1055A0007F1C7CE700202070BDE8F087433E0000B0
:1055B0000D0A00007047704770477047704770478A
:1055C0007047704770477047704770477047704723
:1055D000704770477047704700B585B00A208DF856
:1055E0000A0001208DF8090001208DF80800002034
:1055F0008DF80D0000208DF80C0000208DF80B00B8
:1056000001210DF10A00FFF744FF02210DF109000D
:10561000FFF73FFF032102A8FFF73BFF04210DF135
:105620000D00FFF736FF052103A8FFF732FF062123
:105630000DF10B00FFF72DFF9DF80A00002803D0A5
:105640009DF80A00642802DB0A208DF80A009DF804
:105650000900002803D09DF809000D2802DB012075
:105660008DF809009DF80800002803D09DF8080077
:10567000202802DB01208DF808009DF80D00182875
:1056800002DB00208DF80D009DF80C003C2802DBA9
:1056900000208DF80C009DF80B003C2802DB002058
:1056A0008DF80B009DF80B0001909DF80C00009008
:1056B0009DF80D309DF808209DF809109DF80A000E
:1056C00000F0C8FC05B000BD80B500F028FD01BDAC
:1056D00070477047704770477047704700B583B098
:1056E0000C2000F071FD4B49088000F0AAFB01007E
:1056F00000A800F031FC9DF805309DF804209DF8CD
:1057000003104148FEF743FD424801884248FEF736
:105710003EFD07BD1CB50020040039480078E4B206
:1057200084421FD200F08DFB010000A800F014FCA1
:105730009DF805309DF804209DF803103248FEF7CF
:1057400026FDE4B20C202F4900FB04108268E4B26D
:105750000C202C4900FB041001683048FEF717FDAF
:10576000641CDAE713BD10B582B000208DF801008B
:1057700000208DF8000001210DF10100FFF789FEE6
:10578000022100A8FFF785FE9DF801409DF800006A
:10579000E4B2A0421AD3E4B20A2094FBF0F100FB79
:1057A0001140002805D1E4B2002C02D00FA0FEF772
:1057B000EEFC0DF102012000C0B2FDF71AF89DF8D1
:1057C00002101748FEF7E3FC641CDFE707A0FEF7B2
:1057D000DEFC13BD80B5012100A8FFF75AFE9DF83D
:1057E00000101048FCF73BFC01BD00000D0A000052
:1057F000241E0020341E002024700008A01D00205C
:1058000084010020606500081C71000840720008D7
:1058100030710008381E0020C07000085072000867
:105820002C740008341C002080B500F001F801BD84
:1058300038B56421344800F0BFF800200500ADB24F
:10584000042D0ED2ADB214202F4900FB0510040028
:10585000ADB214202C4900FB0510143060606D1CA3
:10586000EDE7ADB21420284900FB0510040000202C
:10587000606025482549086031BD2DE9F04F83B0AF
:1058800004000D0016001F005FF0000A00F0ACFCE1
:1058900082461E48006880461C480068002804D0E4
:1058A0001A480068406819490860504600F0A0FC9A
:1058B000B8F1000F03D15A203870002022E0009484
:1058C000A346681E0190002081460198814509D2B7
:1058D00016EB0B0B0098C0F800B0CDF800B019F132
:1058E0000109F2E7002000990860C8F80040C8F8F4
:1058F0000440C8F81050C8F80C50C8F808600020E0
:1059000038704046BDE8FE8F3C1D00200C1E002074
:10591000F8B504000D00002700F066FC07002069C0
:1059200000280DD060680600306860602069401E65
:105930002061380000F05CFC00202870300005E099
:10594000380000F055FC5D2028700020F2BD70B5D5
:1059500004000D00002600F047FC06002069E16805
:10596000884204D3300000F043FC5E2009E0606808
:10597000286065602069401C2061300000F038FC20
:10598000002070BD70B504000D00002600F02CFC56
:1059900006002068286060686860A068A860E06809
:1059A000E86020692861300000F022FCE86829697D
:1059B000401A6861002070BD89B2002904D000221D
:1059C0000270401C491EF7E7704700002DE9F047C0
:1059D00086B004000D00002600275FF000085FF08D
:1059E00000095FF0000AA8890028A246208A060064
:1059F0004CF6FF700640E88806432682A089060020
:105A00004EF6F3100640A88829890843698908439F
:105A10000643A681A08A06004FF6FF400640A889EB
:105A20000643A68200A8FFF7D6F82048824502D197
:105A30000398070001E002980700A089000408D538
:105A4000192000FB07F029684900B0FBF1F08046FF
:105A500007E0192000FB07F029688900B0FBF1F08E
:105A600080466420B8FBF0F0000106003009642194
:105A700001FB10808146A089000409D55FEAC900B6
:105A800032306421B0FBF1F010F00700064308E06B
:105A90005FEA091032306421B0FBF1F010F00F0022
:105AA0000643268106B0BDE8F087000000380140BB
:105AB000C9B2002904D0828952F40052828104E0E4
:105AC00082894DF6FF731A4082817047F0B400233B
:105AD00000240025002689B240F66A17B942060064
