:020000040800F2
:10000000402E00207D730008D96D0008056E0008A1
:100010005D6E00085F6E0008616E00080000000061
:10002000000000000000000000000000636E0008F7
:10003000656E000800000000676E00086D52000841
:100040009D750008A1750008A5750008A975000830
:10005000AD750008E56200084D2300086B24000818
:100060007F240008ED240008B1750008B57500086C
:10007000B9750008BD750008C1750008C575000890
:10008000C97500085B460008CD750008D1750008E9
:10009000D5750008D9750008DD750008E175000800
:1000A000E5750008E9750008ED750008F1750008B0
:1000B000F5750008F9750008FD750008017600085F
:1000C00005760008097600080D760008117600080C
:1000D00015760008197600081D4700081D760008EF
:1000E0002176000825760008297600082D7600087C
:1000F0003176000835760008397600083D7600082C
:100100004176000845760008B56D0008497600087C
:10011000634500084D7600085176000855760008C2
:10012000597600085D760008617600082D450008C4
:100130002DE9F04FA1B0824602AE002017461D46C1
:10014000029170620DF144080AE017F8011B029851
:10015000D0470290002800F0DA82706A401C70627A
:10016000387808B9706AD4E22528EED10020F06012
:1001700030617061B061F061306201E040F0010017
:1001800017F8011F2029F9D023290DD02B2904D0DD
:100190002D2906D030290AD00CE040F0020080B2B0
:1001A000EEE740F00400FAE740F00800F7E740F01F
:1001B0001000F4E72A290DD129680A1D2A60096870
:1001C000F162002904D5494240F00400F16280B296
:1001D0007F1C13E00021F1620BE0F16A6FF0004335
:1001E000994205D001EB810302EB43013039F16202
:1001F0007F1C3A78A2F130010A29EED339782E29F2
:1002000003D04FF0FF31B1621EE017F8011F2A2919
:1002100006D129680A1D2A607F1C0968B16213E0B3
:100220000021B1620BE0B16A6FF00043994205D042
:1002300001EB810302EB43013039B1627F1C3A7854
:10024000A2F130010A29EED330860FF63840397812
:1002500000F036FE08B117F8010B8DF83A009DF852
:100260003A00682802BF39786829622005D06C28D6
:1002700004BF38786C2803D171208DF83A007F1CB8
:1002800011A8B0603978B1F1250029D01C3800F0F0
:10029000C080001F022840F2BC80133800F0E480C8
:1002A000093800F0B680801E00F07781401E00F013
:1002B0002081401E022840F2AC80001F00F019810E
:1002C000401F7BD0401E00F0CF80401E22D0C01EB9
:1002D0000BD0801E00F0C880C01E00F0C58064E115
:1002E000F068411CF160252169E12868011D296041
:1002F0000068B26A7060002A02D500F0F9FD07E0DC
:10030000002100F011FE00281ABF7168401AB06A7F
:10031000306156E12868011D296000210068CDE99F
:1003200000014FF03C0E11A87060DDE9000111B929
:1003300008B9B26ACAB10206120FA0EB021230323B
:10034000AEF10103D2B29E463A2AA8BF2732000975
:1003500003F8082040EA0170090908BF002804D00A
:10036000726811AB73449A42E5D311A9714471606C
:10037000CEF13C00B16A3061884207DA081AB061F8
:100380004FF6EF71308E084030861AE1002940F1B7
:10039000188196F8301001F01401102940F01181F5
:1003A000F16AF268891AB269891AA1EB000EBEF1EE
:1003B000010FC0F20681C6F818E002E19DF83A008C
:1003C000622818D0682806D06A280BD06C2819D06B
:1003D000712807D016E02868011D29600068716A3D
:1003E0000180EEE02A68101D28601268706AC1174B
:1003F000C2E90001E5E02868011D29600068716A12
:100400000170DEE02868011D29600068716A0160E2
:10041000D7E02868C01D20F00700286000F108021E
:100420002A60D0E90023CDE90023002B04D5F06831
:10043000421CF2602D220DE0308E820704D5F06858
:10044000421CF2602B2205E0C00705D5F068421C73
:10045000F260202200F80820F06811AA801870606D
:1004600000A800F0DDF9ACE09DF83A006C2808BF68
:100470002A6811D0712808BF2A6802D02A686A2821
:100480000AD1D21D22F007022A60144604F10802A4
:100490002A60D4E9002303E0131D2B6000231268B7
:1004A000CDE90023682808BF92B207D0622808BFB0
:1004B000D2B203D0742818BF7A2802D10023CDE924
:1004C000002396F8300000075FD5DDE90023002BFC
:1004D00008BF002A59D041F02000782855D1F06893
:1004E000302200F80820401C421CF26000F808107E
:1004F0004BE09DF83A0062280CD0682810D06A289A
:100500001AD06C2823D0712816D074281FD07A28CE
:100510000CD01CE02868021D2A6090F900201AE027
:100520002868021D2A60B0F9002014E02868021D26
:100530002A60002302680FE02868C01D20F0070031
:10054000286000F108022A60D0E9002304E028684E
:10055000021D2A600268D317CDE90023002B04DABC
:10056000F068421CF2602D220DE0308E820704D527
:10057000F068421CF2602B2205E0C00705D5F06848
:10058000421CF260202200F80820F06811AA8018AE
:10059000706000A800F0C0F813E0F068411CF16042
:1005A00029680A1D2A60096809E0F068421CF260A7
:1005B000252200F8082021B1F068421CF26000F802
:1005C0000810F06AF168401AB169401A3169401A9E
:1005D000F169401A7169401A316AA0EB010996F875
:1005E00030007F1C400710D420208DF840000024EC
:1005F00009E0012310AA00A9504600F02CFC0028B5
:1006000040F08580641C4C45F3DBF4680DF1440B2D
:100610000AE01BF8011B0298D0470290002876D010
:10062000706A401C7062641E002CF2D130208DF87C
:1006300040004FF0000BB46909E0012310AA00A9A3
:10064000504600F008FC002861D10BF1010BA345D6
:10065000F3DB3469D6F804B00AE01BF8011B0298FA
:10066000D0470290002852D0706A401C7062641E0D
:10067000002CF2D130208DF840004FF0000BF469CF
:1006800009E0012310AA00A9504600F0E4FB00286D
:100690003DD10BF1010BA345F3DB3069716874693F
:1006A00000EB010B09E01BF8011B0298D0470290F8
:1006B00068B3706A401C7062641E002CF3D1302055
:1006C0008DF840004FF0000B346A08E0012310AAB7
:1006D00000A9504600F0BFFBC8B90BF1010BA345C0
:1006E000F4DB96F8300040077FF53AAD20208DF816
:1006F0004000002400E0641C4C45BFF631AD0123EE
:1007000010AA00A9504600F0A6FB0028F3D04FF035
:10071000FF3021B0BDE8F08F2DE9FA4E05460A46BC
:100720002F696F2A08BF082405D041F020007828DF
:1007300014BF0A241024D5E900013C2681468B46CB
:10074000642A18BF692A05D1002903DAD9F1000902
:100750006BEB4B0BBBF1000F08BFB9F1000F0CD1D5
:10076000286B50B9082C36D195F83800000732D5DF
:1007700030203B2687F83B002DE0E31748465946DA
:10078000224600F0FDFBA4FB0023A9EB020230325D
:10079000A6F1010AD2B256463A2A03DB9DF8003090
:1007A000513B9A180AF8072081465FEA010B08BFFF
:1007B000B9F1000F03D0E868F1198842DDD3082CA5
:1007C00009D195F83800000705D5F05D302802D032
:1007D000761E3020F055C6F13C00A861F119E960A1
:1007E000296B884208DA081A28624FF6EF71288FC1
:1007F00008402887BDE8F38E00290ED595F83810FB
:1008000001F01401102908D1696B6A69891A2A6AF2
:10081000891A081A0128A8BF2862BDE8F38E0000D3
:100820002DE9F04F07468FB08B46D7E90001CDE99F
:10083000020104AE4BF0200061280BD0386B002879
:1008400048BF062005D404BF4BF02000672801D123
:10085000012038637968C1F30A5040F2FF72904278
:100860001AD1080304BF3868002808D10320B861F2
:10087000ABF161001A2835D30FF21C6107E00320A9
:10088000B861ABF161001A2829D30FF20461F8684E
:10089000032200F0EDFBB6E1012816DA384600F03D
:1008A00022FC012811DB002400204BF020016129EB
:1008B0001FD1F968302201F8012B4A1CFA60BBF104
:1008C000610F0CBF782258220FE07A6840F2FE31A7
:1008D00061F31E52441A7A604FF0FF30E5E70FF2E1
:1008E000AC51D4E70FF2AC51D1E70A707969891C99
:1008F000796110B9002500247DE14BF020006128CA
:1009000040F09580386B00284CBF2125451CDDE95F
:1009100002012DB26E1CD7E900890022002300F0ED
:1009200003FC3ABF89F00040CDE90280CDE902899D
:10093000241F8DF810200DF1110A01E000F2070AC2
:10094000012E32DBDDE902010022002300F004FC6D
:100950002BD21C2102A800F017FCDDE9020100F0F7
:1009600099FCF61F8046012E09DB00F0BFFC024611
:100970000B46DDE9020100F0D1FCCDE902010AF2EB
:100980000700072105E008F00F0200F8012D4FEAEB
:100990002818B8F1010F01DB491EF4D5491E5CBFD0
:1009A000002200F8012DF9D5C8E70DF11100AAEBDE
:1009B00000010DF11106A942B8BF0D462DB2280065
:1009C0002ED4884206DA04A9411849780829A8BF1C
:1009D0000F2100DA002104AA821800E06D1E12F82F
:1009E0000139401E8B42F9D00F2904D104A94118C6
:1009F0004A78521C4A70002802D504AE6D1C241D92
:100A00002DB2681E0CD48119ABF13A030A7830324A
:100A1000D2B23A2AA8BF9A1801F80129401EF5D58A
:100A2000386B002840F1E780681E3863E3E0DDE9B9
:100A300002010022002300F077FB3CBF81F000415F
:100A4000CDE9020124B247F2975060434849DFF8EC
:100A500024A190FBF1F424B2C4F107050026012D76
:100A600019DBDDE90289E80707D5324653464046DF
:100A7000494600F013FD804689466D1030465146C8
:100A80003246534600F00AFD06468A46002DEAD15A
:100A9000CDE9028921E06D429046DFF8DC9012E05A
:100AA000E80707D5324653464046494600F0F6FC73
:100AB000804689466D10304651463246534600F016
:100AC000EDFC06468A46002DEAD1DDE902014246E8
:100AD0004B4600F0B5FDCDE902014BF02000662841
:100AE0000CBF04F10A000620396B4518142DA8BF6D
:100AF000132530208DF810000DF11106DFF87C90E1
:100B0000012D3DDBDDE9020100F0DAFB06F1080111
:100B100004220A23B0FBF3F303EB8306A0EB4600A9
:100B2000303001F8010D0A20B3FBF0F000EB800635
:100B3000A3EB4603303301F8013D521EE9D1083DD5
:100B400001F10806012DDBDBDDE9020100F0B8FB55
:100B500000F0D6FB02460B46DDE9020100F0DEFBA9
:100B600000224B4600F09AFCCDE90201CAE700BF23
:100B7000A0860100000024400000F03F84D7974188
:100B80000DF11100301A0DF1110602E0401E641E35
:100B9000761C31783029F9D04BF02001662902D13A
:100BA00024B2611C03E065290CBF012100213A6BCE
:100BB0008D182DB2A842B8BF05462DB229001AD40F
:100BC000814204DA885D3528A8BF392000DA302058
:100BD0008A19521E00E06D1E12F80139491E834227
:100BE000F9D0392802D1885D401C8855002902D5EA
:100BF000761E6D1C641C24B200942BB232465946FA
:100C0000384600F003F80FB0BDE8F08F2DE9F0474B
:100C100086B006468A4690461D4600F052FE406A5F
:100C2000376B90F80090012D02DA01250FF26C2845
:100C30004AF02000BDF93840662808BF641C12D075
:100C4000672875D114F1040F78DBBC4276DA96F888
:100C50003800641C000702D4BD42B8BF2F4624B23E
:100C60003F1B48BF0027F068B16924B2012C21DA8C
:100C700030234A1C0B54012F03DA96F83810090769
:100C800002D502F80090521CB261E742B8BF7C4224
:100C900024B26142E7197162AF42B8BF3D462DB23E
:100CA000F5612A46B3694146181800F0E1F9781B4E
:100CB000B062B9E00818A54216DA2A46414600F0AB
:100CC000D7F9B1696918B161601B7062012F03DA4D
:100CD00096F83800000705D5F06801F80090F06933
:100CE000401CF061B7629FE02246414600F0C0F927
:100CF000B06920182D1B012F03DA96F83810090768
:100D000003D5F16800F80190401C2DB2B061AF42EC
:100D1000B8BF3D46F3682DB22A4604EB0801C0185F
:100D200000F0A6F9B0692818B061781B70627BE00A
:100D3000BAF1610F14D14FF0700A16E0BD4204DA27
:100D400096F83810090758BF2F467F1E48BF002766
:100D5000BAF1670F14BF4FF0450A4FF0650A04E07F
:100D6000BAF1410F08BF4FF0500AB169F06818F8A6
:100D7000013B0B544A1C012F05DA96F8381009077D
:100D800058BFB26115D502F80090531CB361012F12
:100D90000FDB6D1E2DB2AF42B8BF3D462DB22A46C5
:100DA0004146181800F064F9B0692818B061781B42
:100DB0007062B069F16800EB0108200008F801AB2F
:100DC00003D42B2008F8010B03E02D2108F8011BA8
:100DD0006442002502AF08E00A2200A800F08AFD64
:100DE000019807F8010B6D1C009C21B20129F3DA70
:100DF000022D06DA4AF02000652804BF302008F8EA
:100E0000010B4DB9302008F8010B07E06D1E02A858
:100E1000285C303008F8010B012DF7DAB069F16871
:100E20004018A8EB0000F06196F8380000F01400BC
:100E300010280DD17069B1690818716A0818F16934
:100E40000818B16A0818716B8842BCBF081A306272
:100E500006B0BDE8F087F8B504460D4616461F46B5
:100E6000002004E0E86A401CE8627F1E002047B1D1
:100E700016F8011BA868A047A8600028F2D14FF01F
:100E8000FF30F2BD686A6C747A4C00006E616E00CF
:100E90004E414E00696E6600494E4600300050F8E3
:100EA000041B61B150F8042BD30744BFA9F101031F
:100EB0009A18002342F8043B091FFAD1EFE7704764
:100EC0000278C9B28A421AB11CBF10F8012FF9E7A3
:100ED00018BF002070478268521C8260426832B19D
:100EE0000268531C036011704168491E41607047DD
:100EF00000F10103810704D010F8011B89B18107BB
:100F0000FAD10268B2F10131914311F0803F04BF80
:100F100050F8042FF6E710F8011B11B110F8011B6F
:100F2000FBE7C01A70470000C9B2830706D0521E03
:100F300022D310F8013B9942F7D11FE0083A13D3AE
:100F400002F1040241EA012141EA014150F8043B67
:100F5000121F21BF4B40A3F1013C2CEA030C1CF0F3
:100F6000803FF3D0C9B2001F083210F8013B521E77
:100F700028BF91EA030FF8D818BF0120401E704720
:100F80001B4213D1094236D12AB18446B0FBF2F09C
:100F900002FB10C2704700F0B5BCFCD30022002356
:100FA00070470B000200002100207047904271EB57
:100FB000030CF6D370B5B1FA81F4B3FA83F52C1BA8
:100FC000A340C4F1200532FA05F63343A2405FF096
:100FD0000046E64002E05B085FEA3202841A71EBE9
:100FE000030524BF204629467641F4D302000B00B6
:100FF0003000002170BD012ACFD970B5140C20D06B
:10100000B1FA81F4B2FA82F5C4F120046419B4F1A2
:101010002006D6D3B2405FF00044F440002502E041
:1010200052085FEA3303C61A71EB020E24BF304642
:10103000714664416D41F3D302000B00200029008A
:1010400070BD0C46B1FBF2F102FB11452D0445EADF
:101050001045B5FBF2F402FB145580B240EA054599
:10106000B5FBF2F002FB105240EA044070BD0000F4
:1010700062B38B0708D0521E11F8013B00F8013B08
:1010800000F024808B07F6D1830740F0208000BF5A
:10109000103A07D330B4B1E83810103AA0E838104D
:1010A000F9D230BC530724BFB1E80810A0E80810FB
:1010B00044BF51F8043B40F8043BD20724BF31F849
:1010C000022B20F8022B44BF0B7803707047083ABC
:1010D00007D3B1E80810083A40F8043B40F804CBC5
:1010E000F7D25307E4E730B4436803F0004201212C
:1010F0001B031B0B436004BF0368002B08D10DE0EA
:101100000368DD0F45EA440444605B000360491E48
:101110004468E302F4D523031B0B436043681A437E
:101120004260084630BC70474FF4001C1CEB410F76
:1011300094BF1CEB430F09E041EA030C50EA4C0C4E
:1011400052EA0C0C03D2994208BF9042704714BF78
:101150008B428242704700004FF4001C1CEB410F91
:1011600094BF1CEB430F09E041EA030C50EA4C0C1E
:1011700052EA0C0C03D28B4208BF8242704714BF64
:10118000994290427047000070B504460D46606871
:10119000C0F30A5040F2FF71884207D16068000333
:1011A00004BF2068002817D0022070BD20B9204657
:1011B000FFF799FF012867DA012D0FDB40F2FF717D
:1011C000091A8D420AD36068002847BF00202F49C2
:1011D00000202F49C4E90001012070BD4142A9420D
:1011E000616806DA6FF31E51401941EA00506060F1
:1011F00041E0401E63680122451962F31F5305F167
:10120000350001F000416360352803D361600020A0
:10121000206070BD002215F11F0F04DA22682360E0
:10122000002020356060684213D0521E256892412C
:10123000C0F12003D2439D4045EAD272256866681A
:10124000C54006FA03F32B432360636823FA00F0DA
:101250006060606808436060B2F1004F03D80DD150
:101260002078C0070AD52068401C2060206828B973
:101270006068401C60604FF0FF3070BD606888425D
:1012800004BF20680028F6D1002070BD0000F0FFE8
:101290000000F07FF446400D40EAC120490006D22C
:1012A00000F014F8004248BF6FF00040604700F0C3
:1012B0000DF84FF0004188428CBF0846404260471D
:1012C000400D40EAC120490080F00D8040F0004010
:1012D000490DA1F58061491C05D4D1F11F0154BF0E
:1012E000C840C01770474FF000007047010040F140
:1012F0000980F446404200F005F851F00041604793
:10130000010000BF09D0B0FA80F18840C91CC1F5C6
:101310008461090501EBD0214005704770B44FF09E
:10132000004591EA030F44BF6B4000F0F7BA00BFDD
:10133000841A71EB030604D26E40001BB1411219EE
:1013400073414FF4001C1CEB410F34BF7CEB430690
:1013500084E00C0DA4EB1356362E7DDC012E43DC0D
:1013600045EAC32343EA525312BFD20292025B08FA
:10137000240545EAC12141EA5051D2EBC0209941F0
:1013800025D407D1B0FA80F610FA06F164D0002017
:10139000203608E0B1FA81F6B140C6F1200220FA09
:1013A00002F21143B0404FEAF474B4EB465434F007
:1013B00001064FEA74040AD8D6F50016760D04F03B
:1013C0000044F04061FA06F25040F1404840C00A43
:1013D00040EA415021F0004128BF5FEA500550F13A
:1013E000000044EBD12137E045EAC323DB0A45EA9C
:1013F000C121C90AB6F120050EDD42EA0242120CF3
:10140000C5F1200603FA06F6EB4042EA06056D42F6
:10141000984161F100010DE062FA06F5F240554095
:1014200063FA06FC82EA0C02F3405A406D42904196
:1014300061EB030111F4801F05D1641E620502D027
:101440006D004041494121F48011430875F100438A
:1014500050F1000041EB045170BC70471CEB410F90
:1014600015D223F0004352EA43060BD04FEA4C0C4E
:10147000BCEB410F04D80C0D661E342EB7DDEBE734
:10148000801A994150EA410608BF0021E4E708BFED
:101490001CEB430F28BF6FF00001DDE7B0B581EA18
:1014A000030C0CF0004C40F2FF7515EA11541DBFFF
:1014B00015EA1357AC42AF4239E0E41923EA455329
:1014C00043F48013C90241F0004141EA505EC70273
:1014D0001100A7FB020200284FF00000EEFB0120E4
:1014E0004FF00001E3FB072118BF42F00102401852
:1014F00000214941E3FB0E01A4F580640F0302D2F1
:1015000052004041494154F101046CDD470872F139
:10151000004250F1000051EB0451A1F580115CBF75
:1015200041EA0C01B0BD4CEA05510020B0BD05EA0E
:101530001357AC4214BFAF4241E050EA410E1CBF0A
:1015400052EA430E02E061460020B0BD24423C4412
:101550001BD15FEA070EF6D0090302BF0146002047
:10156000AEF1140EB1FA81F7AEEB070401FA07FEF3
:101570000C37C7F1200100FA07F7C8404EEA000E09
:1015800023EA455343F48013A2E733F00043B3FA50
:1015900083F704BFB2FA82FE77440B3FE41BB7F136
:1015A000200E2FBF02FA0EF3BB40C7F1200E22FA25
:1015B0000EFE38BF43EA0E03BA40641C82E750EACD
:1015C000410E14BF52EA430E6FF000014FF40017B2
:1015D00017EB430F8ABF194617EB410FB5E74CEAEB
:1015E00005510020B0BDD4F10104B4F120070FDA99
:1015F000C4F12007520828BF42F0010210FA07F593
:1016000001FA07F7E1BF2A43E0403843E1400FE029
:10161000352C98DCC7F1200452EA400220FA07F288
:1016200018BF42F0010231FA07F0A1400A4300213D
:1016300072F1004250F1000051EB0C01B0BD00000E
:10164000F0B540F2FF7581EA030C0CF0004C15EA8E
:1016500011541DBF15EA1357AC42AF42E5E0BC413F
:10166000C1F31301C3F31303801A994143F48013A8
:1016700004D2641E4000494180185941C90241EA20
:101680005051B1FBF3F603FB1611A2FB0675D7EB25
:10169000C020A94102D2761E80185941C90241EAF0
:1016A0005051B1FBF3FE03FB1E11A2FB0E75D7EBED
:1016B000C020A94103D2AEF1010E80185941890220
:1016C00041EA9051760546EA8E2EB1FBF3F603FB14
:1016D0001611A2FB0675D7EB8020A94102D2761E17
:1016E00080185941C90241EA50514EEA060EB1FB39
:1016F000F3F603FB1611A2FB0675D7EBC020A94138
:1017000002D2761E80185941C90241EA5051B1FBFC
:10171000F3F703FB1711A2FB0735D3EBC020A94158
:1017200067F100070CBF004247F0010766F3D527B9
:101730004FEA1E31B80814F5806412DDBD0775F15B
:10174000004250EB0E5051EB045111F5801F5CBF6D
:1017500041EA0C01F0BD4CF07F6141F0E041002016
:10176000F0BDBD076D0840EA0E5041F48011D4F180
:101770000104B4F120060ADAC4F120060200E040B8
:1017800001FA06F3E1401843B24015430EE0342C51
:1017900013DCC6F1200445EA40056D0820FA06F284
:1017A000154321FA06F0A1400D43002175F10042D6
:1017B00050F1000051EB0C01F0BD00205FEA0C017C
:1017C000F0BDCFB992185B41B3FA83F704BFB2FA08
:1017D00082F6BF190B3FB7F120062FBF02FA06F3BE
:1017E000BB40C7F1200622FA06F638BF3343BA40A1
:1017F0001CB1E419641E33E77F4231F00041B1FAB5
:1018000081F404BFB0FA80F6A4190B3CB4F12006B1
:101810002FBF00FA06F1A140C4F1200620FA06F617
:1018200038BF3143A0403C1B1AE7AC421ABF05EA5F
:101830001357AF4212E050EA41061CBF52EA43067A
:10184000BFE750EA4107304661461CBF41EA0551F7
:10185000F0BD52EA430C08BFC143F0BD00204FF475
:10186000001616EB410F98BF16EB430F08BF16EB9F
:10187000410F24BFC14305E016EB430F0CBF614687
:101880004CEA0551F0BD000080B5134800F0B0F8F7
:101890000FF24801016041608160C16001614161F6
:1018A00081610FF23C0242628162C1620163416365
:1018B0000FF2300282630FF23402C26301644164AA
:1018C00001BD10B5044800F093F80446206808B93B
:1018D000FFF7DAFF204610BD0000002000000000E6
:1018E0002E00000066616C736500000074727565FF
:1018F0000000000091FBF2F303FB1211C0E900317C
:10190000704700007047000070B44FF0004591EA46
:10191000030C44BF6B40FFF70BBD00BF841A71EB93
:10192000030603D2001BB141121973414FF4001C8E
:101930001CEB410F34BF7CEB430443E00C0DA4EBE4
:101940001356352E50DC45EAC323DB0A45EAC12194
:10195000C912B6F120050DDD63FA05F6EB4086EA03
:101960000305124218BF45F00105C01851F10001EE
:101970000CD213E062FA06F5F2405540F3415A40AA
:10198000B340F3405A408018594107D349085FEAF1
:1019900030005FEA350528BF45F0010501F58011EB
:1019A000420875F1004250F1000041EB045170BC57
:1019B0004FF4001C1CEB410F38BF70470020090D8D
:1019C000090570471CEB410F10D252EA43060BD0B9
:1019D000BCEB410F05D80C0DAB43661E342EB5DDB4
:1019E00002E0AB438018594170BC704770BC70472F
:1019F00070470000DFF8340B0068704710B5012015
:101A000000F053FFFFF7F6FF0400FFF7F3FFA11C00
:101A10008842FAD3002000F048FFFFF7EBFF0400F4
:101A2000FFF7E8FFA11D8842FAD310BD10B50400EE
:101A3000FFF7E4FFDFF81009DFF8F41A0860002070
:101A400000F0D0F8E4B2002C33D0DFF8E40A0068EC
:101A5000407850F08000DFF8D81A09684870DFF845
:101A6000D00A00684178012000F0F8FE012000F063
:101A7000B9F80020DFF8BC1A08700020DFF8B41AAB
:101A800048700020DFF8AC1A88700020DFF8A41A34
:101A9000C8700020DFF89C1A08710020DFF8941A43
:101AA0004871DFF8902AD2E9000100F0C9F800F08F
:101AB000A5F910BD2DE9F04395B006000F0000A870
:101AC000DFF8741A5022FFF7E3FAF6B200A810EB21
:101AD000C600D0E9002390469946FFB23800FFF7D0
:101AE0000FFC02000B0000205FF0804101F01FFAA4
:101AF00042464B46FFF7A4FD04000D0020002900DC
:101B000015B0BDE8F0832DE9F04F85B00600F6B2C0
:101B1000B01CADF80200DFF8240A90F80680DFF868
:101B20001C0A407A8DF80100DFF8100A807D8DF8DC
:101B30000000DFF8080A90F807905FFA89F919F1B8
:101B40000400FFF7D3FB82468B46BDF80200C000BD
:101B50005FFA88F8B0EB88002C309DF80110142251
:101B600002FB1100FFF7C2FB04000D005FFA88F8CA
:101B70009DF80000B8EB40008000FFF7B7FB0200C3
:101B80000B0020002900FFF75BFD01F0E9FB524646
:101B90005B46FFF783FCCDE90201DDE90201FFF7B7
:101BA0008FFB0700002F02D017F1080000E008208B
:101BB00005B0BDE8F08F80B5FF20FFF7A4FF32210C
:101BC000B0FBF1F0C0B202BDDFF8740900687047E5
:101BD00080B5DFF85C09006810F14101422000F097
:101BE00046FE01BD10B50400DFF8440900684078E6
:101BF00010F0F8002043DFF8381909684870DFF862
:101C0000300900684178012000F028FE10BD80B541
:101C1000DFF81C09006810F10C010C2000F027FE11
:101C2000DFF80C090068007BC0B2400902BDDFF894
:101C3000180990F900007047DFF810090078704724
:101C400003B581B09DF804009DF8051008439DF888
:101C5000061008439DF807100843DFF8D4180968F8
:101C600081F83F009DF808009DF809100843DFF84F
:101C7000C018096881F840000222DFF8B408006843
:101C800010F13F01402000F0A6FD07BD80B500A97E
:101C9000192000F0ECFD9DF80000000612D59DF81B
:101CA0000000C043401C801010F03F00DFF898187F
:101CB0000870DFF8940890F900004042DFF88818B7
:101CC000087006E09DF80000C0B28008DFF87818C0
:101CD0000870DFF8740890F9000002BD2DE9704328
:101CE000DFF84C08006810F11A011A2000F0BFFD5F
:101CF000DFF848080068DFF85818884233D2DFF868
:101D0000480890F90000002819D5DFF82408006879
:101D1000807EFFF7F5FA0022DFF83838FFF7F4FD90
:101D200004000D00DFF8200890F90000FFF7DEFA4C
:101D300022002B00FFF7E8FD8046894646E0DFF8E9
:101D4000F0070068807EFFF7DBFADFF81028DFF885
:101D50001038FFF7A3FB0022DFF8F837FFF7D4FDB8
:101D60008046894632E0DFF8E00790F9000000285D
:101D700019D5DFF8BC070068807EFFF7C1FA0022A2
:101D8000DFF8D437FFF7C0FD04000D00DFF8B80717
:101D900090F90000FFF7AAFA22002B00FFF7B4FD2C
:101DA0008046894612E0DFF888070068807EFFF7EA
:101DB000A7FADFF8A827DFF8A837FFF76FFB0022A4
:101DC000DFF89437FFF7A0FD804689464046494634
:101DD000FFF760FA0600300602D5F043461CFFE725
:101DE0003000C0B2BDE87083DFF8780790F80001DA
:101DF0007047DFF8701781F80001704780B5FFF772
:101E0000E7FE6F22DFF86017012000F003FD2020BD
:101E1000DFF81C1709680873DFF814070068017BF6
:101E20000C2000F01BFD0020FFF7DCFEDFF80C07A4
:101E3000006801F0C5FADFF80407807901F095FB2E
:101E4000DFF8F806C07901F0C6FBDFF8F006007A8B
:101E500001F0E2FBDFF8E406407901F065FBDFF812
:101E6000DC06407A01F01AFC40F2FF3001F087FCFA
:101E7000DFF8C806407D01F02EFCDFF8C006D0F880
:101E8000170080B201F0E9FBDFF8B0068179DFF8D6
:101E9000AC064079FFF70EFE0022DFF8D036FFF7E0
:101EA0005BF903D8012001F08AFC02E0002001F078
:101EB00086FC002001F04AFC002001F01CFCDFF849
:101EC0007C0690F9040001F0A2FAFFF774FEDFF837
:101ED0006C1608730120FFF78CFF002000F08DF9CD
:101EE00001BD38B504000D00EDB22A002100DFF875
:101EF000740601F0B3FCDFF86C0680F8025131BDC6
:101F000010B50400DFF83406807A012805D10320DB
:101F1000DFF8501681F8000106E00220DFF84416D1
:101F200081F8000100F08AF8DFF8380680F8FF40F9
:101F30000020DFF8301681F8030110BD10B5040051
:101F4000DFF8F805807A012836D1DFF8E40500686B
:101F5000C07BDFF8DC1509684873DFF8D40500683A
:101F6000417B0D2000F07AFCDFF8D005407A012893
:101F700009D1DFF8BC05006890F82200DFF8E4150D
:101F800081F801010FE0DFF8A805006810F11301E6
:101F9000132000F06CFCDFF898050068C07CDFF8C7
:101FA000C41581F80101DFF8BC0590F80111DFF8D4
:101FB000B40500F070FC3DE0DFF87405006810F136
:101FC0001001102000F053FCDFF87005407A012862
:101FD00009D1DFF85C05006890F82200DFF884156D
:101FE00081F801010FE0DFF84805006810F11301E6
:101FF000132000F03CFCDFF838050068C07CDFF8F7
:10200000641581F80101DFF828050068007CDFF81D
:10201000201509684873DFF818050068417B0D201A
:1020200000F01CFCDFF83C0590F80111DFF83405E6
:1020300000F031FC0120FFF763FF10BD80B50121E6
:10204000012000F045FC0121082000F041FCDFF8F0
:10205000EC04C07A00280CD0DFF814050078DFF813
:10206000141551F8200001F0ABF90121042000F013
:102070002FFC01BD38B504000D000120FFF7B2FDB3
:10208000FF20DFF8AC1409684874FF21122000F02B
:10209000E5FB00211F2000F01BFCDFF8A004C07A44
:1020A00000282ED0DFF888040068407C10F0F5008E
:1020B000DFF87C1409684874DFF88004007BDFF8DF
:1020C0007014096881F82400DFF86404006810F1D6
:1020D0001C011C2000F0CBFBDFF894040078DFF833
:1020E000941451F8200001F06BF90220FFF77AFDFB
:1020F0004020DFF8401408700020DFF838148870A2
:1021000018E0DFF83804006801F05AF9DFF820041D
:102110000068407C10F0F700DFF814140968487478
:102120000020DFF80C14096881F824004020DFF853
:1021300004140870DFF8F803006890F824102420D5
:1021400000F08CFBDFF8E8030068417C112000F010
:1021500085FBDFF8E023D2E90001FFF771FDDFF82E
:10216000D003006880F82250DFF8C403006890F8BC
:102170002210222000F072FB0020DFF8B41309685F
:102180008873DFF8AC030068817B0E2000F066FBEB
:10219000DFF89C030068807BDFF8941309684873BC
:1021A000DFF88C030068417B0D2000F057FB07200F
:1021B000FFF71FFE2900C9B22000FFF792FE290099
:1021C000C9B2DFF8A00300F05CFB0121012000F0A0
:1021D0007FFBDFF86803C07A002803D001210420C8
:1021E00000F076FB0320FFF7FDFCDFF88C2386214F
:1021F000DFF8880301F063FC31BD10B50400012055
:10220000FFF7F0FCFF20CA4909684874C848006815
:10221000407C10F08F00C649096848740020C54909
:1022200008700120C349C870C448C07A00281FD074
:10223000C248007BBE49096881F82400BC48006898
:10224000407C10F0FD00BA4909684874B84800683D
:1022500010F11C011C2000F00AFBC5480078C5499C
:1022600051F8200001F0ACF80020B249887008E075
:10227000B248006801F0A4F80020AD49096881F86F
:102280002400AE48807A012820D1A9480068417C0A
:10229000112000F0E3FAA648006890F824102420EA
:1022A00000F0DCFAA34AD2E90001FFF7C9FCFFF70E
:1022B0008BFCA249C1F81700A048D0F8170080B2E3
:1022C00001F0CBF90620FFF78DFC27E09848006865
:1022D000C07B97490968487395480068417B0D2089
:1022E00000F0BCFA92480068417C112000F0B6FA78
:1022F0008F48006890F82410242000F0AFFA8D4A2F
:10230000D2E90001FFF79CFC20208C49C1F817009E
:10231000202001F0A2F90520FFF764FC022091497A
:1023200081F800018548C07A002803D001210420EB
:1023300000F0CEFA0121012000F0CAFA01210820A4
:1023400000F0C6FA10BD0000CC1C002080B50120B2
:1023500001F06AFC002800F08780012001F078FC81
:10236000042001F075FC7F4890F80001072804D094
:102370000B2867D00E281CD076E00021012000F049
:10238000A7FA0021042000F0A3FA0821122000F08F
:1023900065FA7B4801F048FD0820724981F8000188
:1023A0000120FFF71FFC744A8621744801F087FB67
:1023B0005AE000211F2000F08BFA714801F034FD33
:1023C0004021122000F04AFA5948006810F1120129
:1023D000122000F04CFA56480068807C80061ED51A
:1023E0002021122000F03AFAFFF778FC57490870D4
:1023F000FFF74CFC544908700020FFF781FD53485B
:102400000178604801F0EBFEFFF711FC40B20100DB
:102410005D4801F0E4FE5D4801F0E1FE11E0FFF7E8
:102420005DFC4A490870FFF731FC474908704D4888
:1024300090F80501FFF782FD4F4A86214F4801F0D1
:102440003EFB11E00421122000F008FA1021504850
:1024500002F08DFA012806D10121122000F0FEF9C8
:102460000020FFF7CAFEFFE701BD80B5022001F0A2
:10247000DBFB002802D0022001F0EAFB01BD80B5A1
:10248000042001F0D1FB00282FD0042001F0E0FB54
:102490002748006810F11201122000F0E8F92448E2
:1024A0000068807C800720D50221122000F0D6F938
:1024B000FFF7ADFB234908701D48006810F11C01AF
:1024C0001C2000F0D4F92A48007819490968097FCE
:1024D000081810F03F00322190FBF1F201FB1200CE
:1024E000244951F8200000F06BFF01BD80B50820A1
:1024F00001F09AFB002817D0082001F0A9FB002169
:10250000082000F0E5F91021122000F0A7F9154885
:1025100090F80001022803D10E20124981F8000131
:102520000120104981F8030101BD00001C1E00209C
:10253000201E0020EC1D0020706F0008A800002065
:10254000241E0020860100203C1E00203D1E00208D
:10255000008F4233008064C000A063C01B9E5E29D0
:10256000CB10F13F2C1A0020CD1C00200000304081
:10257000870100201C6C00082C1B0020D4000020C8
:10258000C01D0020A0740008AC740008B8740008D6
:1025900000100140F8B504000D001600012120884C
:1025A000002802D05C2803D0B0E000215C2020800D
:1025B000C9B2002901D10120ADE0EDB2862DF4D1E0
:1025C0003078072806D14FF4FA61DFF8E80401F00B
:1025D0000DFCEAE73078082803D10020FFF70DFE54
:1025E000E3E730780E2806D14FF4FA61DFF8C4042F
:1025F00001F0FCFBD9E73078022868D1DFF8B80495
:1026000090F8FF000028D0D00020DFF8AC1481F84B
:10261000FF00DFF8A8040088401CDFF8A014088041
:10262000012002F00DFA642002F02AFADFF8880493
:1026300090F8012192B2DFF88014002001F0C2FE70
:10264000FFF7F5FA0700FFF7F7FA7FB23A00C0B2DA
:102650000100DFF86C0401F0C2FDDFF868040078C7
:1026600000280CD1DFF854040388DFF85C040288EA
:10267000DFF844040178DFF8540401F0B0FD0027CE
:10268000DFF8340490F80101FFB2874208D2FFB2AC
:10269000DFF82404395C6FA001F0A1FD7F1CEFE797
:1026A0006DA001F09CFDDFF81C04007800283FF4C9
:1026B0007CAFFFF7C1FADFF818140870DFF8F803F1
:1026C00090F80111DFF80804FFF7D4FC6DE7EDB2D4
:1026D000882D7FF46AAFDFF8DC0386427FF465AFB4
:1026E000FFF782FB072803D1DFF8E80301F077FD4D
:1026F000FFF77AFB0E2803D1DFF8DC0301F06FFD52
:1027000000F0C2F90020FFF778FD4EE7002001003D
:10271000002020800320F2BD70B504000D001600DB
:1027200001212088002805D0F2280CD0B0F5827F46
:102730002CD031E0DFF8A413DFF8A40301F056FB3E
:102740000021F2202080C9B2002906D0EDB2882DE8
:1027500003D1DFF88C03864201D0012021E0FFF78E
:1027600043FB072806D0FFF73FFB0E2802D000F0FE
:1027700091F9DFE7DFF86C0301F031FDDFF8680362
:1027800001F0DEF900214FF482702080C9B20029E7
:1027900001D1012005E0E2E70020010000202080B7
:1027A000032070BD10B504000221D04802F0DCF90E
:1027B0000028F9D0E4B2210089B2CC4802F0D0F967
:1027C0000121CA4802F0D0F90028F9D0C74802F028
:1027D000C9F9C0B210BDF8B504000D0016004FF4E1
:1027E0008051C34802F0D3F854F08000C0B2FFF724
:1027F000D9FF0027FFB2F6B2B74205D2FFB2785D2B
:10280000FFF7D0FF7F1CF5E74FF48051B84802F086
:10281000BBF8F1BDF8B504000D0016004FF480516F
:10282000B34802F0B4F82000C0B2FFF7BBFF0027A6
:10283000FFB2F6B2B74206D2FF20FFF7B3FFFFB2F6
:1028400078557F1CF4E74FF48051A94802F09CF8BA
:10285000F1BD0000257820000D0A000013B504002A
:10286000012201A92000C0B2FFF7B5FF13BD38B5A2
:1028700004000D00012229002000C0B2FFF7CAFFAA
:1028800031BD38B504000D002A00D2B2210000206D
:10289000FFF7A1FF31BD38B504000D002A00D2B208
:1028A00021000020FFF7B6FF31BD10B50400E4B2EF
:1028B000012C06D100224FF400418E4802F06AF844
:1028C00005E001224FF400418A4802F063F810BD90
:1028D00030B583B004000D00009400208DF8040092
:1028E00008208DF805008DF8065000A801F058F971
:1028F00037BD80B50121142002F012FA00211F20FB
:10290000FFF7E6FF01214FF4804002F018FA0121A1
:10291000012002F0F6F90021012002F01FFA032045
:102920008DF802004FF40040ADF8000010208DF843
:10293000030000A96F4801F07FFF4FF40050ADF88D
:10294000000003208DF8020018208DF8030000A974
:10295000674801F071FF4FF40040ADF8000000A996
:10296000634801F069FF4FF48040ADF80000042097
:102970008DF8030000A95E4801F05EFF4FF480501F
:10298000ADF8000010208DF8030000A9584801F0B0
:1029900053FF0F20ADF8000003208DF8020028201F
:1029A0008DF8030000A9544801F046FF03208DF87C
:1029B00002004FF48050ADF8000010208DF80300A5
:1029C00000A94C4801F038FF0121012002F0A8F9CC
:1029D00001BD80B50121012002F0A2F9012001F022
:1029E00037F9022001F034F9042001F031F9082010
:1029F00001F02EF90021022001F0D5FF0121022073
:102A000001F0D1FF0221022001F0CDFF03210220BD
:102A100001F0C9FF00211F20FFF75AFF01BD00B5DB
:102A200085B04FF48051324801F0AEFF00212F48AD
:102A300002F088F82D4802F033F80020ADF80000CD
:102A40004FF48270ADF802000020ADF804000020C1
:102A5000ADF806000020ADF808004FF40070ADF8A6
:102A60000A001020ADF80C000020ADF80E00072081
:102A7000ADF8100000A91D4802F03EF801211B48E6
:102A800002F060F805B000BD80B5FFF732FFFFF738
:102A9000C6FF01BD80B5074801F0C6F9FFF7F4FF96
:102AA000FFF797FF0120FEF7C1FF144801F097FBE5
:102AB00001BD0000C01D00202C1A0020321E002085
:102AC0008C71000885010020301E0020C06F0008B6
:102AD000341C00203C7300084C730008C027090018
:102AE000D01D002064740008E4000020003800407D
:102AF000000C014000080140001001407074000803
:102B00002DE9FF4D8AB0DDE90C01CDE904010B98F8
:102B1000C0F30A5040F2FF7188420AD10020ADF89C
:102B200000000B98000305BF0A9800280225012524
:102B300016E0012809DA0AA8FEF7D5FA012804DB15
:102B40000020ADF8000000250AE00B9A40F2FE31AB
:102B500061F31E52401A0B92ADF800004FF0FF35A2
:102B6000002104A802F084F90646169810B11699BF
:102B70000020088036B9DDE90C230020002102F096
:102B8000B7F912D0002D12D5BDF90040012C13D198
:102B9000DDE90A230020CB4902F0AAF905D0012E75
:102BA0000AD1C94902F0A4F92ED1C849BCE1022DCD
:102BB00004D1DDE90A01B7E1012E5ADB022E08BF7C
:102BC000DDE90C0100F0B081012D1BD10B9800282C
:102BD0000D9802D4002849D533E0002809D4002EEE
:102BE00044D14FF0FF3104A802F042F900283DD54E
:102BF00039E036BB4FF0FF3104A802F039F9002864
:102C00001FD51AE0012E0AD10D98BDF90040002809
:102C100002D4012C2ADA14E0012C12DA26E00D98F5
:102C2000002811D46EB94FF0FF3104A802F020F94A
:102C3000002844BF0B98002803D500204FF0004126
:102C400072E1002000216FE102F062F922210160AF
:102C500066B94FF0FF3104A802F00AF9002844BF1A
:102C60000B98002802D5002099495DE10020994980
:102C70005AE10B98002848BF002E08D502F048F909
:102C8000212101604FF0FF306FF000414CE1DDE9A0
:102C90000A0100220023FEF75FFA38BFADF80420D6
:102CA0000AD381F00041CDE90A014FF0FF3104A8B9
:102CB00002F0DEF8ADF80400012C14D1DDE90A01C0
:102CC000854A864BFEF730FA0DD2DDE90A2300264D
:102CD0004FF000087D4F30464FF08041FEF7DEFB9D
:102CE000CDE90A011BE0DDE90A23764D7C4900208D
:102CF000FEF7D4FB00222B46FEF706FEFEF7CAFACB
:102D0000A0F120084046FEF7F1FA0022754BFEF7CD
:102D1000C5FB00222B46FEF7F7FD06460F460FF2D5
:102D2000202000EB481006903246DDE90A013B46C0
:102D3000FEF7F4FA82468B46DDE90A0132463B464D
:102D4000FEF7E2FD02460B4650465946FEF778FC78
:102D5000CDE90801DDE90823FEF7A0FBCDE90AABC8
:102D600004460D4602F0DAF822462B46FEF796FBA3
:102D7000DDE90A23FEF7D2FA04460D460020534946
:102D800032463B46FEF7CAFA00224FF08043FEF778
:102D900085FB22462B46FEF7B7FDDDE90823FEF74B
:102DA0007DFB02460B46DDE90A01FEF7ADFD044658
:102DB0000D464D4A4D4BFEF743FCCDE90401BDF9EC
:102DC0000000FEF793FA069A82468B46D2E900018C
:102DD00052465B46FEF798FDDDE90423FEF794FDBD
:102DE000CDE90401DDE90C23FEF758FBCDE9020132
:102DF00000223F4BFEF798F9C0F07E8001223D4B48
:102E0000FEF7AAF97CD900220023FEF78DF9DDE94F
:102E1000022339BF00202C4900202A49FEF774FD07
:102E2000FEF738FA0646DDE90C0122462B46FEF78E
:102E300035FBCDE90201069A2B4C2C4DD2E902015B
:102E40001746D7E90423FEF75FFDDDE90C23FEF703
:102E500025FB22462B46FEF721FBDDE90223FEF788
:102E600053FDCDE90201069F5246D7E900015B46BA
:102E7000FEF74AFDDDE90C23FEF710FB07468B4603
:102E80003046FEF733FA02460B4638465946FEF7FF
:102E900045FA22462B46FEF701FBDDE90223FEF749
:102EA00033FDCDE90201169808B106800026009690
:102EB0000022064B02A802F087F8E8B101281FD0D3
:102EC0002AE000BF0000E03F0000E0BF0000F03F4C
:102ED0000000F0FF0000F07FCD3B7F669EA0E63F44
:102EE000000050400000903FEF39FAFE422EE63FCE
:102EF0000000E0C00000E0400020CDE9020007E053
:102F00000020014902E000BF0000F07FCDE902018E
:102F100001F0FEFF22210160BDF904000028DDE977
:102F2000020118BF81F000410EB0BDE8F08D10B570
:102F300082B000240094FFF7E3FD1CBD00000000F8
:102F4000000000000000F0BF000000000000008052
:102F500000000000000000800000000000000000F1
:102F6000000000C05294EEBF00000048204E51BE49
:102F7000000000F86467BCBC000000000000000016
:102F8000000000208133EDBF00000080B3DB14BEE1
:102F9000000000506706A3BC000000000000000015
:102FA000000000D0E9DCEBBF00000008C39259BE6E
:102FB00000000080B0D3B8BC00000000000000009A
:102FC00000000070F98FEABF000000C0A51028BE05
:102FD000000000E8BFC0B0BC00000000000000001E
:102FE00000000070284CE9BF00000060134B42BE97
:102FF000000000C03D20B8BC000000000000000040
:1030000000000050FA10E8BF000000C05FF62BBEC1
:10301000000000905C71A7BC0000000000000000F0
:1030200000000020FCDDE6BF000000C0F8F154BE47
:1030300000000018E9F6B9BC000000000000000024
:10304000000000D0C3B2E5BF00000070E43254BEFF
:1030500000000050DB06B4BC0000000000000000CF
:1030600000000010EF8EE4BF00000020F36252BEAB
:10307000000000C02A879ABC000000000000000089
:10308000000000B02272E3BF000000F0E8E056BE8E
:1030900000000028352DBDBC00000000000000002D
:1030A000000000000A5CE2BF000000B0FA8E41BEE2
:1030B00000000040AE6FBDBC00000000000000003A
:1030C00000000000564CE1BF000000F015CD5FBECF
:1030D00000000000141C90BC000000000000000074
:1030E00000000040BD42E0BF00000030F93457BE90
:1030F000000000E06C1E93BC000000000000000017
:10310000000000E0F57DDEBF000000B08A535EBE27
:1031100000000080DA77AABC000000000000000078
:10312000000000C09D81DCBF00000000FFA226BEA1
:103130000000006057E2B0BC00000000000000008A
:1031400000000060F98FDABF000000580A8151BE0C
:10315000000000F05F60B8BC00000000000000004C
:103160000000000098A8D8BF000000607A7F45BE2C
:10317000000000D05433A3BC000000000000000099
:10318000000000600FCBD6BF000000D091CB40BE46
:10319000000000406D1BA0BC00000000000000000B
:1031A000000000A0FBF6D4BF00000098C5CE52BEC0
:1031B000000000003A397EBC000000000000000062
:1031C000000000E0FE2BD3BF0000004073872BBE41
:1031D00000000000926879BC0000000000000000C0
:1031E00000000040C069D1BF00000058F16353BE29
:1031F00000000080438D7CBC000000000000000047
:1032000000000080D85FCFBF000000181F8354BEAD
:10321000000000B03F42A2BC00000000000000001F
:103220000000008067FCCBBF00000060FAFF53BEC7
:1032300000000050E00DB8BC0000000000000000DD
:103240000000000098A8C8BF000000607A7F35BE6B
:10325000000000C0543393BC0000000000000000D8
:1032600000000000DC63C5BF00000058D6FF54BE5C
:1032700000000000396490BC000000000000000065
:10328000000000C0AD2DC2BF00000080A45915BED3
:10329000000000E0484BABBC000000000000000054
:1032A000000000801A0BBEBF00000050BF3C5ABE99
:1032B000000000A0B364B6BC0000000000000000E5
:1032C0000000008004D6B7BF00000040BBCF36BE70
:1032D0000000008076CEA8BC0000000000000000C6
:1032E0000000008032BBB1BF000000402A0043BE96
:1032F00000000028C60CBDBC00000000000000005B
:10330000000000009473A7BF000000182B3B59BEBB
:10331000000000C0E55DA5BC00000000000000004A
:1033200000000000EE4397BF000000A0E6C340BECF
:1033300000000020958DB5BC0000000000000000DA
:10334000000000000000008000000000000000807D
:1033500000000000000000800000000000000000ED
:1033600040F2FF7C1CEA115240F2FE33D21ACCBF6D
:10337000D2F1350316E0B2F1150309DA6FEA4C53C6
:10338000D340094201D4401E59410020994370475F
:103390006FF00002DA40094202D4801851F10001B6
:1033A00090437047352A09DA50EA41031CBF40F2C6
:1033B000FF31090528BF4FF0004100207047000091
:1033C00010B50400DFF8680404602000FDF798FFE2
:1033D0000022DFF86034FEF733F9FDF771FF0400D7
:1033E000200CDFF8541409688871200ADFF84814AB
:1033F0000968C871DFF84004006804720322DFF82E
:1034000038040068811D0620FFF7E5F910BD10B5EE
:103410000400DFF82404006810F109010920FFF717
:1034200026FADFF81404006810F14C014D20FFF774
:103430001EFADFF804040068407A000648D5DFF879
:10344000F803006890F84C0010F0870087281FD11F
:1034500064B2052C01DA0520040064B2152C01DBEE
:1034600014200400DFF8D0030068407A50F07000A8
:10347000DFF8C41309684872601FDFF8BC130968DD
:10348000497A60F30301DFF8B0030068417240E05D
:1034900064B2022C01DA0220040064B2122C01DBB7
:1034A00011200400DFF890030068407A50F07000AB
:1034B000DFF8841309684872A01EDFF87C130968DE
:1034C000497A60F30301DFF870030068417220E07D
:1034D00064B214F1010F02DA5FF0FF30040064B24D
:1034E0000F2C01DB0E200400DFF84C030068407A4B
:1034F00050F07000DFF8401309684872601CDFF874
:1035000038130968497A60F30301DFF82C03006877
:103510004172DFF824030068417A0920FFF79EF921
:10352000DFF80C03047110BD10B50400DFF80803C8
:10353000006810F11D011D20FFF799F9DFF8F8026E
:103540000068407F10F00F0050EA0410DFF8E81226
:1035500009684877DFF8E0020068417F1D20FFF727
:103560007DF9DFF8CC02447110BD10B50400E4B25F
:103570000D2C02DB0C20040004E0E4B2062C01DA7E
:1035800006200400E4B2062C03D1052000F034F933
:1035900002E0032000F030F9DFF89C02006810F12F
:1035A0001E011E20FFF763F9DFF88C020068807FA0
:1035B00010F00F0050EA0410DFF87C1209688877D9
:1035C000DFF874020068817F1E20FFF747F9DFF8FB
:1035D0006002847110BD10B50400DFF85C02006861
:1035E00010F11D011D20FFF742F9DFF84C020068C1
:1035F000407F10F0F10050EA4400DFF83C12096807
:103600004877DFF834020068417F1D20FFF726F974
:10361000DFF81C02C47110BD10B50400DFF81802F9
:10362000006810F11E011E20FFF721F9DFF80802E3
:103630000068807F10F0FB0050EA8400DFF8F8118A
:1036400009688877DFF8F0010068817F1E20FFF7A6
:1036500005F9DFF8DC01047210BD10B50400022288
:10366000DFF8D401006810F120012020FFF7D2F824
:10367000A4B2200ADFF8C011096881F82000DFF841
:10368000B801006880F821400222DFF8AC01006830
:1036900010F120012020FFF79EF810BD10B50400A6
:1036A000DFF89401006810F11D011D20FFF7DFF81D
:1036B000DFF884010068407F10F0FE0020435E497F
:1036C000096848775C480068417F1D20FFF7C6F80D
:1036D0005748447210BD10B504005748006880F880
:1036E00022405548006890F822102220FFF7B6F8D3
:1036F0004F48447510BD10B504004F48006810F1E4
:103700004C014D20FFF7B3F84B48006810F1090158
:103710000920FFF7ACF848480068407A000608D551
:10372000E4B2012C0AD187204349096881F84C0092
:1037300004E084204049096881F84C003E48006854
:1037400090F84C104D20FFF789F810BD10B504001B
:103750003948006810F109010920FFF788F8364858
:103760000068407A10F07F002043334909684872AE
:1037700031480068417A0920FFF770F810BD10B594
:10378000040002222C48006810F11E011E20FFF7E1
:1037900041F8A4B2200A28490968897F60F3010131
:1037A00025480068817724480068C47702222248AF
:1037B000006810F11E011E20FFF70DF810BD10B5B6
:1037C00004001D48006810F126012620FFF74FF87D
:1037D0001948006890F8260010F0F70050EAC4007D
:1037E0001549096881F826001348006890F82610EA
:1037F0002620FFF733F810BD10B504000E4800680E
:1038000010F130013120FFF732F80B48006890F8D2
:10381000300010F0F80020430749096881F83000B3
:103820000548006890F830103120FFF717F810BDF8
:10383000A800002080844E40201E002030B40300E9
:1038400018000C0015006A1EADB2002D04D02578BA
:103850000570641C401CF5E730BC704730B40B00A9
:10386000040015006A1E002D04D01D7825705B1C15
:10387000641CF6E730BC704770B504000D00B94811
:1038800000680600A64203D0002E01D03668F9E792
:10389000A6420DD0B34800682060B2480460012001
:1038A000A0730020A0812A008121200000F039F9B6
:1038B00070BDF8B504000D00AB480768A948006862
:1038C0000600A64203D0002E01D03668F9E7002E8C
:1038D0003AD0200000F05CF900281CD00020A07332
:1038E000A04800680600002E08D0B44204D0220090
:1038F0008721300000F029F83668F4E7A068002836
:1039000009D0AC4207D0984804600022832114F10A
:103910000C00A368984793480068844205D19148F9
:10392000006800688F4908600CE08E480068060057
:10393000002E07D03068A04202D12068306001E03C
:103940003668F5E788480760F1BDF8B504000D005A
:103950001600A07BC0071CD5A068002819D082489B
:1039600004600220A07332002900C9B214F10C00D7
:10397000A36898470700022F04D0032F02D0EDB2AE
:10398000832D04D121002000FFF793FF01E00120E7
:10399000A073F1BD8A207249087000207349087035
:1039A0007349087000206F4908606F4908607047CC
:1039B00010B500206F4908706A4800680400002CA8
:1039C0000DD0E07B002808D00120A0730020E07318
:1039D000002282212000FFF7B8FF2468EFE710BD26
:1039E00080B563480078002859D0604800780C21E1
:1039F000614A01FB00200078604908705B4800784C
:103A00000C215D4A01FB002040685D490860574871
:103A100000780C21584A01FB002080685949086051
:103A200052480078401C202190FBF1F202FB110269
:103A30004E4802704E480078401E4D49087051486B
:103A4000006800281BD1474800684F4908604E486D
:103A50000068002823D047480078002801D0FFF7ED
:103A6000A7FF474802684548017847480068FFF7C4
:103A70006CFF45480068006843490860E7E73F4835
:103A80000078812803D101203E49096888733C48A9
:103A900002683A4801783B480068FFF756FF01BDCD
:103AA00080B534480078002801D0FFF781FFFFF788
:103AB00097FF2F4800782F490978081802BD30B4C5
:103AC00003002B480078202801D1012027E0274857
:103AD0000078274C24782018C0B2202490FBF4F5FD
:103AE00005FB140529480570284800780C24224D50
:103AF00004FB00500170254800780C241E4D04FB87
:103B000000504260214800780C241B4D04FB0050FB
:103B1000836017480078401C154C2070002030BC92
:103B20007047F8B504000D0016000F480768320012
:103B30002900C9B22000FFF708FF0B480760F1BD5C
:103B400000280AD0817B012902D0817B022904D17F
:103B50000121C1730121074A117070470000000064
:103B6000361E0020081E00200C1E0020381E0020DB
:103B7000371E0020391E0020101600203A1E00209B
:103B8000101E0020141E0020181E00203B1E0020C6
:103B9000807B002801D0012000E00020C0B27047E7
:103BA00000212D4A11008279002A36D02A4A126853
:103BB00003689A43284B1A60284A126803689A439C
:103BC000264B1A60027951180A6803681A430A6082
:103BD000234A126803689A43214B1A60214A1268EB
:103BE00003689A431F4B1A604279102A0CD11C4A71
:103BF000126803681A431A4B1A601A4A126803685B
:103C00001A43184B1A600EE0134A110042795118FA
:103C10000A6803681A430A6005E0027951180A68C5
:103C200003689A430A6070470100002000220A4B93
:103C30001B680B401A000C4B1B680B4204D0002A77
:103C400002D00123180001E000231800C0B2704721
:103C50000549086070470000000401400404014069
:103C6000080401400C0401401404014070B5804870
:103C70000068002803D100207E4908601DE001F0A3
:103C80001DFB05007A480068060030687168081856
:103C9000401B0400B668002E0CD03068716808180C
:103CA000401BA04204D2306871680818401B040011
:103CB000B668F0E760196F49086070BD2DE9F04102
:103CC00004000D00160001212088002802D0592888
:103CD00006D05EE00020664908600021592020805F
:103CE000C9B2002901D1012058E0EDB2872D24D1BD
:103CF00030005F49096800290AD05D490968C96830
:103D0000814205D15A4909688968594A1160F0E72A
:103D10005749096800290FD0554909680F00B9684B
:103D2000002909D0B968C968814203D1B968896896
:103D3000B960F4E7BF68F2E7CFE7EDB2822DCCD1EE
:103D4000002080464A4800680700002FC5D0380090
:103D500001F0C8FA002819D03A008821F868FFF766
:103D6000AEFE002810D10020F860B8F1000F03D09B
:103D7000B868C8F8080002E0B8683D49086000204B
:103D8000B860FFF773FFDBE700F00AF8B846BF68DA
:103D9000DBE700200100002020800320BDE8F08147
:103DA00080B53548FFF7CCFE01BD38B50400FFF7FC
:103DB000F7FFE06800280ED02D4800680500002DB0
:103DC00009D0A54205D12D480068E060FFF74EFFFD
:103DD0000BE0AD68F3E729480068E060244800681C
:103DE000A06023480460FFF741FF31BD38B50400EF
:103DF0000D002900200001F06DFA2000FFF7D5FF2B
:103E000031BD1B480068002801D0012000E00020DF
:103E1000C0B2704780B5FFF7F4FF002802D0154804
:103E2000006800E0002002BD38B5040010480068BA
:103E3000844207D10E48006880680D490860FFF78A
:103E400015FF0FE00A4800680500002D04D0A8689F
:103E5000A04201D0AD68F8E7002D03D0A068A860AB
:103E6000FFF704FF0020A0600020E06031BD0000EB
:103E7000FC1D0020001E0020C40000200C1E00209D
:103E8000DFF814090068704770B5040000250026AB
:103E90000420050000200600F6B2EDB2AE4280F02C
:103EA0008680F6B254F836000078C0F3C200C0B283
:103EB00002285AD1FFF7E4FFF6B254F83610D1F8D1
:103EC0000110884271D3F6B254F83600007810F031
:103ED000C700F6B254F836100870F6B23000002869
:103EE00004D0022819D003282ED03DE0012000F094
:103EF000DCF8FFF7C5FF10F5C170DFF8A018C1F8B6
:103F00000100DFF89C0801F0FDF9020092B2DFF831
:103F10009018012000F056FA47E0002000F0C5F8A4
:103F2000FFF7AEFF10F5C170DFF87018C1F801009F
:103F3000DFF8700801F0E6F9020092B2DFF86418C9
:103F4000012000F03FFA30E0002000F083FD002067
:103F5000DFF854180880DFF85408007810F0C70024
:103F6000DFF84818087020E01FE0F6B254F8360079
:103F70000078C0F3C200C0B2032816D1F6B254F8DC
:103F80003600007810F0C700F6B254F8361008700A
:103F9000F6B23000012802D0032803D005E001F07A
:103FA000C1F902E000F0ADFAFFE7761C74E770BDDE
:103FB00080B500F021F8DFF8E407007810F0C700C2
:103FC000DFF8D8170870DFF8E807007810F0C700AE
:103FD000DFF8DC170870DFF8DC07007810F0C700A6
:103FE000DFF8D0170870DFF8C407007810F0C700BA
:103FF000DFF8B817087001BD80B500208DF800000B
:104000004FF47A61DFF8B00701F0FEFC40F2E241C4
:10401000DFF8A80701F0F8FC0020DFF8A41708700B
:104020000020DFF89C17487000AB1022FA21DFF85F
:10403000880701F04AFCDFF88C1708609DF8000043
:10404000002801D001F018FC9DF800000028EBD1F9
:1040500001BD80B5FFF7ACFF002000F026F801207D
:1040600000F023F801BD70B504000D001600012119
:104070002088002802D0CB280BD010E0DFF84807BA
:10408000FFF75EFDDFF84407FFF7FEFE0021CB20BF
:104090002080C9B2002901D1012005E0EEE700200F
:1040A000010000202080032070BD10B586B0040000
:1040B0000121E4B2DFF8180750F82400E4B2DFF879
:1040C000142752F82420104350F0010000F028FE7D
:1040D000E4B2002C08D10121E4B2DFF8FC0650F86C
:1040E000240000F02CFE07E00121E4B2DFF8E8062E
:1040F00050F8240000F023FE18208DF80300E4B2ED
:10410000DFF8D80630F81400ADF8000003208DF871
:10411000020000A9E4B2DFF8C80650F8240000F05D
:104120008BFB48208DF80300E4B2DFF8B80630F8C6
:104130001400ADF8000000A9E4B2DFF8AC0650F8B6
:10414000240000F079FBE4B2DFF8A00650F8240068
:1041500001904FF48050ADF808000020ADF80A003F
:104160004FF48060ADF80C000020ADF810000C207A
:10417000ADF80E0001A9E4B2DFF8740650F824008F
:1041800001F04CFC0121E4B2DFF8640650F8240091
:1041900001F0B6FC0121E4B2DFF8580650F8240023
:1041A00000F0AFFD2021E4B2DFF8440650F824000F
:1041B00001F0EEFC012240F22551E4B2DFF83006B6
:1041C00050F8240001F0AAFC01228021E4B2DFF8BB
:1041D000200650F8240001F0CCFC06B010BD0EB44F
:1041E0002DE9F04FBAB00400002600275FF0000868
:1041F0005FF000090DF11C0A00208DF800005FF04F
:10420000000B43A805002B002200C82107A801F0DD
:10421000FDFC06003700B6B2002E00F0CC80B6B22E
:10422000C92E80F0C880B6B20C20B6FBF0F100FBBE
:104230001160002806D0B6B20C20B6FBF0F0401C8E
:10424000804604E0B6B20C20B6FBF0F080460020B9
:104250008146FFF715FE83465FFA89F95FFA88F811
:10426000C14578D2FFF70CFEB0EB0B00652872D287
:1042700001F0F6FC01A9DFF84C05006801F0AAFB8B
:104280008DF800009DF800000028E5D10598002871
:10429000E2D000A9DFF82C05006801F061FB001DE9
:1042A000DFF81C1509780522DFF8143502FB01310F
:1042B000C1F802009DF800000028CDD1B6B20D2E45
:1042C0001BD30C225146DFF8F80400780523DFF8F1
:1042D000F0C403FB00C0D0F80200FFF7AFFA0C20D7
:1042E000DFF8DC1409780522DFF8D43402FB013151
:1042F00088710C3E1AF10C0A17E0320092B2514656
:10430000DFF8BC0400780523DFF8B4C403FB00C069
:10431000D0F80200FFF792FADFF8A4040078052134
:10432000DFF89C2401FB00208671FFF7A9FD83467E
:1043300019F10109DFF888040078401CDFF88014C7
:104340000870DFF87C040078FA2885DB0020DFF8AD
:104350007014087080E7DFF844040078C0F3C200EE
:10436000C0B2022827D00220DFF83014097860F3A9
:10437000C501DFF828040170FFF782FD10F5C17058
:10438000DFF81814C1F80100DFF834044078052183
:10439000DFF82C2401FB0020827992B2DFF82004A0
:1043A00040780521DFF8183401FB0030D0F8021006
:1043B000012000F007F8BFB238003AB0BDE8F00FB6
:1043C0005DF810FBF0B58BB004000D001600B6B21E
:1043D000002E00F08780E4B2DFF81C0430F81400EF
:1043E000B6B2B04205D2E4B2DFF80C0430F81400E3
:1043F0000600E4B2DFF8040450F8240001F040FCA9
:10440000E4B2DFF8FC0350F824000090019510207E
:104410000290B6B203960020049080200590002000
:10442000069000200790002008904FF480500990DB
:1044300000200A9000A9E4B2DFF8C00350F824007D
:1044400001F0A3FC01220A21E4B2DFF8B00350F826
:10445000240001F0C7FC0121E4B2DFF8A00350F80A
:10446000240001F0B1FCE4B2002C1FD10220DFF8DF
:104470004413097860F3C501DFF838030170FFF7D2
:10448000FFFC0700B6B23000FCF73AFF5FF0553290
:10449000DFF87033FDF702F8FCF7FCFE80B2C019BC
:1044A0006430DFF81013C1F801001BE00220BB49A3
:1044B000097860F3C501B9480170FFF7E1FC070016
:1044C000B6B23000FCF71CFFDFF83C23DFF83C33CA
:1044D000FCF7E4FFFCF7DEFE80B2C0196430AF49A0
:1044E000C1F801000BB0F0BD020000200B00591E06
:1044F0009BB2002B03D013781818521CF6E7C0B2F9
:10450000704700B583B001F0C4FC010000A801F0C1
:104510004BFD9DF805309DF804209DF80310BC4824
:10452000FFF75DFEBB48FFF75AFE07BD80B5BA48EE
:1045300001F063FC00280BD0B74801F073FC9D48E4
:10454000007810F0C7009B490870012000F082FA43
:10455000B24801F052FC002802D0B04801F062FCE1
:1045600001BD80B540F22551AD4801F017FB002890
:1045700072D08D480088FF2802DD00208A4908801B
:10458000A74801F001FB88490988A64A88540220FF
:104590008649097860F3C50184480170FFF770FC13
:1045A000C8308249C1F80100002000F049FA7E4875
:1045B0000088002802D0032810D01FE07A48008825
:1045C0009849405C682803D000207749088004E0BF
:1045D00075480088401C744908803DE09148407847
:1045E000904989784FF4807202FB01006E4948803F
:1045F0006D480088401C6C4908802DE06A4800889E
:10460000401C694908806848008867494988884291
:1046100022D1654800888349401810F8010C1628FB
:1046200017D161484088411F89B27F48FFF75CFF7E
:104630005D4909887B4A891811F8021CC0B2814281
:1046400007D103205949097860F3C5015748017023
:1046500002E000205449088001BD10B500245FF03D
:10466000007001F0CAFB00284DD05FF0007001F02F
:10467000D9FB4A48007810F0C700484908705048F4
:10468000407805214E4A01FB0020D0F80200011FAE
:104690004C48006801F083F90400E4B2002C32D1E8
:1046A00047484078401C4649487045484078FA28B9
:1046B00002DB00204249487041484078404909786F
:1046C000884220D002203549097860F3C50133487B
:1046D0000170FFF7D5FB10F5C1703049C1F801003A
:1046E000374840780521364A01FB0020827992B292
:1046F000334840780521324B01FB0030D0F80210DE
:104700000120FFF75FFE5FF0006001F076FB0028FC
:1047100003D05FF0006001F085FB10BD80B540F272
:104720002551424801F03AFA002833D03F4801F0C1
:104730002BFA3F4909881E2902DB00213C4A1180DF
:10474000C0B2082809D13A490988002922D038493D
:104750000988491E364A11801CE035490988354AC6
:10476000885433490988491C314A1180C0B20D2848
:1047700002D0C0B20A280DD103210D4A127861F38C
:10478000C5020B490A702A490988294A518000212B
:10479000274A118001BD00001C1E0020540100208A
:1047A000A4710008BC710008281E00206C010020C4
:1047B0005C010020640100206C0600208A010020BA
:1047C000880100200C160020040100208800002031
:1047D000F874000800750008F0740008907500086F
:1047E0003C0100209475000844010020E874000892
:1047F0003401002008750008987500084C0100205D
:10480000107500085555F23F1CC7711CC771B83FA1
:1048100088720008107100080000021000000810E3
:10482000004C0040341B0020371B00200044004097
:104830002C1E0020A01D0020F0B500270022002320
:1048400000240025002691F803C01CF00F0C6746D9
:1048500091F803C05FEACC6C03D591F802C05CEA22
:10486000070791F800C05FEA0C6C3AD0D0F800C09E
:1048700065465FF0000C6346082B31D25FF0010CF7
:104880001CFA03FC6446B1F800C014EA0C0C624642
:10489000A24223D15FEA830C64465FF00F0C1CFA3E
:1048A00004FC6646B54317FA04FC5CEA050591F87A
:1048B00003C0BCF1280F06D15FF0010C1CFA03FC09
:1048C000C0F814C00AE091F803C0BCF1480F05D14C
:1048D0005FF0010C1CFA03FCC0F810C05B1CCBE7B6
:1048E0000560B1F800C0BCF1FF0F3FDDD0F804C097
:1048F00065465FF0000C6346082B36D25FF0010C72
:1049000013F1080E1CFA0EFC6446B1F800C014EA5C
:104910000C0C6246A24226D15FEA830C64465FF02B
:104920000F0C1CFA04FC6646B54317FA04FC5CEA5B
:10493000050591F803C0BCF1280F07D15FF0010C09
:1049400013F1080E1CFA0EFCC0F814C091F803C055
:10495000BCF1480F07D15FF0010C13F1080E1CFAEF
:104960000EFCC0F810C05B1CC6E74560F0BD02003D
:104970000020936889B20B4202D00123180001E0A5
:1049800000231800C0B2704789B20161704789B234
:1049900041617047D2B2002A02D089B2016101E0C0
:1049A00089B24161704730B400220F2311F0030433
:1049B000E4B2A400A3401A00C9B28B100E4C54F804
:1049C00023309343C9B28C100B4D45F82430C9B243
:1049D0008B10094C54F82330C0B211F00304E4B238
:1049E000A40010FA04F42343C9B28C10024D45F818
:1049F000243030BC704700000800014010B582B080
:104A000004000121E4B2184850F8240000F088F9AD
:104A1000E4B2164830F81400ADF8000010208DF80C
:104A2000030002208DF8020000A9E4B2104850F8FB
:104A30002400FFF701FF2000C0B200F001F813BD11
:104A4000C0B20A4931F81010C0B2094A52F8202009
:104A500051617047C0B2054931F81010C0B2044A24
:104A600052F8202011617047200100202C01002005
:104A70001401002001480068704700001C1E00203F
:104A800038B504000025FFF7F5FF0500FFF7F2FF3A
:104A9000401BA4B2A04202D201F0E2F8F6E731BD19
:104AA00010B50400244884420AD101214FF48050FB
:104AB00000F054F900214FF4805000F04FF91AE053
:104AC0001E4884420AD101214FF4804000F055F97C
:104AD00000214FF4804000F050F90CE01848844267
:104AE00009D101214FF4004000F047F900214FF4B3
:104AF000004000F042F910BD10B4002203881A00F3
:104B000012F441520B884C8823438C882343CC8871
:104B100023430C8923434C8923438C892343CC8929
:104B200023431A430280838B4FF2FF742340838315
:104B30000B8A038210BC70470030014000380040EF
:104B4000003C0040C9B2002904D0028852F0400263
:104B5000028004E002884FF6BF731A40028070475B
:104B600081817047808970470200002013890B42C1
:104B700002D00123180001E000231800C0B27047E2
:104B8000DFF8A012096831F48031DFF89822116053
:104B9000DFF89012096831F48021DFF88822116073
:104BA0000100B1F5803F03D0B1F5802F09D011E0AD
:104BB000DFF87012096851F48031DFF86822116063
:104BC00008E0DFF86012096851F4A021DFF85422F0
:104BD0001160FFE77047C0B2DFF8541208607047F9
:104BE0000021914A126811008908890001438E4A08
:104BF00011607047C9B2002905D08E4A127802436D
:104C00008C4B1A7004E08B4A12788243894B1A70DD
:104C10007047894909680143874A11607047C0B2EB
:104C200086490860704730B4002100220023002428
:104C30007D4D2D6815F00C0529000D00002D04D0C8
:104C4000042D05D0082D06D026E07D4D056025E019
:104C50007B4D056022E0744D2D6815F470152A0017
:104C6000714D2D6815F480352B00920C921C002B91
:104C700004D1744D05FB02F505600CE06A4D2D680A
:104C8000AD0304D56F4D05FB02F5056003E06C4DE7
:104C900005FB02F5056001E0694D0560624D2D6878
:104CA00015F0F00529000909674D4D5D2C000568D8
:104CB000E54045605C4D2D6815F4E0652900090A62
:104CC000614D4D5D2C004568E5408560564D2D6871
:104CD00015F460552900C90A5B4D4D5D2C004568EF
:104CE000E540C560504D2D6815F440452900890BFD
:104CF000564D4D5D2C00C568B5FBF4F5056130BC23
:104D00007047C9B2002905D0514A12680243504B7E
:104D10001A6004E04E4A126882434D4B1A60704795
:104D2000C9B2002905D04B4A12680243494B1A60A8
:104D300004E0484A12688243464B1A607047C9B281
:104D4000002905D0444A12680243434B1A6004E02C
:104D5000414A12688243404B1A607047C9B2002929
:104D600005D03E4A126802433C4B1A6004E03B4ABD
:104D700012688243394B1A607047C9B2002905D0C6
:104D8000374A12680243364B1A6004E0344A12680C
:104D90008243334B1A607047C0B232490860704793
:104DA00010B40100002200230020C9B24C09E4B273
:104DB0002200012A03D11B4C2468230008E0022AA8
:104DC00003D11D4C2468230002E0274C24682300F3
:104DD000C9B211F01F04220033FA02F4E40702D52D
:104DE0000124200001E000242000C0B210BC704764
:104DF0001D48006850F080701B4908607047010032
:104E000000200A4A1268C9B20A4202D001221000E8
:104E100001E000221000C0B27047144908707047CA
:104E20000000000000100240041002400810024080
:104E30006000424209100240201002403C044242FD
:104E400000127A0000093D00F400002078010020E3
:104E500014100240181002401C1002400C100240B6
:104E6000101002404C004242241002400A1002403E
:104E70004268C2F30A5240F2FF739A4209D1416874
:104E8000090304BF0068002801D1012070470220F7
:104E9000704743685B0004BF0368002B25D040F2D5
:104EA00033439A1A521A012A1FDB352A06DB41685E
:104EB00001F0004141600021016013E0012102F096
:104EC0001F039940491E920607D5426811404A4087
:104ED000426002681143002202E0026811404A4029
:104EE000026011B14FF0FF307047002070470000A2
:104EF00090420CD141EA030C50EA4C0C07D0994285
:104F000005D14FF4001C1CEB410F38BF894270479C
:104F10000148FCF76DBD00008001002038B5044653
:104F20000D461B481B4922462B46FCF7B7FA1A4A86
:104F30001A4BFCF7E9FC22462B46FCF7AFFA184A5D
:104F4000184BFCF7E1FC22462B46FCF7A7FA164A61
:104F5000164BFCF7D9FC22462B46FCF79FFA144A65
:104F6000144BFCF7D1FC22462B46FCF797FA124A69
:104F7000124BFCF7C9FC22462B46FCF78FFA01B016
:104F8000BDE830400E4A0F4BFCF7BEBC00000000ED
:104F9000F7DE29BFD8F8C23FF4B3FECC1A99C33F5D
:104FA00062CB68D96F46C73FC6C912DAC471CC3F1D
:104FB0004AE98A942449D23FF75F97999999D93F52
:104FC000BC5555555555E53F2DE9F04D804684B00B
:104FD000D8E9000114461D4601F0F6F807462046C0
:104FE000294601F0F1F80C9E390006D500284AD474
:104FF000022805D1C8E9004535E1022FF8D121E0AA
:1050000050B9D8E900010022514BFFF771FF0FD0D2
:10501000C8E90045002026E1012815D1D8E90001A2
:1050200000224C4BFFF764FF18BFC8E900454FD181
:10503000FFF76EFF212101604FF0FF306FF000415C
:10504000C8E9000102200EE17FB9C8E900453146F8
:105050004046FCF799F8040018BF012C40F002818B
:10506000FFF756FF22210160FCE0D8E90001002291
:10507000374BFFF73DFF0FD120462946FCF70EFACC
:10508000C8E9000124E0D8E90001CDE902010022CD
:10509000314BFCF749F80AD2002320462946FCF799
:1050A000FDF9C8E9000104B00020BDE8F08D01223F
:1050B0002A4BFCF751F80DD80022254B20462946F3
:1050C000FCF7ECF9C8E90001FFF722FF222101609B
:1050D0000120C8E0224A234BFCF7E0F9002200231C
:1050E000FCF722F834BF204B464BFCF70DFCFCF7D5
:1050F000D1F80746FCF7FAF882468B464FF0784223
:105100001A4BFCF7CBF902460B46DDE90201FCF72E
:1051100005F9CDE90001164A164B50465946FCF7F1
:10512000BDF902460B46DDE90001FCF7F7F86FF028
:105130000102114BFCF710F882468B4620D8002262
:105140000E4BFBF7F1FF1BD2204629467CE000BF47
:105150000000F07F0000F0FF00C89CC000C89C4029
:10516000FE822B654715F73F0000E0BF422EE63F69
:10517000F2E4D5BCE7E84B3EFFFF8FBC0000903C5B
:1051800052465B46FCF78AF9CDE90001DDE90023D0
:105190001D481E49FCF782F91D4A1E4BFCF7B4FB63
:1051A000DDE90023FCF77AF9CDE90201DDE900230E
:1051B00019481A49FCF772F9194A1A4BFCF7A4FB73
:1051C000DDE90023FCF76AF90E4B0022FCF79CFB9B
:1051D00052465B46FCF762F9DDE9022382468B46C4
:1051E000FCF792FB0022104BFCF78EFBCDE900018F
:1051F0005246DDE902015B46FCF790F800220A4BBB
:1052000014E000BF0000E03F112E5781A03F503F47
:105210005843128C8F71BC3F4BE8A541B752013FF8
:105220000BBDF3DAE8708C3F0000F03FFCF76CFB3D
:1052300002460B46DDE90001FCF702FA02460B4686
:1052400020462946FCF72AF9C8E90001F119404631
:10525000FBF79AFF040018BF012C03D1FFF758FE9B
:1052600022210160204604B0BDE8F08D10B515483C
:105270000068401C1349086013480068401C12492C
:105280000860FEF7BEFD002807D00F480468FEF74F
:10529000C1FD844201D3FEF783FD0C480068401E27
:1052A0000A490860002808D109480068401C0849DC
:1052B00008604FF47A700549086010BD0248006824
:1052C000704700001C1E0020F41D00207401002007
:1052D000F81D002038B504000D006560FFF7EEFFF3
:1052E000206031BD10B50400FFF7E8FF2168401AC7
:1052F000401C6168814201D2012000E00020C0B260
:1053000010BD00000100002210000A00511C12789C
:10531000002A01D0401CF8E780B27047DFF8200572
:105320000068704780B5DFF81C054088002805D06C
:1053300000F012F8B1A0FEF752FF03E0DFF8080515
:10534000FEF74DFF1E21DFF8040500F05DFB002095
:10535000DFF8F014488001BD2DE9F04383B000244C
:10536000002500265FF001085FF00009DFF8E00487
:1053700000785FFA89F9814569D25FFA89F90C20D2
:10538000DFF8D01400FB09100068070000200500BA
:105390005FFA89F90C20DFF8BC1400FB09100068E3
:1053A00000780600F6B2002E0CD06D1CEDB25FFA4C
:1053B00089F90C20DFF89C1400FB09100068285CB8
:1053C0000600EFE7012080460020C0B2EDB2A842FF
:1053D0000CD2C0B2C15DC0B2DFF87024825C9142D1
:1053E00002D00020804601E0401CEEE7EDB2002D27
:1053F00001D1002080465FFA88F8B8F1000F23D071
:10540000FFF78CFF04005FFA89F90C20DFF84414E1
:1054100000FB09104068804700F03BFD010000A838
:1054200000F0C2FD9DF805309DF804209DF80310A2
:10543000DFF82404FEF7D3FEFFF770FF011BDFF84F
:105440001C04FEF7CCFE02E019F101098EE75FFAB9
:1054500088F8B8F1000F21D1DFF8F00300780D28AB
:1054600019D0DFF8E80300780A2814D000F011FD05
:10547000010000A800F098FD9DF805309DF804207B
:105480009DF80310DFF8D003FEF7A9FEDFF8D00384
:10549000FEF7A5FE02E05AA0FEF7A1FEBDE8F783E5
:1054A0000100C9B2302906DBC9B23A2903DAB1F1E9
:1054B0003000C0B214E0C9B2612906DBC9B2672965
:1054C00003DAB1F15700C0B20AE0C9B2412906DBE4
:1054D000C9B2472903DAB1F13700C0B200E00020B9
:1054E00070472DE9F04704000D0000260027DFF883
:1054F00054034088BFB287427CD2BFB2DFF84C036E
:10550000385C202874D1761CF6B2EDB2AE426FD171
:10551000BFB2DFF838033818807820280DD0BFB22A
:10552000DFF82803381880780D2806D0BFB2DFF8DE
:105530001C03381880780A2808D1BFB2DFF80C03A2
:1055400038184078FFF7ACFF207050E0BFB2DFF8AA
:10555000FC023818C07820280DD0BFB2DFF8EC026A
:105560003818C0780D2806D0BFB2DFF8E00238182E
:10557000C0780A2817D1BFB2DFF8D00238184078B7
:10558000FFF78EFF81460A2000FB09F9BFB2DFF862
:10559000BC0238188078FFF783FF804619EB0808B3
:1055A00084F8008023E0BFB2DFF8A002381840780A
:1055B000FFF776FF8046642000FB08F8BFB2DFF8F3
:1055C0008C0238188078FFF76BFF81460A2000FBB9
:1055D00009F9BFB2DFF874023818C078FFF760FF2E
:1055E000824619EB080010EB0A0A84F800A003E0D9
:1055F0007F1C7CE700202070BDE8F087433E000060
:105600000D0A000070477047704770477047704739
:1056100070477047704770477047704770477047D2
:10562000704770477047704700B585B00A208DF805
:105630000A0001208DF8090001208DF808000020E3
:105640008DF80D0000208DF80C0000208DF80B0067
:1056500001210DF10A00FFF744FF02210DF10900BD
:10566000FFF73FFF032102A8FFF73BFF04210DF1E5
:105670000D00FFF736FF052103A8FFF732FF0621D3
:105680000DF10B00FFF72DFF9DF80A00002803D055
:105690009DF80A00642802DB0A208DF80A009DF8B4
:1056A0000900002803D09DF809000D2802DB012025
:1056B0008DF809009DF80800002803D09DF8080027
:1056C000202802DB01208DF808009DF80D00182825
:1056D00002DB00208DF80D009DF80C003C2802DB59
:1056E00000208DF80C009DF80B003C2802DB002008
:1056F0008DF80B009DF80B0001909DF80C000090B8
:105700009DF80D309DF808209DF809109DF80A00BD
:1057100000F0C8FC05B000BD80B500F028FD01BD5B
:1057200070477047704770477047704700B583B047
:105730000C2000F071FD4B49088000F0AAFB01002D
:1057400000A800F031FC9DF805309DF804209DF87C
:1057500003104148FEF743FD424801884248FEF7E6
:105760003EFD07BD1CB50020040039480078E4B2B6
:1057700084421FD200F08DFB010000A800F014FC51
:105780009DF805309DF804209DF803103248FEF77F
:1057900026FDE4B20C202F4900FB04108268E4B21D
:1057A0000C202C4900FB041001683048FEF717FD5F
:1057B000641CDAE713BD10B582B000208DF801003B
:1057C00000208DF8000001210DF10100FFF789FE96
:1057D000022100A8FFF785FE9DF801409DF800001A
:1057E000E4B2A0421AD3E4B20A2094FBF0F100FB29
:1057F0001140002805D1E4B2002C02D00FA0FEF722
:10580000EEFC0DF102012000C0B2FDF730F89DF86A
:1058100002101748FEF7E3FC641CDFE707A0FEF761
:10582000DEFC13BD80B5012100A8FFF75AFE9DF8EC
:1058300000101048FCF71EFC01BD00000D0A00001E
:105840001C1E00202C1E0020D8700008A01D002067
:1058500084010020B0650008E87100080C7300089E
:10586000FC710008341E0020747100081C730008CD
:10587000E0740008341C002080B500F001F801BD80
:1058800038B56421344800F0BFF800200500ADB2FF
:10589000042D0ED2ADB214202F4900FB05100400D8
:1058A000ADB214202C4900FB0510143060606D1C53
:1058B000EDE7ADB21420284900FB051004000020DC
:1058C000606025482549086031BD2DE9F04F83B05F
:1058D00004000D0016001F005FF0000A00F0ACFC91
:1058E00082461E48006880461C480068002804D094
:1058F0001A480068406819490860504600F0A0FC4A
:10590000B8F1000F03D15A203870002022E0009433
:10591000A346681E0190002081460198814509D266
:1059200016EB0B0B0098C0F800B0CDF800B019F1E1
:105930000109F2E7002000990860C8F80040C8F8A3
:105940000440C8F81050C8F80C50C8F8086000208F
:1059500038704046BDE8FE8F3C1D0020041E00202C
:10596000F8B504000D00002700F066FC0700206970
:1059700000280DD060680600306860602069401E15
:105980002061380000F05CFC00202870300005E049
:10599000380000F055FC5D2028700020F2BD70B585
:1059A00004000D00002600F047FC06002069E168B5
:1059B000884204D3300000F043FC5E2009E06068B8
:1059C000286065602069401C2061300000F038FCD0
:1059D000002070BD70B504000D00002600F02CFC06
:1059E00006002068286060686860A068A860E068B9
:1059F000E86020692861300000F022FCE86829692D
:105A0000401A6861002070BD89B2002904D00022CC
:105A10000270401C491EF7E7704700002DE9F0476F
:105A200086B004000D00002600275FF000085FF03C
:105A300000095FF0000AA8890028A246208A060013
:105A40004CF6FF700640E88806432682A0890600CF
:105A50004EF6F3100640A88829890843698908434F
:105A60000643A681A08A06004FF6FF400640A8899B
:105A70000643A68200A8FFF7D6F82048824502D147
:105A80000398070001E002980700A089000408D5E8
:105A9000192000FB07F029684900B0FBF1F08046AF
:105AA00007E0192000FB07F029688900B0FBF1F03E
:105AB00080466420B8FBF0F0000106003009642144
:105AC00001FB10808146A089000409D55FEAC90066
:105AD00032306421B0FBF1F010F00700064308E01B
